{
  "_format": "hh-sol-artifact-1",
  "contractName": "NFT",
  "sourceName": "contracts/NFT.sol",
  "abi": [
    {
      "inputs": [],
      "stateMutability": "nonpayable",
      "type": "constructor"
    },
    {
      "inputs": [
        {
          "internalType": "address",
          "name": "sender",
          "type": "address"
        },
        {
          "internalType": "uint256",
          "name": "tokenId",
          "type": "uint256"
        },
        {
          "internalType": "address",
          "name": "owner",
          "type": "address"
        }
      ],
      "name": "ERC721IncorrectOwner",
      "type": "error"
    },
    {
      "inputs": [
        {
          "internalType": "address",
          "name": "operator",
          "type": "address"
        },
        {
          "internalType": "uint256",
          "name": "tokenId",
          "type": "uint256"
        }
      ],
      "name": "ERC721InsufficientApproval",
      "type": "error"
    },
    {
      "inputs": [
        {
          "internalType": "address",
          "name": "approver",
          "type": "address"
        }
      ],
      "name": "ERC721InvalidApprover",
      "type": "error"
    },
    {
      "inputs": [
        {
          "internalType": "address",
          "name": "operator",
          "type": "address"
        }
      ],
      "name": "ERC721InvalidOperator",
      "type": "error"
    },
    {
      "inputs": [
        {
          "internalType": "address",
          "name": "owner",
          "type": "address"
        }
      ],
      "name": "ERC721InvalidOwner",
      "type": "error"
    },
    {
      "inputs": [
        {
          "internalType": "address",
          "name": "receiver",
          "type": "address"
        }
      ],
      "name": "ERC721InvalidReceiver",
      "type": "error"
    },
    {
      "inputs": [
        {
          "internalType": "address",
          "name": "sender",
          "type": "address"
        }
      ],
      "name": "ERC721InvalidSender",
      "type": "error"
    },
    {
      "inputs": [
        {
          "internalType": "uint256",
          "name": "tokenId",
          "type": "uint256"
        }
      ],
      "name": "ERC721NonexistentToken",
      "type": "error"
    },
    {
      "inputs": [
        {
          "internalType": "address",
          "name": "owner",
          "type": "address"
        }
      ],
      "name": "OwnableInvalidOwner",
      "type": "error"
    },
    {
      "inputs": [
        {
          "internalType": "address",
          "name": "account",
          "type": "address"
        }
      ],
      "name": "OwnableUnauthorizedAccount",
      "type": "error"
    },
    {
      "anonymous": false,
      "inputs": [
        {
          "indexed": true,
          "internalType": "address",
          "name": "owner",
          "type": "address"
        },
        {
          "indexed": true,
          "internalType": "address",
          "name": "approved",
          "type": "address"
        },
        {
          "indexed": true,
          "internalType": "uint256",
          "name": "tokenId",
          "type": "uint256"
        }
      ],
      "name": "Approval",
      "type": "event"
    },
    {
      "anonymous": false,
      "inputs": [
        {
          "indexed": true,
          "internalType": "address",
          "name": "owner",
          "type": "address"
        },
        {
          "indexed": true,
          "internalType": "address",
          "name": "operator",
          "type": "address"
        },
        {
          "indexed": false,
          "internalType": "bool",
          "name": "approved",
          "type": "bool"
        }
      ],
      "name": "ApprovalForAll",
      "type": "event"
    },
    {
      "anonymous": false,
      "inputs": [
        {
          "indexed": false,
          "internalType": "uint256",
          "name": "_fromTokenId",
          "type": "uint256"
        },
        {
          "indexed": false,
          "internalType": "uint256",
          "name": "_toTokenId",
          "type": "uint256"
        }
      ],
      "name": "BatchMetadataUpdate",
      "type": "event"
    },
    {
      "anonymous": false,
      "inputs": [
        {
          "indexed": false,
          "internalType": "uint256",
          "name": "_tokenId",
          "type": "uint256"
        }
      ],
      "name": "MetadataUpdate",
      "type": "event"
    },
    {
      "anonymous": false,
      "inputs": [
        {
          "indexed": true,
          "internalType": "address",
          "name": "creator",
          "type": "address"
        },
        {
          "indexed": true,
          "internalType": "uint256",
          "name": "tokenId",
          "type": "uint256"
        },
        {
          "indexed": false,
          "internalType": "string",
          "name": "tokenURI",
          "type": "string"
        }
      ],
      "name": "NFTMinted",
      "type": "event"
    },
    {
      "anonymous": false,
      "inputs": [
        {
          "indexed": true,
          "internalType": "uint256",
          "name": "tokenId",
          "type": "uint256"
        },
        {
          "indexed": false,
          "internalType": "uint256",
          "name": "newRoyalty",
          "type": "uint256"
        }
      ],
      "name": "NFTRoyaltyUpdated",
      "type": "event"
    },
    {
      "anonymous": false,
      "inputs": [
        {
          "indexed": true,
          "internalType": "address",
          "name": "previousOwner",
          "type": "address"
        },
        {
          "indexed": true,
          "internalType": "address",
          "name": "newOwner",
          "type": "address"
        }
      ],
      "name": "OwnershipTransferred",
      "type": "event"
    },
    {
      "anonymous": false,
      "inputs": [
        {
          "indexed": true,
          "internalType": "address",
          "name": "from",
          "type": "address"
        },
        {
          "indexed": true,
          "internalType": "address",
          "name": "to",
          "type": "address"
        },
        {
          "indexed": true,
          "internalType": "uint256",
          "name": "tokenId",
          "type": "uint256"
        }
      ],
      "name": "Transfer",
      "type": "event"
    },
    {
      "inputs": [
        {
          "internalType": "address",
          "name": "to",
          "type": "address"
        },
        {
          "internalType": "uint256",
          "name": "tokenId",
          "type": "uint256"
        }
      ],
      "name": "approve",
      "outputs": [],
      "stateMutability": "nonpayable",
      "type": "function"
    },
    {
      "inputs": [
        {
          "internalType": "address",
          "name": "owner",
          "type": "address"
        }
      ],
      "name": "balanceOf",
      "outputs": [
        {
          "internalType": "uint256",
          "name": "",
          "type": "uint256"
        }
      ],
      "stateMutability": "view",
      "type": "function"
    },
    {
      "inputs": [
        {
          "internalType": "uint256",
          "name": "tokenId",
          "type": "uint256"
        }
      ],
      "name": "getApproved",
      "outputs": [
        {
          "internalType": "address",
          "name": "",
          "type": "address"
        }
      ],
      "stateMutability": "view",
      "type": "function"
    },
    {
      "inputs": [
        {
          "internalType": "uint256",
          "name": "tokenId",
          "type": "uint256"
        }
      ],
      "name": "getCreatorOfToken",
      "outputs": [
        {
          "internalType": "address",
          "name": "",
          "type": "address"
        }
      ],
      "stateMutability": "view",
      "type": "function"
    },
    {
      "inputs": [
        {
          "internalType": "uint256",
          "name": "tokenId",
          "type": "uint256"
        }
      ],
      "name": "getRoyaltyOfToken",
      "outputs": [
        {
          "internalType": "uint256",
          "name": "",
          "type": "uint256"
        }
      ],
      "stateMutability": "view",
      "type": "function"
    },
    {
      "inputs": [
        {
          "internalType": "address",
          "name": "creator",
          "type": "address"
        }
      ],
      "name": "getTokensByCreator",
      "outputs": [
        {
          "internalType": "uint256[]",
          "name": "",
          "type": "uint256[]"
        }
      ],
      "stateMutability": "view",
      "type": "function"
    },
    {
      "inputs": [
        {
          "internalType": "address",
          "name": "owner",
          "type": "address"
        }
      ],
      "name": "getTokensByOwner",
      "outputs": [
        {
          "internalType": "uint256[]",
          "name": "",
          "type": "uint256[]"
        }
      ],
      "stateMutability": "view",
      "type": "function"
    },
    {
      "inputs": [
        {
          "internalType": "address",
          "name": "owner",
          "type": "address"
        },
        {
          "internalType": "address",
          "name": "operator",
          "type": "address"
        }
      ],
      "name": "isApprovedForAll",
      "outputs": [
        {
          "internalType": "bool",
          "name": "",
          "type": "bool"
        }
      ],
      "stateMutability": "view",
      "type": "function"
    },
    {
      "inputs": [
        {
          "internalType": "string",
          "name": "tokenURI",
          "type": "string"
        },
        {
          "internalType": "uint256",
          "name": "royaltyFee",
          "type": "uint256"
        }
      ],
      "name": "mint",
      "outputs": [
        {
          "internalType": "uint256",
          "name": "",
          "type": "uint256"
        }
      ],
      "stateMutability": "nonpayable",
      "type": "function"
    },
    {
      "inputs": [],
      "name": "name",
      "outputs": [
        {
          "internalType": "string",
          "name": "",
          "type": "string"
        }
      ],
      "stateMutability": "view",
      "type": "function"
    },
    {
      "inputs": [],
      "name": "owner",
      "outputs": [
        {
          "internalType": "address",
          "name": "",
          "type": "address"
        }
      ],
      "stateMutability": "view",
      "type": "function"
    },
    {
      "inputs": [
        {
          "internalType": "uint256",
          "name": "tokenId",
          "type": "uint256"
        }
      ],
      "name": "ownerOf",
      "outputs": [
        {
          "internalType": "address",
          "name": "",
          "type": "address"
        }
      ],
      "stateMutability": "view",
      "type": "function"
    },
    {
      "inputs": [],
      "name": "renounceOwnership",
      "outputs": [],
      "stateMutability": "nonpayable",
      "type": "function"
    },
    {
      "inputs": [
        {
          "internalType": "address",
          "name": "from",
          "type": "address"
        },
        {
          "internalType": "address",
          "name": "to",
          "type": "address"
        },
        {
          "internalType": "uint256",
          "name": "tokenId",
          "type": "uint256"
        }
      ],
      "name": "safeTransferFrom",
      "outputs": [],
      "stateMutability": "nonpayable",
      "type": "function"
    },
    {
      "inputs": [
        {
          "internalType": "address",
          "name": "from",
          "type": "address"
        },
        {
          "internalType": "address",
          "name": "to",
          "type": "address"
        },
        {
          "internalType": "uint256",
          "name": "tokenId",
          "type": "uint256"
        },
        {
          "internalType": "bytes",
          "name": "data",
          "type": "bytes"
        }
      ],
      "name": "safeTransferFrom",
      "outputs": [],
      "stateMutability": "nonpayable",
      "type": "function"
    },
    {
      "inputs": [
        {
          "internalType": "address",
          "name": "operator",
          "type": "address"
        },
        {
          "internalType": "bool",
          "name": "approved",
          "type": "bool"
        }
      ],
      "name": "setApprovalForAll",
      "outputs": [],
      "stateMutability": "nonpayable",
      "type": "function"
    },
    {
      "inputs": [
        {
          "internalType": "bytes4",
          "name": "interfaceId",
          "type": "bytes4"
        }
      ],
      "name": "supportsInterface",
      "outputs": [
        {
          "internalType": "bool",
          "name": "",
          "type": "bool"
        }
      ],
      "stateMutability": "view",
      "type": "function"
    },
    {
      "inputs": [],
      "name": "symbol",
      "outputs": [
        {
          "internalType": "string",
          "name": "",
          "type": "string"
        }
      ],
      "stateMutability": "view",
      "type": "function"
    },
    {
      "inputs": [
        {
          "internalType": "uint256",
          "name": "tokenId",
          "type": "uint256"
        }
      ],
      "name": "tokenURI",
      "outputs": [
        {
          "internalType": "string",
          "name": "",
          "type": "string"
        }
      ],
      "stateMutability": "view",
      "type": "function"
    },
    {
      "inputs": [
        {
          "internalType": "address",
          "name": "from",
          "type": "address"
        },
        {
          "internalType": "address",
          "name": "to",
          "type": "address"
        },
        {
          "internalType": "uint256",
          "name": "tokenId",
          "type": "uint256"
        }
      ],
      "name": "transferFrom",
      "outputs": [],
      "stateMutability": "nonpayable",
      "type": "function"
    },
    {
      "inputs": [
        {
          "internalType": "address",
          "name": "newOwner",
          "type": "address"
        }
      ],
      "name": "transferOwnership",
      "outputs": [],
      "stateMutability": "nonpayable",
      "type": "function"
    },
    {
      "inputs": [
        {
          "internalType": "uint256",
          "name": "tokenId",
          "type": "uint256"
        },
        {
          "internalType": "uint256",
          "name": "newRoyalty",
          "type": "uint256"
        }
      ],
      "name": "updateRoyalty",
      "outputs": [],
      "stateMutability": "nonpayable",
      "type": "function"
    }
  ],
  "bytecode": "0x608060405234801561001057600080fd5b50336040518060400160405280600781526020017f544844204e4654000000000000000000000000000000000000000000000000008152506040518060400160405280600381526020017f5448440000000000000000000000000000000000000000000000000000000000815250816000908161008d919061043d565b50806001908161009d919061043d565b505050600073ffffffffffffffffffffffffffffffffffffffff168173ffffffffffffffffffffffffffffffffffffffff16036101125760006040517f1e4fbdf70000000000000000000000000000000000000000000000000000000081526004016101099190610550565b60405180910390fd5b6101218161012760201b60201c565b5061056b565b6000600760009054906101000a900473ffffffffffffffffffffffffffffffffffffffff16905081600760006101000a81548173ffffffffffffffffffffffffffffffffffffffff021916908373ffffffffffffffffffffffffffffffffffffffff1602179055508173ffffffffffffffffffffffffffffffffffffffff168173ffffffffffffffffffffffffffffffffffffffff167f8be0079c531659141344cd1fd0a4f28419497f9722a3daafe3b4186f6b6457e060405160405180910390a35050565b600081519050919050565b7f4e487b7100000000000000000000000000000000000000000000000000000000600052604160045260246000fd5b7f4e487b7100000000000000000000000000000000000000000000000000000000600052602260045260246000fd5b6000600282049050600182168061026e57607f821691505b60208210810361028157610280610227565b5b50919050565b60008190508160005260206000209050919050565b60006020601f8301049050919050565b600082821b905092915050565b6000600883026102e97fffffffffffffffffffffffffffffffffffffffffffffffffffffffffffffffff826102ac565b6102f386836102ac565b95508019841693508086168417925050509392505050565b6000819050919050565b6000819050919050565b600061033a6103356103308461030b565b610315565b61030b565b9050919050565b6000819050919050565b6103548361031f565b61036861036082610341565b8484546102b9565b825550505050565b600090565b61037d610370565b61038881848461034b565b505050565b5b818110156103ac576103a1600082610375565b60018101905061038e565b5050565b601f8211156103f1576103c281610287565b6103cb8461029c565b810160208510156103da578190505b6103ee6103e68561029c565b83018261038d565b50505b505050565b600082821c905092915050565b6000610414600019846008026103f6565b1980831691505092915050565b600061042d8383610403565b9150826002028217905092915050565b610446826101ed565b67ffffffffffffffff81111561045f5761045e6101f8565b5b6104698254610256565b6104748282856103b0565b600060209050601f8311600181146104a75760008415610495578287015190505b61049f8582610421565b865550610507565b601f1984166104b586610287565b60005b828110156104dd578489015182556001820191506020850194506020810190506104b8565b868310156104fa57848901516104f6601f891682610403565b8355505b6001600288020188555050505b505050505050565b600073ffffffffffffffffffffffffffffffffffffffff82169050919050565b600061053a8261050f565b9050919050565b61054a8161052f565b82525050565b60006020820190506105656000830184610541565b92915050565b6130d58061057a6000396000f3fe608060405234801561001057600080fd5b50600436106101425760003560e01c80637539fc5c116100b8578063b39125971161007c578063b391259714610387578063b88d4fde146103b7578063c87b56dd146103d3578063d5c7127514610403578063e985e9c514610433578063f2fde38b1461046357610142565b80637539fc5c146102e3578063809e0641146103135780638da5cb5b1461032f57806395d89b411461034d578063a22cb4651461036b57610142565b806323b872dd1161010a57806323b872dd1461021157806340398d671461022d57806342842e0e1461025d5780636352211e1461027957806370a08231146102a9578063715018a6146102d957610142565b806301ffc9a714610147578063056b01ce1461017757806306fdde03146101a7578063081812fc146101c5578063095ea7b3146101f5575b600080fd5b610161600480360381019061015c9190612266565b61047f565b60405161016e91906122ae565b60405180910390f35b610191600480360381019061018c9190612445565b6104e0565b60405161019e91906124b0565b60405180910390f35b6101af610672565b6040516101bc919061254a565b60405180910390f35b6101df60048036038101906101da919061256c565b610704565b6040516101ec91906125da565b60405180910390f35b61020f600480360381019061020a9190612621565b610720565b005b61022b60048036038101906102269190612661565b610736565b005b610247600480360381019061024291906126b4565b610838565b604051610254919061279f565b60405180910390f35b61027760048036038101906102729190612661565b610999565b005b610293600480360381019061028e919061256c565b6109b9565b6040516102a091906125da565b60405180910390f35b6102c360048036038101906102be91906126b4565b6109cb565b6040516102d091906124b0565b60405180910390f35b6102e1610a85565b005b6102fd60048036038101906102f8919061256c565b610a99565b60405161030a91906125da565b60405180910390f35b61032d600480360381019061032891906127c1565b610ad6565b005b610337610c85565b60405161034491906125da565b60405180910390f35b610355610caf565b604051610362919061254a565b60405180910390f35b6103856004803603810190610380919061282d565b610d41565b005b6103a1600480360381019061039c919061256c565b610d57565b6040516103ae91906124b0565b60405180910390f35b6103d160048036038101906103cc919061290e565b610d74565b005b6103ed60048036038101906103e8919061256c565b610d99565b6040516103fa919061254a565b60405180910390f35b61041d600480360381019061041891906126b4565b610eac565b60405161042a919061279f565b60405180910390f35b61044d60048036038101906104489190612991565b61106f565b60405161045a91906122ae565b60405180910390f35b61047d600480360381019061047891906126b4565b611103565b005b6000634906490660e01b7bffffffffffffffffffffffffffffffffffffffffffffffffffffffff1916827bffffffffffffffffffffffffffffffffffffffffffffffffffffffff191614806104d957506104d882611189565b5b9050919050565b600080821015610525576040517f08c379a000000000000000000000000000000000000000000000000000000000815260040161051c90612a1d565b60405180910390fd5b6008600081548092919061053890612a6c565b91905055506000600854905061054e338261126b565b6105588185611289565b336009600083815260200190815260200160002060006101000a81548173ffffffffffffffffffffffffffffffffffffffff021916908373ffffffffffffffffffffffffffffffffffffffff1602179055506001600a60003373ffffffffffffffffffffffffffffffffffffffff1673ffffffffffffffffffffffffffffffffffffffff16815260200190815260200160002060008282546105fa9190612ab4565b9250508190555082600b600083815260200190815260200160002081905550803373ffffffffffffffffffffffffffffffffffffffff167fd35bb95e09c04b219e35047ce7b7b300e3384264ef84a40456943dbc0fc17c1486604051610660919061254a565b60405180910390a38091505092915050565b60606000805461068190612b17565b80601f01602080910402602001604051908101604052809291908181526020018280546106ad90612b17565b80156106fa5780601f106106cf576101008083540402835291602001916106fa565b820191906000526020600020905b8154815290600101906020018083116106dd57829003601f168201915b5050505050905090565b600061070f826112e5565b506107198261136d565b9050919050565b610732828261072d6113aa565b6113b2565b5050565b600073ffffffffffffffffffffffffffffffffffffffff168273ffffffffffffffffffffffffffffffffffffffff16036107a85760006040517f64a0ae9200000000000000000000000000000000000000000000000000000000815260040161079f91906125da565b60405180910390fd5b60006107bc83836107b76113aa565b6113c4565b90508373ffffffffffffffffffffffffffffffffffffffff168173ffffffffffffffffffffffffffffffffffffffff1614610832578382826040517f64283d7b00000000000000000000000000000000000000000000000000000000815260040161082993929190612b48565b60405180910390fd5b50505050565b60606000610845836109cb565b9050600081036108a157600067ffffffffffffffff81111561086a576108696122e4565b5b6040519080825280602002602001820160405280156108985781602001602082028036833780820191505090505b50915050610994565b60008167ffffffffffffffff8111156108bd576108bc6122e4565b5b6040519080825280602002602001820160405280156108eb5781602001602082028036833780820191505090505b5090506000805b60085481101561098c57600060018261090b9190612ab4565b90508673ffffffffffffffffffffffffffffffffffffffff1661092d826109b9565b73ffffffffffffffffffffffffffffffffffffffff161461094e575061097f565b8084848151811061096257610961612b7f565b5b60200260200101818152505060018361097b9190612ab4565b9250505b80806001019150506108f2565b508193505050505b919050565b6109b483838360405180602001604052806000815250610d74565b505050565b60006109c4826112e5565b9050919050565b60008073ffffffffffffffffffffffffffffffffffffffff168273ffffffffffffffffffffffffffffffffffffffff1603610a3e5760006040517f89c62b64000000000000000000000000000000000000000000000000000000008152600401610a3591906125da565b60405180910390fd5b600360008373ffffffffffffffffffffffffffffffffffffffff1673ffffffffffffffffffffffffffffffffffffffff168152602001908152602001600020549050919050565b610a8d6115de565b610a976000611665565b565b60006009600083815260200190815260200160002060009054906101000a900473ffffffffffffffffffffffffffffffffffffffff169050919050565b3373ffffffffffffffffffffffffffffffffffffffff16610af6836109b9565b73ffffffffffffffffffffffffffffffffffffffff1614610b4c576040517f08c379a0000000000000000000000000000000000000000000000000000000008152600401610b4390612bfa565b60405180910390fd5b3373ffffffffffffffffffffffffffffffffffffffff166009600084815260200190815260200160002060009054906101000a900473ffffffffffffffffffffffffffffffffffffffff1673ffffffffffffffffffffffffffffffffffffffff1614610bed576040517f08c379a0000000000000000000000000000000000000000000000000000000008152600401610be490612c66565b60405180910390fd5b6000811015610c31576040517f08c379a0000000000000000000000000000000000000000000000000000000008152600401610c2890612a1d565b60405180910390fd5b80600b600084815260200190815260200160002081905550817f1c92c9816615c3a3adb05a9ca5765866ff8c923a649e91deccac7d7def43421082604051610c7991906124b0565b60405180910390a25050565b6000600760009054906101000a900473ffffffffffffffffffffffffffffffffffffffff16905090565b606060018054610cbe90612b17565b80601f0160208091040260200160405190810160405280929190818152602001828054610cea90612b17565b8015610d375780601f10610d0c57610100808354040283529160200191610d37565b820191906000526020600020905b815481529060010190602001808311610d1a57829003601f168201915b5050505050905090565b610d53610d4c6113aa565b838361172b565b5050565b6000600b6000838152602001908152602001600020549050919050565b610d7f848484610736565b610d93610d8a6113aa565b8585858561189a565b50505050565b6060610da4826112e5565b506000600660008481526020019081526020016000208054610dc590612b17565b80601f0160208091040260200160405190810160405280929190818152602001828054610df190612b17565b8015610e3e5780601f10610e1357610100808354040283529160200191610e3e565b820191906000526020600020905b815481529060010190602001808311610e2157829003601f168201915b505050505090506000610e4f611a4b565b90506000815103610e64578192505050610ea7565b600082511115610e99578082604051602001610e81929190612cc2565b60405160208183030381529060405292505050610ea7565b610ea284611a62565b925050505b919050565b60606000600a60008473ffffffffffffffffffffffffffffffffffffffff1673ffffffffffffffffffffffffffffffffffffffff16815260200190815260200160002054905060008103610f4c57600067ffffffffffffffff811115610f1557610f146122e4565b5b604051908082528060200260200182016040528015610f435781602001602082028036833780820191505090505b5091505061106a565b60008167ffffffffffffffff811115610f6857610f676122e4565b5b604051908082528060200260200182016040528015610f965781602001602082028036833780820191505090505b5090506000805b600854811015611062576000600182610fb69190612ab4565b90508673ffffffffffffffffffffffffffffffffffffffff166009600083815260200190815260200160002060009054906101000a900473ffffffffffffffffffffffffffffffffffffffff1673ffffffffffffffffffffffffffffffffffffffff16146110245750611055565b8084848151811061103857611037612b7f565b5b6020026020010181815250506001836110519190612ab4565b9250505b8080600101915050610f9d565b508193505050505b919050565b6000600560008473ffffffffffffffffffffffffffffffffffffffff1673ffffffffffffffffffffffffffffffffffffffff16815260200190815260200160002060008373ffffffffffffffffffffffffffffffffffffffff1673ffffffffffffffffffffffffffffffffffffffff16815260200190815260200160002060009054906101000a900460ff16905092915050565b61110b6115de565b600073ffffffffffffffffffffffffffffffffffffffff168173ffffffffffffffffffffffffffffffffffffffff160361117d5760006040517f1e4fbdf700000000000000000000000000000000000000000000000000000000815260040161117491906125da565b60405180910390fd5b61118681611665565b50565b60007f80ac58cd000000000000000000000000000000000000000000000000000000007bffffffffffffffffffffffffffffffffffffffffffffffffffffffff1916827bffffffffffffffffffffffffffffffffffffffffffffffffffffffff1916148061125457507f5b5e139f000000000000000000000000000000000000000000000000000000007bffffffffffffffffffffffffffffffffffffffffffffffffffffffff1916827bffffffffffffffffffffffffffffffffffffffffffffffffffffffff1916145b80611264575061126382611acb565b5b9050919050565b611285828260405180602001604052806000815250611b35565b5050565b806006600084815260200190815260200160002090816112a99190612e92565b507ff8e1a15aba9398e019f0b49df1a4fde98ee17ae345cb5f6b5e2c27f5033e8ce7826040516112d991906124b0565b60405180910390a15050565b6000806112f183611b59565b9050600073ffffffffffffffffffffffffffffffffffffffff168173ffffffffffffffffffffffffffffffffffffffff160361136457826040517f7e27328900000000000000000000000000000000000000000000000000000000815260040161135b91906124b0565b60405180910390fd5b80915050919050565b60006004600083815260200190815260200160002060009054906101000a900473ffffffffffffffffffffffffffffffffffffffff169050919050565b600033905090565b6113bf8383836001611b96565b505050565b6000806113d084611b59565b9050600073ffffffffffffffffffffffffffffffffffffffff168373ffffffffffffffffffffffffffffffffffffffff161461141257611411818486611d5b565b5b600073ffffffffffffffffffffffffffffffffffffffff168173ffffffffffffffffffffffffffffffffffffffff16146114a357611454600085600080611b96565b6001600360008373ffffffffffffffffffffffffffffffffffffffff1673ffffffffffffffffffffffffffffffffffffffff168152602001908152602001600020600082825403925050819055505b600073ffffffffffffffffffffffffffffffffffffffff168573ffffffffffffffffffffffffffffffffffffffff1614611526576001600360008773ffffffffffffffffffffffffffffffffffffffff1673ffffffffffffffffffffffffffffffffffffffff168152602001908152602001600020600082825401925050819055505b846002600086815260200190815260200160002060006101000a81548173ffffffffffffffffffffffffffffffffffffffff021916908373ffffffffffffffffffffffffffffffffffffffff160217905550838573ffffffffffffffffffffffffffffffffffffffff168273ffffffffffffffffffffffffffffffffffffffff167fddf252ad1be2c89b69c2b068fc378daa952ba7f163c4a11628f55a4df523b3ef60405160405180910390a4809150509392505050565b6115e66113aa565b73ffffffffffffffffffffffffffffffffffffffff16611604610c85565b73ffffffffffffffffffffffffffffffffffffffff1614611663576116276113aa565b6040517f118cdaa700000000000000000000000000000000000000000000000000000000815260040161165a91906125da565b60405180910390fd5b565b6000600760009054906101000a900473ffffffffffffffffffffffffffffffffffffffff16905081600760006101000a81548173ffffffffffffffffffffffffffffffffffffffff021916908373ffffffffffffffffffffffffffffffffffffffff1602179055508173ffffffffffffffffffffffffffffffffffffffff168173ffffffffffffffffffffffffffffffffffffffff167f8be0079c531659141344cd1fd0a4f28419497f9722a3daafe3b4186f6b6457e060405160405180910390a35050565b600073ffffffffffffffffffffffffffffffffffffffff168273ffffffffffffffffffffffffffffffffffffffff160361179c57816040517f5b08ba1800000000000000000000000000000000000000000000000000000000815260040161179391906125da565b60405180910390fd5b80600560008573ffffffffffffffffffffffffffffffffffffffff1673ffffffffffffffffffffffffffffffffffffffff16815260200190815260200160002060008473ffffffffffffffffffffffffffffffffffffffff1673ffffffffffffffffffffffffffffffffffffffff16815260200190815260200160002060006101000a81548160ff0219169083151502179055508173ffffffffffffffffffffffffffffffffffffffff168373ffffffffffffffffffffffffffffffffffffffff167f17307eab39ab6107e8899845ad3d59bd9653f200f220920489ca2b5937696c318360405161188d91906122ae565b60405180910390a3505050565b60008373ffffffffffffffffffffffffffffffffffffffff163b1115611a44578273ffffffffffffffffffffffffffffffffffffffff1663150b7a02868685856040518563ffffffff1660e01b81526004016118f99493929190612fb9565b6020604051808303816000875af192505050801561193557506040513d601f19601f82011682018060405250810190611932919061301a565b60015b6119b9573d8060008114611965576040519150601f19603f3d011682016040523d82523d6000602084013e61196a565b606091505b5060008151036119b157836040517f64a0ae920000000000000000000000000000000000000000000000000000000081526004016119a891906125da565b60405180910390fd5b805181602001fd5b63150b7a0260e01b7bffffffffffffffffffffffffffffffffffffffffffffffffffffffff1916817bffffffffffffffffffffffffffffffffffffffffffffffffffffffff191614611a4257836040517f64a0ae92000000000000000000000000000000000000000000000000000000008152600401611a3991906125da565b60405180910390fd5b505b5050505050565b606060405180602001604052806000815250905090565b6060611a6d826112e5565b506000611a78611a4b565b90506000815111611a985760405180602001604052806000815250611ac3565b80611aa284611e1f565b604051602001611ab3929190612cc2565b6040516020818303038152906040525b915050919050565b60007f01ffc9a7000000000000000000000000000000000000000000000000000000007bffffffffffffffffffffffffffffffffffffffffffffffffffffffff1916827bffffffffffffffffffffffffffffffffffffffffffffffffffffffff1916149050919050565b611b3f8383611eed565b611b54611b4a6113aa565b600085858561189a565b505050565b60006002600083815260200190815260200160002060009054906101000a900473ffffffffffffffffffffffffffffffffffffffff169050919050565b8080611bcf5750600073ffffffffffffffffffffffffffffffffffffffff168273ffffffffffffffffffffffffffffffffffffffff1614155b15611d03576000611bdf846112e5565b9050600073ffffffffffffffffffffffffffffffffffffffff168373ffffffffffffffffffffffffffffffffffffffff1614158015611c4a57508273ffffffffffffffffffffffffffffffffffffffff168173ffffffffffffffffffffffffffffffffffffffff1614155b8015611c5d5750611c5b818461106f565b155b15611c9f57826040517fa9fbf51f000000000000000000000000000000000000000000000000000000008152600401611c9691906125da565b60405180910390fd5b8115611d0157838573ffffffffffffffffffffffffffffffffffffffff168273ffffffffffffffffffffffffffffffffffffffff167f8c5be1e5ebec7d5bd14f71427d1e84f3dd0314c0f7b2291e5b200ac8c7c3b92560405160405180910390a45b505b836004600085815260200190815260200160002060006101000a81548173ffffffffffffffffffffffffffffffffffffffff021916908373ffffffffffffffffffffffffffffffffffffffff16021790555050505050565b611d66838383611fe6565b611e1a57600073ffffffffffffffffffffffffffffffffffffffff168373ffffffffffffffffffffffffffffffffffffffff1603611ddb57806040517f7e273289000000000000000000000000000000000000000000000000000000008152600401611dd291906124b0565b60405180910390fd5b81816040517f177e802f000000000000000000000000000000000000000000000000000000008152600401611e11929190613047565b60405180910390fd5b505050565b606060006001611e2e846120a7565b01905060008167ffffffffffffffff811115611e4d57611e4c6122e4565b5b6040519080825280601f01601f191660200182016040528015611e7f5781602001600182028036833780820191505090505b509050600082602001820190505b600115611ee2578080600190039150507f3031323334353637383961626364656600000000000000000000000000000000600a86061a8153600a8581611ed657611ed5613070565b5b04945060008503611e8d575b819350505050919050565b600073ffffffffffffffffffffffffffffffffffffffff168273ffffffffffffffffffffffffffffffffffffffff1603611f5f5760006040517f64a0ae92000000000000000000000000000000000000000000000000000000008152600401611f5691906125da565b60405180910390fd5b6000611f6d838360006113c4565b9050600073ffffffffffffffffffffffffffffffffffffffff168173ffffffffffffffffffffffffffffffffffffffff1614611fe15760006040517f73c6ac6e000000000000000000000000000000000000000000000000000000008152600401611fd891906125da565b60405180910390fd5b505050565b60008073ffffffffffffffffffffffffffffffffffffffff168373ffffffffffffffffffffffffffffffffffffffff161415801561209e57508273ffffffffffffffffffffffffffffffffffffffff168473ffffffffffffffffffffffffffffffffffffffff16148061205f575061205e848461106f565b5b8061209d57508273ffffffffffffffffffffffffffffffffffffffff166120858361136d565b73ffffffffffffffffffffffffffffffffffffffff16145b5b90509392505050565b600080600090507a184f03e93ff9f4daa797ed6e38ed64bf6a1f0100000000000000008310612105577a184f03e93ff9f4daa797ed6e38ed64bf6a1f01000000000000000083816120fb576120fa613070565b5b0492506040810190505b6d04ee2d6d415b85acef81000000008310612142576d04ee2d6d415b85acef8100000000838161213857612137613070565b5b0492506020810190505b662386f26fc10000831061217157662386f26fc10000838161216757612166613070565b5b0492506010810190505b6305f5e100831061219a576305f5e10083816121905761218f613070565b5b0492506008810190505b61271083106121bf5761271083816121b5576121b4613070565b5b0492506004810190505b606483106121e257606483816121d8576121d7613070565b5b0492506002810190505b600a83106121f1576001810190505b80915050919050565b6000604051905090565b600080fd5b600080fd5b60007fffffffff0000000000000000000000000000000000000000000000000000000082169050919050565b6122438161220e565b811461224e57600080fd5b50565b6000813590506122608161223a565b92915050565b60006020828403121561227c5761227b612204565b5b600061228a84828501612251565b91505092915050565b60008115159050919050565b6122a881612293565b82525050565b60006020820190506122c3600083018461229f565b92915050565b600080fd5b600080fd5b6000601f19601f8301169050919050565b7f4e487b7100000000000000000000000000000000000000000000000000000000600052604160045260246000fd5b61231c826122d3565b810181811067ffffffffffffffff8211171561233b5761233a6122e4565b5b80604052505050565b600061234e6121fa565b905061235a8282612313565b919050565b600067ffffffffffffffff82111561237a576123796122e4565b5b612383826122d3565b9050602081019050919050565b82818337600083830152505050565b60006123b26123ad8461235f565b612344565b9050828152602081018484840111156123ce576123cd6122ce565b5b6123d9848285612390565b509392505050565b600082601f8301126123f6576123f56122c9565b5b813561240684826020860161239f565b91505092915050565b6000819050919050565b6124228161240f565b811461242d57600080fd5b50565b60008135905061243f81612419565b92915050565b6000806040838503121561245c5761245b612204565b5b600083013567ffffffffffffffff81111561247a57612479612209565b5b612486858286016123e1565b925050602061249785828601612430565b9150509250929050565b6124aa8161240f565b82525050565b60006020820190506124c560008301846124a1565b92915050565b600081519050919050565b600082825260208201905092915050565b60005b838110156125055780820151818401526020810190506124ea565b60008484015250505050565b600061251c826124cb565b61252681856124d6565b93506125368185602086016124e7565b61253f816122d3565b840191505092915050565b600060208201905081810360008301526125648184612511565b905092915050565b60006020828403121561258257612581612204565b5b600061259084828501612430565b91505092915050565b600073ffffffffffffffffffffffffffffffffffffffff82169050919050565b60006125c482612599565b9050919050565b6125d4816125b9565b82525050565b60006020820190506125ef60008301846125cb565b92915050565b6125fe816125b9565b811461260957600080fd5b50565b60008135905061261b816125f5565b92915050565b6000806040838503121561263857612637612204565b5b60006126468582860161260c565b925050602061265785828601612430565b9150509250929050565b60008060006060848603121561267a57612679612204565b5b60006126888682870161260c565b93505060206126998682870161260c565b92505060406126aa86828701612430565b9150509250925092565b6000602082840312156126ca576126c9612204565b5b60006126d88482850161260c565b91505092915050565b600081519050919050565b600082825260208201905092915050565b6000819050602082019050919050565b6127168161240f565b82525050565b6000612728838361270d565b60208301905092915050565b6000602082019050919050565b600061274c826126e1565b61275681856126ec565b9350612761836126fd565b8060005b83811015612792578151612779888261271c565b975061278483612734565b925050600181019050612765565b5085935050505092915050565b600060208201905081810360008301526127b98184612741565b905092915050565b600080604083850312156127d8576127d7612204565b5b60006127e685828601612430565b92505060206127f785828601612430565b9150509250929050565b61280a81612293565b811461281557600080fd5b50565b60008135905061282781612801565b92915050565b6000806040838503121561284457612843612204565b5b60006128528582860161260c565b925050602061286385828601612818565b9150509250929050565b600067ffffffffffffffff821115612888576128876122e4565b5b612891826122d3565b9050602081019050919050565b60006128b16128ac8461286d565b612344565b9050828152602081018484840111156128cd576128cc6122ce565b5b6128d8848285612390565b509392505050565b600082601f8301126128f5576128f46122c9565b5b813561290584826020860161289e565b91505092915050565b6000806000806080858703121561292857612927612204565b5b60006129368782880161260c565b94505060206129478782880161260c565b935050604061295887828801612430565b925050606085013567ffffffffffffffff81111561297957612978612209565b5b612985878288016128e0565b91505092959194509250565b600080604083850312156129a8576129a7612204565b5b60006129b68582860161260c565b92505060206129c78582860161260c565b9150509250929050565b7f526f79616c7479206d757374206265206e6f6e2d6e6567617469766500000000600082015250565b6000612a07601c836124d6565b9150612a12826129d1565b602082019050919050565b60006020820190508181036000830152612a36816129fa565b9050919050565b7f4e487b7100000000000000000000000000000000000000000000000000000000600052601160045260246000fd5b6000612a778261240f565b91507fffffffffffffffffffffffffffffffffffffffffffffffffffffffffffffffff8203612aa957612aa8612a3d565b5b600182019050919050565b6000612abf8261240f565b9150612aca8361240f565b9250828201905080821115612ae257612ae1612a3d565b5b92915050565b7f4e487b7100000000000000000000000000000000000000000000000000000000600052602260045260246000fd5b60006002820490506001821680612b2f57607f821691505b602082108103612b4257612b41612ae8565b5b50919050565b6000606082019050612b5d60008301866125cb565b612b6a60208301856124a1565b612b7760408301846125cb565b949350505050565b7f4e487b7100000000000000000000000000000000000000000000000000000000600052603260045260246000fd5b7f4e6f7420746f6b656e206f776e65720000000000000000000000000000000000600082015250565b6000612be4600f836124d6565b9150612bef82612bae565b602082019050919050565b60006020820190508181036000830152612c1381612bd7565b9050919050565b7f4e6f742063726561746f72000000000000000000000000000000000000000000600082015250565b6000612c50600b836124d6565b9150612c5b82612c1a565b602082019050919050565b60006020820190508181036000830152612c7f81612c43565b9050919050565b600081905092915050565b6000612c9c826124cb565b612ca68185612c86565b9350612cb68185602086016124e7565b80840191505092915050565b6000612cce8285612c91565b9150612cda8284612c91565b91508190509392505050565b60008190508160005260206000209050919050565b60006020601f8301049050919050565b600082821b905092915050565b600060088302612d487fffffffffffffffffffffffffffffffffffffffffffffffffffffffffffffffff82612d0b565b612d528683612d0b565b95508019841693508086168417925050509392505050565b6000819050919050565b6000612d8f612d8a612d858461240f565b612d6a565b61240f565b9050919050565b6000819050919050565b612da983612d74565b612dbd612db582612d96565b848454612d18565b825550505050565b600090565b612dd2612dc5565b612ddd818484612da0565b505050565b5b81811015612e0157612df6600082612dca565b600181019050612de3565b5050565b601f821115612e4657612e1781612ce6565b612e2084612cfb565b81016020851015612e2f578190505b612e43612e3b85612cfb565b830182612de2565b50505b505050565b600082821c905092915050565b6000612e6960001984600802612e4b565b1980831691505092915050565b6000612e828383612e58565b9150826002028217905092915050565b612e9b826124cb565b67ffffffffffffffff811115612eb457612eb36122e4565b5b612ebe8254612b17565b612ec9828285612e05565b600060209050601f831160018114612efc5760008415612eea578287015190505b612ef48582612e76565b865550612f5c565b601f198416612f0a86612ce6565b60005b82811015612f3257848901518255600182019150602085019450602081019050612f0d565b86831015612f4f5784890151612f4b601f891682612e58565b8355505b6001600288020188555050505b505050505050565b600081519050919050565b600082825260208201905092915050565b6000612f8b82612f64565b612f958185612f6f565b9350612fa58185602086016124e7565b612fae816122d3565b840191505092915050565b6000608082019050612fce60008301876125cb565b612fdb60208301866125cb565b612fe860408301856124a1565b8181036060830152612ffa8184612f80565b905095945050505050565b6000815190506130148161223a565b92915050565b6000602082840312156130305761302f612204565b5b600061303e84828501613005565b91505092915050565b600060408201905061305c60008301856125cb565b61306960208301846124a1565b9392505050565b7f4e487b7100000000000000000000000000000000000000000000000000000000600052601260045260246000fdfea26469706673582212206af64327f4534e396691391722e5a9215d7680a41962866994dcfd3245f4b02264736f6c634300081c0033",
  "linkReferences": {},
  "deployedLinkReferences": {}
}