{
  "_format": "hh-sol-artifact-1",
  "contractName": "NFTMarketplacev2",
  "sourceName": "contracts/NFTMarketplacev2.sol",
  "abi": [
    {
      "inputs": [],
      "stateMutability": "nonpayable",
      "type": "constructor"
    },
    {
      "inputs": [
        {
          "internalType": "address",
          "name": "owner",
          "type": "address"
        }
      ],
      "name": "OwnableInvalidOwner",
      "type": "error"
    },
    {
      "inputs": [
        {
          "internalType": "address",
          "name": "account",
          "type": "address"
        }
      ],
      "name": "OwnableUnauthorizedAccount",
      "type": "error"
    },
    {
      "inputs": [],
      "name": "ReentrancyGuardReentrantCall",
      "type": "error"
    },
    {
      "anonymous": false,
      "inputs": [
        {
          "indexed": false,
          "internalType": "uint256",
          "name": "amount",
          "type": "uint256"
        },
        {
          "indexed": false,
          "internalType": "uint256",
          "name": "timestamp",
          "type": "uint256"
        }
      ],
      "name": "FeeWithdrawn",
      "type": "event"
    },
    {
      "anonymous": false,
      "inputs": [
        {
          "indexed": true,
          "internalType": "address",
          "name": "nft",
          "type": "address"
        },
        {
          "indexed": true,
          "internalType": "uint256",
          "name": "tokenId",
          "type": "uint256"
        },
        {
          "indexed": false,
          "internalType": "uint256",
          "name": "timestamp",
          "type": "uint256"
        }
      ],
      "name": "ItemCanceled",
      "type": "event"
    },
    {
      "anonymous": false,
      "inputs": [
        {
          "indexed": true,
          "internalType": "address",
          "name": "nft",
          "type": "address"
        },
        {
          "indexed": true,
          "internalType": "uint256",
          "name": "tokenId",
          "type": "uint256"
        },
        {
          "indexed": true,
          "internalType": "address",
          "name": "seller",
          "type": "address"
        },
        {
          "indexed": false,
          "internalType": "uint256",
          "name": "price",
          "type": "uint256"
        },
        {
          "indexed": false,
          "internalType": "uint256",
          "name": "timestamp",
          "type": "uint256"
        }
      ],
      "name": "ItemListed",
      "type": "event"
    },
    {
      "anonymous": false,
      "inputs": [
        {
          "indexed": true,
          "internalType": "address",
          "name": "nft",
          "type": "address"
        },
        {
          "indexed": true,
          "internalType": "uint256",
          "name": "tokenId",
          "type": "uint256"
        },
        {
          "indexed": false,
          "internalType": "address",
          "name": "seller",
          "type": "address"
        },
        {
          "indexed": false,
          "internalType": "address",
          "name": "buyer",
          "type": "address"
        },
        {
          "indexed": false,
          "internalType": "uint256",
          "name": "price",
          "type": "uint256"
        },
        {
          "indexed": false,
          "internalType": "uint256",
          "name": "timestamp",
          "type": "uint256"
        }
      ],
      "name": "ItemSold",
      "type": "event"
    },
    {
      "anonymous": false,
      "inputs": [
        {
          "indexed": false,
          "internalType": "uint256",
          "name": "newFee",
          "type": "uint256"
        },
        {
          "indexed": false,
          "internalType": "uint256",
          "name": "timestamp",
          "type": "uint256"
        }
      ],
      "name": "ListingFeeUpdated",
      "type": "event"
    },
    {
      "anonymous": false,
      "inputs": [
        {
          "indexed": true,
          "internalType": "address",
          "name": "nft",
          "type": "address"
        },
        {
          "indexed": true,
          "internalType": "uint256",
          "name": "tokenId",
          "type": "uint256"
        },
        {
          "indexed": false,
          "internalType": "address",
          "name": "seller",
          "type": "address"
        },
        {
          "indexed": false,
          "internalType": "uint256",
          "name": "newPrice",
          "type": "uint256"
        },
        {
          "indexed": false,
          "internalType": "uint256",
          "name": "timestamp",
          "type": "uint256"
        }
      ],
      "name": "ListingUpdated",
      "type": "event"
    },
    {
      "anonymous": false,
      "inputs": [
        {
          "indexed": true,
          "internalType": "address",
          "name": "previousOwner",
          "type": "address"
        },
        {
          "indexed": true,
          "internalType": "address",
          "name": "newOwner",
          "type": "address"
        }
      ],
      "name": "OwnershipTransferred",
      "type": "event"
    },
    {
      "inputs": [
        {
          "internalType": "address",
          "name": "nft",
          "type": "address"
        },
        {
          "internalType": "uint256",
          "name": "tokenId",
          "type": "uint256"
        }
      ],
      "name": "buyItem",
      "outputs": [],
      "stateMutability": "payable",
      "type": "function"
    },
    {
      "inputs": [
        {
          "internalType": "address",
          "name": "nft",
          "type": "address"
        },
        {
          "internalType": "uint256",
          "name": "tokenId",
          "type": "uint256"
        }
      ],
      "name": "cancelListing",
      "outputs": [],
      "stateMutability": "nonpayable",
      "type": "function"
    },
    {
      "inputs": [],
      "name": "getAllListings",
      "outputs": [
        {
          "components": [
            {
              "internalType": "address",
              "name": "nft",
              "type": "address"
            },
            {
              "internalType": "uint256",
              "name": "tokenId",
              "type": "uint256"
            },
            {
              "internalType": "address",
              "name": "seller",
              "type": "address"
            },
            {
              "internalType": "uint256",
              "name": "price",
              "type": "uint256"
            },
            {
              "internalType": "uint256",
              "name": "listedAt",
              "type": "uint256"
            },
            {
              "internalType": "uint256",
              "name": "updatedAt",
              "type": "uint256"
            },
            {
              "internalType": "uint256",
              "name": "canceledAt",
              "type": "uint256"
            },
            {
              "internalType": "uint256",
              "name": "soldAt",
              "type": "uint256"
            }
          ],
          "internalType": "struct NFTMarketplacev2.ListingLogInfo[]",
          "name": "",
          "type": "tuple[]"
        }
      ],
      "stateMutability": "view",
      "type": "function"
    },
    {
      "inputs": [
        {
          "internalType": "address",
          "name": "nft",
          "type": "address"
        },
        {
          "internalType": "uint256",
          "name": "tokenId",
          "type": "uint256"
        }
      ],
      "name": "getLastSoldPrice",
      "outputs": [
        {
          "internalType": "uint256",
          "name": "",
          "type": "uint256"
        }
      ],
      "stateMutability": "view",
      "type": "function"
    },
    {
      "inputs": [
        {
          "internalType": "uint256",
          "name": "limit",
          "type": "uint256"
        },
        {
          "internalType": "uint256",
          "name": "offset",
          "type": "uint256"
        }
      ],
      "name": "getLatestListings",
      "outputs": [
        {
          "components": [
            {
              "internalType": "address",
              "name": "nft",
              "type": "address"
            },
            {
              "internalType": "uint256",
              "name": "tokenId",
              "type": "uint256"
            },
            {
              "internalType": "address",
              "name": "seller",
              "type": "address"
            },
            {
              "internalType": "uint256",
              "name": "price",
              "type": "uint256"
            },
            {
              "internalType": "uint256",
              "name": "listedAt",
              "type": "uint256"
            },
            {
              "internalType": "uint256",
              "name": "updatedAt",
              "type": "uint256"
            },
            {
              "internalType": "uint256",
              "name": "canceledAt",
              "type": "uint256"
            },
            {
              "internalType": "uint256",
              "name": "soldAt",
              "type": "uint256"
            }
          ],
          "internalType": "struct NFTMarketplacev2.ListingLogInfo[]",
          "name": "",
          "type": "tuple[]"
        }
      ],
      "stateMutability": "view",
      "type": "function"
    },
    {
      "inputs": [
        {
          "internalType": "address",
          "name": "nft",
          "type": "address"
        },
        {
          "internalType": "uint256",
          "name": "tokenId",
          "type": "uint256"
        }
      ],
      "name": "getListingById",
      "outputs": [
        {
          "components": [
            {
              "internalType": "address",
              "name": "nft",
              "type": "address"
            },
            {
              "internalType": "uint256",
              "name": "tokenId",
              "type": "uint256"
            },
            {
              "internalType": "address",
              "name": "seller",
              "type": "address"
            },
            {
              "internalType": "uint256",
              "name": "price",
              "type": "uint256"
            },
            {
              "internalType": "uint256",
              "name": "listedAt",
              "type": "uint256"
            },
            {
              "internalType": "uint256",
              "name": "updatedAt",
              "type": "uint256"
            }
          ],
          "internalType": "struct NFTMarketplacev2.Listing",
          "name": "",
          "type": "tuple"
        }
      ],
      "stateMutability": "view",
      "type": "function"
    },
    {
      "inputs": [],
      "name": "getListingFee",
      "outputs": [
        {
          "internalType": "uint256",
          "name": "",
          "type": "uint256"
        }
      ],
      "stateMutability": "view",
      "type": "function"
    },
    {
      "inputs": [
        {
          "internalType": "address",
          "name": "seller",
          "type": "address"
        }
      ],
      "name": "getListingsBySeller",
      "outputs": [
        {
          "components": [
            {
              "internalType": "address",
              "name": "nft",
              "type": "address"
            },
            {
              "internalType": "uint256",
              "name": "tokenId",
              "type": "uint256"
            },
            {
              "internalType": "address",
              "name": "seller",
              "type": "address"
            },
            {
              "internalType": "uint256",
              "name": "price",
              "type": "uint256"
            },
            {
              "internalType": "uint256",
              "name": "listedAt",
              "type": "uint256"
            },
            {
              "internalType": "uint256",
              "name": "updatedAt",
              "type": "uint256"
            }
          ],
          "internalType": "struct NFTMarketplacev2.Listing[]",
          "name": "",
          "type": "tuple[]"
        }
      ],
      "stateMutability": "view",
      "type": "function"
    },
    {
      "inputs": [
        {
          "internalType": "address",
          "name": "nft",
          "type": "address"
        },
        {
          "internalType": "uint256",
          "name": "tokenId",
          "type": "uint256"
        },
        {
          "internalType": "uint256",
          "name": "price",
          "type": "uint256"
        }
      ],
      "name": "listItem",
      "outputs": [],
      "stateMutability": "payable",
      "type": "function"
    },
    {
      "inputs": [],
      "name": "owner",
      "outputs": [
        {
          "internalType": "address",
          "name": "",
          "type": "address"
        }
      ],
      "stateMutability": "view",
      "type": "function"
    },
    {
      "inputs": [],
      "name": "renounceOwnership",
      "outputs": [],
      "stateMutability": "nonpayable",
      "type": "function"
    },
    {
      "inputs": [
        {
          "internalType": "uint256",
          "name": "_fee",
          "type": "uint256"
        }
      ],
      "name": "setListingFee",
      "outputs": [],
      "stateMutability": "nonpayable",
      "type": "function"
    },
    {
      "inputs": [
        {
          "internalType": "address",
          "name": "newOwner",
          "type": "address"
        }
      ],
      "name": "transferOwnership",
      "outputs": [],
      "stateMutability": "nonpayable",
      "type": "function"
    },
    {
      "inputs": [
        {
          "internalType": "address",
          "name": "nft",
          "type": "address"
        },
        {
          "internalType": "uint256",
          "name": "tokenId",
          "type": "uint256"
        },
        {
          "internalType": "uint256",
          "name": "newPrice",
          "type": "uint256"
        }
      ],
      "name": "updateListingPrice",
      "outputs": [],
      "stateMutability": "nonpayable",
      "type": "function"
    },
    {
      "inputs": [],
      "name": "withdrawFees",
      "outputs": [],
      "stateMutability": "nonpayable",
      "type": "function"
    }
  ],
  "bytecode": "0x6080604052655af3107a400060055534801561001a57600080fd5b5033600073ffffffffffffffffffffffffffffffffffffffff168173ffffffffffffffffffffffffffffffffffffffff160361008e5760006040517f1e4fbdf700000000000000000000000000000000000000000000000000000000815260040161008591906101af565b60405180910390fd5b61009d816100aa60201b60201c565b50600180819055506101ca565b60008060009054906101000a900473ffffffffffffffffffffffffffffffffffffffff169050816000806101000a81548173ffffffffffffffffffffffffffffffffffffffff021916908373ffffffffffffffffffffffffffffffffffffffff1602179055508173ffffffffffffffffffffffffffffffffffffffff168173ffffffffffffffffffffffffffffffffffffffff167f8be0079c531659141344cd1fd0a4f28419497f9722a3daafe3b4186f6b6457e060405160405180910390a35050565b600073ffffffffffffffffffffffffffffffffffffffff82169050919050565b60006101998261016e565b9050919050565b6101a98161018e565b82525050565b60006020820190506101c460008301846101a0565b92915050565b6140c4806101d96000396000f3fe6080604052600436106100e85760003560e01c80639f37092a1161008a578063bf71cdb811610059578063bf71cdb8146102a0578063d8cba251146102dd578063f2fde38b1461031a578063f7232f6714610343576100e8565b80639f37092a14610205578063ae73ccec14610221578063b2ddee061461024c578063b8fe6abe14610275576100e8565b8063476343ee116100c6578063476343ee14610190578063715018a6146101a757806389bfd38f146101be5780638da5cb5b146101da576100e8565b8063131dbd09146100ed578063255f3179146101165780632e70150714610153575b600080fd5b3480156100f957600080fd5b50610114600480360381019061010f9190613261565b61036c565b005b34801561012257600080fd5b5061013d600480360381019061013891906132ec565b6103b7565b60405161014a919061333b565b60405180910390f35b34801561015f57600080fd5b5061017a60048036038101906101759190613356565b610523565b6040516101879190613506565b60405180910390f35b34801561019c57600080fd5b506101a5610950565b005b3480156101b357600080fd5b506101bc6109e7565b005b6101d860048036038101906101d39190613528565b6109fb565b005b3480156101e657600080fd5b506101ef6111fb565b6040516101fc919061358a565b60405180910390f35b61021f600480360381019061021a91906132ec565b611224565b005b34801561022d57600080fd5b50610236611a39565b6040516102439190613506565b60405180910390f35b34801561025857600080fd5b50610273600480360381019061026e91906132ec565b611d4e565b005b34801561028157600080fd5b5061028a611fc9565b604051610297919061333b565b60405180910390f35b3480156102ac57600080fd5b506102c760048036038101906102c291906132ec565b611fd3565b6040516102d49190613620565b60405180910390f35b3480156102e957600080fd5b5061030460048036038101906102ff919061363b565b612112565b6040516103119190613792565b60405180910390f35b34801561032657600080fd5b50610341600480360381019061033c919061363b565b612284565b005b34801561034f57600080fd5b5061036a60048036038101906103659190613528565b61230a565b005b6103746129ea565b806005819055507f83bee1c75d00c29e66092d821c1c82aa4792fe1f058e8dff38d5d394d37916dd81426040516103ac9291906137b4565b60405180910390a150565b60008060048054905090505b6000811115610517578373ffffffffffffffffffffffffffffffffffffffff1660046001836103f2919061380c565b8154811061040357610402613840565b5b906000526020600020906008020160000160009054906101000a900473ffffffffffffffffffffffffffffffffffffffff1673ffffffffffffffffffffffffffffffffffffffff161480156104885750826004600183610463919061380c565b8154811061047457610473613840565b5b906000526020600020906008020160010154145b80156104c55750600060046001836104a0919061380c565b815481106104b1576104b0613840565b5b906000526020600020906008020160070154115b156105045760046001826104d9919061380c565b815481106104ea576104e9613840565b5b90600052602060002090600802016003015491505061051d565b808061050f9061386f565b9150506103c3565b50600090505b92915050565b60606000600480549050905080831061059357600067ffffffffffffffff81111561055157610550613898565b5b60405190808252806020026020018201604052801561058a57816020015b610577613153565b81526020019060019003908161056f5790505b5091505061094a565b600084116105a057600a93505b6000806001836105b0919061380c565b905060008390505b600081111561067e57600060046001836105d2919061380c565b815481106105e3576105e2613840565b5b906000526020600020906008020160060154118061063257506000600460018361060d919061380c565b8154811061061e5761061d613840565b5b906000526020600020906008020160070154115b61066b578280610641906138c7565b9350508587610650919061390f565b831061066a57600181610663919061380c565b915061067e565b5b80806106769061386f565b9150506105b8565b50600082148061068e5750848211155b156106f257600067ffffffffffffffff8111156106ae576106ad613898565b5b6040519080825280602002602001820160405280156106e757816020015b6106d4613153565b8152602001906001900390816106cc5790505b50935050505061094a565b84866106fe919061390f565b8211610717578482610710919061380c565b9550610724565b85821015610723578195505b5b60008667ffffffffffffffff8111156107405761073f613898565b5b60405190808252806020026020018201604052801561077957816020015b610766613153565b81526020019060019003908161075e5790505b5090506000808390505b85811015610940576000600482815481106107a1576107a0613840565b5b90600052602060002090600802016006015411806107e457506000600482815481106107d0576107cf613840565b5b906000526020600020906008020160070154115b61093357600481815481106107fc576107fb613840565b5b9060005260206000209060080201604051806101000160405290816000820160009054906101000a900473ffffffffffffffffffffffffffffffffffffffff1673ffffffffffffffffffffffffffffffffffffffff1673ffffffffffffffffffffffffffffffffffffffff168152602001600182015481526020016002820160009054906101000a900473ffffffffffffffffffffffffffffffffffffffff1673ffffffffffffffffffffffffffffffffffffffff1673ffffffffffffffffffffffffffffffffffffffff1681526020016003820154815260200160048201548152602001600582015481526020016006820154815260200160078201548152505083838151811061091157610910613840565b5b60200260200101819052508180610927906138c7565b92505088821015610940575b8080600101915050610783565b5081955050505050505b92915050565b6109586129ea565b60004790506109656111fb565b73ffffffffffffffffffffffffffffffffffffffff166108fc829081150290604051600060405180830381858888f193505050501580156109aa573d6000803e3d6000fd5b507f0a86d3615abd799fbaa5be89d4941a68641aec3f02b8f19faff5dfade02817bc81426040516109dc9291906137b4565b60405180910390a150565b6109ef6129ea565b6109f96000612a71565b565b610a03612b35565b600554341015610a48576040517f08c379a0000000000000000000000000000000000000000000000000000000008152600401610a3f906139a0565b60405180910390fd5b60648111610a8b576040517f08c379a0000000000000000000000000000000000000000000000000000000008152600401610a8290613a0c565b60405180910390fd5b600073ffffffffffffffffffffffffffffffffffffffff16600260008573ffffffffffffffffffffffffffffffffffffffff1673ffffffffffffffffffffffffffffffffffffffff168152602001908152602001600020600084815260200190815260200160002060020160009054906101000a900473ffffffffffffffffffffffffffffffffffffffff1673ffffffffffffffffffffffffffffffffffffffff1614610b6d576040517f08c379a0000000000000000000000000000000000000000000000000000000008152600401610b6490613a78565b60405180910390fd5b60008390503373ffffffffffffffffffffffffffffffffffffffff168173ffffffffffffffffffffffffffffffffffffffff16636352211e856040518263ffffffff1660e01b8152600401610bc2919061333b565b602060405180830381865afa158015610bdf573d6000803e3d6000fd5b505050506040513d601f19601f82011682018060405250810190610c039190613aad565b73ffffffffffffffffffffffffffffffffffffffff1614610c59576040517f08c379a0000000000000000000000000000000000000000000000000000000008152600401610c5090613b26565b60405180910390fd5b8073ffffffffffffffffffffffffffffffffffffffff1663e985e9c533306040518363ffffffff1660e01b8152600401610c94929190613b46565b602060405180830381865afa158015610cb1573d6000803e3d6000fd5b505050506040513d601f19601f82011682018060405250810190610cd59190613ba7565b610d14576040517f08c379a0000000000000000000000000000000000000000000000000000000008152600401610d0b90613c20565b60405180910390fd5b6040518060c001604052808573ffffffffffffffffffffffffffffffffffffffff1681526020018481526020013373ffffffffffffffffffffffffffffffffffffffff16815260200183815260200142815260200142815250600260008673ffffffffffffffffffffffffffffffffffffffff1673ffffffffffffffffffffffffffffffffffffffff168152602001908152602001600020600085815260200190815260200160002060008201518160000160006101000a81548173ffffffffffffffffffffffffffffffffffffffff021916908373ffffffffffffffffffffffffffffffffffffffff1602179055506020820151816001015560408201518160020160006101000a81548173ffffffffffffffffffffffffffffffffffffffff021916908373ffffffffffffffffffffffffffffffffffffffff160217905550606082015181600301556080820151816004015560a08201518160050155905050600360003373ffffffffffffffffffffffffffffffffffffffff1673ffffffffffffffffffffffffffffffffffffffff168152602001908152602001600020600260008673ffffffffffffffffffffffffffffffffffffffff1673ffffffffffffffffffffffffffffffffffffffff168152602001908152602001600020600085815260200190815260200160002090806001815401808255809150506001900390600052602060002090600602016000909190919091506000820160009054906101000a900473ffffffffffffffffffffffffffffffffffffffff168160000160006101000a81548173ffffffffffffffffffffffffffffffffffffffff021916908373ffffffffffffffffffffffffffffffffffffffff160217905550600182015481600101556002820160009054906101000a900473ffffffffffffffffffffffffffffffffffffffff168160020160006101000a81548173ffffffffffffffffffffffffffffffffffffffff021916908373ffffffffffffffffffffffffffffffffffffffff160217905550600382015481600301556004820154816004015560058201548160050155505060046040518061010001604052808673ffffffffffffffffffffffffffffffffffffffff1681526020018581526020013373ffffffffffffffffffffffffffffffffffffffff168152602001848152602001428152602001428152602001600081526020016000815250908060018154018082558091505060019003906000526020600020906008020160009091909190915060008201518160000160006101000a81548173ffffffffffffffffffffffffffffffffffffffff021916908373ffffffffffffffffffffffffffffffffffffffff1602179055506020820151816001015560408201518160020160006101000a81548173ffffffffffffffffffffffffffffffffffffffff021916908373ffffffffffffffffffffffffffffffffffffffff160217905550606082015181600301556080820151816004015560a0820151816005015560c0820151816006015560e0820151816007015550503373ffffffffffffffffffffffffffffffffffffffff16838573ffffffffffffffffffffffffffffffffffffffff167fbd5d1836d4114b1a1785c873a084824203ab9c294b3694e6a9fa69234a9113c685426040516111e59291906137b4565b60405180910390a4506111f6612b7b565b505050565b60008060009054906101000a900473ffffffffffffffffffffffffffffffffffffffff16905090565b61122c612b35565b6000600260008473ffffffffffffffffffffffffffffffffffffffff1673ffffffffffffffffffffffffffffffffffffffff16815260200190815260200160002060008381526020019081526020016000206040518060c00160405290816000820160009054906101000a900473ffffffffffffffffffffffffffffffffffffffff1673ffffffffffffffffffffffffffffffffffffffff1673ffffffffffffffffffffffffffffffffffffffff168152602001600182015481526020016002820160009054906101000a900473ffffffffffffffffffffffffffffffffffffffff1673ffffffffffffffffffffffffffffffffffffffff1673ffffffffffffffffffffffffffffffffffffffff16815260200160038201548152602001600482015481526020016005820154815250509050600073ffffffffffffffffffffffffffffffffffffffff16816040015173ffffffffffffffffffffffffffffffffffffffff16036113d2576040517f08c379a00000000000000000000000000000000000000000000000000000000081526004016113c990613c8c565b60405180910390fd5b3373ffffffffffffffffffffffffffffffffffffffff16816040015173ffffffffffffffffffffffffffffffffffffffff1603611444576040517f08c379a000000000000000000000000000000000000000000000000000000000815260040161143b90613cf8565b60405180910390fd5b8273ffffffffffffffffffffffffffffffffffffffff1663e985e9c58260400151306040518363ffffffff1660e01b8152600401611483929190613b46565b602060405180830381865afa1580156114a0573d6000803e3d6000fd5b505050506040513d601f19601f820116820180604052508101906114c49190613ba7565b611503576040517f08c379a00000000000000000000000000000000000000000000000000000000081526004016114fa90613c20565b60405180910390fd5b806060015134101561154a576040517f08c379a000000000000000000000000000000000000000000000000000000000815260040161154190613d64565b60405180910390fd5b60008373ffffffffffffffffffffffffffffffffffffffff1663b3912597846040518263ffffffff1660e01b8152600401611585919061333b565b602060405180830381865afa1580156115a2573d6000803e3d6000fd5b505050506040513d601f19601f820116820180604052508101906115c69190613d99565b905060008473ffffffffffffffffffffffffffffffffffffffff16637539fc5c856040518263ffffffff1660e01b8152600401611603919061333b565b602060405180830381865afa158015611620573d6000803e3d6000fd5b505050506040513d601f19601f820116820180604052508101906116449190613aad565b90506000606483856060015161165a9190613dc6565b6116649190613e37565b9050348111156116a9576040517f08c379a00000000000000000000000000000000000000000000000000000000081526004016116a090613eb4565b60405180910390fd5b60008185606001516116bb919061380c565b90506116cc87878760400151612b84565b600060048054905090505b60008111156118bb578773ffffffffffffffffffffffffffffffffffffffff166004600183611706919061380c565b8154811061171757611716613840565b5b906000526020600020906008020160000160009054906101000a900473ffffffffffffffffffffffffffffffffffffffff1673ffffffffffffffffffffffffffffffffffffffff1614801561179c5750866004600183611777919061380c565b8154811061178857611787613840565b5b906000526020600020906008020160010154145b80156118285750856040015173ffffffffffffffffffffffffffffffffffffffff1660046001836117cd919061380c565b815481106117de576117dd613840565b5b906000526020600020906008020160020160009054906101000a900473ffffffffffffffffffffffffffffffffffffffff1673ffffffffffffffffffffffffffffffffffffffff16145b8015611868575085608001516004600183611843919061380c565b8154811061185457611853613840565b5b906000526020600020906008020160040154145b156118a85742600460018361187d919061380c565b8154811061188e5761188d613840565b5b9060005260206000209060080201600701819055506118bb565b80806118b39061386f565b9150506116d7565b508673ffffffffffffffffffffffffffffffffffffffff166342842e0e866040015133896040518463ffffffff1660e01b81526004016118fd93929190613ed4565b600060405180830381600087803b15801561191757600080fd5b505af115801561192b573d6000803e3d6000fd5b505050506000821115611980578273ffffffffffffffffffffffffffffffffffffffff166108fc839081150290604051600060405180830381858888f1935050505015801561197e573d6000803e3d6000fd5b505b846040015173ffffffffffffffffffffffffffffffffffffffff166108fc829081150290604051600060405180830381858888f193505050501580156119ca573d6000803e3d6000fd5b50858773ffffffffffffffffffffffffffffffffffffffff167f2781b6bf1d50821bde8d8e1ea36be5557167d6b25dde84a52efb147adf2e6d35876040015133896060015142604051611a209493929190613f0b565b60405180910390a35050505050611a35612b7b565b5050565b6060600060048054905090506000805b82811015611aca57600060048281548110611a6757611a66613840565b5b9060005260206000209060080201600601541180611aaa5750600060048281548110611a9657611a95613840565b5b906000526020600020906008020160070154115b611abd578180611ab9906138c7565b9250505b8080600101915050611a49565b5060008103611b3157600067ffffffffffffffff811115611aee57611aed613898565b5b604051908082528060200260200182016040528015611b2757816020015b611b14613153565b815260200190600190039081611b0c5790505b5092505050611d4b565b60008167ffffffffffffffff811115611b4d57611b4c613898565b5b604051908082528060200260200182016040528015611b8657816020015b611b73613153565b815260200190600190039081611b6b5790505b5090506000805b84811015611d4257600060048281548110611bab57611baa613840565b5b9060005260206000209060080201600601541180611bee5750600060048281548110611bda57611bd9613840565b5b906000526020600020906008020160070154115b611d355760048181548110611c0657611c05613840565b5b9060005260206000209060080201604051806101000160405290816000820160009054906101000a900473ffffffffffffffffffffffffffffffffffffffff1673ffffffffffffffffffffffffffffffffffffffff1673ffffffffffffffffffffffffffffffffffffffff168152602001600182015481526020016002820160009054906101000a900473ffffffffffffffffffffffffffffffffffffffff1673ffffffffffffffffffffffffffffffffffffffff1673ffffffffffffffffffffffffffffffffffffffff16815260200160038201548152602001600482015481526020016005820154815260200160068201548152602001600782015481525050838381518110611d1b57611d1a613840565b5b60200260200101819052508180611d31906138c7565b9250505b8080600101915050611b8d565b50819450505050505b90565b6000600260008473ffffffffffffffffffffffffffffffffffffffff1673ffffffffffffffffffffffffffffffffffffffff16815260200190815260200160002060008381526020019081526020016000206040518060c00160405290816000820160009054906101000a900473ffffffffffffffffffffffffffffffffffffffff1673ffffffffffffffffffffffffffffffffffffffff1673ffffffffffffffffffffffffffffffffffffffff168152602001600182015481526020016002820160009054906101000a900473ffffffffffffffffffffffffffffffffffffffff1673ffffffffffffffffffffffffffffffffffffffff1673ffffffffffffffffffffffffffffffffffffffff16815260200160038201548152602001600482015481526020016005820154815250509050600073ffffffffffffffffffffffffffffffffffffffff16816040015173ffffffffffffffffffffffffffffffffffffffff1603611ef4576040517f08c379a0000000000000000000000000000000000000000000000000000000008152600401611eeb90613c8c565b60405180910390fd5b3373ffffffffffffffffffffffffffffffffffffffff16816040015173ffffffffffffffffffffffffffffffffffffffff1614611f66576040517f08c379a0000000000000000000000000000000000000000000000000000000008152600401611f5d90613f9c565b60405180910390fd5b611f7583838360400151612b84565b818373ffffffffffffffffffffffffffffffffffffffff167f25164b296f6f11aec8bd7dd4fc2b26e884fe09e27ff3852f49459976584f045d42604051611fbc919061333b565b60405180910390a3505050565b6000600554905090565b611fdb6131c4565b600260008473ffffffffffffffffffffffffffffffffffffffff1673ffffffffffffffffffffffffffffffffffffffff16815260200190815260200160002060008381526020019081526020016000206040518060c00160405290816000820160009054906101000a900473ffffffffffffffffffffffffffffffffffffffff1673ffffffffffffffffffffffffffffffffffffffff1673ffffffffffffffffffffffffffffffffffffffff168152602001600182015481526020016002820160009054906101000a900473ffffffffffffffffffffffffffffffffffffffff1673ffffffffffffffffffffffffffffffffffffffff1673ffffffffffffffffffffffffffffffffffffffff1681526020016003820154815260200160048201548152602001600582015481525050905092915050565b6060600360008373ffffffffffffffffffffffffffffffffffffffff1673ffffffffffffffffffffffffffffffffffffffff168152602001908152602001600020805480602002602001604051908101604052809291908181526020016000905b8282101561227957838290600052602060002090600602016040518060c00160405290816000820160009054906101000a900473ffffffffffffffffffffffffffffffffffffffff1673ffffffffffffffffffffffffffffffffffffffff1673ffffffffffffffffffffffffffffffffffffffff168152602001600182015481526020016002820160009054906101000a900473ffffffffffffffffffffffffffffffffffffffff1673ffffffffffffffffffffffffffffffffffffffff1673ffffffffffffffffffffffffffffffffffffffff168152602001600382015481526020016004820154815260200160058201548152505081526020019060010190612173565b505050509050919050565b61228c6129ea565b600073ffffffffffffffffffffffffffffffffffffffff168173ffffffffffffffffffffffffffffffffffffffff16036122fe5760006040517f1e4fbdf70000000000000000000000000000000000000000000000000000000081526004016122f5919061358a565b60405180910390fd5b61230781612a71565b50565b6000600260008573ffffffffffffffffffffffffffffffffffffffff1673ffffffffffffffffffffffffffffffffffffffff16815260200190815260200160002060008481526020019081526020016000209050600073ffffffffffffffffffffffffffffffffffffffff168160020160009054906101000a900473ffffffffffffffffffffffffffffffffffffffff1673ffffffffffffffffffffffffffffffffffffffff16036123f1576040517f08c379a00000000000000000000000000000000000000000000000000000000081526004016123e890613c8c565b60405180910390fd5b3373ffffffffffffffffffffffffffffffffffffffff168160020160009054906101000a900473ffffffffffffffffffffffffffffffffffffffff1673ffffffffffffffffffffffffffffffffffffffff1614612483576040517f08c379a000000000000000000000000000000000000000000000000000000000815260040161247a90613f9c565b60405180910390fd5b606482116124c6576040517f08c379a00000000000000000000000000000000000000000000000000000000081526004016124bd90613a0c565b60405180910390fd5b8060030154820361250c576040517f08c379a000000000000000000000000000000000000000000000000000000000815260040161250390614008565b60405180910390fd5b81816003018190555042816005018190555060005b600360003373ffffffffffffffffffffffffffffffffffffffff1673ffffffffffffffffffffffffffffffffffffffff1681526020019081526020016000208054905081101561276e578473ffffffffffffffffffffffffffffffffffffffff16600360003373ffffffffffffffffffffffffffffffffffffffff1673ffffffffffffffffffffffffffffffffffffffff16815260200190815260200160002082815481106125d3576125d2613840565b5b906000526020600020906006020160000160009054906101000a900473ffffffffffffffffffffffffffffffffffffffff1673ffffffffffffffffffffffffffffffffffffffff16148015612689575083600360003373ffffffffffffffffffffffffffffffffffffffff1673ffffffffffffffffffffffffffffffffffffffff168152602001908152602001600020828154811061267557612674613840565b5b906000526020600020906006020160010154145b156127615782600360003373ffffffffffffffffffffffffffffffffffffffff1673ffffffffffffffffffffffffffffffffffffffff16815260200190815260200160002082815481106126e0576126df613840565b5b90600052602060002090600602016003018190555042600360003373ffffffffffffffffffffffffffffffffffffffff1673ffffffffffffffffffffffffffffffffffffffff168152602001908152602001600020828154811061274757612746613840565b5b90600052602060002090600602016005018190555061276e565b8080600101915050612521565b50600060048054905090505b6000811115612990578473ffffffffffffffffffffffffffffffffffffffff1660046001836127a9919061380c565b815481106127ba576127b9613840565b5b906000526020600020906008020160000160009054906101000a900473ffffffffffffffffffffffffffffffffffffffff1673ffffffffffffffffffffffffffffffffffffffff1614801561283f575083600460018361281a919061380c565b8154811061282b5761282a613840565b5b906000526020600020906008020160010154145b80156128c757503373ffffffffffffffffffffffffffffffffffffffff16600460018361286c919061380c565b8154811061287d5761287c613840565b5b906000526020600020906008020160020160009054906101000a900473ffffffffffffffffffffffffffffffffffffffff1673ffffffffffffffffffffffffffffffffffffffff16145b80156129075750816004015460046001836128e2919061380c565b815481106128f3576128f2613840565b5b906000526020600020906008020160040154145b1561297d5782600460018361291c919061380c565b8154811061292d5761292c613840565b5b906000526020600020906008020160030181905550426004600183612952919061380c565b8154811061296357612962613840565b5b906000526020600020906008020160050181905550612990565b80806129889061386f565b91505061277a565b50828473ffffffffffffffffffffffffffffffffffffffff167fb8f3dda438349ef6632f812d6bc7aa3c2cfdb9e02aa0aac16324dcebbdc02bbb3385426040516129dc93929190614028565b60405180910390a350505050565b6129f261314b565b73ffffffffffffffffffffffffffffffffffffffff16612a106111fb565b73ffffffffffffffffffffffffffffffffffffffff1614612a6f57612a3361314b565b6040517f118cdaa7000000000000000000000000000000000000000000000000000000008152600401612a66919061358a565b60405180910390fd5b565b60008060009054906101000a900473ffffffffffffffffffffffffffffffffffffffff169050816000806101000a81548173ffffffffffffffffffffffffffffffffffffffff021916908373ffffffffffffffffffffffffffffffffffffffff1602179055508173ffffffffffffffffffffffffffffffffffffffff168173ffffffffffffffffffffffffffffffffffffffff167f8be0079c531659141344cd1fd0a4f28419497f9722a3daafe3b4186f6b6457e060405160405180910390a35050565b600260015403612b71576040517f3ee5aeb500000000000000000000000000000000000000000000000000000000815260040160405180910390fd5b6002600181905550565b60018081905550565b600260008473ffffffffffffffffffffffffffffffffffffffff1673ffffffffffffffffffffffffffffffffffffffff1681526020019081526020016000206000838152602001908152602001600020600080820160006101000a81549073ffffffffffffffffffffffffffffffffffffffff021916905560018201600090556002820160006101000a81549073ffffffffffffffffffffffffffffffffffffffff021916905560038201600090556004820160009055600582016000905550506000600360008373ffffffffffffffffffffffffffffffffffffffff1673ffffffffffffffffffffffffffffffffffffffff16815260200190815260200160002090506000805b8280549050811015612f5b578573ffffffffffffffffffffffffffffffffffffffff16838281548110612cc257612cc1613840565b5b906000526020600020906006020160000160009054906101000a900473ffffffffffffffffffffffffffffffffffffffff1673ffffffffffffffffffffffffffffffffffffffff16148015612d3a575084838281548110612d2657612d25613840565b5b906000526020600020906006020160010154145b15612f4e57828181548110612d5257612d51613840565b5b90600052602060002090600602016004015491508260018480549050612d78919061380c565b81548110612d8957612d88613840565b5b9060005260206000209060060201838281548110612daa57612da9613840565b5b90600052602060002090600602016000820160009054906101000a900473ffffffffffffffffffffffffffffffffffffffff168160000160006101000a81548173ffffffffffffffffffffffffffffffffffffffff021916908373ffffffffffffffffffffffffffffffffffffffff160217905550600182015481600101556002820160009054906101000a900473ffffffffffffffffffffffffffffffffffffffff168160020160006101000a81548173ffffffffffffffffffffffffffffffffffffffff021916908373ffffffffffffffffffffffffffffffffffffffff16021790555060038201548160030155600482015481600401556005820154816005015590505082805480612ec257612ec161405f565b5b6001900381819060005260206000209060060201600080820160006101000a81549073ffffffffffffffffffffffffffffffffffffffff021916905560018201600090556002820160006101000a81549073ffffffffffffffffffffffffffffffffffffffff021916905560038201600090556004820160009055600582016000905550509055612f5b565b8080600101915050612c8c565b50600060048054905090505b6000811115613143578573ffffffffffffffffffffffffffffffffffffffff166004600183612f96919061380c565b81548110612fa757612fa6613840565b5b906000526020600020906008020160000160009054906101000a900473ffffffffffffffffffffffffffffffffffffffff1673ffffffffffffffffffffffffffffffffffffffff1614801561302c5750846004600183613007919061380c565b8154811061301857613017613840565b5b906000526020600020906008020160010154145b80156130b457508373ffffffffffffffffffffffffffffffffffffffff166004600183613059919061380c565b8154811061306a57613069613840565b5b906000526020600020906008020160020160009054906101000a900473ffffffffffffffffffffffffffffffffffffffff1673ffffffffffffffffffffffffffffffffffffffff16145b80156130f057508160046001836130cb919061380c565b815481106130dc576130db613840565b5b906000526020600020906008020160040154145b1561313057426004600183613105919061380c565b8154811061311657613115613840565b5b906000526020600020906008020160060181905550613143565b808061313b9061386f565b915050612f67565b505050505050565b600033905090565b604051806101000160405280600073ffffffffffffffffffffffffffffffffffffffff16815260200160008152602001600073ffffffffffffffffffffffffffffffffffffffff16815260200160008152602001600081526020016000815260200160008152602001600081525090565b6040518060c00160405280600073ffffffffffffffffffffffffffffffffffffffff16815260200160008152602001600073ffffffffffffffffffffffffffffffffffffffff1681526020016000815260200160008152602001600081525090565b600080fd5b6000819050919050565b61323e8161322b565b811461324957600080fd5b50565b60008135905061325b81613235565b92915050565b60006020828403121561327757613276613226565b5b60006132858482850161324c565b91505092915050565b600073ffffffffffffffffffffffffffffffffffffffff82169050919050565b60006132b98261328e565b9050919050565b6132c9816132ae565b81146132d457600080fd5b50565b6000813590506132e6816132c0565b92915050565b6000806040838503121561330357613302613226565b5b6000613311858286016132d7565b92505060206133228582860161324c565b9150509250929050565b6133358161322b565b82525050565b6000602082019050613350600083018461332c565b92915050565b6000806040838503121561336d5761336c613226565b5b600061337b8582860161324c565b925050602061338c8582860161324c565b9150509250929050565b600081519050919050565b600082825260208201905092915050565b6000819050602082019050919050565b6133cb816132ae565b82525050565b6133da8161322b565b82525050565b610100820160008201516133f760008501826133c2565b50602082015161340a60208501826133d1565b50604082015161341d60408501826133c2565b50606082015161343060608501826133d1565b50608082015161344360808501826133d1565b5060a082015161345660a08501826133d1565b5060c082015161346960c08501826133d1565b5060e082015161347c60e08501826133d1565b50505050565b600061348e83836133e0565b6101008301905092915050565b6000602082019050919050565b60006134b382613396565b6134bd81856133a1565b93506134c8836133b2565b8060005b838110156134f95781516134e08882613482565b97506134eb8361349b565b9250506001810190506134cc565b5085935050505092915050565b6000602082019050818103600083015261352081846134a8565b905092915050565b60008060006060848603121561354157613540613226565b5b600061354f868287016132d7565b93505060206135608682870161324c565b92505060406135718682870161324c565b9150509250925092565b613584816132ae565b82525050565b600060208201905061359f600083018461357b565b92915050565b60c0820160008201516135bb60008501826133c2565b5060208201516135ce60208501826133d1565b5060408201516135e160408501826133c2565b5060608201516135f460608501826133d1565b50608082015161360760808501826133d1565b5060a082015161361a60a08501826133d1565b50505050565b600060c08201905061363560008301846135a5565b92915050565b60006020828403121561365157613650613226565b5b600061365f848285016132d7565b91505092915050565b600081519050919050565b600082825260208201905092915050565b6000819050602082019050919050565b60c0820160008201516136aa60008501826133c2565b5060208201516136bd60208501826133d1565b5060408201516136d060408501826133c2565b5060608201516136e360608501826133d1565b5060808201516136f660808501826133d1565b5060a082015161370960a08501826133d1565b50505050565b600061371b8383613694565b60c08301905092915050565b6000602082019050919050565b600061373f82613668565b6137498185613673565b935061375483613684565b8060005b8381101561378557815161376c888261370f565b975061377783613727565b925050600181019050613758565b5085935050505092915050565b600060208201905081810360008301526137ac8184613734565b905092915050565b60006040820190506137c9600083018561332c565b6137d6602083018461332c565b9392505050565b7f4e487b7100000000000000000000000000000000000000000000000000000000600052601160045260246000fd5b60006138178261322b565b91506138228361322b565b925082820390508181111561383a576138396137dd565b5b92915050565b7f4e487b7100000000000000000000000000000000000000000000000000000000600052603260045260246000fd5b600061387a8261322b565b91506000820361388d5761388c6137dd565b5b600182039050919050565b7f4e487b7100000000000000000000000000000000000000000000000000000000600052604160045260246000fd5b60006138d28261322b565b91507fffffffffffffffffffffffffffffffffffffffffffffffffffffffffffffffff8203613904576139036137dd565b5b600182019050919050565b600061391a8261322b565b91506139258361322b565b925082820190508082111561393d5761393c6137dd565b5b92915050565b600082825260208201905092915050565b7f4c697374696e6720666565206e6f742070616964000000000000000000000000600082015250565b600061398a601483613943565b915061399582613954565b602082019050919050565b600060208201905081810360008301526139b98161397d565b9050919050565b7f5072696365206d757374206265203e2031303020776569000000000000000000600082015250565b60006139f6601783613943565b9150613a01826139c0565b602082019050919050565b60006020820190508181036000830152613a25816139e9565b9050919050565b7f416c7265616479206c6973746564000000000000000000000000000000000000600082015250565b6000613a62600e83613943565b9150613a6d82613a2c565b602082019050919050565b60006020820190508181036000830152613a9181613a55565b9050919050565b600081519050613aa7816132c0565b92915050565b600060208284031215613ac357613ac2613226565b5b6000613ad184828501613a98565b91505092915050565b7f4e6f74206f776e65720000000000000000000000000000000000000000000000600082015250565b6000613b10600983613943565b9150613b1b82613ada565b602082019050919050565b60006020820190508181036000830152613b3f81613b03565b9050919050565b6000604082019050613b5b600083018561357b565b613b68602083018461357b565b9392505050565b60008115159050919050565b613b8481613b6f565b8114613b8f57600080fd5b50565b600081519050613ba181613b7b565b92915050565b600060208284031215613bbd57613bbc613226565b5b6000613bcb84828501613b92565b91505092915050565b7f4d61726b6574706c616365206e6f7420617070726f7665640000000000000000600082015250565b6000613c0a601883613943565b9150613c1582613bd4565b602082019050919050565b60006020820190508181036000830152613c3981613bfd565b9050919050565b7f4e6f74206c697374656400000000000000000000000000000000000000000000600082015250565b6000613c76600a83613943565b9150613c8182613c40565b602082019050919050565b60006020820190508181036000830152613ca581613c69565b9050919050565b7f43616e6e6f742062757920796f7572206f776e206974656d0000000000000000600082015250565b6000613ce2601883613943565b9150613ced82613cac565b602082019050919050565b60006020820190508181036000830152613d1181613cd5565b9050919050565b7f496e73756666696369656e742045544800000000000000000000000000000000600082015250565b6000613d4e601083613943565b9150613d5982613d18565b602082019050919050565b60006020820190508181036000830152613d7d81613d41565b9050919050565b600081519050613d9381613235565b92915050565b600060208284031215613daf57613dae613226565b5b6000613dbd84828501613d84565b91505092915050565b6000613dd18261322b565b9150613ddc8361322b565b9250828202613dea8161322b565b91508282048414831517613e0157613e006137dd565b5b5092915050565b7f4e487b7100000000000000000000000000000000000000000000000000000000600052601260045260246000fd5b6000613e428261322b565b9150613e4d8361322b565b925082613e5d57613e5c613e08565b5b828204905092915050565b7f526f79616c7479206665652065786365656473207061796d656e740000000000600082015250565b6000613e9e601b83613943565b9150613ea982613e68565b602082019050919050565b60006020820190508181036000830152613ecd81613e91565b9050919050565b6000606082019050613ee9600083018661357b565b613ef6602083018561357b565b613f03604083018461332c565b949350505050565b6000608082019050613f20600083018761357b565b613f2d602083018661357b565b613f3a604083018561332c565b613f47606083018461332c565b95945050505050565b7f4e6f742073656c6c657200000000000000000000000000000000000000000000600082015250565b6000613f86600a83613943565b9150613f9182613f50565b602082019050919050565b60006020820190508181036000830152613fb581613f79565b9050919050565b7f507269636520616c72656164792073657420746f20746869732076616c756500600082015250565b6000613ff2601f83613943565b9150613ffd82613fbc565b602082019050919050565b6000602082019050818103600083015261402181613fe5565b9050919050565b600060608201905061403d600083018661357b565b61404a602083018561332c565b614057604083018461332c565b949350505050565b7f4e487b7100000000000000000000000000000000000000000000000000000000600052603160045260246000fdfea2646970667358221220cab02e1728670b05dcab50d9b92b5a3e3e7284c1a29793144ec4833c134cfe6364736f6c634300081c0033",
  "linkReferences": {},
  "deployedLinkReferences": {}
}