{
  "_format": "hh-sol-artifact-1",
  "contractName": "NFTMarketplacev2",
  "sourceName": "contracts/NFTMarketplacev2.sol",
  "abi": [
    {
      "inputs": [],
      "stateMutability": "nonpayable",
      "type": "constructor"
    },
    {
      "inputs": [
        {
          "internalType": "address",
          "name": "owner",
          "type": "address"
        }
      ],
      "name": "OwnableInvalidOwner",
      "type": "error"
    },
    {
      "inputs": [
        {
          "internalType": "address",
          "name": "account",
          "type": "address"
        }
      ],
      "name": "OwnableUnauthorizedAccount",
      "type": "error"
    },
    {
      "inputs": [],
      "name": "ReentrancyGuardReentrantCall",
      "type": "error"
    },
    {
      "anonymous": false,
      "inputs": [
        {
          "indexed": false,
          "internalType": "uint256",
          "name": "amount",
          "type": "uint256"
        },
        {
          "indexed": false,
          "internalType": "uint256",
          "name": "timestamp",
          "type": "uint256"
        }
      ],
      "name": "FeeWithdrawn",
      "type": "event"
    },
    {
      "anonymous": false,
      "inputs": [
        {
          "indexed": true,
          "internalType": "address",
          "name": "nft",
          "type": "address"
        },
        {
          "indexed": true,
          "internalType": "uint256",
          "name": "tokenId",
          "type": "uint256"
        },
        {
          "indexed": false,
          "internalType": "uint256",
          "name": "timestamp",
          "type": "uint256"
        }
      ],
      "name": "ItemCanceled",
      "type": "event"
    },
    {
      "anonymous": false,
      "inputs": [
        {
          "indexed": true,
          "internalType": "address",
          "name": "nft",
          "type": "address"
        },
        {
          "indexed": true,
          "internalType": "uint256",
          "name": "tokenId",
          "type": "uint256"
        },
        {
          "indexed": true,
          "internalType": "address",
          "name": "seller",
          "type": "address"
        },
        {
          "indexed": false,
          "internalType": "uint256",
          "name": "price",
          "type": "uint256"
        },
        {
          "indexed": false,
          "internalType": "uint256",
          "name": "timestamp",
          "type": "uint256"
        }
      ],
      "name": "ItemListed",
      "type": "event"
    },
    {
      "anonymous": false,
      "inputs": [
        {
          "indexed": true,
          "internalType": "address",
          "name": "nft",
          "type": "address"
        },
        {
          "indexed": true,
          "internalType": "uint256",
          "name": "tokenId",
          "type": "uint256"
        },
        {
          "indexed": false,
          "internalType": "address",
          "name": "seller",
          "type": "address"
        },
        {
          "indexed": false,
          "internalType": "address",
          "name": "buyer",
          "type": "address"
        },
        {
          "indexed": false,
          "internalType": "uint256",
          "name": "price",
          "type": "uint256"
        },
        {
          "indexed": false,
          "internalType": "uint256",
          "name": "timestamp",
          "type": "uint256"
        }
      ],
      "name": "ItemSold",
      "type": "event"
    },
    {
      "anonymous": false,
      "inputs": [
        {
          "indexed": false,
          "internalType": "uint256",
          "name": "newFee",
          "type": "uint256"
        },
        {
          "indexed": false,
          "internalType": "uint256",
          "name": "timestamp",
          "type": "uint256"
        }
      ],
      "name": "ListingFeeUpdated",
      "type": "event"
    },
    {
      "anonymous": false,
      "inputs": [
        {
          "indexed": true,
          "internalType": "address",
          "name": "nft",
          "type": "address"
        },
        {
          "indexed": true,
          "internalType": "uint256",
          "name": "tokenId",
          "type": "uint256"
        },
        {
          "indexed": false,
          "internalType": "address",
          "name": "seller",
          "type": "address"
        },
        {
          "indexed": false,
          "internalType": "uint256",
          "name": "newPrice",
          "type": "uint256"
        },
        {
          "indexed": false,
          "internalType": "uint256",
          "name": "timestamp",
          "type": "uint256"
        }
      ],
      "name": "ListingUpdated",
      "type": "event"
    },
    {
      "anonymous": false,
      "inputs": [
        {
          "indexed": true,
          "internalType": "address",
          "name": "previousOwner",
          "type": "address"
        },
        {
          "indexed": true,
          "internalType": "address",
          "name": "newOwner",
          "type": "address"
        }
      ],
      "name": "OwnershipTransferred",
      "type": "event"
    },
    {
      "inputs": [
        {
          "internalType": "address",
          "name": "nft",
          "type": "address"
        },
        {
          "internalType": "uint256",
          "name": "tokenId",
          "type": "uint256"
        }
      ],
      "name": "buyItem",
      "outputs": [],
      "stateMutability": "payable",
      "type": "function"
    },
    {
      "inputs": [
        {
          "internalType": "address",
          "name": "nft",
          "type": "address"
        },
        {
          "internalType": "uint256",
          "name": "tokenId",
          "type": "uint256"
        }
      ],
      "name": "cancelListing",
      "outputs": [],
      "stateMutability": "nonpayable",
      "type": "function"
    },
    {
      "inputs": [],
      "name": "getAllListings",
      "outputs": [
        {
          "components": [
            {
              "internalType": "address",
              "name": "nft",
              "type": "address"
            },
            {
              "internalType": "uint256",
              "name": "tokenId",
              "type": "uint256"
            },
            {
              "internalType": "address",
              "name": "seller",
              "type": "address"
            },
            {
              "internalType": "uint256",
              "name": "price",
              "type": "uint256"
            },
            {
              "internalType": "uint256",
              "name": "listedAt",
              "type": "uint256"
            },
            {
              "internalType": "uint256",
              "name": "updatedAt",
              "type": "uint256"
            },
            {
              "internalType": "uint256",
              "name": "canceledAt",
              "type": "uint256"
            },
            {
              "internalType": "uint256",
              "name": "soldAt",
              "type": "uint256"
            },
            {
              "internalType": "address",
              "name": "buyer",
              "type": "address"
            }
          ],
          "internalType": "struct NFTMarketplacev2.ListingLogInfo[]",
          "name": "",
          "type": "tuple[]"
        }
      ],
      "stateMutability": "view",
      "type": "function"
    },
    {
      "inputs": [
        {
          "internalType": "address",
          "name": "nft",
          "type": "address"
        },
        {
          "internalType": "uint256",
          "name": "tokenId",
          "type": "uint256"
        }
      ],
      "name": "getHistoryTransactionsByNFT",
      "outputs": [
        {
          "components": [
            {
              "internalType": "address",
              "name": "nft",
              "type": "address"
            },
            {
              "internalType": "uint256",
              "name": "tokenId",
              "type": "uint256"
            },
            {
              "internalType": "address",
              "name": "seller",
              "type": "address"
            },
            {
              "internalType": "uint256",
              "name": "price",
              "type": "uint256"
            },
            {
              "internalType": "uint256",
              "name": "listedAt",
              "type": "uint256"
            },
            {
              "internalType": "uint256",
              "name": "updatedAt",
              "type": "uint256"
            },
            {
              "internalType": "uint256",
              "name": "canceledAt",
              "type": "uint256"
            },
            {
              "internalType": "uint256",
              "name": "soldAt",
              "type": "uint256"
            },
            {
              "internalType": "address",
              "name": "buyer",
              "type": "address"
            }
          ],
          "internalType": "struct NFTMarketplacev2.ListingLogInfo[]",
          "name": "",
          "type": "tuple[]"
        }
      ],
      "stateMutability": "view",
      "type": "function"
    },
    {
      "inputs": [
        {
          "internalType": "address",
          "name": "nft",
          "type": "address"
        },
        {
          "internalType": "uint256",
          "name": "tokenId",
          "type": "uint256"
        }
      ],
      "name": "getLastSoldPrice",
      "outputs": [
        {
          "internalType": "uint256",
          "name": "",
          "type": "uint256"
        }
      ],
      "stateMutability": "view",
      "type": "function"
    },
    {
      "inputs": [
        {
          "internalType": "uint256",
          "name": "limit",
          "type": "uint256"
        },
        {
          "internalType": "uint256",
          "name": "offset",
          "type": "uint256"
        }
      ],
      "name": "getLatestListings",
      "outputs": [
        {
          "components": [
            {
              "internalType": "address",
              "name": "nft",
              "type": "address"
            },
            {
              "internalType": "uint256",
              "name": "tokenId",
              "type": "uint256"
            },
            {
              "internalType": "address",
              "name": "seller",
              "type": "address"
            },
            {
              "internalType": "uint256",
              "name": "price",
              "type": "uint256"
            },
            {
              "internalType": "uint256",
              "name": "listedAt",
              "type": "uint256"
            },
            {
              "internalType": "uint256",
              "name": "updatedAt",
              "type": "uint256"
            },
            {
              "internalType": "uint256",
              "name": "canceledAt",
              "type": "uint256"
            },
            {
              "internalType": "uint256",
              "name": "soldAt",
              "type": "uint256"
            },
            {
              "internalType": "address",
              "name": "buyer",
              "type": "address"
            }
          ],
          "internalType": "struct NFTMarketplacev2.ListingLogInfo[]",
          "name": "",
          "type": "tuple[]"
        }
      ],
      "stateMutability": "view",
      "type": "function"
    },
    {
      "inputs": [
        {
          "internalType": "address",
          "name": "nft",
          "type": "address"
        },
        {
          "internalType": "uint256",
          "name": "tokenId",
          "type": "uint256"
        }
      ],
      "name": "getListingById",
      "outputs": [
        {
          "components": [
            {
              "internalType": "address",
              "name": "nft",
              "type": "address"
            },
            {
              "internalType": "uint256",
              "name": "tokenId",
              "type": "uint256"
            },
            {
              "internalType": "address",
              "name": "seller",
              "type": "address"
            },
            {
              "internalType": "uint256",
              "name": "price",
              "type": "uint256"
            },
            {
              "internalType": "uint256",
              "name": "listedAt",
              "type": "uint256"
            },
            {
              "internalType": "uint256",
              "name": "updatedAt",
              "type": "uint256"
            }
          ],
          "internalType": "struct NFTMarketplacev2.Listing",
          "name": "",
          "type": "tuple"
        }
      ],
      "stateMutability": "view",
      "type": "function"
    },
    {
      "inputs": [],
      "name": "getListingFee",
      "outputs": [
        {
          "internalType": "uint256",
          "name": "",
          "type": "uint256"
        }
      ],
      "stateMutability": "view",
      "type": "function"
    },
    {
      "inputs": [
        {
          "internalType": "address",
          "name": "seller",
          "type": "address"
        }
      ],
      "name": "getListingsBySeller",
      "outputs": [
        {
          "components": [
            {
              "internalType": "address",
              "name": "nft",
              "type": "address"
            },
            {
              "internalType": "uint256",
              "name": "tokenId",
              "type": "uint256"
            },
            {
              "internalType": "address",
              "name": "seller",
              "type": "address"
            },
            {
              "internalType": "uint256",
              "name": "price",
              "type": "uint256"
            },
            {
              "internalType": "uint256",
              "name": "listedAt",
              "type": "uint256"
            },
            {
              "internalType": "uint256",
              "name": "updatedAt",
              "type": "uint256"
            }
          ],
          "internalType": "struct NFTMarketplacev2.Listing[]",
          "name": "",
          "type": "tuple[]"
        }
      ],
      "stateMutability": "view",
      "type": "function"
    },
    {
      "inputs": [
        {
          "internalType": "address",
          "name": "nft",
          "type": "address"
        },
        {
          "internalType": "address",
          "name": "creator",
          "type": "address"
        }
      ],
      "name": "getTotalRoyaltyFeesByCreator",
      "outputs": [
        {
          "components": [
            {
              "internalType": "uint256",
              "name": "tokenId",
              "type": "uint256"
            },
            {
              "internalType": "uint256",
              "name": "totalRoyaltyFee",
              "type": "uint256"
            }
          ],
          "internalType": "struct NFTMarketplacev2.RoyaltyInfo[]",
          "name": "",
          "type": "tuple[]"
        }
      ],
      "stateMutability": "view",
      "type": "function"
    },
    {
      "inputs": [
        {
          "internalType": "address",
          "name": "nft",
          "type": "address"
        },
        {
          "internalType": "address",
          "name": "creator",
          "type": "address"
        },
        {
          "internalType": "uint256",
          "name": "tokenId",
          "type": "uint256"
        }
      ],
      "name": "getTotalRoyaltyFeesByCreatorAndToken",
      "outputs": [
        {
          "internalType": "uint256",
          "name": "",
          "type": "uint256"
        }
      ],
      "stateMutability": "view",
      "type": "function"
    },
    {
      "inputs": [
        {
          "internalType": "address",
          "name": "nft",
          "type": "address"
        },
        {
          "internalType": "uint256",
          "name": "tokenId",
          "type": "uint256"
        },
        {
          "internalType": "uint256",
          "name": "price",
          "type": "uint256"
        }
      ],
      "name": "listItem",
      "outputs": [],
      "stateMutability": "payable",
      "type": "function"
    },
    {
      "inputs": [],
      "name": "owner",
      "outputs": [
        {
          "internalType": "address",
          "name": "",
          "type": "address"
        }
      ],
      "stateMutability": "view",
      "type": "function"
    },
    {
      "inputs": [],
      "name": "renounceOwnership",
      "outputs": [],
      "stateMutability": "nonpayable",
      "type": "function"
    },
    {
      "inputs": [
        {
          "internalType": "uint256",
          "name": "_fee",
          "type": "uint256"
        }
      ],
      "name": "setListingFee",
      "outputs": [],
      "stateMutability": "nonpayable",
      "type": "function"
    },
    {
      "inputs": [
        {
          "internalType": "address",
          "name": "newOwner",
          "type": "address"
        }
      ],
      "name": "transferOwnership",
      "outputs": [],
      "stateMutability": "nonpayable",
      "type": "function"
    },
    {
      "inputs": [
        {
          "internalType": "address",
          "name": "nft",
          "type": "address"
        },
        {
          "internalType": "uint256",
          "name": "tokenId",
          "type": "uint256"
        },
        {
          "internalType": "uint256",
          "name": "newPrice",
          "type": "uint256"
        }
      ],
      "name": "updateListingPrice",
      "outputs": [],
      "stateMutability": "nonpayable",
      "type": "function"
    },
    {
      "inputs": [],
      "name": "withdrawFees",
      "outputs": [],
      "stateMutability": "nonpayable",
      "type": "function"
    }
  ],
  "bytecode": "0x6080604052655af3107a400060065534801561001a57600080fd5b5033600073ffffffffffffffffffffffffffffffffffffffff168173ffffffffffffffffffffffffffffffffffffffff160361008e5760006040517f1e4fbdf700000000000000000000000000000000000000000000000000000000815260040161008591906101af565b60405180910390fd5b61009d816100aa60201b60201c565b50600180819055506101ca565b60008060009054906101000a900473ffffffffffffffffffffffffffffffffffffffff169050816000806101000a81548173ffffffffffffffffffffffffffffffffffffffff021916908373ffffffffffffffffffffffffffffffffffffffff1602179055508173ffffffffffffffffffffffffffffffffffffffff168173ffffffffffffffffffffffffffffffffffffffff167f8be0079c531659141344cd1fd0a4f28419497f9722a3daafe3b4186f6b6457e060405160405180910390a35050565b600073ffffffffffffffffffffffffffffffffffffffff82169050919050565b60006101998261016e565b9050919050565b6101a98161018e565b82525050565b60006020820190506101c460008301846101a0565b92915050565b61504c806101d96000396000f3fe6080604052600436106101095760003560e01c8063914552c611610095578063b8fe6abe11610064578063b8fe6abe1461034d578063bf71cdb814610378578063d8cba251146103b5578063f2fde38b146103f2578063f7232f671461041b57610109565b8063914552c6146102a05780639f37092a146102dd578063ae73ccec146102f9578063b2ddee061461032457610109565b8063476343ee116100dc578063476343ee146101ee5780634cfa466614610205578063715018a61461024257806389bfd38f146102595780638da5cb5b1461027557610109565b8063131dbd091461010e5780631b53e9f814610137578063255f3179146101745780632e701507146101b1575b600080fd5b34801561011a57600080fd5b5061013560048036038101906101309190613e96565b610444565b005b34801561014357600080fd5b5061015e60048036038101906101599190613f21565b61048f565b60405161016b9190613f83565b60405180910390f35b34801561018057600080fd5b5061019b60048036038101906101969190613f9e565b610528565b6040516101a89190613f83565b60405180910390f35b3480156101bd57600080fd5b506101d860048036038101906101d39190613fde565b610694565b6040516101e591906141a3565b60405180910390f35b3480156101fa57600080fd5b50610203610b17565b005b34801561021157600080fd5b5061022c60048036038101906102279190613f9e565b610bae565b60405161023991906141a3565b60405180910390f35b34801561024e57600080fd5b50610257610faf565b005b610273600480360381019061026e91906141c5565b610fc3565b005b34801561028157600080fd5b5061028a611896565b6040516102979190614227565b60405180910390f35b3480156102ac57600080fd5b506102c760048036038101906102c29190614242565b6118bf565b6040516102d49190614360565b60405180910390f35b6102f760048036038101906102f29190613f9e565b611aa8565b005b34801561030557600080fd5b5061030e612564565b60405161031b91906141a3565b60405180910390f35b34801561033057600080fd5b5061034b60048036038101906103469190613f9e565b6128cf565b005b34801561035957600080fd5b50610362612bb8565b60405161036f9190613f83565b60405180910390f35b34801561038457600080fd5b5061039f600480360381019061039a9190613f9e565b612bc2565b6040516103ac91906143fd565b60405180910390f35b3480156103c157600080fd5b506103dc60048036038101906103d79190614418565b612d01565b6040516103e9919061456f565b60405180910390f35b3480156103fe57600080fd5b5061041960048036038101906104149190614418565b612e73565b005b34801561042757600080fd5b50610442600480360381019061043d91906141c5565b612ef9565b005b61044c6135d9565b806006819055507f83bee1c75d00c29e66092d821c1c82aa4792fe1f058e8dff38d5d394d37916dd8142604051610484929190614591565b60405180910390a150565b6000600460008573ffffffffffffffffffffffffffffffffffffffff1673ffffffffffffffffffffffffffffffffffffffff16815260200190815260200160002060008473ffffffffffffffffffffffffffffffffffffffff1673ffffffffffffffffffffffffffffffffffffffff16815260200190815260200160002060008381526020019081526020016000205490509392505050565b60008060058054905090505b6000811115610688578373ffffffffffffffffffffffffffffffffffffffff16600560018361056391906145e9565b815481106105745761057361461d565b5b906000526020600020906009020160000160009054906101000a900473ffffffffffffffffffffffffffffffffffffffff1673ffffffffffffffffffffffffffffffffffffffff161480156105f957508260056001836105d491906145e9565b815481106105e5576105e461461d565b5b906000526020600020906009020160010154145b801561063657506000600560018361061191906145e9565b815481106106225761062161461d565b5b906000526020600020906009020160070154115b1561067557600560018261064a91906145e9565b8154811061065b5761065a61461d565b5b90600052602060002090600902016003015491505061068e565b80806106809061464c565b915050610534565b50600090505b92915050565b60606000600580549050905080831061070457600067ffffffffffffffff8111156106c2576106c1614675565b5b6040519080825280602002602001820160405280156106fb57816020015b6106e8613d42565b8152602001906001900390816106e05790505b50915050610b11565b6000841161071157600a93505b60008060018361072191906145e9565b905060008390505b60008111156107ef576000600560018361074391906145e9565b815481106107545761075361461d565b5b90600052602060002090600902016006015411806107a357506000600560018361077e91906145e9565b8154811061078f5761078e61461d565b5b906000526020600020906009020160070154115b6107dc5782806107b2906146a4565b93505085876107c191906146ec565b83106107db576001816107d491906145e9565b91506107ef565b5b80806107e79061464c565b915050610729565b5060008214806107ff5750848211155b1561086357600067ffffffffffffffff81111561081f5761081e614675565b5b60405190808252806020026020018201604052801561085857816020015b610845613d42565b81526020019060019003908161083d5790505b509350505050610b11565b848661086f91906146ec565b821161088857848261088191906145e9565b9550610895565b85821015610894578195505b5b60008667ffffffffffffffff8111156108b1576108b0614675565b5b6040519080825280602002602001820160405280156108ea57816020015b6108d7613d42565b8152602001906001900390816108cf5790505b5090506000808390505b85811015610b07576000600582815481106109125761091161461d565b5b906000526020600020906009020160060154118061095557506000600582815481106109415761094061461d565b5b906000526020600020906009020160070154115b610afa576005818154811061096d5761096c61461d565b5b9060005260206000209060090201604051806101200160405290816000820160009054906101000a900473ffffffffffffffffffffffffffffffffffffffff1673ffffffffffffffffffffffffffffffffffffffff1673ffffffffffffffffffffffffffffffffffffffff168152602001600182015481526020016002820160009054906101000a900473ffffffffffffffffffffffffffffffffffffffff1673ffffffffffffffffffffffffffffffffffffffff1673ffffffffffffffffffffffffffffffffffffffff16815260200160038201548152602001600482015481526020016005820154815260200160068201548152602001600782015481526020016008820160009054906101000a900473ffffffffffffffffffffffffffffffffffffffff1673ffffffffffffffffffffffffffffffffffffffff1673ffffffffffffffffffffffffffffffffffffffff1681525050838381518110610ad857610ad761461d565b5b60200260200101819052508180610aee906146a4565b92505088821015610b07575b80806001019150506108f4565b5081955050505050505b92915050565b610b1f6135d9565b6000479050610b2c611896565b73ffffffffffffffffffffffffffffffffffffffff166108fc829081150290604051600060405180830381858888f19350505050158015610b71573d6000803e3d6000fd5b507f0a86d3615abd799fbaa5be89d4941a68641aec3f02b8f19faff5dfade02817bc8142604051610ba3929190614591565b60405180910390a150565b6060600060058054905090506000805b82811015610cbc578573ffffffffffffffffffffffffffffffffffffffff1660058281548110610bf157610bf061461d565b5b906000526020600020906009020160000160009054906101000a900473ffffffffffffffffffffffffffffffffffffffff1673ffffffffffffffffffffffffffffffffffffffff16148015610c6a57508460058281548110610c5657610c5561461d565b5b906000526020600020906009020160010154145b8015610c9b5750600060058281548110610c8757610c8661461d565b5b906000526020600020906009020160070154115b15610caf578180610cab906146a4565b9250505b8080600101915050610bbe565b5060008167ffffffffffffffff811115610cd957610cd8614675565b5b604051908082528060200260200182016040528015610d1257816020015b610cff613d42565b815260200190600190039081610cf75790505b5090506000805b84811015610fa1578773ffffffffffffffffffffffffffffffffffffffff1660058281548110610d4c57610d4b61461d565b5b906000526020600020906009020160000160009054906101000a900473ffffffffffffffffffffffffffffffffffffffff1673ffffffffffffffffffffffffffffffffffffffff16148015610dc557508660058281548110610db157610db061461d565b5b906000526020600020906009020160010154145b8015610df65750600060058281548110610de257610de161461d565b5b906000526020600020906009020160070154115b15610f945760058181548110610e0f57610e0e61461d565b5b9060005260206000209060090201604051806101200160405290816000820160009054906101000a900473ffffffffffffffffffffffffffffffffffffffff1673ffffffffffffffffffffffffffffffffffffffff1673ffffffffffffffffffffffffffffffffffffffff168152602001600182015481526020016002820160009054906101000a900473ffffffffffffffffffffffffffffffffffffffff1673ffffffffffffffffffffffffffffffffffffffff1673ffffffffffffffffffffffffffffffffffffffff16815260200160038201548152602001600482015481526020016005820154815260200160068201548152602001600782015481526020016008820160009054906101000a900473ffffffffffffffffffffffffffffffffffffffff1673ffffffffffffffffffffffffffffffffffffffff1673ffffffffffffffffffffffffffffffffffffffff1681525050838381518110610f7a57610f7961461d565b5b60200260200101819052508180610f90906146a4565b9250505b8080600101915050610d19565b508194505050505092915050565b610fb76135d9565b610fc16000613660565b565b610fcb613724565b600654341015611010576040517f08c379a00000000000000000000000000000000000000000000000000000000081526004016110079061477d565b60405180910390fd5b60648111611053576040517f08c379a000000000000000000000000000000000000000000000000000000000815260040161104a906147e9565b60405180910390fd5b600073ffffffffffffffffffffffffffffffffffffffff16600260008573ffffffffffffffffffffffffffffffffffffffff1673ffffffffffffffffffffffffffffffffffffffff168152602001908152602001600020600084815260200190815260200160002060020160009054906101000a900473ffffffffffffffffffffffffffffffffffffffff1673ffffffffffffffffffffffffffffffffffffffff1614611135576040517f08c379a000000000000000000000000000000000000000000000000000000000815260040161112c90614855565b60405180910390fd5b60008390503373ffffffffffffffffffffffffffffffffffffffff168173ffffffffffffffffffffffffffffffffffffffff16636352211e856040518263ffffffff1660e01b815260040161118a9190613f83565b602060405180830381865afa1580156111a7573d6000803e3d6000fd5b505050506040513d601f19601f820116820180604052508101906111cb919061488a565b73ffffffffffffffffffffffffffffffffffffffff1614611221576040517f08c379a000000000000000000000000000000000000000000000000000000000815260040161121890614903565b60405180910390fd5b8073ffffffffffffffffffffffffffffffffffffffff1663e985e9c533306040518363ffffffff1660e01b815260040161125c929190614923565b602060405180830381865afa158015611279573d6000803e3d6000fd5b505050506040513d601f19601f8201168201806040525081019061129d9190614984565b6112dc576040517f08c379a00000000000000000000000000000000000000000000000000000000081526004016112d3906149fd565b60405180910390fd5b6040518060c001604052808573ffffffffffffffffffffffffffffffffffffffff1681526020018481526020013373ffffffffffffffffffffffffffffffffffffffff16815260200183815260200142815260200142815250600260008673ffffffffffffffffffffffffffffffffffffffff1673ffffffffffffffffffffffffffffffffffffffff168152602001908152602001600020600085815260200190815260200160002060008201518160000160006101000a81548173ffffffffffffffffffffffffffffffffffffffff021916908373ffffffffffffffffffffffffffffffffffffffff1602179055506020820151816001015560408201518160020160006101000a81548173ffffffffffffffffffffffffffffffffffffffff021916908373ffffffffffffffffffffffffffffffffffffffff160217905550606082015181600301556080820151816004015560a082015181600501559050508373ffffffffffffffffffffffffffffffffffffffff166398214bcb8460016040518363ffffffff1660e01b815260040161147a929190614a2c565b600060405180830381600087803b15801561149457600080fd5b505af11580156114a8573d6000803e3d6000fd5b50505050600360003373ffffffffffffffffffffffffffffffffffffffff1673ffffffffffffffffffffffffffffffffffffffff168152602001908152602001600020600260008673ffffffffffffffffffffffffffffffffffffffff1673ffffffffffffffffffffffffffffffffffffffff168152602001908152602001600020600085815260200190815260200160002090806001815401808255809150506001900390600052602060002090600602016000909190919091506000820160009054906101000a900473ffffffffffffffffffffffffffffffffffffffff168160000160006101000a81548173ffffffffffffffffffffffffffffffffffffffff021916908373ffffffffffffffffffffffffffffffffffffffff160217905550600182015481600101556002820160009054906101000a900473ffffffffffffffffffffffffffffffffffffffff168160020160006101000a81548173ffffffffffffffffffffffffffffffffffffffff021916908373ffffffffffffffffffffffffffffffffffffffff160217905550600382015481600301556004820154816004015560058201548160050155505060056040518061012001604052808673ffffffffffffffffffffffffffffffffffffffff1681526020018581526020013373ffffffffffffffffffffffffffffffffffffffff1681526020018481526020014281526020014281526020016000815260200160008152602001600073ffffffffffffffffffffffffffffffffffffffff16815250908060018154018082558091505060019003906000526020600020906009020160009091909190915060008201518160000160006101000a81548173ffffffffffffffffffffffffffffffffffffffff021916908373ffffffffffffffffffffffffffffffffffffffff1602179055506020820151816001015560408201518160020160006101000a81548173ffffffffffffffffffffffffffffffffffffffff021916908373ffffffffffffffffffffffffffffffffffffffff160217905550606082015181600301556080820151816004015560a0820151816005015560c0820151816006015560e082015181600701556101008201518160080160006101000a81548173ffffffffffffffffffffffffffffffffffffffff021916908373ffffffffffffffffffffffffffffffffffffffff16021790555050503373ffffffffffffffffffffffffffffffffffffffff16838573ffffffffffffffffffffffffffffffffffffffff167fbd5d1836d4114b1a1785c873a084824203ab9c294b3694e6a9fa69234a9113c68542604051611880929190614591565b60405180910390a45061189161376a565b505050565b60008060009054906101000a900473ffffffffffffffffffffffffffffffffffffffff16905090565b606060008373ffffffffffffffffffffffffffffffffffffffff1663d5c71275846040518263ffffffff1660e01b81526004016118fc9190614227565b600060405180830381865afa158015611919573d6000803e3d6000fd5b505050506040513d6000823e3d601f19601f820116820180604052508101906119429190614b94565b90506000815167ffffffffffffffff81111561196157611960614675565b5b60405190808252806020026020018201604052801561199a57816020015b611987613dd0565b81526020019060019003908161197f5790505b50905060005b8251811015611a9c5760008382815181106119be576119bd61461d565b5b602002602001015190506000600460008973ffffffffffffffffffffffffffffffffffffffff1673ffffffffffffffffffffffffffffffffffffffff16815260200190815260200160002060008873ffffffffffffffffffffffffffffffffffffffff1673ffffffffffffffffffffffffffffffffffffffff1681526020019081526020016000206000838152602001908152602001600020549050604051806040016040528083815260200182815250848481518110611a8257611a8161461d565b5b6020026020010181905250505080806001019150506119a0565b50809250505092915050565b611ab0613724565b6000600260008473ffffffffffffffffffffffffffffffffffffffff1673ffffffffffffffffffffffffffffffffffffffff16815260200190815260200160002060008381526020019081526020016000206040518060c00160405290816000820160009054906101000a900473ffffffffffffffffffffffffffffffffffffffff1673ffffffffffffffffffffffffffffffffffffffff1673ffffffffffffffffffffffffffffffffffffffff168152602001600182015481526020016002820160009054906101000a900473ffffffffffffffffffffffffffffffffffffffff1673ffffffffffffffffffffffffffffffffffffffff1673ffffffffffffffffffffffffffffffffffffffff16815260200160038201548152602001600482015481526020016005820154815250509050600073ffffffffffffffffffffffffffffffffffffffff16816040015173ffffffffffffffffffffffffffffffffffffffff1603611c56576040517f08c379a0000000000000000000000000000000000000000000000000000000008152600401611c4d90614c29565b60405180910390fd5b3373ffffffffffffffffffffffffffffffffffffffff16816040015173ffffffffffffffffffffffffffffffffffffffff1603611cc8576040517f08c379a0000000000000000000000000000000000000000000000000000000008152600401611cbf90614c95565b60405180910390fd5b8273ffffffffffffffffffffffffffffffffffffffff1663e985e9c58260400151306040518363ffffffff1660e01b8152600401611d07929190614923565b602060405180830381865afa158015611d24573d6000803e3d6000fd5b505050506040513d601f19601f82011682018060405250810190611d489190614984565b611d87576040517f08c379a0000000000000000000000000000000000000000000000000000000008152600401611d7e906149fd565b60405180910390fd5b8060600151341015611dce576040517f08c379a0000000000000000000000000000000000000000000000000000000008152600401611dc590614d01565b60405180910390fd5b60008373ffffffffffffffffffffffffffffffffffffffff1663b3912597846040518263ffffffff1660e01b8152600401611e099190613f83565b602060405180830381865afa158015611e26573d6000803e3d6000fd5b505050506040513d601f19601f82011682018060405250810190611e4a9190614d21565b905060008473ffffffffffffffffffffffffffffffffffffffff16637539fc5c856040518263ffffffff1660e01b8152600401611e879190613f83565b602060405180830381865afa158015611ea4573d6000803e3d6000fd5b505050506040513d601f19601f82011682018060405250810190611ec8919061488a565b90506000836060015190506000846040015173ffffffffffffffffffffffffffffffffffffffff168373ffffffffffffffffffffffffffffffffffffffff1614611f80576064848660600151611f1e9190614d4e565b611f289190614dbf565b905034811115611f6d576040517f08c379a0000000000000000000000000000000000000000000000000000000008152600401611f6490614e3c565b60405180910390fd5b808560600151611f7d91906145e9565b91505b600081111561202e5780600460008973ffffffffffffffffffffffffffffffffffffffff1673ffffffffffffffffffffffffffffffffffffffff16815260200190815260200160002060008573ffffffffffffffffffffffffffffffffffffffff1673ffffffffffffffffffffffffffffffffffffffff1681526020019081526020016000206000888152602001908152602001600020600082825461202691906146ec565b925050819055505b846040015173ffffffffffffffffffffffffffffffffffffffff168373ffffffffffffffffffffffffffffffffffffffff160361210a5781600460008973ffffffffffffffffffffffffffffffffffffffff1673ffffffffffffffffffffffffffffffffffffffff16815260200190815260200160002060008573ffffffffffffffffffffffffffffffffffffffff1673ffffffffffffffffffffffffffffffffffffffff1681526020019081526020016000206000888152602001908152602001600020600082825461210291906146ec565b925050819055505b8673ffffffffffffffffffffffffffffffffffffffff166342842e0e866040015133896040518463ffffffff1660e01b815260040161214b93929190614e5c565b600060405180830381600087803b15801561216557600080fd5b505af1158015612179573d6000803e3d6000fd5b5050505060008111156121ce578273ffffffffffffffffffffffffffffffffffffffff166108fc829081150290604051600060405180830381858888f193505050501580156121cc573d6000803e3d6000fd5b505b846040015173ffffffffffffffffffffffffffffffffffffffff166108fc839081150290604051600060405180830381858888f19350505050158015612218573d6000803e3d6000fd5b508673ffffffffffffffffffffffffffffffffffffffff166398214bcb8760006040518363ffffffff1660e01b8152600401612255929190614a2c565b600060405180830381600087803b15801561226f57600080fd5b505af1158015612283573d6000803e3d6000fd5b5050505061229687878760400151613773565b600060058054905090505b60008111156124f5578773ffffffffffffffffffffffffffffffffffffffff1660056001836122d091906145e9565b815481106122e1576122e061461d565b5b906000526020600020906009020160000160009054906101000a900473ffffffffffffffffffffffffffffffffffffffff1673ffffffffffffffffffffffffffffffffffffffff16148015612366575086600560018361234191906145e9565b815481106123525761235161461d565b5b906000526020600020906009020160010154145b80156123f25750856040015173ffffffffffffffffffffffffffffffffffffffff16600560018361239791906145e9565b815481106123a8576123a761461d565b5b906000526020600020906009020160020160009054906101000a900473ffffffffffffffffffffffffffffffffffffffff1673ffffffffffffffffffffffffffffffffffffffff16145b801561243257508560800151600560018361240d91906145e9565b8154811061241e5761241d61461d565b5b906000526020600020906009020160040154145b156124e25742600560018361244791906145e9565b815481106124585761245761461d565b5b90600052602060002090600902016007018190555033600560018361247d91906145e9565b8154811061248e5761248d61461d565b5b906000526020600020906009020160080160006101000a81548173ffffffffffffffffffffffffffffffffffffffff021916908373ffffffffffffffffffffffffffffffffffffffff1602179055506124f5565b80806124ed9061464c565b9150506122a1565b50858773ffffffffffffffffffffffffffffffffffffffff167f2781b6bf1d50821bde8d8e1ea36be5557167d6b25dde84a52efb147adf2e6d3587604001513389606001514260405161254b9493929190614e93565b60405180910390a3505050505061256061376a565b5050565b6060600060058054905090506000805b828110156125f5576000600582815481106125925761259161461d565b5b90600052602060002090600902016006015411806125d557506000600582815481106125c1576125c061461d565b5b906000526020600020906009020160070154115b6125e85781806125e4906146a4565b9250505b8080600101915050612574565b506000810361265c57600067ffffffffffffffff81111561261957612618614675565b5b60405190808252806020026020018201604052801561265257816020015b61263f613d42565b8152602001906001900390816126375790505b50925050506128cc565b60008167ffffffffffffffff81111561267857612677614675565b5b6040519080825280602002602001820160405280156126b157816020015b61269e613d42565b8152602001906001900390816126965790505b5090506000805b848110156128c3576000600582815481106126d6576126d561461d565b5b906000526020600020906009020160060154118061271957506000600582815481106127055761270461461d565b5b906000526020600020906009020160070154115b6128b657600581815481106127315761273061461d565b5b9060005260206000209060090201604051806101200160405290816000820160009054906101000a900473ffffffffffffffffffffffffffffffffffffffff1673ffffffffffffffffffffffffffffffffffffffff1673ffffffffffffffffffffffffffffffffffffffff168152602001600182015481526020016002820160009054906101000a900473ffffffffffffffffffffffffffffffffffffffff1673ffffffffffffffffffffffffffffffffffffffff1673ffffffffffffffffffffffffffffffffffffffff16815260200160038201548152602001600482015481526020016005820154815260200160068201548152602001600782015481526020016008820160009054906101000a900473ffffffffffffffffffffffffffffffffffffffff1673ffffffffffffffffffffffffffffffffffffffff1673ffffffffffffffffffffffffffffffffffffffff168152505083838151811061289c5761289b61461d565b5b602002602001018190525081806128b2906146a4565b9250505b80806001019150506126b8565b50819450505050505b90565b6000600260008473ffffffffffffffffffffffffffffffffffffffff1673ffffffffffffffffffffffffffffffffffffffff16815260200190815260200160002060008381526020019081526020016000206040518060c00160405290816000820160009054906101000a900473ffffffffffffffffffffffffffffffffffffffff1673ffffffffffffffffffffffffffffffffffffffff1673ffffffffffffffffffffffffffffffffffffffff168152602001600182015481526020016002820160009054906101000a900473ffffffffffffffffffffffffffffffffffffffff1673ffffffffffffffffffffffffffffffffffffffff1673ffffffffffffffffffffffffffffffffffffffff16815260200160038201548152602001600482015481526020016005820154815250509050600073ffffffffffffffffffffffffffffffffffffffff16816040015173ffffffffffffffffffffffffffffffffffffffff1603612a75576040517f08c379a0000000000000000000000000000000000000000000000000000000008152600401612a6c90614c29565b60405180910390fd5b3373ffffffffffffffffffffffffffffffffffffffff16816040015173ffffffffffffffffffffffffffffffffffffffff1614612ae7576040517f08c379a0000000000000000000000000000000000000000000000000000000008152600401612ade90614f24565b60405180910390fd5b612af683838360400151613773565b8273ffffffffffffffffffffffffffffffffffffffff166398214bcb8360006040518363ffffffff1660e01b8152600401612b32929190614a2c565b600060405180830381600087803b158015612b4c57600080fd5b505af1158015612b60573d6000803e3d6000fd5b50505050818373ffffffffffffffffffffffffffffffffffffffff167f25164b296f6f11aec8bd7dd4fc2b26e884fe09e27ff3852f49459976584f045d42604051612bab9190613f83565b60405180910390a3505050565b6000600654905090565b612bca613dea565b600260008473ffffffffffffffffffffffffffffffffffffffff1673ffffffffffffffffffffffffffffffffffffffff16815260200190815260200160002060008381526020019081526020016000206040518060c00160405290816000820160009054906101000a900473ffffffffffffffffffffffffffffffffffffffff1673ffffffffffffffffffffffffffffffffffffffff1673ffffffffffffffffffffffffffffffffffffffff168152602001600182015481526020016002820160009054906101000a900473ffffffffffffffffffffffffffffffffffffffff1673ffffffffffffffffffffffffffffffffffffffff1673ffffffffffffffffffffffffffffffffffffffff1681526020016003820154815260200160048201548152602001600582015481525050905092915050565b6060600360008373ffffffffffffffffffffffffffffffffffffffff1673ffffffffffffffffffffffffffffffffffffffff168152602001908152602001600020805480602002602001604051908101604052809291908181526020016000905b82821015612e6857838290600052602060002090600602016040518060c00160405290816000820160009054906101000a900473ffffffffffffffffffffffffffffffffffffffff1673ffffffffffffffffffffffffffffffffffffffff1673ffffffffffffffffffffffffffffffffffffffff168152602001600182015481526020016002820160009054906101000a900473ffffffffffffffffffffffffffffffffffffffff1673ffffffffffffffffffffffffffffffffffffffff1673ffffffffffffffffffffffffffffffffffffffff168152602001600382015481526020016004820154815260200160058201548152505081526020019060010190612d62565b505050509050919050565b612e7b6135d9565b600073ffffffffffffffffffffffffffffffffffffffff168173ffffffffffffffffffffffffffffffffffffffff1603612eed5760006040517f1e4fbdf7000000000000000000000000000000000000000000000000000000008152600401612ee49190614227565b60405180910390fd5b612ef681613660565b50565b6000600260008573ffffffffffffffffffffffffffffffffffffffff1673ffffffffffffffffffffffffffffffffffffffff16815260200190815260200160002060008481526020019081526020016000209050600073ffffffffffffffffffffffffffffffffffffffff168160020160009054906101000a900473ffffffffffffffffffffffffffffffffffffffff1673ffffffffffffffffffffffffffffffffffffffff1603612fe0576040517f08c379a0000000000000000000000000000000000000000000000000000000008152600401612fd790614c29565b60405180910390fd5b3373ffffffffffffffffffffffffffffffffffffffff168160020160009054906101000a900473ffffffffffffffffffffffffffffffffffffffff1673ffffffffffffffffffffffffffffffffffffffff1614613072576040517f08c379a000000000000000000000000000000000000000000000000000000000815260040161306990614f24565b60405180910390fd5b606482116130b5576040517f08c379a00000000000000000000000000000000000000000000000000000000081526004016130ac906147e9565b60405180910390fd5b806003015482036130fb576040517f08c379a00000000000000000000000000000000000000000000000000000000081526004016130f290614f90565b60405180910390fd5b81816003018190555042816005018190555060005b600360003373ffffffffffffffffffffffffffffffffffffffff1673ffffffffffffffffffffffffffffffffffffffff1681526020019081526020016000208054905081101561335d578473ffffffffffffffffffffffffffffffffffffffff16600360003373ffffffffffffffffffffffffffffffffffffffff1673ffffffffffffffffffffffffffffffffffffffff16815260200190815260200160002082815481106131c2576131c161461d565b5b906000526020600020906006020160000160009054906101000a900473ffffffffffffffffffffffffffffffffffffffff1673ffffffffffffffffffffffffffffffffffffffff16148015613278575083600360003373ffffffffffffffffffffffffffffffffffffffff1673ffffffffffffffffffffffffffffffffffffffff16815260200190815260200160002082815481106132645761326361461d565b5b906000526020600020906006020160010154145b156133505782600360003373ffffffffffffffffffffffffffffffffffffffff1673ffffffffffffffffffffffffffffffffffffffff16815260200190815260200160002082815481106132cf576132ce61461d565b5b90600052602060002090600602016003018190555042600360003373ffffffffffffffffffffffffffffffffffffffff1673ffffffffffffffffffffffffffffffffffffffff16815260200190815260200160002082815481106133365761333561461d565b5b90600052602060002090600602016005018190555061335d565b8080600101915050613110565b50600060058054905090505b600081111561357f578473ffffffffffffffffffffffffffffffffffffffff16600560018361339891906145e9565b815481106133a9576133a861461d565b5b906000526020600020906009020160000160009054906101000a900473ffffffffffffffffffffffffffffffffffffffff1673ffffffffffffffffffffffffffffffffffffffff1614801561342e575083600560018361340991906145e9565b8154811061341a5761341961461d565b5b906000526020600020906009020160010154145b80156134b657503373ffffffffffffffffffffffffffffffffffffffff16600560018361345b91906145e9565b8154811061346c5761346b61461d565b5b906000526020600020906009020160020160009054906101000a900473ffffffffffffffffffffffffffffffffffffffff1673ffffffffffffffffffffffffffffffffffffffff16145b80156134f65750816004015460056001836134d191906145e9565b815481106134e2576134e161461d565b5b906000526020600020906009020160040154145b1561356c5782600560018361350b91906145e9565b8154811061351c5761351b61461d565b5b90600052602060002090600902016003018190555042600560018361354191906145e9565b815481106135525761355161461d565b5b90600052602060002090600902016005018190555061357f565b80806135779061464c565b915050613369565b50828473ffffffffffffffffffffffffffffffffffffffff167fb8f3dda438349ef6632f812d6bc7aa3c2cfdb9e02aa0aac16324dcebbdc02bbb3385426040516135cb93929190614fb0565b60405180910390a350505050565b6135e1613d3a565b73ffffffffffffffffffffffffffffffffffffffff166135ff611896565b73ffffffffffffffffffffffffffffffffffffffff161461365e57613622613d3a565b6040517f118cdaa70000000000000000000000000000000000000000000000000000000081526004016136559190614227565b60405180910390fd5b565b60008060009054906101000a900473ffffffffffffffffffffffffffffffffffffffff169050816000806101000a81548173ffffffffffffffffffffffffffffffffffffffff021916908373ffffffffffffffffffffffffffffffffffffffff1602179055508173ffffffffffffffffffffffffffffffffffffffff168173ffffffffffffffffffffffffffffffffffffffff167f8be0079c531659141344cd1fd0a4f28419497f9722a3daafe3b4186f6b6457e060405160405180910390a35050565b600260015403613760576040517f3ee5aeb500000000000000000000000000000000000000000000000000000000815260040160405180910390fd5b6002600181905550565b60018081905550565b600260008473ffffffffffffffffffffffffffffffffffffffff1673ffffffffffffffffffffffffffffffffffffffff1681526020019081526020016000206000838152602001908152602001600020600080820160006101000a81549073ffffffffffffffffffffffffffffffffffffffff021916905560018201600090556002820160006101000a81549073ffffffffffffffffffffffffffffffffffffffff021916905560038201600090556004820160009055600582016000905550506000600360008373ffffffffffffffffffffffffffffffffffffffff1673ffffffffffffffffffffffffffffffffffffffff16815260200190815260200160002090506000805b8280549050811015613b4a578573ffffffffffffffffffffffffffffffffffffffff168382815481106138b1576138b061461d565b5b906000526020600020906006020160000160009054906101000a900473ffffffffffffffffffffffffffffffffffffffff1673ffffffffffffffffffffffffffffffffffffffff161480156139295750848382815481106139155761391461461d565b5b906000526020600020906006020160010154145b15613b3d578281815481106139415761394061461d565b5b9060005260206000209060060201600401549150826001848054905061396791906145e9565b815481106139785761397761461d565b5b90600052602060002090600602018382815481106139995761399861461d565b5b90600052602060002090600602016000820160009054906101000a900473ffffffffffffffffffffffffffffffffffffffff168160000160006101000a81548173ffffffffffffffffffffffffffffffffffffffff021916908373ffffffffffffffffffffffffffffffffffffffff160217905550600182015481600101556002820160009054906101000a900473ffffffffffffffffffffffffffffffffffffffff168160020160006101000a81548173ffffffffffffffffffffffffffffffffffffffff021916908373ffffffffffffffffffffffffffffffffffffffff16021790555060038201548160030155600482015481600401556005820154816005015590505082805480613ab157613ab0614fe7565b5b6001900381819060005260206000209060060201600080820160006101000a81549073ffffffffffffffffffffffffffffffffffffffff021916905560018201600090556002820160006101000a81549073ffffffffffffffffffffffffffffffffffffffff021916905560038201600090556004820160009055600582016000905550509055613b4a565b808060010191505061387b565b50600060058054905090505b6000811115613d32578573ffffffffffffffffffffffffffffffffffffffff166005600183613b8591906145e9565b81548110613b9657613b9561461d565b5b906000526020600020906009020160000160009054906101000a900473ffffffffffffffffffffffffffffffffffffffff1673ffffffffffffffffffffffffffffffffffffffff16148015613c1b5750846005600183613bf691906145e9565b81548110613c0757613c0661461d565b5b906000526020600020906009020160010154145b8015613ca357508373ffffffffffffffffffffffffffffffffffffffff166005600183613c4891906145e9565b81548110613c5957613c5861461d565b5b906000526020600020906009020160020160009054906101000a900473ffffffffffffffffffffffffffffffffffffffff1673ffffffffffffffffffffffffffffffffffffffff16145b8015613cdf5750816005600183613cba91906145e9565b81548110613ccb57613cca61461d565b5b906000526020600020906009020160040154145b15613d1f57426005600183613cf491906145e9565b81548110613d0557613d0461461d565b5b906000526020600020906009020160060181905550613d32565b8080613d2a9061464c565b915050613b56565b505050505050565b600033905090565b604051806101200160405280600073ffffffffffffffffffffffffffffffffffffffff16815260200160008152602001600073ffffffffffffffffffffffffffffffffffffffff1681526020016000815260200160008152602001600081526020016000815260200160008152602001600073ffffffffffffffffffffffffffffffffffffffff1681525090565b604051806040016040528060008152602001600081525090565b6040518060c00160405280600073ffffffffffffffffffffffffffffffffffffffff16815260200160008152602001600073ffffffffffffffffffffffffffffffffffffffff1681526020016000815260200160008152602001600081525090565b6000604051905090565b600080fd5b600080fd5b6000819050919050565b613e7381613e60565b8114613e7e57600080fd5b50565b600081359050613e9081613e6a565b92915050565b600060208284031215613eac57613eab613e56565b5b6000613eba84828501613e81565b91505092915050565b600073ffffffffffffffffffffffffffffffffffffffff82169050919050565b6000613eee82613ec3565b9050919050565b613efe81613ee3565b8114613f0957600080fd5b50565b600081359050613f1b81613ef5565b92915050565b600080600060608486031215613f3a57613f39613e56565b5b6000613f4886828701613f0c565b9350506020613f5986828701613f0c565b9250506040613f6a86828701613e81565b9150509250925092565b613f7d81613e60565b82525050565b6000602082019050613f986000830184613f74565b92915050565b60008060408385031215613fb557613fb4613e56565b5b6000613fc385828601613f0c565b9250506020613fd485828601613e81565b9150509250929050565b60008060408385031215613ff557613ff4613e56565b5b600061400385828601613e81565b925050602061401485828601613e81565b9150509250929050565b600081519050919050565b600082825260208201905092915050565b6000819050602082019050919050565b61405381613ee3565b82525050565b61406281613e60565b82525050565b6101208201600082015161407f600085018261404a565b5060208201516140926020850182614059565b5060408201516140a5604085018261404a565b5060608201516140b86060850182614059565b5060808201516140cb6080850182614059565b5060a08201516140de60a0850182614059565b5060c08201516140f160c0850182614059565b5060e082015161410460e0850182614059565b5061010082015161411961010085018261404a565b50505050565b600061412b8383614068565b6101208301905092915050565b6000602082019050919050565b60006141508261401e565b61415a8185614029565b93506141658361403a565b8060005b8381101561419657815161417d888261411f565b975061418883614138565b925050600181019050614169565b5085935050505092915050565b600060208201905081810360008301526141bd8184614145565b905092915050565b6000806000606084860312156141de576141dd613e56565b5b60006141ec86828701613f0c565b93505060206141fd86828701613e81565b925050604061420e86828701613e81565b9150509250925092565b61422181613ee3565b82525050565b600060208201905061423c6000830184614218565b92915050565b6000806040838503121561425957614258613e56565b5b600061426785828601613f0c565b925050602061427885828601613f0c565b9150509250929050565b600081519050919050565b600082825260208201905092915050565b6000819050602082019050919050565b6040820160008201516142c46000850182614059565b5060208201516142d76020850182614059565b50505050565b60006142e983836142ae565b60408301905092915050565b6000602082019050919050565b600061430d82614282565b614317818561428d565b93506143228361429e565b8060005b8381101561435357815161433a88826142dd565b9750614345836142f5565b925050600181019050614326565b5085935050505092915050565b6000602082019050818103600083015261437a8184614302565b905092915050565b60c082016000820151614398600085018261404a565b5060208201516143ab6020850182614059565b5060408201516143be604085018261404a565b5060608201516143d16060850182614059565b5060808201516143e46080850182614059565b5060a08201516143f760a0850182614059565b50505050565b600060c0820190506144126000830184614382565b92915050565b60006020828403121561442e5761442d613e56565b5b600061443c84828501613f0c565b91505092915050565b600081519050919050565b600082825260208201905092915050565b6000819050602082019050919050565b60c082016000820151614487600085018261404a565b50602082015161449a6020850182614059565b5060408201516144ad604085018261404a565b5060608201516144c06060850182614059565b5060808201516144d36080850182614059565b5060a08201516144e660a0850182614059565b50505050565b60006144f88383614471565b60c08301905092915050565b6000602082019050919050565b600061451c82614445565b6145268185614450565b935061453183614461565b8060005b8381101561456257815161454988826144ec565b975061455483614504565b925050600181019050614535565b5085935050505092915050565b600060208201905081810360008301526145898184614511565b905092915050565b60006040820190506145a66000830185613f74565b6145b36020830184613f74565b9392505050565b7f4e487b7100000000000000000000000000000000000000000000000000000000600052601160045260246000fd5b60006145f482613e60565b91506145ff83613e60565b9250828203905081811115614617576146166145ba565b5b92915050565b7f4e487b7100000000000000000000000000000000000000000000000000000000600052603260045260246000fd5b600061465782613e60565b91506000820361466a576146696145ba565b5b600182039050919050565b7f4e487b7100000000000000000000000000000000000000000000000000000000600052604160045260246000fd5b60006146af82613e60565b91507fffffffffffffffffffffffffffffffffffffffffffffffffffffffffffffffff82036146e1576146e06145ba565b5b600182019050919050565b60006146f782613e60565b915061470283613e60565b925082820190508082111561471a576147196145ba565b5b92915050565b600082825260208201905092915050565b7f4c697374696e6720666565206e6f742070616964000000000000000000000000600082015250565b6000614767601483614720565b915061477282614731565b602082019050919050565b600060208201905081810360008301526147968161475a565b9050919050565b7f5072696365206d757374206265203e2031303020776569000000000000000000600082015250565b60006147d3601783614720565b91506147de8261479d565b602082019050919050565b60006020820190508181036000830152614802816147c6565b9050919050565b7f416c7265616479206c6973746564000000000000000000000000000000000000600082015250565b600061483f600e83614720565b915061484a82614809565b602082019050919050565b6000602082019050818103600083015261486e81614832565b9050919050565b60008151905061488481613ef5565b92915050565b6000602082840312156148a05761489f613e56565b5b60006148ae84828501614875565b91505092915050565b7f4e6f74206f776e65720000000000000000000000000000000000000000000000600082015250565b60006148ed600983614720565b91506148f8826148b7565b602082019050919050565b6000602082019050818103600083015261491c816148e0565b9050919050565b60006040820190506149386000830185614218565b6149456020830184614218565b9392505050565b60008115159050919050565b6149618161494c565b811461496c57600080fd5b50565b60008151905061497e81614958565b92915050565b60006020828403121561499a57614999613e56565b5b60006149a88482850161496f565b91505092915050565b7f4d61726b6574706c616365206e6f7420617070726f7665640000000000000000600082015250565b60006149e7601883614720565b91506149f2826149b1565b602082019050919050565b60006020820190508181036000830152614a16816149da565b9050919050565b614a268161494c565b82525050565b6000604082019050614a416000830185613f74565b614a4e6020830184614a1d565b9392505050565b600080fd5b6000601f19601f8301169050919050565b614a7482614a5a565b810181811067ffffffffffffffff82111715614a9357614a92614675565b5b80604052505050565b6000614aa6613e4c565b9050614ab28282614a6b565b919050565b600067ffffffffffffffff821115614ad257614ad1614675565b5b602082029050602081019050919050565b600080fd5b600081519050614af781613e6a565b92915050565b6000614b10614b0b84614ab7565b614a9c565b90508083825260208201905060208402830185811115614b3357614b32614ae3565b5b835b81811015614b5c5780614b488882614ae8565b845260208401935050602081019050614b35565b5050509392505050565b600082601f830112614b7b57614b7a614a55565b5b8151614b8b848260208601614afd565b91505092915050565b600060208284031215614baa57614ba9613e56565b5b600082015167ffffffffffffffff811115614bc857614bc7613e5b565b5b614bd484828501614b66565b91505092915050565b7f4e6f74206c697374656400000000000000000000000000000000000000000000600082015250565b6000614c13600a83614720565b9150614c1e82614bdd565b602082019050919050565b60006020820190508181036000830152614c4281614c06565b9050919050565b7f43616e6e6f742062757920796f7572206f776e206974656d0000000000000000600082015250565b6000614c7f601883614720565b9150614c8a82614c49565b602082019050919050565b60006020820190508181036000830152614cae81614c72565b9050919050565b7f496e73756666696369656e742045544800000000000000000000000000000000600082015250565b6000614ceb601083614720565b9150614cf682614cb5565b602082019050919050565b60006020820190508181036000830152614d1a81614cde565b9050919050565b600060208284031215614d3757614d36613e56565b5b6000614d4584828501614ae8565b91505092915050565b6000614d5982613e60565b9150614d6483613e60565b9250828202614d7281613e60565b91508282048414831517614d8957614d886145ba565b5b5092915050565b7f4e487b7100000000000000000000000000000000000000000000000000000000600052601260045260246000fd5b6000614dca82613e60565b9150614dd583613e60565b925082614de557614de4614d90565b5b828204905092915050565b7f526f79616c7479206665652065786365656473207061796d656e740000000000600082015250565b6000614e26601b83614720565b9150614e3182614df0565b602082019050919050565b60006020820190508181036000830152614e5581614e19565b9050919050565b6000606082019050614e716000830186614218565b614e7e6020830185614218565b614e8b6040830184613f74565b949350505050565b6000608082019050614ea86000830187614218565b614eb56020830186614218565b614ec26040830185613f74565b614ecf6060830184613f74565b95945050505050565b7f4e6f742073656c6c657200000000000000000000000000000000000000000000600082015250565b6000614f0e600a83614720565b9150614f1982614ed8565b602082019050919050565b60006020820190508181036000830152614f3d81614f01565b9050919050565b7f507269636520616c72656164792073657420746f20746869732076616c756500600082015250565b6000614f7a601f83614720565b9150614f8582614f44565b602082019050919050565b60006020820190508181036000830152614fa981614f6d565b9050919050565b6000606082019050614fc56000830186614218565b614fd26020830185613f74565b614fdf6040830184613f74565b949350505050565b7f4e487b7100000000000000000000000000000000000000000000000000000000600052603160045260246000fdfea2646970667358221220ac94ab2f43862f9ae51dea60917769925419d1fcdacdce0354ad9a0ac722e05c64736f6c634300081c0033",
  "linkReferences": {},
  "deployedLinkReferences": {}
}