{
  "_format": "hh-sol-artifact-1",
  "contractName": "NFTMarketplacev2",
  "sourceName": "contracts/NFTMarketplacev2.sol",
  "abi": [
    {
      "inputs": [],
      "stateMutability": "nonpayable",
      "type": "constructor"
    },
    {
      "inputs": [
        {
          "internalType": "address",
          "name": "owner",
          "type": "address"
        }
      ],
      "name": "OwnableInvalidOwner",
      "type": "error"
    },
    {
      "inputs": [
        {
          "internalType": "address",
          "name": "account",
          "type": "address"
        }
      ],
      "name": "OwnableUnauthorizedAccount",
      "type": "error"
    },
    {
      "inputs": [],
      "name": "ReentrancyGuardReentrantCall",
      "type": "error"
    },
    {
      "anonymous": false,
      "inputs": [
        {
          "indexed": false,
          "internalType": "uint256",
          "name": "amount",
          "type": "uint256"
        },
        {
          "indexed": false,
          "internalType": "uint256",
          "name": "timestamp",
          "type": "uint256"
        }
      ],
      "name": "FeeWithdrawn",
      "type": "event"
    },
    {
      "anonymous": false,
      "inputs": [
        {
          "indexed": true,
          "internalType": "address",
          "name": "nft",
          "type": "address"
        },
        {
          "indexed": true,
          "internalType": "uint256",
          "name": "tokenId",
          "type": "uint256"
        },
        {
          "indexed": false,
          "internalType": "uint256",
          "name": "timestamp",
          "type": "uint256"
        }
      ],
      "name": "ItemCanceled",
      "type": "event"
    },
    {
      "anonymous": false,
      "inputs": [
        {
          "indexed": true,
          "internalType": "address",
          "name": "nft",
          "type": "address"
        },
        {
          "indexed": true,
          "internalType": "uint256",
          "name": "tokenId",
          "type": "uint256"
        },
        {
          "indexed": true,
          "internalType": "address",
          "name": "seller",
          "type": "address"
        },
        {
          "indexed": false,
          "internalType": "uint256",
          "name": "price",
          "type": "uint256"
        },
        {
          "indexed": false,
          "internalType": "uint256",
          "name": "timestamp",
          "type": "uint256"
        }
      ],
      "name": "ItemListed",
      "type": "event"
    },
    {
      "anonymous": false,
      "inputs": [
        {
          "indexed": true,
          "internalType": "address",
          "name": "nft",
          "type": "address"
        },
        {
          "indexed": true,
          "internalType": "uint256",
          "name": "tokenId",
          "type": "uint256"
        },
        {
          "indexed": false,
          "internalType": "address",
          "name": "seller",
          "type": "address"
        },
        {
          "indexed": false,
          "internalType": "address",
          "name": "buyer",
          "type": "address"
        },
        {
          "indexed": false,
          "internalType": "uint256",
          "name": "price",
          "type": "uint256"
        },
        {
          "indexed": false,
          "internalType": "uint256",
          "name": "timestamp",
          "type": "uint256"
        }
      ],
      "name": "ItemSold",
      "type": "event"
    },
    {
      "anonymous": false,
      "inputs": [
        {
          "indexed": false,
          "internalType": "uint256",
          "name": "newFee",
          "type": "uint256"
        },
        {
          "indexed": false,
          "internalType": "uint256",
          "name": "timestamp",
          "type": "uint256"
        }
      ],
      "name": "ListingFeeUpdated",
      "type": "event"
    },
    {
      "anonymous": false,
      "inputs": [
        {
          "indexed": true,
          "internalType": "address",
          "name": "nft",
          "type": "address"
        },
        {
          "indexed": true,
          "internalType": "uint256",
          "name": "tokenId",
          "type": "uint256"
        },
        {
          "indexed": false,
          "internalType": "address",
          "name": "seller",
          "type": "address"
        },
        {
          "indexed": false,
          "internalType": "uint256",
          "name": "newPrice",
          "type": "uint256"
        },
        {
          "indexed": false,
          "internalType": "uint256",
          "name": "timestamp",
          "type": "uint256"
        }
      ],
      "name": "ListingUpdated",
      "type": "event"
    },
    {
      "anonymous": false,
      "inputs": [
        {
          "indexed": true,
          "internalType": "address",
          "name": "previousOwner",
          "type": "address"
        },
        {
          "indexed": true,
          "internalType": "address",
          "name": "newOwner",
          "type": "address"
        }
      ],
      "name": "OwnershipTransferred",
      "type": "event"
    },
    {
      "inputs": [
        {
          "internalType": "address",
          "name": "nft",
          "type": "address"
        },
        {
          "internalType": "uint256",
          "name": "tokenId",
          "type": "uint256"
        }
      ],
      "name": "buyItem",
      "outputs": [],
      "stateMutability": "payable",
      "type": "function"
    },
    {
      "inputs": [
        {
          "internalType": "address",
          "name": "nft",
          "type": "address"
        },
        {
          "internalType": "uint256",
          "name": "tokenId",
          "type": "uint256"
        }
      ],
      "name": "cancelListing",
      "outputs": [],
      "stateMutability": "nonpayable",
      "type": "function"
    },
    {
      "inputs": [],
      "name": "getAllListings",
      "outputs": [
        {
          "components": [
            {
              "internalType": "address",
              "name": "nft",
              "type": "address"
            },
            {
              "internalType": "uint256",
              "name": "tokenId",
              "type": "uint256"
            },
            {
              "internalType": "address",
              "name": "seller",
              "type": "address"
            },
            {
              "internalType": "uint256",
              "name": "price",
              "type": "uint256"
            },
            {
              "internalType": "uint256",
              "name": "listedAt",
              "type": "uint256"
            },
            {
              "internalType": "uint256",
              "name": "updatedAt",
              "type": "uint256"
            },
            {
              "internalType": "uint256",
              "name": "canceledAt",
              "type": "uint256"
            },
            {
              "internalType": "uint256",
              "name": "soldAt",
              "type": "uint256"
            },
            {
              "internalType": "address",
              "name": "buyer",
              "type": "address"
            }
          ],
          "internalType": "struct NFTMarketplacev2.ListingLogInfo[]",
          "name": "",
          "type": "tuple[]"
        }
      ],
      "stateMutability": "view",
      "type": "function"
    },
    {
      "inputs": [
        {
          "internalType": "address",
          "name": "nft",
          "type": "address"
        },
        {
          "internalType": "uint256",
          "name": "tokenId",
          "type": "uint256"
        }
      ],
      "name": "getHistoryTransactionsByNFT",
      "outputs": [
        {
          "components": [
            {
              "internalType": "address",
              "name": "nft",
              "type": "address"
            },
            {
              "internalType": "uint256",
              "name": "tokenId",
              "type": "uint256"
            },
            {
              "internalType": "address",
              "name": "seller",
              "type": "address"
            },
            {
              "internalType": "uint256",
              "name": "price",
              "type": "uint256"
            },
            {
              "internalType": "uint256",
              "name": "listedAt",
              "type": "uint256"
            },
            {
              "internalType": "uint256",
              "name": "updatedAt",
              "type": "uint256"
            },
            {
              "internalType": "uint256",
              "name": "canceledAt",
              "type": "uint256"
            },
            {
              "internalType": "uint256",
              "name": "soldAt",
              "type": "uint256"
            },
            {
              "internalType": "address",
              "name": "buyer",
              "type": "address"
            }
          ],
          "internalType": "struct NFTMarketplacev2.ListingLogInfo[]",
          "name": "",
          "type": "tuple[]"
        }
      ],
      "stateMutability": "view",
      "type": "function"
    },
    {
      "inputs": [
        {
          "internalType": "address",
          "name": "nft",
          "type": "address"
        },
        {
          "internalType": "uint256",
          "name": "tokenId",
          "type": "uint256"
        }
      ],
      "name": "getLastSoldPrice",
      "outputs": [
        {
          "internalType": "uint256",
          "name": "",
          "type": "uint256"
        }
      ],
      "stateMutability": "view",
      "type": "function"
    },
    {
      "inputs": [
        {
          "internalType": "uint256",
          "name": "limit",
          "type": "uint256"
        },
        {
          "internalType": "uint256",
          "name": "offset",
          "type": "uint256"
        }
      ],
      "name": "getLatestListings",
      "outputs": [
        {
          "components": [
            {
              "internalType": "address",
              "name": "nft",
              "type": "address"
            },
            {
              "internalType": "uint256",
              "name": "tokenId",
              "type": "uint256"
            },
            {
              "internalType": "address",
              "name": "seller",
              "type": "address"
            },
            {
              "internalType": "uint256",
              "name": "price",
              "type": "uint256"
            },
            {
              "internalType": "uint256",
              "name": "listedAt",
              "type": "uint256"
            },
            {
              "internalType": "uint256",
              "name": "updatedAt",
              "type": "uint256"
            },
            {
              "internalType": "uint256",
              "name": "canceledAt",
              "type": "uint256"
            },
            {
              "internalType": "uint256",
              "name": "soldAt",
              "type": "uint256"
            },
            {
              "internalType": "address",
              "name": "buyer",
              "type": "address"
            }
          ],
          "internalType": "struct NFTMarketplacev2.ListingLogInfo[]",
          "name": "",
          "type": "tuple[]"
        }
      ],
      "stateMutability": "view",
      "type": "function"
    },
    {
      "inputs": [
        {
          "internalType": "address",
          "name": "nft",
          "type": "address"
        },
        {
          "internalType": "uint256",
          "name": "tokenId",
          "type": "uint256"
        }
      ],
      "name": "getListingById",
      "outputs": [
        {
          "components": [
            {
              "internalType": "address",
              "name": "nft",
              "type": "address"
            },
            {
              "internalType": "uint256",
              "name": "tokenId",
              "type": "uint256"
            },
            {
              "internalType": "address",
              "name": "seller",
              "type": "address"
            },
            {
              "internalType": "uint256",
              "name": "price",
              "type": "uint256"
            },
            {
              "internalType": "uint256",
              "name": "listedAt",
              "type": "uint256"
            },
            {
              "internalType": "uint256",
              "name": "updatedAt",
              "type": "uint256"
            }
          ],
          "internalType": "struct NFTMarketplacev2.Listing",
          "name": "",
          "type": "tuple"
        }
      ],
      "stateMutability": "view",
      "type": "function"
    },
    {
      "inputs": [],
      "name": "getListingFee",
      "outputs": [
        {
          "internalType": "uint256",
          "name": "",
          "type": "uint256"
        }
      ],
      "stateMutability": "view",
      "type": "function"
    },
    {
      "inputs": [
        {
          "internalType": "address",
          "name": "seller",
          "type": "address"
        }
      ],
      "name": "getListingsBySeller",
      "outputs": [
        {
          "components": [
            {
              "internalType": "address",
              "name": "nft",
              "type": "address"
            },
            {
              "internalType": "uint256",
              "name": "tokenId",
              "type": "uint256"
            },
            {
              "internalType": "address",
              "name": "seller",
              "type": "address"
            },
            {
              "internalType": "uint256",
              "name": "price",
              "type": "uint256"
            },
            {
              "internalType": "uint256",
              "name": "listedAt",
              "type": "uint256"
            },
            {
              "internalType": "uint256",
              "name": "updatedAt",
              "type": "uint256"
            }
          ],
          "internalType": "struct NFTMarketplacev2.Listing[]",
          "name": "",
          "type": "tuple[]"
        }
      ],
      "stateMutability": "view",
      "type": "function"
    },
    {
      "inputs": [
        {
          "internalType": "address",
          "name": "nft",
          "type": "address"
        },
        {
          "internalType": "address",
          "name": "creator",
          "type": "address"
        }
      ],
      "name": "getTotalRoyaltyFeesByCreator",
      "outputs": [
        {
          "components": [
            {
              "internalType": "uint256",
              "name": "tokenId",
              "type": "uint256"
            },
            {
              "internalType": "uint256",
              "name": "totalRoyaltyFee",
              "type": "uint256"
            }
          ],
          "internalType": "struct NFTMarketplacev2.RoyaltyInfo[]",
          "name": "",
          "type": "tuple[]"
        }
      ],
      "stateMutability": "view",
      "type": "function"
    },
    {
      "inputs": [
        {
          "internalType": "address",
          "name": "nft",
          "type": "address"
        },
        {
          "internalType": "uint256",
          "name": "tokenId",
          "type": "uint256"
        },
        {
          "internalType": "uint256",
          "name": "price",
          "type": "uint256"
        }
      ],
      "name": "listItem",
      "outputs": [],
      "stateMutability": "payable",
      "type": "function"
    },
    {
      "inputs": [],
      "name": "owner",
      "outputs": [
        {
          "internalType": "address",
          "name": "",
          "type": "address"
        }
      ],
      "stateMutability": "view",
      "type": "function"
    },
    {
      "inputs": [],
      "name": "renounceOwnership",
      "outputs": [],
      "stateMutability": "nonpayable",
      "type": "function"
    },
    {
      "inputs": [
        {
          "internalType": "uint256",
          "name": "_fee",
          "type": "uint256"
        }
      ],
      "name": "setListingFee",
      "outputs": [],
      "stateMutability": "nonpayable",
      "type": "function"
    },
    {
      "inputs": [
        {
          "internalType": "address",
          "name": "newOwner",
          "type": "address"
        }
      ],
      "name": "transferOwnership",
      "outputs": [],
      "stateMutability": "nonpayable",
      "type": "function"
    },
    {
      "inputs": [
        {
          "internalType": "address",
          "name": "nft",
          "type": "address"
        },
        {
          "internalType": "uint256",
          "name": "tokenId",
          "type": "uint256"
        },
        {
          "internalType": "uint256",
          "name": "newPrice",
          "type": "uint256"
        }
      ],
      "name": "updateListingPrice",
      "outputs": [],
      "stateMutability": "nonpayable",
      "type": "function"
    },
    {
      "inputs": [],
      "name": "withdrawFees",
      "outputs": [],
      "stateMutability": "nonpayable",
      "type": "function"
    }
  ],
  "bytecode": "0x6080604052655af3107a400060065534801561001a57600080fd5b5033600073ffffffffffffffffffffffffffffffffffffffff168173ffffffffffffffffffffffffffffffffffffffff160361008e5760006040517f1e4fbdf700000000000000000000000000000000000000000000000000000000815260040161008591906101af565b60405180910390fd5b61009d816100aa60201b60201c565b50600180819055506101ca565b60008060009054906101000a900473ffffffffffffffffffffffffffffffffffffffff169050816000806101000a81548173ffffffffffffffffffffffffffffffffffffffff021916908373ffffffffffffffffffffffffffffffffffffffff1602179055508173ffffffffffffffffffffffffffffffffffffffff168173ffffffffffffffffffffffffffffffffffffffff167f8be0079c531659141344cd1fd0a4f28419497f9722a3daafe3b4186f6b6457e060405160405180910390a35050565b600073ffffffffffffffffffffffffffffffffffffffff82169050919050565b60006101998261016e565b9050919050565b6101a98161018e565b82525050565b60006020820190506101c460008301846101a0565b92915050565b614e61806101d96000396000f3fe6080604052600436106100fe5760003560e01c8063914552c611610095578063b8fe6abe11610064578063b8fe6abe14610305578063bf71cdb814610330578063d8cba2511461036d578063f2fde38b146103aa578063f7232f67146103d3576100fe565b8063914552c6146102585780639f37092a14610295578063ae73ccec146102b1578063b2ddee06146102dc576100fe565b80634cfa4666116100d15780634cfa4666146101bd578063715018a6146101fa57806389bfd38f146102115780638da5cb5b1461022d576100fe565b8063131dbd0914610103578063255f31791461012c5780632e70150714610169578063476343ee146101a6575b600080fd5b34801561010f57600080fd5b5061012a60048036038101906101259190613cfe565b6103fc565b005b34801561013857600080fd5b50610153600480360381019061014e9190613d89565b610447565b6040516101609190613dd8565b60405180910390f35b34801561017557600080fd5b50610190600480360381019061018b9190613df3565b6105b3565b60405161019d9190613fb8565b60405180910390f35b3480156101b257600080fd5b506101bb610a36565b005b3480156101c957600080fd5b506101e460048036038101906101df9190613d89565b610acd565b6040516101f19190613fb8565b60405180910390f35b34801561020657600080fd5b5061020f610ece565b005b61022b60048036038101906102269190613fda565b610ee2565b005b34801561023957600080fd5b506102426117b5565b60405161024f919061403c565b60405180910390f35b34801561026457600080fd5b5061027f600480360381019061027a9190614057565b6117de565b60405161028c9190614175565b60405180910390f35b6102af60048036038101906102aa9190613d89565b61198a565b005b3480156102bd57600080fd5b506102c66123cc565b6040516102d39190613fb8565b60405180910390f35b3480156102e857600080fd5b5061030360048036038101906102fe9190613d89565b612737565b005b34801561031157600080fd5b5061031a612a20565b6040516103279190613dd8565b60405180910390f35b34801561033c57600080fd5b5061035760048036038101906103529190613d89565b612a2a565b6040516103649190614212565b60405180910390f35b34801561037957600080fd5b50610394600480360381019061038f919061422d565b612b69565b6040516103a19190614384565b60405180910390f35b3480156103b657600080fd5b506103d160048036038101906103cc919061422d565b612cdb565b005b3480156103df57600080fd5b506103fa60048036038101906103f59190613fda565b612d61565b005b610404613441565b806006819055507f83bee1c75d00c29e66092d821c1c82aa4792fe1f058e8dff38d5d394d37916dd814260405161043c9291906143a6565b60405180910390a150565b60008060058054905090505b60008111156105a7578373ffffffffffffffffffffffffffffffffffffffff16600560018361048291906143fe565b8154811061049357610492614432565b5b906000526020600020906009020160000160009054906101000a900473ffffffffffffffffffffffffffffffffffffffff1673ffffffffffffffffffffffffffffffffffffffff1614801561051857508260056001836104f391906143fe565b8154811061050457610503614432565b5b906000526020600020906009020160010154145b801561055557506000600560018361053091906143fe565b8154811061054157610540614432565b5b906000526020600020906009020160070154115b1561059457600560018261056991906143fe565b8154811061057a57610579614432565b5b9060005260206000209060090201600301549150506105ad565b808061059f90614461565b915050610453565b50600090505b92915050565b60606000600580549050905080831061062357600067ffffffffffffffff8111156105e1576105e061448a565b5b60405190808252806020026020018201604052801561061a57816020015b610607613baa565b8152602001906001900390816105ff5790505b50915050610a30565b6000841161063057600a93505b60008060018361064091906143fe565b905060008390505b600081111561070e576000600560018361066291906143fe565b8154811061067357610672614432565b5b90600052602060002090600902016006015411806106c257506000600560018361069d91906143fe565b815481106106ae576106ad614432565b5b906000526020600020906009020160070154115b6106fb5782806106d1906144b9565b93505085876106e09190614501565b83106106fa576001816106f391906143fe565b915061070e565b5b808061070690614461565b915050610648565b50600082148061071e5750848211155b1561078257600067ffffffffffffffff81111561073e5761073d61448a565b5b60405190808252806020026020018201604052801561077757816020015b610764613baa565b81526020019060019003908161075c5790505b509350505050610a30565b848661078e9190614501565b82116107a75784826107a091906143fe565b95506107b4565b858210156107b3578195505b5b60008667ffffffffffffffff8111156107d0576107cf61448a565b5b60405190808252806020026020018201604052801561080957816020015b6107f6613baa565b8152602001906001900390816107ee5790505b5090506000808390505b85811015610a265760006005828154811061083157610830614432565b5b906000526020600020906009020160060154118061087457506000600582815481106108605761085f614432565b5b906000526020600020906009020160070154115b610a19576005818154811061088c5761088b614432565b5b9060005260206000209060090201604051806101200160405290816000820160009054906101000a900473ffffffffffffffffffffffffffffffffffffffff1673ffffffffffffffffffffffffffffffffffffffff1673ffffffffffffffffffffffffffffffffffffffff168152602001600182015481526020016002820160009054906101000a900473ffffffffffffffffffffffffffffffffffffffff1673ffffffffffffffffffffffffffffffffffffffff1673ffffffffffffffffffffffffffffffffffffffff16815260200160038201548152602001600482015481526020016005820154815260200160068201548152602001600782015481526020016008820160009054906101000a900473ffffffffffffffffffffffffffffffffffffffff1673ffffffffffffffffffffffffffffffffffffffff1673ffffffffffffffffffffffffffffffffffffffff16815250508383815181106109f7576109f6614432565b5b60200260200101819052508180610a0d906144b9565b92505088821015610a26575b8080600101915050610813565b5081955050505050505b92915050565b610a3e613441565b6000479050610a4b6117b5565b73ffffffffffffffffffffffffffffffffffffffff166108fc829081150290604051600060405180830381858888f19350505050158015610a90573d6000803e3d6000fd5b507f0a86d3615abd799fbaa5be89d4941a68641aec3f02b8f19faff5dfade02817bc8142604051610ac29291906143a6565b60405180910390a150565b6060600060058054905090506000805b82811015610bdb578573ffffffffffffffffffffffffffffffffffffffff1660058281548110610b1057610b0f614432565b5b906000526020600020906009020160000160009054906101000a900473ffffffffffffffffffffffffffffffffffffffff1673ffffffffffffffffffffffffffffffffffffffff16148015610b8957508460058281548110610b7557610b74614432565b5b906000526020600020906009020160010154145b8015610bba5750600060058281548110610ba657610ba5614432565b5b906000526020600020906009020160070154115b15610bce578180610bca906144b9565b9250505b8080600101915050610add565b5060008167ffffffffffffffff811115610bf857610bf761448a565b5b604051908082528060200260200182016040528015610c3157816020015b610c1e613baa565b815260200190600190039081610c165790505b5090506000805b84811015610ec0578773ffffffffffffffffffffffffffffffffffffffff1660058281548110610c6b57610c6a614432565b5b906000526020600020906009020160000160009054906101000a900473ffffffffffffffffffffffffffffffffffffffff1673ffffffffffffffffffffffffffffffffffffffff16148015610ce457508660058281548110610cd057610ccf614432565b5b906000526020600020906009020160010154145b8015610d155750600060058281548110610d0157610d00614432565b5b906000526020600020906009020160070154115b15610eb35760058181548110610d2e57610d2d614432565b5b9060005260206000209060090201604051806101200160405290816000820160009054906101000a900473ffffffffffffffffffffffffffffffffffffffff1673ffffffffffffffffffffffffffffffffffffffff1673ffffffffffffffffffffffffffffffffffffffff168152602001600182015481526020016002820160009054906101000a900473ffffffffffffffffffffffffffffffffffffffff1673ffffffffffffffffffffffffffffffffffffffff1673ffffffffffffffffffffffffffffffffffffffff16815260200160038201548152602001600482015481526020016005820154815260200160068201548152602001600782015481526020016008820160009054906101000a900473ffffffffffffffffffffffffffffffffffffffff1673ffffffffffffffffffffffffffffffffffffffff1673ffffffffffffffffffffffffffffffffffffffff1681525050838381518110610e9957610e98614432565b5b60200260200101819052508180610eaf906144b9565b9250505b8080600101915050610c38565b508194505050505092915050565b610ed6613441565b610ee060006134c8565b565b610eea61358c565b600654341015610f2f576040517f08c379a0000000000000000000000000000000000000000000000000000000008152600401610f2690614592565b60405180910390fd5b60648111610f72576040517f08c379a0000000000000000000000000000000000000000000000000000000008152600401610f69906145fe565b60405180910390fd5b600073ffffffffffffffffffffffffffffffffffffffff16600260008573ffffffffffffffffffffffffffffffffffffffff1673ffffffffffffffffffffffffffffffffffffffff168152602001908152602001600020600084815260200190815260200160002060020160009054906101000a900473ffffffffffffffffffffffffffffffffffffffff1673ffffffffffffffffffffffffffffffffffffffff1614611054576040517f08c379a000000000000000000000000000000000000000000000000000000000815260040161104b9061466a565b60405180910390fd5b60008390503373ffffffffffffffffffffffffffffffffffffffff168173ffffffffffffffffffffffffffffffffffffffff16636352211e856040518263ffffffff1660e01b81526004016110a99190613dd8565b602060405180830381865afa1580156110c6573d6000803e3d6000fd5b505050506040513d601f19601f820116820180604052508101906110ea919061469f565b73ffffffffffffffffffffffffffffffffffffffff1614611140576040517f08c379a000000000000000000000000000000000000000000000000000000000815260040161113790614718565b60405180910390fd5b8073ffffffffffffffffffffffffffffffffffffffff1663e985e9c533306040518363ffffffff1660e01b815260040161117b929190614738565b602060405180830381865afa158015611198573d6000803e3d6000fd5b505050506040513d601f19601f820116820180604052508101906111bc9190614799565b6111fb576040517f08c379a00000000000000000000000000000000000000000000000000000000081526004016111f290614812565b60405180910390fd5b6040518060c001604052808573ffffffffffffffffffffffffffffffffffffffff1681526020018481526020013373ffffffffffffffffffffffffffffffffffffffff16815260200183815260200142815260200142815250600260008673ffffffffffffffffffffffffffffffffffffffff1673ffffffffffffffffffffffffffffffffffffffff168152602001908152602001600020600085815260200190815260200160002060008201518160000160006101000a81548173ffffffffffffffffffffffffffffffffffffffff021916908373ffffffffffffffffffffffffffffffffffffffff1602179055506020820151816001015560408201518160020160006101000a81548173ffffffffffffffffffffffffffffffffffffffff021916908373ffffffffffffffffffffffffffffffffffffffff160217905550606082015181600301556080820151816004015560a082015181600501559050508373ffffffffffffffffffffffffffffffffffffffff166398214bcb8460016040518363ffffffff1660e01b8152600401611399929190614841565b600060405180830381600087803b1580156113b357600080fd5b505af11580156113c7573d6000803e3d6000fd5b50505050600360003373ffffffffffffffffffffffffffffffffffffffff1673ffffffffffffffffffffffffffffffffffffffff168152602001908152602001600020600260008673ffffffffffffffffffffffffffffffffffffffff1673ffffffffffffffffffffffffffffffffffffffff168152602001908152602001600020600085815260200190815260200160002090806001815401808255809150506001900390600052602060002090600602016000909190919091506000820160009054906101000a900473ffffffffffffffffffffffffffffffffffffffff168160000160006101000a81548173ffffffffffffffffffffffffffffffffffffffff021916908373ffffffffffffffffffffffffffffffffffffffff160217905550600182015481600101556002820160009054906101000a900473ffffffffffffffffffffffffffffffffffffffff168160020160006101000a81548173ffffffffffffffffffffffffffffffffffffffff021916908373ffffffffffffffffffffffffffffffffffffffff160217905550600382015481600301556004820154816004015560058201548160050155505060056040518061012001604052808673ffffffffffffffffffffffffffffffffffffffff1681526020018581526020013373ffffffffffffffffffffffffffffffffffffffff1681526020018481526020014281526020014281526020016000815260200160008152602001600073ffffffffffffffffffffffffffffffffffffffff16815250908060018154018082558091505060019003906000526020600020906009020160009091909190915060008201518160000160006101000a81548173ffffffffffffffffffffffffffffffffffffffff021916908373ffffffffffffffffffffffffffffffffffffffff1602179055506020820151816001015560408201518160020160006101000a81548173ffffffffffffffffffffffffffffffffffffffff021916908373ffffffffffffffffffffffffffffffffffffffff160217905550606082015181600301556080820151816004015560a0820151816005015560c0820151816006015560e082015181600701556101008201518160080160006101000a81548173ffffffffffffffffffffffffffffffffffffffff021916908373ffffffffffffffffffffffffffffffffffffffff16021790555050503373ffffffffffffffffffffffffffffffffffffffff16838573ffffffffffffffffffffffffffffffffffffffff167fbd5d1836d4114b1a1785c873a084824203ab9c294b3694e6a9fa69234a9113c6854260405161179f9291906143a6565b60405180910390a4506117b06135d2565b505050565b60008060009054906101000a900473ffffffffffffffffffffffffffffffffffffffff16905090565b606060008373ffffffffffffffffffffffffffffffffffffffff1663d5c71275846040518263ffffffff1660e01b815260040161181b919061403c565b600060405180830381865afa158015611838573d6000803e3d6000fd5b505050506040513d6000823e3d601f19601f8201168201806040525081019061186191906149a9565b90506000815167ffffffffffffffff8111156118805761187f61448a565b5b6040519080825280602002602001820160405280156118b957816020015b6118a6613c38565b81526020019060019003908161189e5790505b50905060005b825181101561197e5760008382815181106118dd576118dc614432565b5b602002602001015190506000600460008873ffffffffffffffffffffffffffffffffffffffff1673ffffffffffffffffffffffffffffffffffffffff168152602001908152602001600020600083815260200190815260200160002054905060405180604001604052808381526020018281525084848151811061196457611963614432565b5b6020026020010181905250505080806001019150506118bf565b50809250505092915050565b61199261358c565b6000600260008473ffffffffffffffffffffffffffffffffffffffff1673ffffffffffffffffffffffffffffffffffffffff16815260200190815260200160002060008381526020019081526020016000206040518060c00160405290816000820160009054906101000a900473ffffffffffffffffffffffffffffffffffffffff1673ffffffffffffffffffffffffffffffffffffffff1673ffffffffffffffffffffffffffffffffffffffff168152602001600182015481526020016002820160009054906101000a900473ffffffffffffffffffffffffffffffffffffffff1673ffffffffffffffffffffffffffffffffffffffff1673ffffffffffffffffffffffffffffffffffffffff16815260200160038201548152602001600482015481526020016005820154815250509050600073ffffffffffffffffffffffffffffffffffffffff16816040015173ffffffffffffffffffffffffffffffffffffffff1603611b38576040517f08c379a0000000000000000000000000000000000000000000000000000000008152600401611b2f90614a3e565b60405180910390fd5b3373ffffffffffffffffffffffffffffffffffffffff16816040015173ffffffffffffffffffffffffffffffffffffffff1603611baa576040517f08c379a0000000000000000000000000000000000000000000000000000000008152600401611ba190614aaa565b60405180910390fd5b8273ffffffffffffffffffffffffffffffffffffffff1663e985e9c58260400151306040518363ffffffff1660e01b8152600401611be9929190614738565b602060405180830381865afa158015611c06573d6000803e3d6000fd5b505050506040513d601f19601f82011682018060405250810190611c2a9190614799565b611c69576040517f08c379a0000000000000000000000000000000000000000000000000000000008152600401611c6090614812565b60405180910390fd5b8060600151341015611cb0576040517f08c379a0000000000000000000000000000000000000000000000000000000008152600401611ca790614b16565b60405180910390fd5b60008373ffffffffffffffffffffffffffffffffffffffff1663b3912597846040518263ffffffff1660e01b8152600401611ceb9190613dd8565b602060405180830381865afa158015611d08573d6000803e3d6000fd5b505050506040513d601f19601f82011682018060405250810190611d2c9190614b36565b905060008473ffffffffffffffffffffffffffffffffffffffff16637539fc5c856040518263ffffffff1660e01b8152600401611d699190613dd8565b602060405180830381865afa158015611d86573d6000803e3d6000fd5b505050506040513d601f19601f82011682018060405250810190611daa919061469f565b90506000836060015190506000846040015173ffffffffffffffffffffffffffffffffffffffff168373ffffffffffffffffffffffffffffffffffffffff1614611e62576064848660600151611e009190614b63565b611e0a9190614bd4565b905034811115611e4f576040517f08c379a0000000000000000000000000000000000000000000000000000000008152600401611e4690614c51565b60405180910390fd5b808560600151611e5f91906143fe565b91505b6000811115611ed35780600460008573ffffffffffffffffffffffffffffffffffffffff1673ffffffffffffffffffffffffffffffffffffffff16815260200190815260200160002060008881526020019081526020016000206000828254611ecb9190614501565b925050819055505b846040015173ffffffffffffffffffffffffffffffffffffffff168373ffffffffffffffffffffffffffffffffffffffff1603611f725781600460008573ffffffffffffffffffffffffffffffffffffffff1673ffffffffffffffffffffffffffffffffffffffff16815260200190815260200160002060008881526020019081526020016000206000828254611f6a9190614501565b925050819055505b8673ffffffffffffffffffffffffffffffffffffffff166342842e0e866040015133896040518463ffffffff1660e01b8152600401611fb393929190614c71565b600060405180830381600087803b158015611fcd57600080fd5b505af1158015611fe1573d6000803e3d6000fd5b505050506000811115612036578273ffffffffffffffffffffffffffffffffffffffff166108fc829081150290604051600060405180830381858888f19350505050158015612034573d6000803e3d6000fd5b505b846040015173ffffffffffffffffffffffffffffffffffffffff166108fc839081150290604051600060405180830381858888f19350505050158015612080573d6000803e3d6000fd5b508673ffffffffffffffffffffffffffffffffffffffff166398214bcb8760006040518363ffffffff1660e01b81526004016120bd929190614841565b600060405180830381600087803b1580156120d757600080fd5b505af11580156120eb573d6000803e3d6000fd5b505050506120fe878787604001516135db565b600060058054905090505b600081111561235d578773ffffffffffffffffffffffffffffffffffffffff16600560018361213891906143fe565b8154811061214957612148614432565b5b906000526020600020906009020160000160009054906101000a900473ffffffffffffffffffffffffffffffffffffffff1673ffffffffffffffffffffffffffffffffffffffff161480156121ce57508660056001836121a991906143fe565b815481106121ba576121b9614432565b5b906000526020600020906009020160010154145b801561225a5750856040015173ffffffffffffffffffffffffffffffffffffffff1660056001836121ff91906143fe565b815481106122105761220f614432565b5b906000526020600020906009020160020160009054906101000a900473ffffffffffffffffffffffffffffffffffffffff1673ffffffffffffffffffffffffffffffffffffffff16145b801561229a57508560800151600560018361227591906143fe565b8154811061228657612285614432565b5b906000526020600020906009020160040154145b1561234a574260056001836122af91906143fe565b815481106122c0576122bf614432565b5b9060005260206000209060090201600701819055503360056001836122e591906143fe565b815481106122f6576122f5614432565b5b906000526020600020906009020160080160006101000a81548173ffffffffffffffffffffffffffffffffffffffff021916908373ffffffffffffffffffffffffffffffffffffffff16021790555061235d565b808061235590614461565b915050612109565b50858773ffffffffffffffffffffffffffffffffffffffff167f2781b6bf1d50821bde8d8e1ea36be5557167d6b25dde84a52efb147adf2e6d358760400151338960600151426040516123b39493929190614ca8565b60405180910390a350505050506123c86135d2565b5050565b6060600060058054905090506000805b8281101561245d576000600582815481106123fa576123f9614432565b5b906000526020600020906009020160060154118061243d575060006005828154811061242957612428614432565b5b906000526020600020906009020160070154115b61245057818061244c906144b9565b9250505b80806001019150506123dc565b50600081036124c457600067ffffffffffffffff8111156124815761248061448a565b5b6040519080825280602002602001820160405280156124ba57816020015b6124a7613baa565b81526020019060019003908161249f5790505b5092505050612734565b60008167ffffffffffffffff8111156124e0576124df61448a565b5b60405190808252806020026020018201604052801561251957816020015b612506613baa565b8152602001906001900390816124fe5790505b5090506000805b8481101561272b5760006005828154811061253e5761253d614432565b5b9060005260206000209060090201600601541180612581575060006005828154811061256d5761256c614432565b5b906000526020600020906009020160070154115b61271e576005818154811061259957612598614432565b5b9060005260206000209060090201604051806101200160405290816000820160009054906101000a900473ffffffffffffffffffffffffffffffffffffffff1673ffffffffffffffffffffffffffffffffffffffff1673ffffffffffffffffffffffffffffffffffffffff168152602001600182015481526020016002820160009054906101000a900473ffffffffffffffffffffffffffffffffffffffff1673ffffffffffffffffffffffffffffffffffffffff1673ffffffffffffffffffffffffffffffffffffffff16815260200160038201548152602001600482015481526020016005820154815260200160068201548152602001600782015481526020016008820160009054906101000a900473ffffffffffffffffffffffffffffffffffffffff1673ffffffffffffffffffffffffffffffffffffffff1673ffffffffffffffffffffffffffffffffffffffff168152505083838151811061270457612703614432565b5b6020026020010181905250818061271a906144b9565b9250505b8080600101915050612520565b50819450505050505b90565b6000600260008473ffffffffffffffffffffffffffffffffffffffff1673ffffffffffffffffffffffffffffffffffffffff16815260200190815260200160002060008381526020019081526020016000206040518060c00160405290816000820160009054906101000a900473ffffffffffffffffffffffffffffffffffffffff1673ffffffffffffffffffffffffffffffffffffffff1673ffffffffffffffffffffffffffffffffffffffff168152602001600182015481526020016002820160009054906101000a900473ffffffffffffffffffffffffffffffffffffffff1673ffffffffffffffffffffffffffffffffffffffff1673ffffffffffffffffffffffffffffffffffffffff16815260200160038201548152602001600482015481526020016005820154815250509050600073ffffffffffffffffffffffffffffffffffffffff16816040015173ffffffffffffffffffffffffffffffffffffffff16036128dd576040517f08c379a00000000000000000000000000000000000000000000000000000000081526004016128d490614a3e565b60405180910390fd5b3373ffffffffffffffffffffffffffffffffffffffff16816040015173ffffffffffffffffffffffffffffffffffffffff161461294f576040517f08c379a000000000000000000000000000000000000000000000000000000000815260040161294690614d39565b60405180910390fd5b61295e838383604001516135db565b8273ffffffffffffffffffffffffffffffffffffffff166398214bcb8360006040518363ffffffff1660e01b815260040161299a929190614841565b600060405180830381600087803b1580156129b457600080fd5b505af11580156129c8573d6000803e3d6000fd5b50505050818373ffffffffffffffffffffffffffffffffffffffff167f25164b296f6f11aec8bd7dd4fc2b26e884fe09e27ff3852f49459976584f045d42604051612a139190613dd8565b60405180910390a3505050565b6000600654905090565b612a32613c52565b600260008473ffffffffffffffffffffffffffffffffffffffff1673ffffffffffffffffffffffffffffffffffffffff16815260200190815260200160002060008381526020019081526020016000206040518060c00160405290816000820160009054906101000a900473ffffffffffffffffffffffffffffffffffffffff1673ffffffffffffffffffffffffffffffffffffffff1673ffffffffffffffffffffffffffffffffffffffff168152602001600182015481526020016002820160009054906101000a900473ffffffffffffffffffffffffffffffffffffffff1673ffffffffffffffffffffffffffffffffffffffff1673ffffffffffffffffffffffffffffffffffffffff1681526020016003820154815260200160048201548152602001600582015481525050905092915050565b6060600360008373ffffffffffffffffffffffffffffffffffffffff1673ffffffffffffffffffffffffffffffffffffffff168152602001908152602001600020805480602002602001604051908101604052809291908181526020016000905b82821015612cd057838290600052602060002090600602016040518060c00160405290816000820160009054906101000a900473ffffffffffffffffffffffffffffffffffffffff1673ffffffffffffffffffffffffffffffffffffffff1673ffffffffffffffffffffffffffffffffffffffff168152602001600182015481526020016002820160009054906101000a900473ffffffffffffffffffffffffffffffffffffffff1673ffffffffffffffffffffffffffffffffffffffff1673ffffffffffffffffffffffffffffffffffffffff168152602001600382015481526020016004820154815260200160058201548152505081526020019060010190612bca565b505050509050919050565b612ce3613441565b600073ffffffffffffffffffffffffffffffffffffffff168173ffffffffffffffffffffffffffffffffffffffff1603612d555760006040517f1e4fbdf7000000000000000000000000000000000000000000000000000000008152600401612d4c919061403c565b60405180910390fd5b612d5e816134c8565b50565b6000600260008573ffffffffffffffffffffffffffffffffffffffff1673ffffffffffffffffffffffffffffffffffffffff16815260200190815260200160002060008481526020019081526020016000209050600073ffffffffffffffffffffffffffffffffffffffff168160020160009054906101000a900473ffffffffffffffffffffffffffffffffffffffff1673ffffffffffffffffffffffffffffffffffffffff1603612e48576040517f08c379a0000000000000000000000000000000000000000000000000000000008152600401612e3f90614a3e565b60405180910390fd5b3373ffffffffffffffffffffffffffffffffffffffff168160020160009054906101000a900473ffffffffffffffffffffffffffffffffffffffff1673ffffffffffffffffffffffffffffffffffffffff1614612eda576040517f08c379a0000000000000000000000000000000000000000000000000000000008152600401612ed190614d39565b60405180910390fd5b60648211612f1d576040517f08c379a0000000000000000000000000000000000000000000000000000000008152600401612f14906145fe565b60405180910390fd5b80600301548203612f63576040517f08c379a0000000000000000000000000000000000000000000000000000000008152600401612f5a90614da5565b60405180910390fd5b81816003018190555042816005018190555060005b600360003373ffffffffffffffffffffffffffffffffffffffff1673ffffffffffffffffffffffffffffffffffffffff168152602001908152602001600020805490508110156131c5578473ffffffffffffffffffffffffffffffffffffffff16600360003373ffffffffffffffffffffffffffffffffffffffff1673ffffffffffffffffffffffffffffffffffffffff168152602001908152602001600020828154811061302a57613029614432565b5b906000526020600020906006020160000160009054906101000a900473ffffffffffffffffffffffffffffffffffffffff1673ffffffffffffffffffffffffffffffffffffffff161480156130e0575083600360003373ffffffffffffffffffffffffffffffffffffffff1673ffffffffffffffffffffffffffffffffffffffff16815260200190815260200160002082815481106130cc576130cb614432565b5b906000526020600020906006020160010154145b156131b85782600360003373ffffffffffffffffffffffffffffffffffffffff1673ffffffffffffffffffffffffffffffffffffffff168152602001908152602001600020828154811061313757613136614432565b5b90600052602060002090600602016003018190555042600360003373ffffffffffffffffffffffffffffffffffffffff1673ffffffffffffffffffffffffffffffffffffffff168152602001908152602001600020828154811061319e5761319d614432565b5b9060005260206000209060060201600501819055506131c5565b8080600101915050612f78565b50600060058054905090505b60008111156133e7578473ffffffffffffffffffffffffffffffffffffffff16600560018361320091906143fe565b8154811061321157613210614432565b5b906000526020600020906009020160000160009054906101000a900473ffffffffffffffffffffffffffffffffffffffff1673ffffffffffffffffffffffffffffffffffffffff16148015613296575083600560018361327191906143fe565b8154811061328257613281614432565b5b906000526020600020906009020160010154145b801561331e57503373ffffffffffffffffffffffffffffffffffffffff1660056001836132c391906143fe565b815481106132d4576132d3614432565b5b906000526020600020906009020160020160009054906101000a900473ffffffffffffffffffffffffffffffffffffffff1673ffffffffffffffffffffffffffffffffffffffff16145b801561335e57508160040154600560018361333991906143fe565b8154811061334a57613349614432565b5b906000526020600020906009020160040154145b156133d45782600560018361337391906143fe565b8154811061338457613383614432565b5b9060005260206000209060090201600301819055504260056001836133a991906143fe565b815481106133ba576133b9614432565b5b9060005260206000209060090201600501819055506133e7565b80806133df90614461565b9150506131d1565b50828473ffffffffffffffffffffffffffffffffffffffff167fb8f3dda438349ef6632f812d6bc7aa3c2cfdb9e02aa0aac16324dcebbdc02bbb33854260405161343393929190614dc5565b60405180910390a350505050565b613449613ba2565b73ffffffffffffffffffffffffffffffffffffffff166134676117b5565b73ffffffffffffffffffffffffffffffffffffffff16146134c65761348a613ba2565b6040517f118cdaa70000000000000000000000000000000000000000000000000000000081526004016134bd919061403c565b60405180910390fd5b565b60008060009054906101000a900473ffffffffffffffffffffffffffffffffffffffff169050816000806101000a81548173ffffffffffffffffffffffffffffffffffffffff021916908373ffffffffffffffffffffffffffffffffffffffff1602179055508173ffffffffffffffffffffffffffffffffffffffff168173ffffffffffffffffffffffffffffffffffffffff167f8be0079c531659141344cd1fd0a4f28419497f9722a3daafe3b4186f6b6457e060405160405180910390a35050565b6002600154036135c8576040517f3ee5aeb500000000000000000000000000000000000000000000000000000000815260040160405180910390fd5b6002600181905550565b60018081905550565b600260008473ffffffffffffffffffffffffffffffffffffffff1673ffffffffffffffffffffffffffffffffffffffff1681526020019081526020016000206000838152602001908152602001600020600080820160006101000a81549073ffffffffffffffffffffffffffffffffffffffff021916905560018201600090556002820160006101000a81549073ffffffffffffffffffffffffffffffffffffffff021916905560038201600090556004820160009055600582016000905550506000600360008373ffffffffffffffffffffffffffffffffffffffff1673ffffffffffffffffffffffffffffffffffffffff16815260200190815260200160002090506000805b82805490508110156139b2578573ffffffffffffffffffffffffffffffffffffffff1683828154811061371957613718614432565b5b906000526020600020906006020160000160009054906101000a900473ffffffffffffffffffffffffffffffffffffffff1673ffffffffffffffffffffffffffffffffffffffff1614801561379157508483828154811061377d5761377c614432565b5b906000526020600020906006020160010154145b156139a5578281815481106137a9576137a8614432565b5b906000526020600020906006020160040154915082600184805490506137cf91906143fe565b815481106137e0576137df614432565b5b906000526020600020906006020183828154811061380157613800614432565b5b90600052602060002090600602016000820160009054906101000a900473ffffffffffffffffffffffffffffffffffffffff168160000160006101000a81548173ffffffffffffffffffffffffffffffffffffffff021916908373ffffffffffffffffffffffffffffffffffffffff160217905550600182015481600101556002820160009054906101000a900473ffffffffffffffffffffffffffffffffffffffff168160020160006101000a81548173ffffffffffffffffffffffffffffffffffffffff021916908373ffffffffffffffffffffffffffffffffffffffff1602179055506003820154816003015560048201548160040155600582015481600501559050508280548061391957613918614dfc565b5b6001900381819060005260206000209060060201600080820160006101000a81549073ffffffffffffffffffffffffffffffffffffffff021916905560018201600090556002820160006101000a81549073ffffffffffffffffffffffffffffffffffffffff0219169055600382016000905560048201600090556005820160009055505090556139b2565b80806001019150506136e3565b50600060058054905090505b6000811115613b9a578573ffffffffffffffffffffffffffffffffffffffff1660056001836139ed91906143fe565b815481106139fe576139fd614432565b5b906000526020600020906009020160000160009054906101000a900473ffffffffffffffffffffffffffffffffffffffff1673ffffffffffffffffffffffffffffffffffffffff16148015613a835750846005600183613a5e91906143fe565b81548110613a6f57613a6e614432565b5b906000526020600020906009020160010154145b8015613b0b57508373ffffffffffffffffffffffffffffffffffffffff166005600183613ab091906143fe565b81548110613ac157613ac0614432565b5b906000526020600020906009020160020160009054906101000a900473ffffffffffffffffffffffffffffffffffffffff1673ffffffffffffffffffffffffffffffffffffffff16145b8015613b475750816005600183613b2291906143fe565b81548110613b3357613b32614432565b5b906000526020600020906009020160040154145b15613b8757426005600183613b5c91906143fe565b81548110613b6d57613b6c614432565b5b906000526020600020906009020160060181905550613b9a565b8080613b9290614461565b9150506139be565b505050505050565b600033905090565b604051806101200160405280600073ffffffffffffffffffffffffffffffffffffffff16815260200160008152602001600073ffffffffffffffffffffffffffffffffffffffff1681526020016000815260200160008152602001600081526020016000815260200160008152602001600073ffffffffffffffffffffffffffffffffffffffff1681525090565b604051806040016040528060008152602001600081525090565b6040518060c00160405280600073ffffffffffffffffffffffffffffffffffffffff16815260200160008152602001600073ffffffffffffffffffffffffffffffffffffffff1681526020016000815260200160008152602001600081525090565b6000604051905090565b600080fd5b600080fd5b6000819050919050565b613cdb81613cc8565b8114613ce657600080fd5b50565b600081359050613cf881613cd2565b92915050565b600060208284031215613d1457613d13613cbe565b5b6000613d2284828501613ce9565b91505092915050565b600073ffffffffffffffffffffffffffffffffffffffff82169050919050565b6000613d5682613d2b565b9050919050565b613d6681613d4b565b8114613d7157600080fd5b50565b600081359050613d8381613d5d565b92915050565b60008060408385031215613da057613d9f613cbe565b5b6000613dae85828601613d74565b9250506020613dbf85828601613ce9565b9150509250929050565b613dd281613cc8565b82525050565b6000602082019050613ded6000830184613dc9565b92915050565b60008060408385031215613e0a57613e09613cbe565b5b6000613e1885828601613ce9565b9250506020613e2985828601613ce9565b9150509250929050565b600081519050919050565b600082825260208201905092915050565b6000819050602082019050919050565b613e6881613d4b565b82525050565b613e7781613cc8565b82525050565b61012082016000820151613e946000850182613e5f565b506020820151613ea76020850182613e6e565b506040820151613eba6040850182613e5f565b506060820151613ecd6060850182613e6e565b506080820151613ee06080850182613e6e565b5060a0820151613ef360a0850182613e6e565b5060c0820151613f0660c0850182613e6e565b5060e0820151613f1960e0850182613e6e565b50610100820151613f2e610100850182613e5f565b50505050565b6000613f408383613e7d565b6101208301905092915050565b6000602082019050919050565b6000613f6582613e33565b613f6f8185613e3e565b9350613f7a83613e4f565b8060005b83811015613fab578151613f928882613f34565b9750613f9d83613f4d565b925050600181019050613f7e565b5085935050505092915050565b60006020820190508181036000830152613fd28184613f5a565b905092915050565b600080600060608486031215613ff357613ff2613cbe565b5b600061400186828701613d74565b935050602061401286828701613ce9565b925050604061402386828701613ce9565b9150509250925092565b61403681613d4b565b82525050565b6000602082019050614051600083018461402d565b92915050565b6000806040838503121561406e5761406d613cbe565b5b600061407c85828601613d74565b925050602061408d85828601613d74565b9150509250929050565b600081519050919050565b600082825260208201905092915050565b6000819050602082019050919050565b6040820160008201516140d96000850182613e6e565b5060208201516140ec6020850182613e6e565b50505050565b60006140fe83836140c3565b60408301905092915050565b6000602082019050919050565b600061412282614097565b61412c81856140a2565b9350614137836140b3565b8060005b8381101561416857815161414f88826140f2565b975061415a8361410a565b92505060018101905061413b565b5085935050505092915050565b6000602082019050818103600083015261418f8184614117565b905092915050565b60c0820160008201516141ad6000850182613e5f565b5060208201516141c06020850182613e6e565b5060408201516141d36040850182613e5f565b5060608201516141e66060850182613e6e565b5060808201516141f96080850182613e6e565b5060a082015161420c60a0850182613e6e565b50505050565b600060c0820190506142276000830184614197565b92915050565b60006020828403121561424357614242613cbe565b5b600061425184828501613d74565b91505092915050565b600081519050919050565b600082825260208201905092915050565b6000819050602082019050919050565b60c08201600082015161429c6000850182613e5f565b5060208201516142af6020850182613e6e565b5060408201516142c26040850182613e5f565b5060608201516142d56060850182613e6e565b5060808201516142e86080850182613e6e565b5060a08201516142fb60a0850182613e6e565b50505050565b600061430d8383614286565b60c08301905092915050565b6000602082019050919050565b60006143318261425a565b61433b8185614265565b935061434683614276565b8060005b8381101561437757815161435e8882614301565b975061436983614319565b92505060018101905061434a565b5085935050505092915050565b6000602082019050818103600083015261439e8184614326565b905092915050565b60006040820190506143bb6000830185613dc9565b6143c86020830184613dc9565b9392505050565b7f4e487b7100000000000000000000000000000000000000000000000000000000600052601160045260246000fd5b600061440982613cc8565b915061441483613cc8565b925082820390508181111561442c5761442b6143cf565b5b92915050565b7f4e487b7100000000000000000000000000000000000000000000000000000000600052603260045260246000fd5b600061446c82613cc8565b91506000820361447f5761447e6143cf565b5b600182039050919050565b7f4e487b7100000000000000000000000000000000000000000000000000000000600052604160045260246000fd5b60006144c482613cc8565b91507fffffffffffffffffffffffffffffffffffffffffffffffffffffffffffffffff82036144f6576144f56143cf565b5b600182019050919050565b600061450c82613cc8565b915061451783613cc8565b925082820190508082111561452f5761452e6143cf565b5b92915050565b600082825260208201905092915050565b7f4c697374696e6720666565206e6f742070616964000000000000000000000000600082015250565b600061457c601483614535565b915061458782614546565b602082019050919050565b600060208201905081810360008301526145ab8161456f565b9050919050565b7f5072696365206d757374206265203e2031303020776569000000000000000000600082015250565b60006145e8601783614535565b91506145f3826145b2565b602082019050919050565b60006020820190508181036000830152614617816145db565b9050919050565b7f416c7265616479206c6973746564000000000000000000000000000000000000600082015250565b6000614654600e83614535565b915061465f8261461e565b602082019050919050565b6000602082019050818103600083015261468381614647565b9050919050565b60008151905061469981613d5d565b92915050565b6000602082840312156146b5576146b4613cbe565b5b60006146c38482850161468a565b91505092915050565b7f4e6f74206f776e65720000000000000000000000000000000000000000000000600082015250565b6000614702600983614535565b915061470d826146cc565b602082019050919050565b60006020820190508181036000830152614731816146f5565b9050919050565b600060408201905061474d600083018561402d565b61475a602083018461402d565b9392505050565b60008115159050919050565b61477681614761565b811461478157600080fd5b50565b6000815190506147938161476d565b92915050565b6000602082840312156147af576147ae613cbe565b5b60006147bd84828501614784565b91505092915050565b7f4d61726b6574706c616365206e6f7420617070726f7665640000000000000000600082015250565b60006147fc601883614535565b9150614807826147c6565b602082019050919050565b6000602082019050818103600083015261482b816147ef565b9050919050565b61483b81614761565b82525050565b60006040820190506148566000830185613dc9565b6148636020830184614832565b9392505050565b600080fd5b6000601f19601f8301169050919050565b6148898261486f565b810181811067ffffffffffffffff821117156148a8576148a761448a565b5b80604052505050565b60006148bb613cb4565b90506148c78282614880565b919050565b600067ffffffffffffffff8211156148e7576148e661448a565b5b602082029050602081019050919050565b600080fd5b60008151905061490c81613cd2565b92915050565b6000614925614920846148cc565b6148b1565b90508083825260208201905060208402830185811115614948576149476148f8565b5b835b81811015614971578061495d88826148fd565b84526020840193505060208101905061494a565b5050509392505050565b600082601f8301126149905761498f61486a565b5b81516149a0848260208601614912565b91505092915050565b6000602082840312156149bf576149be613cbe565b5b600082015167ffffffffffffffff8111156149dd576149dc613cc3565b5b6149e98482850161497b565b91505092915050565b7f4e6f74206c697374656400000000000000000000000000000000000000000000600082015250565b6000614a28600a83614535565b9150614a33826149f2565b602082019050919050565b60006020820190508181036000830152614a5781614a1b565b9050919050565b7f43616e6e6f742062757920796f7572206f776e206974656d0000000000000000600082015250565b6000614a94601883614535565b9150614a9f82614a5e565b602082019050919050565b60006020820190508181036000830152614ac381614a87565b9050919050565b7f496e73756666696369656e742045544800000000000000000000000000000000600082015250565b6000614b00601083614535565b9150614b0b82614aca565b602082019050919050565b60006020820190508181036000830152614b2f81614af3565b9050919050565b600060208284031215614b4c57614b4b613cbe565b5b6000614b5a848285016148fd565b91505092915050565b6000614b6e82613cc8565b9150614b7983613cc8565b9250828202614b8781613cc8565b91508282048414831517614b9e57614b9d6143cf565b5b5092915050565b7f4e487b7100000000000000000000000000000000000000000000000000000000600052601260045260246000fd5b6000614bdf82613cc8565b9150614bea83613cc8565b925082614bfa57614bf9614ba5565b5b828204905092915050565b7f526f79616c7479206665652065786365656473207061796d656e740000000000600082015250565b6000614c3b601b83614535565b9150614c4682614c05565b602082019050919050565b60006020820190508181036000830152614c6a81614c2e565b9050919050565b6000606082019050614c86600083018661402d565b614c93602083018561402d565b614ca06040830184613dc9565b949350505050565b6000608082019050614cbd600083018761402d565b614cca602083018661402d565b614cd76040830185613dc9565b614ce46060830184613dc9565b95945050505050565b7f4e6f742073656c6c657200000000000000000000000000000000000000000000600082015250565b6000614d23600a83614535565b9150614d2e82614ced565b602082019050919050565b60006020820190508181036000830152614d5281614d16565b9050919050565b7f507269636520616c72656164792073657420746f20746869732076616c756500600082015250565b6000614d8f601f83614535565b9150614d9a82614d59565b602082019050919050565b60006020820190508181036000830152614dbe81614d82565b9050919050565b6000606082019050614dda600083018661402d565b614de76020830185613dc9565b614df46040830184613dc9565b949350505050565b7f4e487b7100000000000000000000000000000000000000000000000000000000600052603160045260246000fdfea26469706673582212203969371c54668ebdcc9201700448c4dc79b1c5421c7aa1ab4b88e4f82c88e12a64736f6c634300081c0033",
  "linkReferences": {},
  "deployedLinkReferences": {}
}