{
  "_format": "hh-sol-artifact-1",
  "contractName": "NFTMarketplacev2",
  "sourceName": "contracts/NFTMarketplacev2.sol",
  "abi": [
    {
      "inputs": [],
      "stateMutability": "nonpayable",
      "type": "constructor"
    },
    {
      "inputs": [
        {
          "internalType": "address",
          "name": "owner",
          "type": "address"
        }
      ],
      "name": "OwnableInvalidOwner",
      "type": "error"
    },
    {
      "inputs": [
        {
          "internalType": "address",
          "name": "account",
          "type": "address"
        }
      ],
      "name": "OwnableUnauthorizedAccount",
      "type": "error"
    },
    {
      "inputs": [],
      "name": "ReentrancyGuardReentrantCall",
      "type": "error"
    },
    {
      "anonymous": false,
      "inputs": [
        {
          "indexed": false,
          "internalType": "uint256",
          "name": "amount",
          "type": "uint256"
        },
        {
          "indexed": false,
          "internalType": "uint256",
          "name": "timestamp",
          "type": "uint256"
        }
      ],
      "name": "FeeWithdrawn",
      "type": "event"
    },
    {
      "anonymous": false,
      "inputs": [
        {
          "indexed": true,
          "internalType": "address",
          "name": "nft",
          "type": "address"
        },
        {
          "indexed": true,
          "internalType": "uint256",
          "name": "tokenId",
          "type": "uint256"
        },
        {
          "indexed": false,
          "internalType": "uint256",
          "name": "timestamp",
          "type": "uint256"
        }
      ],
      "name": "ItemCanceled",
      "type": "event"
    },
    {
      "anonymous": false,
      "inputs": [
        {
          "indexed": true,
          "internalType": "address",
          "name": "nft",
          "type": "address"
        },
        {
          "indexed": true,
          "internalType": "uint256",
          "name": "tokenId",
          "type": "uint256"
        },
        {
          "indexed": true,
          "internalType": "address",
          "name": "seller",
          "type": "address"
        },
        {
          "indexed": false,
          "internalType": "uint256",
          "name": "price",
          "type": "uint256"
        },
        {
          "indexed": false,
          "internalType": "uint256",
          "name": "timestamp",
          "type": "uint256"
        }
      ],
      "name": "ItemListed",
      "type": "event"
    },
    {
      "anonymous": false,
      "inputs": [
        {
          "indexed": true,
          "internalType": "address",
          "name": "nft",
          "type": "address"
        },
        {
          "indexed": true,
          "internalType": "uint256",
          "name": "tokenId",
          "type": "uint256"
        },
        {
          "indexed": false,
          "internalType": "address",
          "name": "seller",
          "type": "address"
        },
        {
          "indexed": false,
          "internalType": "address",
          "name": "buyer",
          "type": "address"
        },
        {
          "indexed": false,
          "internalType": "uint256",
          "name": "price",
          "type": "uint256"
        },
        {
          "indexed": false,
          "internalType": "uint256",
          "name": "timestamp",
          "type": "uint256"
        }
      ],
      "name": "ItemSold",
      "type": "event"
    },
    {
      "anonymous": false,
      "inputs": [
        {
          "indexed": false,
          "internalType": "uint256",
          "name": "newFee",
          "type": "uint256"
        },
        {
          "indexed": false,
          "internalType": "uint256",
          "name": "timestamp",
          "type": "uint256"
        }
      ],
      "name": "ListingFeeUpdated",
      "type": "event"
    },
    {
      "anonymous": false,
      "inputs": [
        {
          "indexed": true,
          "internalType": "address",
          "name": "nft",
          "type": "address"
        },
        {
          "indexed": true,
          "internalType": "uint256",
          "name": "tokenId",
          "type": "uint256"
        },
        {
          "indexed": false,
          "internalType": "address",
          "name": "seller",
          "type": "address"
        },
        {
          "indexed": false,
          "internalType": "uint256",
          "name": "newPrice",
          "type": "uint256"
        },
        {
          "indexed": false,
          "internalType": "uint256",
          "name": "timestamp",
          "type": "uint256"
        }
      ],
      "name": "ListingUpdated",
      "type": "event"
    },
    {
      "anonymous": false,
      "inputs": [
        {
          "indexed": true,
          "internalType": "address",
          "name": "previousOwner",
          "type": "address"
        },
        {
          "indexed": true,
          "internalType": "address",
          "name": "newOwner",
          "type": "address"
        }
      ],
      "name": "OwnershipTransferred",
      "type": "event"
    },
    {
      "inputs": [
        {
          "internalType": "address",
          "name": "nft",
          "type": "address"
        },
        {
          "internalType": "uint256",
          "name": "tokenId",
          "type": "uint256"
        }
      ],
      "name": "buyItem",
      "outputs": [],
      "stateMutability": "payable",
      "type": "function"
    },
    {
      "inputs": [
        {
          "internalType": "address",
          "name": "nft",
          "type": "address"
        },
        {
          "internalType": "uint256",
          "name": "tokenId",
          "type": "uint256"
        }
      ],
      "name": "cancelListing",
      "outputs": [],
      "stateMutability": "nonpayable",
      "type": "function"
    },
    {
      "inputs": [],
      "name": "getAllListings",
      "outputs": [
        {
          "components": [
            {
              "internalType": "address",
              "name": "nft",
              "type": "address"
            },
            {
              "internalType": "uint256",
              "name": "tokenId",
              "type": "uint256"
            },
            {
              "internalType": "address",
              "name": "seller",
              "type": "address"
            },
            {
              "internalType": "uint256",
              "name": "price",
              "type": "uint256"
            },
            {
              "internalType": "uint256",
              "name": "listedAt",
              "type": "uint256"
            },
            {
              "internalType": "uint256",
              "name": "updatedAt",
              "type": "uint256"
            },
            {
              "internalType": "uint256",
              "name": "canceledAt",
              "type": "uint256"
            },
            {
              "internalType": "uint256",
              "name": "soldAt",
              "type": "uint256"
            }
          ],
          "internalType": "struct NFTMarketplacev2.ListingLogInfo[]",
          "name": "",
          "type": "tuple[]"
        }
      ],
      "stateMutability": "view",
      "type": "function"
    },
    {
      "inputs": [
        {
          "internalType": "uint256",
          "name": "limit",
          "type": "uint256"
        },
        {
          "internalType": "uint256",
          "name": "offset",
          "type": "uint256"
        }
      ],
      "name": "getLatestListings",
      "outputs": [
        {
          "components": [
            {
              "internalType": "address",
              "name": "nft",
              "type": "address"
            },
            {
              "internalType": "uint256",
              "name": "tokenId",
              "type": "uint256"
            },
            {
              "internalType": "address",
              "name": "seller",
              "type": "address"
            },
            {
              "internalType": "uint256",
              "name": "price",
              "type": "uint256"
            },
            {
              "internalType": "uint256",
              "name": "listedAt",
              "type": "uint256"
            },
            {
              "internalType": "uint256",
              "name": "updatedAt",
              "type": "uint256"
            },
            {
              "internalType": "uint256",
              "name": "canceledAt",
              "type": "uint256"
            },
            {
              "internalType": "uint256",
              "name": "soldAt",
              "type": "uint256"
            }
          ],
          "internalType": "struct NFTMarketplacev2.ListingLogInfo[]",
          "name": "",
          "type": "tuple[]"
        }
      ],
      "stateMutability": "view",
      "type": "function"
    },
    {
      "inputs": [
        {
          "internalType": "address",
          "name": "nft",
          "type": "address"
        },
        {
          "internalType": "uint256",
          "name": "tokenId",
          "type": "uint256"
        }
      ],
      "name": "getListingById",
      "outputs": [
        {
          "components": [
            {
              "internalType": "address",
              "name": "nft",
              "type": "address"
            },
            {
              "internalType": "uint256",
              "name": "tokenId",
              "type": "uint256"
            },
            {
              "internalType": "address",
              "name": "seller",
              "type": "address"
            },
            {
              "internalType": "uint256",
              "name": "price",
              "type": "uint256"
            },
            {
              "internalType": "uint256",
              "name": "listedAt",
              "type": "uint256"
            },
            {
              "internalType": "uint256",
              "name": "updatedAt",
              "type": "uint256"
            }
          ],
          "internalType": "struct NFTMarketplacev2.Listing",
          "name": "",
          "type": "tuple"
        }
      ],
      "stateMutability": "view",
      "type": "function"
    },
    {
      "inputs": [],
      "name": "getListingFee",
      "outputs": [
        {
          "internalType": "uint256",
          "name": "",
          "type": "uint256"
        }
      ],
      "stateMutability": "view",
      "type": "function"
    },
    {
      "inputs": [
        {
          "internalType": "address",
          "name": "seller",
          "type": "address"
        }
      ],
      "name": "getListingsBySeller",
      "outputs": [
        {
          "components": [
            {
              "internalType": "address",
              "name": "nft",
              "type": "address"
            },
            {
              "internalType": "uint256",
              "name": "tokenId",
              "type": "uint256"
            },
            {
              "internalType": "address",
              "name": "seller",
              "type": "address"
            },
            {
              "internalType": "uint256",
              "name": "price",
              "type": "uint256"
            },
            {
              "internalType": "uint256",
              "name": "listedAt",
              "type": "uint256"
            },
            {
              "internalType": "uint256",
              "name": "updatedAt",
              "type": "uint256"
            }
          ],
          "internalType": "struct NFTMarketplacev2.Listing[]",
          "name": "",
          "type": "tuple[]"
        }
      ],
      "stateMutability": "view",
      "type": "function"
    },
    {
      "inputs": [
        {
          "internalType": "address",
          "name": "nft",
          "type": "address"
        },
        {
          "internalType": "uint256",
          "name": "tokenId",
          "type": "uint256"
        },
        {
          "internalType": "uint256",
          "name": "price",
          "type": "uint256"
        }
      ],
      "name": "listItem",
      "outputs": [],
      "stateMutability": "payable",
      "type": "function"
    },
    {
      "inputs": [],
      "name": "owner",
      "outputs": [
        {
          "internalType": "address",
          "name": "",
          "type": "address"
        }
      ],
      "stateMutability": "view",
      "type": "function"
    },
    {
      "inputs": [],
      "name": "renounceOwnership",
      "outputs": [],
      "stateMutability": "nonpayable",
      "type": "function"
    },
    {
      "inputs": [
        {
          "internalType": "uint256",
          "name": "_fee",
          "type": "uint256"
        }
      ],
      "name": "setListingFee",
      "outputs": [],
      "stateMutability": "nonpayable",
      "type": "function"
    },
    {
      "inputs": [
        {
          "internalType": "address",
          "name": "newOwner",
          "type": "address"
        }
      ],
      "name": "transferOwnership",
      "outputs": [],
      "stateMutability": "nonpayable",
      "type": "function"
    },
    {
      "inputs": [
        {
          "internalType": "address",
          "name": "nft",
          "type": "address"
        },
        {
          "internalType": "uint256",
          "name": "tokenId",
          "type": "uint256"
        },
        {
          "internalType": "uint256",
          "name": "newPrice",
          "type": "uint256"
        }
      ],
      "name": "updateListingPrice",
      "outputs": [],
      "stateMutability": "nonpayable",
      "type": "function"
    },
    {
      "inputs": [],
      "name": "withdrawFees",
      "outputs": [],
      "stateMutability": "nonpayable",
      "type": "function"
    }
  ],
  "bytecode": "0x6080604052655af3107a400060055534801561001a57600080fd5b5033600073ffffffffffffffffffffffffffffffffffffffff168173ffffffffffffffffffffffffffffffffffffffff160361008e5760006040517f1e4fbdf700000000000000000000000000000000000000000000000000000000815260040161008591906101af565b60405180910390fd5b61009d816100aa60201b60201c565b50600180819055506101ca565b60008060009054906101000a900473ffffffffffffffffffffffffffffffffffffffff169050816000806101000a81548173ffffffffffffffffffffffffffffffffffffffff021916908373ffffffffffffffffffffffffffffffffffffffff1602179055508173ffffffffffffffffffffffffffffffffffffffff168173ffffffffffffffffffffffffffffffffffffffff167f8be0079c531659141344cd1fd0a4f28419497f9722a3daafe3b4186f6b6457e060405160405180910390a35050565b600073ffffffffffffffffffffffffffffffffffffffff82169050919050565b60006101998261016e565b9050919050565b6101a98161018e565b82525050565b60006020820190506101c460008301846101a0565b92915050565b613e33806101d96000396000f3fe6080604052600436106100dd5760003560e01c8063ae73ccec1161007f578063bf71cdb811610059578063bf71cdb814610258578063d8cba25114610295578063f2fde38b146102d2578063f7232f67146102fb576100dd565b8063ae73ccec146101d9578063b2ddee0614610204578063b8fe6abe1461022d576100dd565b8063715018a6116100bb578063715018a61461015f57806389bfd38f146101765780638da5cb5b146101925780639f37092a146101bd576100dd565b8063131dbd09146100e25780632e7015071461010b578063476343ee14610148575b600080fd5b3480156100ee57600080fd5b50610109600480360381019061010491906130ca565b610324565b005b34801561011757600080fd5b50610132600480360381019061012d91906130f7565b61036f565b60405161013f91906132d9565b60405180910390f35b34801561015457600080fd5b5061015d610783565b005b34801561016b57600080fd5b5061017461081a565b005b610190600480360381019061018b9190613327565b61082e565b005b34801561019e57600080fd5b506101a7610fc1565b6040516101b49190613389565b60405180910390f35b6101d760048036038101906101d291906133a4565b610fea565b005b3480156101e557600080fd5b506101ee6118b7565b6040516101fb91906132d9565b60405180910390f35b34801561021057600080fd5b5061022b600480360381019061022691906133a4565b611bcc565b005b34801561023957600080fd5b50610242611e47565b60405161024f91906133f3565b60405180910390f35b34801561026457600080fd5b5061027f600480360381019061027a91906133a4565b611e51565b60405161028c9190613489565b60405180910390f35b3480156102a157600080fd5b506102bc60048036038101906102b791906134a4565b611f90565b6040516102c991906135fb565b60405180910390f35b3480156102de57600080fd5b506102f960048036038101906102f491906134a4565b612102565b005b34801561030757600080fd5b50610322600480360381019061031d9190613327565b612188565b005b61032c612889565b806005819055507f83bee1c75d00c29e66092d821c1c82aa4792fe1f058e8dff38d5d394d37916dd814260405161036492919061361d565b60405180910390a150565b6060600060048054905090508083106103df57600067ffffffffffffffff81111561039d5761039c613646565b5b6040519080825280602002602001820160405280156103d657816020015b6103c3612fbc565b8152602001906001900390816103bb5790505b5091505061077d565b600084116103ec57600a93505b6000806001836103fc91906136a4565b9050600060018461040d91906136a4565b90505b600081106104b15760006004828154811061042e5761042d6136d8565b5b9060005260206000209060080201600601541180610471575060006004828154811061045d5761045c6136d8565b5b906000526020600020906008020160070154115b61049e57828061048090613707565b935050858761048f919061374f565b831061049d578091506104b1565b5b80806104a990613783565b915050610410565b5060008214806104c15750848211155b1561052557600067ffffffffffffffff8111156104e1576104e0613646565b5b60405190808252806020026020018201604052801561051a57816020015b610507612fbc565b8152602001906001900390816104ff5790505b50935050505061077d565b8486610531919061374f565b821161054a57848261054391906136a4565b9550610557565b85821015610556578195505b5b60008667ffffffffffffffff81111561057357610572613646565b5b6040519080825280602002602001820160405280156105ac57816020015b610599612fbc565b8152602001906001900390816105915790505b5090506000808390505b85811015610773576000600482815481106105d4576105d36136d8565b5b90600052602060002090600802016006015411806106175750600060048281548110610603576106026136d8565b5b906000526020600020906008020160070154115b610766576004818154811061062f5761062e6136d8565b5b9060005260206000209060080201604051806101000160405290816000820160009054906101000a900473ffffffffffffffffffffffffffffffffffffffff1673ffffffffffffffffffffffffffffffffffffffff1673ffffffffffffffffffffffffffffffffffffffff168152602001600182015481526020016002820160009054906101000a900473ffffffffffffffffffffffffffffffffffffffff1673ffffffffffffffffffffffffffffffffffffffff1673ffffffffffffffffffffffffffffffffffffffff16815260200160038201548152602001600482015481526020016005820154815260200160068201548152602001600782015481525050838381518110610744576107436136d8565b5b6020026020010181905250818061075a90613707565b92505088821015610773575b80806001019150506105b6565b5081955050505050505b92915050565b61078b612889565b6000479050610798610fc1565b73ffffffffffffffffffffffffffffffffffffffff166108fc829081150290604051600060405180830381858888f193505050501580156107dd573d6000803e3d6000fd5b507f0a86d3615abd799fbaa5be89d4941a68641aec3f02b8f19faff5dfade02817bc814260405161080f92919061361d565b60405180910390a150565b610822612889565b61082c6000612910565b565b6108366129d4565b60055434101561087b576040517f08c379a000000000000000000000000000000000000000000000000000000000815260040161087290613809565b60405180910390fd5b606481116108be576040517f08c379a00000000000000000000000000000000000000000000000000000000081526004016108b590613875565b60405180910390fd5b60008390503373ffffffffffffffffffffffffffffffffffffffff168173ffffffffffffffffffffffffffffffffffffffff16636352211e856040518263ffffffff1660e01b815260040161091391906133f3565b602060405180830381865afa158015610930573d6000803e3d6000fd5b505050506040513d601f19601f8201168201806040525081019061095491906138aa565b73ffffffffffffffffffffffffffffffffffffffff16146109aa576040517f08c379a00000000000000000000000000000000000000000000000000000000081526004016109a190613923565b60405180910390fd5b3073ffffffffffffffffffffffffffffffffffffffff168173ffffffffffffffffffffffffffffffffffffffff1663081812fc856040518263ffffffff1660e01b81526004016109fa91906133f3565b602060405180830381865afa158015610a17573d6000803e3d6000fd5b505050506040513d601f19601f82011682018060405250810190610a3b91906138aa565b73ffffffffffffffffffffffffffffffffffffffff1614610a91576040517f08c379a0000000000000000000000000000000000000000000000000000000008152600401610a889061398f565b60405180910390fd5b6040518060c001604052808573ffffffffffffffffffffffffffffffffffffffff1681526020018481526020013373ffffffffffffffffffffffffffffffffffffffff16815260200183815260200142815260200142815250600260008673ffffffffffffffffffffffffffffffffffffffff1673ffffffffffffffffffffffffffffffffffffffff168152602001908152602001600020600085815260200190815260200160002060008201518160000160006101000a81548173ffffffffffffffffffffffffffffffffffffffff021916908373ffffffffffffffffffffffffffffffffffffffff1602179055506020820151816001015560408201518160020160006101000a81548173ffffffffffffffffffffffffffffffffffffffff021916908373ffffffffffffffffffffffffffffffffffffffff160217905550606082015181600301556080820151816004015560a08201518160050155905050600360003373ffffffffffffffffffffffffffffffffffffffff1673ffffffffffffffffffffffffffffffffffffffff168152602001908152602001600020600260008673ffffffffffffffffffffffffffffffffffffffff1673ffffffffffffffffffffffffffffffffffffffff168152602001908152602001600020600085815260200190815260200160002090806001815401808255809150506001900390600052602060002090600602016000909190919091506000820160009054906101000a900473ffffffffffffffffffffffffffffffffffffffff168160000160006101000a81548173ffffffffffffffffffffffffffffffffffffffff021916908373ffffffffffffffffffffffffffffffffffffffff160217905550600182015481600101556002820160009054906101000a900473ffffffffffffffffffffffffffffffffffffffff168160020160006101000a81548173ffffffffffffffffffffffffffffffffffffffff021916908373ffffffffffffffffffffffffffffffffffffffff160217905550600382015481600301556004820154816004015560058201548160050155505060046040518061010001604052808673ffffffffffffffffffffffffffffffffffffffff1681526020018581526020013373ffffffffffffffffffffffffffffffffffffffff168152602001848152602001428152602001428152602001600081526020016000815250908060018154018082558091505060019003906000526020600020906008020160009091909190915060008201518160000160006101000a81548173ffffffffffffffffffffffffffffffffffffffff021916908373ffffffffffffffffffffffffffffffffffffffff1602179055506020820151816001015560408201518160020160006101000a81548173ffffffffffffffffffffffffffffffffffffffff021916908373ffffffffffffffffffffffffffffffffffffffff160217905550606082015181600301556080820151816004015560a0820151816005015560c0820151816006015560e0820151816007015550503073ffffffffffffffffffffffffffffffffffffffff166108fc6005549081150290604051600060405180830381858888f19350505050158015610f4a573d6000803e3d6000fd5b503373ffffffffffffffffffffffffffffffffffffffff16838573ffffffffffffffffffffffffffffffffffffffff167fbd5d1836d4114b1a1785c873a084824203ab9c294b3694e6a9fa69234a9113c68542604051610fab92919061361d565b60405180910390a450610fbc612a1a565b505050565b60008060009054906101000a900473ffffffffffffffffffffffffffffffffffffffff16905090565b610ff26129d4565b6000600260008473ffffffffffffffffffffffffffffffffffffffff1673ffffffffffffffffffffffffffffffffffffffff16815260200190815260200160002060008381526020019081526020016000206040518060c00160405290816000820160009054906101000a900473ffffffffffffffffffffffffffffffffffffffff1673ffffffffffffffffffffffffffffffffffffffff1673ffffffffffffffffffffffffffffffffffffffff168152602001600182015481526020016002820160009054906101000a900473ffffffffffffffffffffffffffffffffffffffff1673ffffffffffffffffffffffffffffffffffffffff1673ffffffffffffffffffffffffffffffffffffffff16815260200160038201548152602001600482015481526020016005820154815250509050600073ffffffffffffffffffffffffffffffffffffffff16816040015173ffffffffffffffffffffffffffffffffffffffff1603611198576040517f08c379a000000000000000000000000000000000000000000000000000000000815260040161118f906139fb565b60405180910390fd5b3373ffffffffffffffffffffffffffffffffffffffff16816040015173ffffffffffffffffffffffffffffffffffffffff160361120a576040517f08c379a000000000000000000000000000000000000000000000000000000000815260040161120190613a67565b60405180910390fd5b3073ffffffffffffffffffffffffffffffffffffffff168373ffffffffffffffffffffffffffffffffffffffff1663081812fc846040518263ffffffff1660e01b815260040161125a91906133f3565b602060405180830381865afa158015611277573d6000803e3d6000fd5b505050506040513d601f19601f8201168201806040525081019061129b91906138aa565b73ffffffffffffffffffffffffffffffffffffffff16146112f1576040517f08c379a00000000000000000000000000000000000000000000000000000000081526004016112e89061398f565b60405180910390fd5b8060600151341015611338576040517f08c379a000000000000000000000000000000000000000000000000000000000815260040161132f90613ad3565b60405180910390fd5b60008373ffffffffffffffffffffffffffffffffffffffff1663b3912597846040518263ffffffff1660e01b815260040161137391906133f3565b602060405180830381865afa158015611390573d6000803e3d6000fd5b505050506040513d601f19601f820116820180604052508101906113b49190613b08565b905060008473ffffffffffffffffffffffffffffffffffffffff16637539fc5c856040518263ffffffff1660e01b81526004016113f191906133f3565b602060405180830381865afa15801561140e573d6000803e3d6000fd5b505050506040513d601f19601f8201168201806040525081019061143291906138aa565b9050600060648385606001516114489190613b35565b6114529190613ba6565b905034811115611497576040517f08c379a000000000000000000000000000000000000000000000000000000000815260040161148e90613c23565b60405180910390fd5b60008185606001516114a991906136a4565b9050600260008873ffffffffffffffffffffffffffffffffffffffff1673ffffffffffffffffffffffffffffffffffffffff1681526020019081526020016000206000878152602001908152602001600020600080820160006101000a81549073ffffffffffffffffffffffffffffffffffffffff021916905560018201600090556002820160006101000a81549073ffffffffffffffffffffffffffffffffffffffff0219169055600382016000905560048201600090556005820160009055505061157b87878760400151612a23565b6000600160048054905061158f91906136a4565b90505b60008110611739578773ffffffffffffffffffffffffffffffffffffffff16600482815481106115c5576115c46136d8565b5b906000526020600020906008020160000160009054906101000a900473ffffffffffffffffffffffffffffffffffffffff1673ffffffffffffffffffffffffffffffffffffffff1614801561163e5750866004828154811061162a576116296136d8565b5b906000526020600020906008020160010154145b80156116be5750856040015173ffffffffffffffffffffffffffffffffffffffff1660048281548110611674576116736136d8565b5b906000526020600020906008020160020160009054906101000a900473ffffffffffffffffffffffffffffffffffffffff1673ffffffffffffffffffffffffffffffffffffffff16145b80156116f257508560800151600482815481106116de576116dd6136d8565b5b906000526020600020906008020160040154145b1561172657426004828154811061170c5761170b6136d8565b5b906000526020600020906008020160070181905550611739565b808061173190613783565b915050611592565b508673ffffffffffffffffffffffffffffffffffffffff166342842e0e866040015133896040518463ffffffff1660e01b815260040161177b93929190613c43565b600060405180830381600087803b15801561179557600080fd5b505af11580156117a9573d6000803e3d6000fd5b5050505060008211156117fe578273ffffffffffffffffffffffffffffffffffffffff166108fc839081150290604051600060405180830381858888f193505050501580156117fc573d6000803e3d6000fd5b505b846040015173ffffffffffffffffffffffffffffffffffffffff166108fc829081150290604051600060405180830381858888f19350505050158015611848573d6000803e3d6000fd5b50858773ffffffffffffffffffffffffffffffffffffffff167f2781b6bf1d50821bde8d8e1ea36be5557167d6b25dde84a52efb147adf2e6d3587604001513389606001514260405161189e9493929190613c7a565b60405180910390a350505050506118b3612a1a565b5050565b6060600060048054905090506000805b82811015611948576000600482815481106118e5576118e46136d8565b5b90600052602060002090600802016006015411806119285750600060048281548110611914576119136136d8565b5b906000526020600020906008020160070154115b61193b57818061193790613707565b9250505b80806001019150506118c7565b50600081036119af57600067ffffffffffffffff81111561196c5761196b613646565b5b6040519080825280602002602001820160405280156119a557816020015b611992612fbc565b81526020019060019003908161198a5790505b5092505050611bc9565b60008167ffffffffffffffff8111156119cb576119ca613646565b5b604051908082528060200260200182016040528015611a0457816020015b6119f1612fbc565b8152602001906001900390816119e95790505b5090506000805b84811015611bc057600060048281548110611a2957611a286136d8565b5b9060005260206000209060080201600601541180611a6c5750600060048281548110611a5857611a576136d8565b5b906000526020600020906008020160070154115b611bb35760048181548110611a8457611a836136d8565b5b9060005260206000209060080201604051806101000160405290816000820160009054906101000a900473ffffffffffffffffffffffffffffffffffffffff1673ffffffffffffffffffffffffffffffffffffffff1673ffffffffffffffffffffffffffffffffffffffff168152602001600182015481526020016002820160009054906101000a900473ffffffffffffffffffffffffffffffffffffffff1673ffffffffffffffffffffffffffffffffffffffff1673ffffffffffffffffffffffffffffffffffffffff16815260200160038201548152602001600482015481526020016005820154815260200160068201548152602001600782015481525050838381518110611b9957611b986136d8565b5b60200260200101819052508180611baf90613707565b9250505b8080600101915050611a0b565b50819450505050505b90565b6000600260008473ffffffffffffffffffffffffffffffffffffffff1673ffffffffffffffffffffffffffffffffffffffff16815260200190815260200160002060008381526020019081526020016000206040518060c00160405290816000820160009054906101000a900473ffffffffffffffffffffffffffffffffffffffff1673ffffffffffffffffffffffffffffffffffffffff1673ffffffffffffffffffffffffffffffffffffffff168152602001600182015481526020016002820160009054906101000a900473ffffffffffffffffffffffffffffffffffffffff1673ffffffffffffffffffffffffffffffffffffffff1673ffffffffffffffffffffffffffffffffffffffff16815260200160038201548152602001600482015481526020016005820154815250509050600073ffffffffffffffffffffffffffffffffffffffff16816040015173ffffffffffffffffffffffffffffffffffffffff1603611d72576040517f08c379a0000000000000000000000000000000000000000000000000000000008152600401611d69906139fb565b60405180910390fd5b3373ffffffffffffffffffffffffffffffffffffffff16816040015173ffffffffffffffffffffffffffffffffffffffff1614611de4576040517f08c379a0000000000000000000000000000000000000000000000000000000008152600401611ddb90613d0b565b60405180910390fd5b611df383838360400151612a23565b818373ffffffffffffffffffffffffffffffffffffffff167f25164b296f6f11aec8bd7dd4fc2b26e884fe09e27ff3852f49459976584f045d42604051611e3a91906133f3565b60405180910390a3505050565b6000600554905090565b611e5961302d565b600260008473ffffffffffffffffffffffffffffffffffffffff1673ffffffffffffffffffffffffffffffffffffffff16815260200190815260200160002060008381526020019081526020016000206040518060c00160405290816000820160009054906101000a900473ffffffffffffffffffffffffffffffffffffffff1673ffffffffffffffffffffffffffffffffffffffff1673ffffffffffffffffffffffffffffffffffffffff168152602001600182015481526020016002820160009054906101000a900473ffffffffffffffffffffffffffffffffffffffff1673ffffffffffffffffffffffffffffffffffffffff1673ffffffffffffffffffffffffffffffffffffffff1681526020016003820154815260200160048201548152602001600582015481525050905092915050565b6060600360008373ffffffffffffffffffffffffffffffffffffffff1673ffffffffffffffffffffffffffffffffffffffff168152602001908152602001600020805480602002602001604051908101604052809291908181526020016000905b828210156120f757838290600052602060002090600602016040518060c00160405290816000820160009054906101000a900473ffffffffffffffffffffffffffffffffffffffff1673ffffffffffffffffffffffffffffffffffffffff1673ffffffffffffffffffffffffffffffffffffffff168152602001600182015481526020016002820160009054906101000a900473ffffffffffffffffffffffffffffffffffffffff1673ffffffffffffffffffffffffffffffffffffffff1673ffffffffffffffffffffffffffffffffffffffff168152602001600382015481526020016004820154815260200160058201548152505081526020019060010190611ff1565b505050509050919050565b61210a612889565b600073ffffffffffffffffffffffffffffffffffffffff168173ffffffffffffffffffffffffffffffffffffffff160361217c5760006040517f1e4fbdf70000000000000000000000000000000000000000000000000000000081526004016121739190613389565b60405180910390fd5b61218581612910565b50565b6000600260008573ffffffffffffffffffffffffffffffffffffffff1673ffffffffffffffffffffffffffffffffffffffff16815260200190815260200160002060008481526020019081526020016000209050600073ffffffffffffffffffffffffffffffffffffffff168160020160009054906101000a900473ffffffffffffffffffffffffffffffffffffffff1673ffffffffffffffffffffffffffffffffffffffff160361226f576040517f08c379a0000000000000000000000000000000000000000000000000000000008152600401612266906139fb565b60405180910390fd5b3373ffffffffffffffffffffffffffffffffffffffff168160020160009054906101000a900473ffffffffffffffffffffffffffffffffffffffff1673ffffffffffffffffffffffffffffffffffffffff1614612301576040517f08c379a00000000000000000000000000000000000000000000000000000000081526004016122f890613d0b565b60405180910390fd5b60648211612344576040517f08c379a000000000000000000000000000000000000000000000000000000000815260040161233b90613875565b60405180910390fd5b8060030154820361238a576040517f08c379a000000000000000000000000000000000000000000000000000000000815260040161238190613d77565b60405180910390fd5b81816003018190555042816005018190555060005b600360003373ffffffffffffffffffffffffffffffffffffffff1673ffffffffffffffffffffffffffffffffffffffff168152602001908152602001600020805490508110156125ec578473ffffffffffffffffffffffffffffffffffffffff16600360003373ffffffffffffffffffffffffffffffffffffffff1673ffffffffffffffffffffffffffffffffffffffff1681526020019081526020016000208281548110612451576124506136d8565b5b906000526020600020906006020160000160009054906101000a900473ffffffffffffffffffffffffffffffffffffffff1673ffffffffffffffffffffffffffffffffffffffff16148015612507575083600360003373ffffffffffffffffffffffffffffffffffffffff1673ffffffffffffffffffffffffffffffffffffffff16815260200190815260200160002082815481106124f3576124f26136d8565b5b906000526020600020906006020160010154145b156125df5782600360003373ffffffffffffffffffffffffffffffffffffffff1673ffffffffffffffffffffffffffffffffffffffff168152602001908152602001600020828154811061255e5761255d6136d8565b5b90600052602060002090600602016003018190555042600360003373ffffffffffffffffffffffffffffffffffffffff1673ffffffffffffffffffffffffffffffffffffffff16815260200190815260200160002082815481106125c5576125c46136d8565b5b9060005260206000209060060201600501819055506125ec565b808060010191505061239f565b506000600160048054905061260191906136a4565b90505b6000811061282f578473ffffffffffffffffffffffffffffffffffffffff1660048281548110612637576126366136d8565b5b906000526020600020906008020160000160009054906101000a900473ffffffffffffffffffffffffffffffffffffffff1673ffffffffffffffffffffffffffffffffffffffff161480156126b05750836004828154811061269c5761269b6136d8565b5b906000526020600020906008020160010154145b801561272c57503373ffffffffffffffffffffffffffffffffffffffff16600482815481106126e2576126e16136d8565b5b906000526020600020906008020160020160009054906101000a900473ffffffffffffffffffffffffffffffffffffffff1673ffffffffffffffffffffffffffffffffffffffff16145b80156127be5750600360003373ffffffffffffffffffffffffffffffffffffffff1673ffffffffffffffffffffffffffffffffffffffff1681526020019081526020016000208181548110612784576127836136d8565b5b906000526020600020906006020160040154600482815481106127aa576127a96136d8565b5b906000526020600020906008020160040154145b1561281c5782600482815481106127d8576127d76136d8565b5b9060005260206000209060080201600301819055504260048281548110612802576128016136d8565b5b90600052602060002090600802016005018190555061282f565b808061282790613783565b915050612604565b50828473ffffffffffffffffffffffffffffffffffffffff167fb8f3dda438349ef6632f812d6bc7aa3c2cfdb9e02aa0aac16324dcebbdc02bbb33854260405161287b93929190613d97565b60405180910390a350505050565b612891612fb4565b73ffffffffffffffffffffffffffffffffffffffff166128af610fc1565b73ffffffffffffffffffffffffffffffffffffffff161461290e576128d2612fb4565b6040517f118cdaa70000000000000000000000000000000000000000000000000000000081526004016129059190613389565b60405180910390fd5b565b60008060009054906101000a900473ffffffffffffffffffffffffffffffffffffffff169050816000806101000a81548173ffffffffffffffffffffffffffffffffffffffff021916908373ffffffffffffffffffffffffffffffffffffffff1602179055508173ffffffffffffffffffffffffffffffffffffffff168173ffffffffffffffffffffffffffffffffffffffff167f8be0079c531659141344cd1fd0a4f28419497f9722a3daafe3b4186f6b6457e060405160405180910390a35050565b600260015403612a10576040517f3ee5aeb500000000000000000000000000000000000000000000000000000000815260040160405180910390fd5b6002600181905550565b60018081905550565b600260008473ffffffffffffffffffffffffffffffffffffffff1673ffffffffffffffffffffffffffffffffffffffff1681526020019081526020016000206000838152602001908152602001600020600080820160006101000a81549073ffffffffffffffffffffffffffffffffffffffff021916905560018201600090556002820160006101000a81549073ffffffffffffffffffffffffffffffffffffffff021916905560038201600090556004820160009055600582016000905550506000600360008373ffffffffffffffffffffffffffffffffffffffff1673ffffffffffffffffffffffffffffffffffffffff168152602001908152602001600020905060005b8180549050811015612dd2578473ffffffffffffffffffffffffffffffffffffffff16828281548110612b6057612b5f6136d8565b5b906000526020600020906006020160000160009054906101000a900473ffffffffffffffffffffffffffffffffffffffff1673ffffffffffffffffffffffffffffffffffffffff16148015612bd8575083828281548110612bc457612bc36136d8565b5b906000526020600020906006020160010154145b15612dc5578160018380549050612bef91906136a4565b81548110612c0057612bff6136d8565b5b9060005260206000209060060201828281548110612c2157612c206136d8565b5b90600052602060002090600602016000820160009054906101000a900473ffffffffffffffffffffffffffffffffffffffff168160000160006101000a81548173ffffffffffffffffffffffffffffffffffffffff021916908373ffffffffffffffffffffffffffffffffffffffff160217905550600182015481600101556002820160009054906101000a900473ffffffffffffffffffffffffffffffffffffffff168160020160006101000a81548173ffffffffffffffffffffffffffffffffffffffff021916908373ffffffffffffffffffffffffffffffffffffffff16021790555060038201548160030155600482015481600401556005820154816005015590505081805480612d3957612d38613dce565b5b6001900381819060005260206000209060060201600080820160006101000a81549073ffffffffffffffffffffffffffffffffffffffff021916905560018201600090556002820160006101000a81549073ffffffffffffffffffffffffffffffffffffffff021916905560038201600090556004820160009055600582016000905550509055612dd2565b8080600101915050612b2a565b5060006001600480549050612de791906136a4565b90505b60008110612fad578473ffffffffffffffffffffffffffffffffffffffff1660048281548110612e1d57612e1c6136d8565b5b906000526020600020906008020160000160009054906101000a900473ffffffffffffffffffffffffffffffffffffffff1673ffffffffffffffffffffffffffffffffffffffff16148015612e9657508360048281548110612e8257612e816136d8565b5b906000526020600020906008020160010154145b8015612f1257508273ffffffffffffffffffffffffffffffffffffffff1660048281548110612ec857612ec76136d8565b5b906000526020600020906008020160020160009054906101000a900473ffffffffffffffffffffffffffffffffffffffff1673ffffffffffffffffffffffffffffffffffffffff16145b8015612f665750818181548110612f2c57612f2b6136d8565b5b90600052602060002090600602016004015460048281548110612f5257612f516136d8565b5b906000526020600020906008020160040154145b15612f9a574260048281548110612f8057612f7f6136d8565b5b906000526020600020906008020160060181905550612fad565b8080612fa590613783565b915050612dea565b5050505050565b600033905090565b604051806101000160405280600073ffffffffffffffffffffffffffffffffffffffff16815260200160008152602001600073ffffffffffffffffffffffffffffffffffffffff16815260200160008152602001600081526020016000815260200160008152602001600081525090565b6040518060c00160405280600073ffffffffffffffffffffffffffffffffffffffff16815260200160008152602001600073ffffffffffffffffffffffffffffffffffffffff1681526020016000815260200160008152602001600081525090565b600080fd5b6000819050919050565b6130a781613094565b81146130b257600080fd5b50565b6000813590506130c48161309e565b92915050565b6000602082840312156130e0576130df61308f565b5b60006130ee848285016130b5565b91505092915050565b6000806040838503121561310e5761310d61308f565b5b600061311c858286016130b5565b925050602061312d858286016130b5565b9150509250929050565b600081519050919050565b600082825260208201905092915050565b6000819050602082019050919050565b600073ffffffffffffffffffffffffffffffffffffffff82169050919050565b600061318e82613163565b9050919050565b61319e81613183565b82525050565b6131ad81613094565b82525050565b610100820160008201516131ca6000850182613195565b5060208201516131dd60208501826131a4565b5060408201516131f06040850182613195565b50606082015161320360608501826131a4565b50608082015161321660808501826131a4565b5060a082015161322960a08501826131a4565b5060c082015161323c60c08501826131a4565b5060e082015161324f60e08501826131a4565b50505050565b600061326183836131b3565b6101008301905092915050565b6000602082019050919050565b600061328682613137565b6132908185613142565b935061329b83613153565b8060005b838110156132cc5781516132b38882613255565b97506132be8361326e565b92505060018101905061329f565b5085935050505092915050565b600060208201905081810360008301526132f3818461327b565b905092915050565b61330481613183565b811461330f57600080fd5b50565b600081359050613321816132fb565b92915050565b6000806000606084860312156133405761333f61308f565b5b600061334e86828701613312565b935050602061335f868287016130b5565b9250506040613370868287016130b5565b9150509250925092565b61338381613183565b82525050565b600060208201905061339e600083018461337a565b92915050565b600080604083850312156133bb576133ba61308f565b5b60006133c985828601613312565b92505060206133da858286016130b5565b9150509250929050565b6133ed81613094565b82525050565b600060208201905061340860008301846133e4565b92915050565b60c0820160008201516134246000850182613195565b50602082015161343760208501826131a4565b50604082015161344a6040850182613195565b50606082015161345d60608501826131a4565b50608082015161347060808501826131a4565b5060a082015161348360a08501826131a4565b50505050565b600060c08201905061349e600083018461340e565b92915050565b6000602082840312156134ba576134b961308f565b5b60006134c884828501613312565b91505092915050565b600081519050919050565b600082825260208201905092915050565b6000819050602082019050919050565b60c0820160008201516135136000850182613195565b50602082015161352660208501826131a4565b5060408201516135396040850182613195565b50606082015161354c60608501826131a4565b50608082015161355f60808501826131a4565b5060a082015161357260a08501826131a4565b50505050565b600061358483836134fd565b60c08301905092915050565b6000602082019050919050565b60006135a8826134d1565b6135b281856134dc565b93506135bd836134ed565b8060005b838110156135ee5781516135d58882613578565b97506135e083613590565b9250506001810190506135c1565b5085935050505092915050565b60006020820190508181036000830152613615818461359d565b905092915050565b600060408201905061363260008301856133e4565b61363f60208301846133e4565b9392505050565b7f4e487b7100000000000000000000000000000000000000000000000000000000600052604160045260246000fd5b7f4e487b7100000000000000000000000000000000000000000000000000000000600052601160045260246000fd5b60006136af82613094565b91506136ba83613094565b92508282039050818111156136d2576136d1613675565b5b92915050565b7f4e487b7100000000000000000000000000000000000000000000000000000000600052603260045260246000fd5b600061371282613094565b91507fffffffffffffffffffffffffffffffffffffffffffffffffffffffffffffffff820361374457613743613675565b5b600182019050919050565b600061375a82613094565b915061376583613094565b925082820190508082111561377d5761377c613675565b5b92915050565b600061378e82613094565b9150600082036137a1576137a0613675565b5b600182039050919050565b600082825260208201905092915050565b7f4c697374696e6720666565206e6f742070616964000000000000000000000000600082015250565b60006137f36014836137ac565b91506137fe826137bd565b602082019050919050565b60006020820190508181036000830152613822816137e6565b9050919050565b7f5072696365206d757374206265203e2031303020776569000000000000000000600082015250565b600061385f6017836137ac565b915061386a82613829565b602082019050919050565b6000602082019050818103600083015261388e81613852565b9050919050565b6000815190506138a4816132fb565b92915050565b6000602082840312156138c0576138bf61308f565b5b60006138ce84828501613895565b91505092915050565b7f4e6f74206f776e65720000000000000000000000000000000000000000000000600082015250565b600061390d6009836137ac565b9150613918826138d7565b602082019050919050565b6000602082019050818103600083015261393c81613900565b9050919050565b7f4e6f7420617070726f7665640000000000000000000000000000000000000000600082015250565b6000613979600c836137ac565b915061398482613943565b602082019050919050565b600060208201905081810360008301526139a88161396c565b9050919050565b7f4e6f74206c697374656400000000000000000000000000000000000000000000600082015250565b60006139e5600a836137ac565b91506139f0826139af565b602082019050919050565b60006020820190508181036000830152613a14816139d8565b9050919050565b7f43616e6e6f742062757920796f7572206f776e206974656d0000000000000000600082015250565b6000613a516018836137ac565b9150613a5c82613a1b565b602082019050919050565b60006020820190508181036000830152613a8081613a44565b9050919050565b7f496e73756666696369656e742045544800000000000000000000000000000000600082015250565b6000613abd6010836137ac565b9150613ac882613a87565b602082019050919050565b60006020820190508181036000830152613aec81613ab0565b9050919050565b600081519050613b028161309e565b92915050565b600060208284031215613b1e57613b1d61308f565b5b6000613b2c84828501613af3565b91505092915050565b6000613b4082613094565b9150613b4b83613094565b9250828202613b5981613094565b91508282048414831517613b7057613b6f613675565b5b5092915050565b7f4e487b7100000000000000000000000000000000000000000000000000000000600052601260045260246000fd5b6000613bb182613094565b9150613bbc83613094565b925082613bcc57613bcb613b77565b5b828204905092915050565b7f526f79616c7479206665652065786365656473207061796d656e740000000000600082015250565b6000613c0d601b836137ac565b9150613c1882613bd7565b602082019050919050565b60006020820190508181036000830152613c3c81613c00565b9050919050565b6000606082019050613c58600083018661337a565b613c65602083018561337a565b613c7260408301846133e4565b949350505050565b6000608082019050613c8f600083018761337a565b613c9c602083018661337a565b613ca960408301856133e4565b613cb660608301846133e4565b95945050505050565b7f4e6f742073656c6c657200000000000000000000000000000000000000000000600082015250565b6000613cf5600a836137ac565b9150613d0082613cbf565b602082019050919050565b60006020820190508181036000830152613d2481613ce8565b9050919050565b7f507269636520616c72656164792073657420746f20746869732076616c756500600082015250565b6000613d61601f836137ac565b9150613d6c82613d2b565b602082019050919050565b60006020820190508181036000830152613d9081613d54565b9050919050565b6000606082019050613dac600083018661337a565b613db960208301856133e4565b613dc660408301846133e4565b949350505050565b7f4e487b7100000000000000000000000000000000000000000000000000000000600052603160045260246000fdfea2646970667358221220ef48b807c7f501b9060ab9dea9a73bf01dca69296ca11ebe3b66e7547188a27864736f6c634300081c0033",
  "linkReferences": {},
  "deployedLinkReferences": {}
}