{
  "_format": "hh-sol-artifact-1",
  "contractName": "NFTMarketplacev2",
  "sourceName": "contracts/NFTMarketplacev2.sol",
  "abi": [
    {
      "inputs": [],
      "stateMutability": "nonpayable",
      "type": "constructor"
    },
    {
      "inputs": [
        {
          "internalType": "address",
          "name": "owner",
          "type": "address"
        }
      ],
      "name": "OwnableInvalidOwner",
      "type": "error"
    },
    {
      "inputs": [
        {
          "internalType": "address",
          "name": "account",
          "type": "address"
        }
      ],
      "name": "OwnableUnauthorizedAccount",
      "type": "error"
    },
    {
      "inputs": [],
      "name": "ReentrancyGuardReentrantCall",
      "type": "error"
    },
    {
      "anonymous": false,
      "inputs": [
        {
          "indexed": false,
          "internalType": "uint256",
          "name": "amount",
          "type": "uint256"
        },
        {
          "indexed": false,
          "internalType": "uint256",
          "name": "timestamp",
          "type": "uint256"
        }
      ],
      "name": "FeeWithdrawn",
      "type": "event"
    },
    {
      "anonymous": false,
      "inputs": [
        {
          "indexed": true,
          "internalType": "address",
          "name": "nft",
          "type": "address"
        },
        {
          "indexed": true,
          "internalType": "uint256",
          "name": "tokenId",
          "type": "uint256"
        },
        {
          "indexed": false,
          "internalType": "uint256",
          "name": "timestamp",
          "type": "uint256"
        }
      ],
      "name": "ItemCanceled",
      "type": "event"
    },
    {
      "anonymous": false,
      "inputs": [
        {
          "indexed": true,
          "internalType": "address",
          "name": "nft",
          "type": "address"
        },
        {
          "indexed": true,
          "internalType": "uint256",
          "name": "tokenId",
          "type": "uint256"
        },
        {
          "indexed": true,
          "internalType": "address",
          "name": "seller",
          "type": "address"
        },
        {
          "indexed": false,
          "internalType": "uint256",
          "name": "price",
          "type": "uint256"
        },
        {
          "indexed": false,
          "internalType": "uint256",
          "name": "timestamp",
          "type": "uint256"
        }
      ],
      "name": "ItemListed",
      "type": "event"
    },
    {
      "anonymous": false,
      "inputs": [
        {
          "indexed": true,
          "internalType": "address",
          "name": "nft",
          "type": "address"
        },
        {
          "indexed": true,
          "internalType": "uint256",
          "name": "tokenId",
          "type": "uint256"
        },
        {
          "indexed": false,
          "internalType": "address",
          "name": "seller",
          "type": "address"
        },
        {
          "indexed": false,
          "internalType": "address",
          "name": "buyer",
          "type": "address"
        },
        {
          "indexed": false,
          "internalType": "uint256",
          "name": "price",
          "type": "uint256"
        },
        {
          "indexed": false,
          "internalType": "uint256",
          "name": "timestamp",
          "type": "uint256"
        }
      ],
      "name": "ItemSold",
      "type": "event"
    },
    {
      "anonymous": false,
      "inputs": [
        {
          "indexed": false,
          "internalType": "uint256",
          "name": "newFee",
          "type": "uint256"
        },
        {
          "indexed": false,
          "internalType": "uint256",
          "name": "timestamp",
          "type": "uint256"
        }
      ],
      "name": "ListingFeeUpdated",
      "type": "event"
    },
    {
      "anonymous": false,
      "inputs": [
        {
          "indexed": true,
          "internalType": "address",
          "name": "nft",
          "type": "address"
        },
        {
          "indexed": true,
          "internalType": "uint256",
          "name": "tokenId",
          "type": "uint256"
        },
        {
          "indexed": false,
          "internalType": "address",
          "name": "seller",
          "type": "address"
        },
        {
          "indexed": false,
          "internalType": "uint256",
          "name": "newPrice",
          "type": "uint256"
        },
        {
          "indexed": false,
          "internalType": "uint256",
          "name": "timestamp",
          "type": "uint256"
        }
      ],
      "name": "ListingUpdated",
      "type": "event"
    },
    {
      "anonymous": false,
      "inputs": [
        {
          "indexed": true,
          "internalType": "address",
          "name": "previousOwner",
          "type": "address"
        },
        {
          "indexed": true,
          "internalType": "address",
          "name": "newOwner",
          "type": "address"
        }
      ],
      "name": "OwnershipTransferred",
      "type": "event"
    },
    {
      "inputs": [
        {
          "internalType": "address",
          "name": "nft",
          "type": "address"
        },
        {
          "internalType": "uint256",
          "name": "tokenId",
          "type": "uint256"
        }
      ],
      "name": "buyItem",
      "outputs": [],
      "stateMutability": "payable",
      "type": "function"
    },
    {
      "inputs": [
        {
          "internalType": "address",
          "name": "nft",
          "type": "address"
        },
        {
          "internalType": "uint256",
          "name": "tokenId",
          "type": "uint256"
        }
      ],
      "name": "cancelListing",
      "outputs": [],
      "stateMutability": "nonpayable",
      "type": "function"
    },
    {
      "inputs": [],
      "name": "getAllListings",
      "outputs": [
        {
          "components": [
            {
              "internalType": "address",
              "name": "nft",
              "type": "address"
            },
            {
              "internalType": "uint256",
              "name": "tokenId",
              "type": "uint256"
            },
            {
              "internalType": "address",
              "name": "seller",
              "type": "address"
            },
            {
              "internalType": "uint256",
              "name": "price",
              "type": "uint256"
            },
            {
              "internalType": "uint256",
              "name": "listedAt",
              "type": "uint256"
            },
            {
              "internalType": "uint256",
              "name": "updatedAt",
              "type": "uint256"
            },
            {
              "internalType": "uint256",
              "name": "canceledAt",
              "type": "uint256"
            },
            {
              "internalType": "uint256",
              "name": "soldAt",
              "type": "uint256"
            }
          ],
          "internalType": "struct NFTMarketplacev2.ListingLogInfo[]",
          "name": "",
          "type": "tuple[]"
        }
      ],
      "stateMutability": "view",
      "type": "function"
    },
    {
      "inputs": [
        {
          "internalType": "uint256",
          "name": "limit",
          "type": "uint256"
        },
        {
          "internalType": "uint256",
          "name": "offset",
          "type": "uint256"
        }
      ],
      "name": "getLatestListings",
      "outputs": [
        {
          "components": [
            {
              "internalType": "address",
              "name": "nft",
              "type": "address"
            },
            {
              "internalType": "uint256",
              "name": "tokenId",
              "type": "uint256"
            },
            {
              "internalType": "address",
              "name": "seller",
              "type": "address"
            },
            {
              "internalType": "uint256",
              "name": "price",
              "type": "uint256"
            },
            {
              "internalType": "uint256",
              "name": "listedAt",
              "type": "uint256"
            },
            {
              "internalType": "uint256",
              "name": "updatedAt",
              "type": "uint256"
            },
            {
              "internalType": "uint256",
              "name": "canceledAt",
              "type": "uint256"
            },
            {
              "internalType": "uint256",
              "name": "soldAt",
              "type": "uint256"
            }
          ],
          "internalType": "struct NFTMarketplacev2.ListingLogInfo[]",
          "name": "",
          "type": "tuple[]"
        }
      ],
      "stateMutability": "view",
      "type": "function"
    },
    {
      "inputs": [
        {
          "internalType": "address",
          "name": "nft",
          "type": "address"
        },
        {
          "internalType": "uint256",
          "name": "tokenId",
          "type": "uint256"
        }
      ],
      "name": "getListingById",
      "outputs": [
        {
          "components": [
            {
              "internalType": "address",
              "name": "nft",
              "type": "address"
            },
            {
              "internalType": "uint256",
              "name": "tokenId",
              "type": "uint256"
            },
            {
              "internalType": "address",
              "name": "seller",
              "type": "address"
            },
            {
              "internalType": "uint256",
              "name": "price",
              "type": "uint256"
            },
            {
              "internalType": "uint256",
              "name": "listedAt",
              "type": "uint256"
            },
            {
              "internalType": "uint256",
              "name": "updatedAt",
              "type": "uint256"
            }
          ],
          "internalType": "struct NFTMarketplacev2.Listing",
          "name": "",
          "type": "tuple"
        }
      ],
      "stateMutability": "view",
      "type": "function"
    },
    {
      "inputs": [],
      "name": "getListingFee",
      "outputs": [
        {
          "internalType": "uint256",
          "name": "",
          "type": "uint256"
        }
      ],
      "stateMutability": "view",
      "type": "function"
    },
    {
      "inputs": [
        {
          "internalType": "address",
          "name": "seller",
          "type": "address"
        }
      ],
      "name": "getListingsBySeller",
      "outputs": [
        {
          "components": [
            {
              "internalType": "address",
              "name": "nft",
              "type": "address"
            },
            {
              "internalType": "uint256",
              "name": "tokenId",
              "type": "uint256"
            },
            {
              "internalType": "address",
              "name": "seller",
              "type": "address"
            },
            {
              "internalType": "uint256",
              "name": "price",
              "type": "uint256"
            },
            {
              "internalType": "uint256",
              "name": "listedAt",
              "type": "uint256"
            },
            {
              "internalType": "uint256",
              "name": "updatedAt",
              "type": "uint256"
            }
          ],
          "internalType": "struct NFTMarketplacev2.Listing[]",
          "name": "",
          "type": "tuple[]"
        }
      ],
      "stateMutability": "view",
      "type": "function"
    },
    {
      "inputs": [
        {
          "internalType": "address",
          "name": "nft",
          "type": "address"
        },
        {
          "internalType": "uint256",
          "name": "tokenId",
          "type": "uint256"
        },
        {
          "internalType": "uint256",
          "name": "price",
          "type": "uint256"
        }
      ],
      "name": "listItem",
      "outputs": [],
      "stateMutability": "payable",
      "type": "function"
    },
    {
      "inputs": [],
      "name": "owner",
      "outputs": [
        {
          "internalType": "address",
          "name": "",
          "type": "address"
        }
      ],
      "stateMutability": "view",
      "type": "function"
    },
    {
      "inputs": [],
      "name": "renounceOwnership",
      "outputs": [],
      "stateMutability": "nonpayable",
      "type": "function"
    },
    {
      "inputs": [
        {
          "internalType": "uint256",
          "name": "_fee",
          "type": "uint256"
        }
      ],
      "name": "setListingFee",
      "outputs": [],
      "stateMutability": "nonpayable",
      "type": "function"
    },
    {
      "inputs": [
        {
          "internalType": "address",
          "name": "newOwner",
          "type": "address"
        }
      ],
      "name": "transferOwnership",
      "outputs": [],
      "stateMutability": "nonpayable",
      "type": "function"
    },
    {
      "inputs": [
        {
          "internalType": "address",
          "name": "nft",
          "type": "address"
        },
        {
          "internalType": "uint256",
          "name": "tokenId",
          "type": "uint256"
        },
        {
          "internalType": "uint256",
          "name": "newPrice",
          "type": "uint256"
        }
      ],
      "name": "updateListingPrice",
      "outputs": [],
      "stateMutability": "nonpayable",
      "type": "function"
    },
    {
      "inputs": [],
      "name": "withdrawFees",
      "outputs": [],
      "stateMutability": "nonpayable",
      "type": "function"
    }
  ],
  "bytecode": "0x6080604052655af3107a400060055534801561001a57600080fd5b5033600073ffffffffffffffffffffffffffffffffffffffff168173ffffffffffffffffffffffffffffffffffffffff160361008e5760006040517f1e4fbdf700000000000000000000000000000000000000000000000000000000815260040161008591906101af565b60405180910390fd5b61009d816100aa60201b60201c565b50600180819055506101ca565b60008060009054906101000a900473ffffffffffffffffffffffffffffffffffffffff169050816000806101000a81548173ffffffffffffffffffffffffffffffffffffffff021916908373ffffffffffffffffffffffffffffffffffffffff1602179055508173ffffffffffffffffffffffffffffffffffffffff168173ffffffffffffffffffffffffffffffffffffffff167f8be0079c531659141344cd1fd0a4f28419497f9722a3daafe3b4186f6b6457e060405160405180910390a35050565b600073ffffffffffffffffffffffffffffffffffffffff82169050919050565b60006101998261016e565b9050919050565b6101a98161018e565b82525050565b60006020820190506101c460008301846101a0565b92915050565b613cc1806101d96000396000f3fe6080604052600436106100dd5760003560e01c8063ae73ccec1161007f578063bf71cdb811610059578063bf71cdb814610258578063d8cba25114610295578063f2fde38b146102d2578063f7232f67146102fb576100dd565b8063ae73ccec146101d9578063b2ddee0614610204578063b8fe6abe1461022d576100dd565b8063715018a6116100bb578063715018a61461015f57806389bfd38f146101765780638da5cb5b146101925780639f37092a146101bd576100dd565b8063131dbd09146100e25780632e7015071461010b578063476343ee14610148575b600080fd5b3480156100ee57600080fd5b5061010960048036038101906101049190613066565b610324565b005b34801561011757600080fd5b50610132600480360381019061012d9190613093565b61036f565b60405161013f9190613275565b60405180910390f35b34801561015457600080fd5b5061015d610783565b005b34801561016b57600080fd5b5061017461081a565b005b610190600480360381019061018b91906132c3565b61082e565b005b34801561019e57600080fd5b506101a7610fc1565b6040516101b49190613325565b60405180910390f35b6101d760048036038101906101d29190613340565b610fea565b005b3480156101e557600080fd5b506101ee611853565b6040516101fb9190613275565b60405180910390f35b34801561021057600080fd5b5061022b60048036038101906102269190613340565b611b68565b005b34801561023957600080fd5b50610242611de3565b60405161024f919061338f565b60405180910390f35b34801561026457600080fd5b5061027f600480360381019061027a9190613340565b611ded565b60405161028c9190613425565b60405180910390f35b3480156102a157600080fd5b506102bc60048036038101906102b79190613440565b611f2c565b6040516102c99190613597565b60405180910390f35b3480156102de57600080fd5b506102f960048036038101906102f49190613440565b61209e565b005b34801561030757600080fd5b50610322600480360381019061031d91906132c3565b612124565b005b61032c612825565b806005819055507f83bee1c75d00c29e66092d821c1c82aa4792fe1f058e8dff38d5d394d37916dd81426040516103649291906135b9565b60405180910390a150565b6060600060048054905090508083106103df57600067ffffffffffffffff81111561039d5761039c6135e2565b5b6040519080825280602002602001820160405280156103d657816020015b6103c3612f58565b8152602001906001900390816103bb5790505b5091505061077d565b600084116103ec57600a93505b6000806001836103fc9190613640565b9050600060018461040d9190613640565b90505b600081106104b15760006004828154811061042e5761042d613674565b5b9060005260206000209060080201600601541180610471575060006004828154811061045d5761045c613674565b5b906000526020600020906008020160070154115b61049e578280610480906136a3565b935050858761048f91906136eb565b831061049d578091506104b1565b5b80806104a99061371f565b915050610410565b5060008214806104c15750848211155b1561052557600067ffffffffffffffff8111156104e1576104e06135e2565b5b60405190808252806020026020018201604052801561051a57816020015b610507612f58565b8152602001906001900390816104ff5790505b50935050505061077d565b848661053191906136eb565b821161054a5784826105439190613640565b9550610557565b85821015610556578195505b5b60008667ffffffffffffffff811115610573576105726135e2565b5b6040519080825280602002602001820160405280156105ac57816020015b610599612f58565b8152602001906001900390816105915790505b5090506000808390505b85811015610773576000600482815481106105d4576105d3613674565b5b9060005260206000209060080201600601541180610617575060006004828154811061060357610602613674565b5b906000526020600020906008020160070154115b610766576004818154811061062f5761062e613674565b5b9060005260206000209060080201604051806101000160405290816000820160009054906101000a900473ffffffffffffffffffffffffffffffffffffffff1673ffffffffffffffffffffffffffffffffffffffff1673ffffffffffffffffffffffffffffffffffffffff168152602001600182015481526020016002820160009054906101000a900473ffffffffffffffffffffffffffffffffffffffff1673ffffffffffffffffffffffffffffffffffffffff1673ffffffffffffffffffffffffffffffffffffffff1681526020016003820154815260200160048201548152602001600582015481526020016006820154815260200160078201548152505083838151811061074457610743613674565b5b6020026020010181905250818061075a906136a3565b92505088821015610773575b80806001019150506105b6565b5081955050505050505b92915050565b61078b612825565b6000479050610798610fc1565b73ffffffffffffffffffffffffffffffffffffffff166108fc829081150290604051600060405180830381858888f193505050501580156107dd573d6000803e3d6000fd5b507f0a86d3615abd799fbaa5be89d4941a68641aec3f02b8f19faff5dfade02817bc814260405161080f9291906135b9565b60405180910390a150565b610822612825565b61082c60006128ac565b565b610836612970565b60055434101561087b576040517f08c379a0000000000000000000000000000000000000000000000000000000008152600401610872906137a5565b60405180910390fd5b600081116108be576040517f08c379a00000000000000000000000000000000000000000000000000000000081526004016108b590613811565b60405180910390fd5b60008390503373ffffffffffffffffffffffffffffffffffffffff168173ffffffffffffffffffffffffffffffffffffffff16636352211e856040518263ffffffff1660e01b8152600401610913919061338f565b602060405180830381865afa158015610930573d6000803e3d6000fd5b505050506040513d601f19601f820116820180604052508101906109549190613846565b73ffffffffffffffffffffffffffffffffffffffff16146109aa576040517f08c379a00000000000000000000000000000000000000000000000000000000081526004016109a1906138bf565b60405180910390fd5b3073ffffffffffffffffffffffffffffffffffffffff168173ffffffffffffffffffffffffffffffffffffffff1663081812fc856040518263ffffffff1660e01b81526004016109fa919061338f565b602060405180830381865afa158015610a17573d6000803e3d6000fd5b505050506040513d601f19601f82011682018060405250810190610a3b9190613846565b73ffffffffffffffffffffffffffffffffffffffff1614610a91576040517f08c379a0000000000000000000000000000000000000000000000000000000008152600401610a889061392b565b60405180910390fd5b6040518060c001604052808573ffffffffffffffffffffffffffffffffffffffff1681526020018481526020013373ffffffffffffffffffffffffffffffffffffffff16815260200183815260200142815260200142815250600260008673ffffffffffffffffffffffffffffffffffffffff1673ffffffffffffffffffffffffffffffffffffffff168152602001908152602001600020600085815260200190815260200160002060008201518160000160006101000a81548173ffffffffffffffffffffffffffffffffffffffff021916908373ffffffffffffffffffffffffffffffffffffffff1602179055506020820151816001015560408201518160020160006101000a81548173ffffffffffffffffffffffffffffffffffffffff021916908373ffffffffffffffffffffffffffffffffffffffff160217905550606082015181600301556080820151816004015560a08201518160050155905050600360003373ffffffffffffffffffffffffffffffffffffffff1673ffffffffffffffffffffffffffffffffffffffff168152602001908152602001600020600260008673ffffffffffffffffffffffffffffffffffffffff1673ffffffffffffffffffffffffffffffffffffffff168152602001908152602001600020600085815260200190815260200160002090806001815401808255809150506001900390600052602060002090600602016000909190919091506000820160009054906101000a900473ffffffffffffffffffffffffffffffffffffffff168160000160006101000a81548173ffffffffffffffffffffffffffffffffffffffff021916908373ffffffffffffffffffffffffffffffffffffffff160217905550600182015481600101556002820160009054906101000a900473ffffffffffffffffffffffffffffffffffffffff168160020160006101000a81548173ffffffffffffffffffffffffffffffffffffffff021916908373ffffffffffffffffffffffffffffffffffffffff160217905550600382015481600301556004820154816004015560058201548160050155505060046040518061010001604052808673ffffffffffffffffffffffffffffffffffffffff1681526020018581526020013373ffffffffffffffffffffffffffffffffffffffff168152602001848152602001428152602001428152602001600081526020016000815250908060018154018082558091505060019003906000526020600020906008020160009091909190915060008201518160000160006101000a81548173ffffffffffffffffffffffffffffffffffffffff021916908373ffffffffffffffffffffffffffffffffffffffff1602179055506020820151816001015560408201518160020160006101000a81548173ffffffffffffffffffffffffffffffffffffffff021916908373ffffffffffffffffffffffffffffffffffffffff160217905550606082015181600301556080820151816004015560a0820151816005015560c0820151816006015560e0820151816007015550503073ffffffffffffffffffffffffffffffffffffffff166108fc6005549081150290604051600060405180830381858888f19350505050158015610f4a573d6000803e3d6000fd5b503373ffffffffffffffffffffffffffffffffffffffff16838573ffffffffffffffffffffffffffffffffffffffff167fbd5d1836d4114b1a1785c873a084824203ab9c294b3694e6a9fa69234a9113c68542604051610fab9291906135b9565b60405180910390a450610fbc6129b6565b505050565b60008060009054906101000a900473ffffffffffffffffffffffffffffffffffffffff16905090565b610ff2612970565b6000600260008473ffffffffffffffffffffffffffffffffffffffff1673ffffffffffffffffffffffffffffffffffffffff16815260200190815260200160002060008381526020019081526020016000206040518060c00160405290816000820160009054906101000a900473ffffffffffffffffffffffffffffffffffffffff1673ffffffffffffffffffffffffffffffffffffffff1673ffffffffffffffffffffffffffffffffffffffff168152602001600182015481526020016002820160009054906101000a900473ffffffffffffffffffffffffffffffffffffffff1673ffffffffffffffffffffffffffffffffffffffff1673ffffffffffffffffffffffffffffffffffffffff16815260200160038201548152602001600482015481526020016005820154815250509050600073ffffffffffffffffffffffffffffffffffffffff16816040015173ffffffffffffffffffffffffffffffffffffffff1603611198576040517f08c379a000000000000000000000000000000000000000000000000000000000815260040161118f90613997565b60405180910390fd5b3373ffffffffffffffffffffffffffffffffffffffff16816040015173ffffffffffffffffffffffffffffffffffffffff160361120a576040517f08c379a000000000000000000000000000000000000000000000000000000000815260040161120190613a03565b60405180910390fd5b3073ffffffffffffffffffffffffffffffffffffffff168373ffffffffffffffffffffffffffffffffffffffff1663081812fc846040518263ffffffff1660e01b815260040161125a919061338f565b602060405180830381865afa158015611277573d6000803e3d6000fd5b505050506040513d601f19601f8201168201806040525081019061129b9190613846565b73ffffffffffffffffffffffffffffffffffffffff16146112f1576040517f08c379a00000000000000000000000000000000000000000000000000000000081526004016112e89061392b565b60405180910390fd5b8060600151341015611338576040517f08c379a000000000000000000000000000000000000000000000000000000000815260040161132f90613a6f565b60405180910390fd5b60008373ffffffffffffffffffffffffffffffffffffffff1663b3912597846040518263ffffffff1660e01b8152600401611373919061338f565b602060405180830381865afa158015611390573d6000803e3d6000fd5b505050506040513d601f19601f820116820180604052508101906113b49190613aa4565b905060008473ffffffffffffffffffffffffffffffffffffffff16637539fc5c856040518263ffffffff1660e01b81526004016113f1919061338f565b602060405180830381865afa15801561140e573d6000803e3d6000fd5b505050506040513d601f19601f820116820180604052508101906114329190613846565b905060008284606001516114469190613640565b9050600260008773ffffffffffffffffffffffffffffffffffffffff1673ffffffffffffffffffffffffffffffffffffffff1681526020019081526020016000206000868152602001908152602001600020600080820160006101000a81549073ffffffffffffffffffffffffffffffffffffffff021916905560018201600090556002820160006101000a81549073ffffffffffffffffffffffffffffffffffffffff02191690556003820160009055600482016000905560058201600090555050611518868686604001516129bf565b6000600160048054905061152c9190613640565b90505b600081106116d6578673ffffffffffffffffffffffffffffffffffffffff166004828154811061156257611561613674565b5b906000526020600020906008020160000160009054906101000a900473ffffffffffffffffffffffffffffffffffffffff1673ffffffffffffffffffffffffffffffffffffffff161480156115db575085600482815481106115c7576115c6613674565b5b906000526020600020906008020160010154145b801561165b5750846040015173ffffffffffffffffffffffffffffffffffffffff166004828154811061161157611610613674565b5b906000526020600020906008020160020160009054906101000a900473ffffffffffffffffffffffffffffffffffffffff1673ffffffffffffffffffffffffffffffffffffffff16145b801561168f575084608001516004828154811061167b5761167a613674565b5b906000526020600020906008020160040154145b156116c35742600482815481106116a9576116a8613674565b5b9060005260206000209060080201600701819055506116d6565b80806116ce9061371f565b91505061152f565b508573ffffffffffffffffffffffffffffffffffffffff166342842e0e856040015133886040518463ffffffff1660e01b815260040161171893929190613ad1565b600060405180830381600087803b15801561173257600080fd5b505af1158015611746573d6000803e3d6000fd5b50505050600083111561179b578173ffffffffffffffffffffffffffffffffffffffff166108fc849081150290604051600060405180830381858888f19350505050158015611799573d6000803e3d6000fd5b505b836040015173ffffffffffffffffffffffffffffffffffffffff166108fc829081150290604051600060405180830381858888f193505050501580156117e5573d6000803e3d6000fd5b50848673ffffffffffffffffffffffffffffffffffffffff167f2781b6bf1d50821bde8d8e1ea36be5557167d6b25dde84a52efb147adf2e6d3586604001513388606001514260405161183b9493929190613b08565b60405180910390a35050505061184f6129b6565b5050565b6060600060048054905090506000805b828110156118e45760006004828154811061188157611880613674565b5b90600052602060002090600802016006015411806118c457506000600482815481106118b0576118af613674565b5b906000526020600020906008020160070154115b6118d75781806118d3906136a3565b9250505b8080600101915050611863565b506000810361194b57600067ffffffffffffffff811115611908576119076135e2565b5b60405190808252806020026020018201604052801561194157816020015b61192e612f58565b8152602001906001900390816119265790505b5092505050611b65565b60008167ffffffffffffffff811115611967576119666135e2565b5b6040519080825280602002602001820160405280156119a057816020015b61198d612f58565b8152602001906001900390816119855790505b5090506000805b84811015611b5c576000600482815481106119c5576119c4613674565b5b9060005260206000209060080201600601541180611a0857506000600482815481106119f4576119f3613674565b5b906000526020600020906008020160070154115b611b4f5760048181548110611a2057611a1f613674565b5b9060005260206000209060080201604051806101000160405290816000820160009054906101000a900473ffffffffffffffffffffffffffffffffffffffff1673ffffffffffffffffffffffffffffffffffffffff1673ffffffffffffffffffffffffffffffffffffffff168152602001600182015481526020016002820160009054906101000a900473ffffffffffffffffffffffffffffffffffffffff1673ffffffffffffffffffffffffffffffffffffffff1673ffffffffffffffffffffffffffffffffffffffff16815260200160038201548152602001600482015481526020016005820154815260200160068201548152602001600782015481525050838381518110611b3557611b34613674565b5b60200260200101819052508180611b4b906136a3565b9250505b80806001019150506119a7565b50819450505050505b90565b6000600260008473ffffffffffffffffffffffffffffffffffffffff1673ffffffffffffffffffffffffffffffffffffffff16815260200190815260200160002060008381526020019081526020016000206040518060c00160405290816000820160009054906101000a900473ffffffffffffffffffffffffffffffffffffffff1673ffffffffffffffffffffffffffffffffffffffff1673ffffffffffffffffffffffffffffffffffffffff168152602001600182015481526020016002820160009054906101000a900473ffffffffffffffffffffffffffffffffffffffff1673ffffffffffffffffffffffffffffffffffffffff1673ffffffffffffffffffffffffffffffffffffffff16815260200160038201548152602001600482015481526020016005820154815250509050600073ffffffffffffffffffffffffffffffffffffffff16816040015173ffffffffffffffffffffffffffffffffffffffff1603611d0e576040517f08c379a0000000000000000000000000000000000000000000000000000000008152600401611d0590613997565b60405180910390fd5b3373ffffffffffffffffffffffffffffffffffffffff16816040015173ffffffffffffffffffffffffffffffffffffffff1614611d80576040517f08c379a0000000000000000000000000000000000000000000000000000000008152600401611d7790613b99565b60405180910390fd5b611d8f838383604001516129bf565b818373ffffffffffffffffffffffffffffffffffffffff167f25164b296f6f11aec8bd7dd4fc2b26e884fe09e27ff3852f49459976584f045d42604051611dd6919061338f565b60405180910390a3505050565b6000600554905090565b611df5612fc9565b600260008473ffffffffffffffffffffffffffffffffffffffff1673ffffffffffffffffffffffffffffffffffffffff16815260200190815260200160002060008381526020019081526020016000206040518060c00160405290816000820160009054906101000a900473ffffffffffffffffffffffffffffffffffffffff1673ffffffffffffffffffffffffffffffffffffffff1673ffffffffffffffffffffffffffffffffffffffff168152602001600182015481526020016002820160009054906101000a900473ffffffffffffffffffffffffffffffffffffffff1673ffffffffffffffffffffffffffffffffffffffff1673ffffffffffffffffffffffffffffffffffffffff1681526020016003820154815260200160048201548152602001600582015481525050905092915050565b6060600360008373ffffffffffffffffffffffffffffffffffffffff1673ffffffffffffffffffffffffffffffffffffffff168152602001908152602001600020805480602002602001604051908101604052809291908181526020016000905b8282101561209357838290600052602060002090600602016040518060c00160405290816000820160009054906101000a900473ffffffffffffffffffffffffffffffffffffffff1673ffffffffffffffffffffffffffffffffffffffff1673ffffffffffffffffffffffffffffffffffffffff168152602001600182015481526020016002820160009054906101000a900473ffffffffffffffffffffffffffffffffffffffff1673ffffffffffffffffffffffffffffffffffffffff1673ffffffffffffffffffffffffffffffffffffffff168152602001600382015481526020016004820154815260200160058201548152505081526020019060010190611f8d565b505050509050919050565b6120a6612825565b600073ffffffffffffffffffffffffffffffffffffffff168173ffffffffffffffffffffffffffffffffffffffff16036121185760006040517f1e4fbdf700000000000000000000000000000000000000000000000000000000815260040161210f9190613325565b60405180910390fd5b612121816128ac565b50565b6000600260008573ffffffffffffffffffffffffffffffffffffffff1673ffffffffffffffffffffffffffffffffffffffff16815260200190815260200160002060008481526020019081526020016000209050600073ffffffffffffffffffffffffffffffffffffffff168160020160009054906101000a900473ffffffffffffffffffffffffffffffffffffffff1673ffffffffffffffffffffffffffffffffffffffff160361220b576040517f08c379a000000000000000000000000000000000000000000000000000000000815260040161220290613997565b60405180910390fd5b3373ffffffffffffffffffffffffffffffffffffffff168160020160009054906101000a900473ffffffffffffffffffffffffffffffffffffffff1673ffffffffffffffffffffffffffffffffffffffff161461229d576040517f08c379a000000000000000000000000000000000000000000000000000000000815260040161229490613b99565b60405180910390fd5b600082116122e0576040517f08c379a00000000000000000000000000000000000000000000000000000000081526004016122d790613811565b60405180910390fd5b80600301548203612326576040517f08c379a000000000000000000000000000000000000000000000000000000000815260040161231d90613c05565b60405180910390fd5b81816003018190555042816005018190555060005b600360003373ffffffffffffffffffffffffffffffffffffffff1673ffffffffffffffffffffffffffffffffffffffff16815260200190815260200160002080549050811015612588578473ffffffffffffffffffffffffffffffffffffffff16600360003373ffffffffffffffffffffffffffffffffffffffff1673ffffffffffffffffffffffffffffffffffffffff16815260200190815260200160002082815481106123ed576123ec613674565b5b906000526020600020906006020160000160009054906101000a900473ffffffffffffffffffffffffffffffffffffffff1673ffffffffffffffffffffffffffffffffffffffff161480156124a3575083600360003373ffffffffffffffffffffffffffffffffffffffff1673ffffffffffffffffffffffffffffffffffffffff168152602001908152602001600020828154811061248f5761248e613674565b5b906000526020600020906006020160010154145b1561257b5782600360003373ffffffffffffffffffffffffffffffffffffffff1673ffffffffffffffffffffffffffffffffffffffff16815260200190815260200160002082815481106124fa576124f9613674565b5b90600052602060002090600602016003018190555042600360003373ffffffffffffffffffffffffffffffffffffffff1673ffffffffffffffffffffffffffffffffffffffff168152602001908152602001600020828154811061256157612560613674565b5b906000526020600020906006020160050181905550612588565b808060010191505061233b565b506000600160048054905061259d9190613640565b90505b600081106127cb578473ffffffffffffffffffffffffffffffffffffffff16600482815481106125d3576125d2613674565b5b906000526020600020906008020160000160009054906101000a900473ffffffffffffffffffffffffffffffffffffffff1673ffffffffffffffffffffffffffffffffffffffff1614801561264c5750836004828154811061263857612637613674565b5b906000526020600020906008020160010154145b80156126c857503373ffffffffffffffffffffffffffffffffffffffff166004828154811061267e5761267d613674565b5b906000526020600020906008020160020160009054906101000a900473ffffffffffffffffffffffffffffffffffffffff1673ffffffffffffffffffffffffffffffffffffffff16145b801561275a5750600360003373ffffffffffffffffffffffffffffffffffffffff1673ffffffffffffffffffffffffffffffffffffffff16815260200190815260200160002081815481106127205761271f613674565b5b9060005260206000209060060201600401546004828154811061274657612745613674565b5b906000526020600020906008020160040154145b156127b857826004828154811061277457612773613674565b5b906000526020600020906008020160030181905550426004828154811061279e5761279d613674565b5b9060005260206000209060080201600501819055506127cb565b80806127c39061371f565b9150506125a0565b50828473ffffffffffffffffffffffffffffffffffffffff167fb8f3dda438349ef6632f812d6bc7aa3c2cfdb9e02aa0aac16324dcebbdc02bbb33854260405161281793929190613c25565b60405180910390a350505050565b61282d612f50565b73ffffffffffffffffffffffffffffffffffffffff1661284b610fc1565b73ffffffffffffffffffffffffffffffffffffffff16146128aa5761286e612f50565b6040517f118cdaa70000000000000000000000000000000000000000000000000000000081526004016128a19190613325565b60405180910390fd5b565b60008060009054906101000a900473ffffffffffffffffffffffffffffffffffffffff169050816000806101000a81548173ffffffffffffffffffffffffffffffffffffffff021916908373ffffffffffffffffffffffffffffffffffffffff1602179055508173ffffffffffffffffffffffffffffffffffffffff168173ffffffffffffffffffffffffffffffffffffffff167f8be0079c531659141344cd1fd0a4f28419497f9722a3daafe3b4186f6b6457e060405160405180910390a35050565b6002600154036129ac576040517f3ee5aeb500000000000000000000000000000000000000000000000000000000815260040160405180910390fd5b6002600181905550565b60018081905550565b600260008473ffffffffffffffffffffffffffffffffffffffff1673ffffffffffffffffffffffffffffffffffffffff1681526020019081526020016000206000838152602001908152602001600020600080820160006101000a81549073ffffffffffffffffffffffffffffffffffffffff021916905560018201600090556002820160006101000a81549073ffffffffffffffffffffffffffffffffffffffff021916905560038201600090556004820160009055600582016000905550506000600360008373ffffffffffffffffffffffffffffffffffffffff1673ffffffffffffffffffffffffffffffffffffffff168152602001908152602001600020905060005b8180549050811015612d6e578473ffffffffffffffffffffffffffffffffffffffff16828281548110612afc57612afb613674565b5b906000526020600020906006020160000160009054906101000a900473ffffffffffffffffffffffffffffffffffffffff1673ffffffffffffffffffffffffffffffffffffffff16148015612b74575083828281548110612b6057612b5f613674565b5b906000526020600020906006020160010154145b15612d61578160018380549050612b8b9190613640565b81548110612b9c57612b9b613674565b5b9060005260206000209060060201828281548110612bbd57612bbc613674565b5b90600052602060002090600602016000820160009054906101000a900473ffffffffffffffffffffffffffffffffffffffff168160000160006101000a81548173ffffffffffffffffffffffffffffffffffffffff021916908373ffffffffffffffffffffffffffffffffffffffff160217905550600182015481600101556002820160009054906101000a900473ffffffffffffffffffffffffffffffffffffffff168160020160006101000a81548173ffffffffffffffffffffffffffffffffffffffff021916908373ffffffffffffffffffffffffffffffffffffffff16021790555060038201548160030155600482015481600401556005820154816005015590505081805480612cd557612cd4613c5c565b5b6001900381819060005260206000209060060201600080820160006101000a81549073ffffffffffffffffffffffffffffffffffffffff021916905560018201600090556002820160006101000a81549073ffffffffffffffffffffffffffffffffffffffff021916905560038201600090556004820160009055600582016000905550509055612d6e565b8080600101915050612ac6565b5060006001600480549050612d839190613640565b90505b60008110612f49578473ffffffffffffffffffffffffffffffffffffffff1660048281548110612db957612db8613674565b5b906000526020600020906008020160000160009054906101000a900473ffffffffffffffffffffffffffffffffffffffff1673ffffffffffffffffffffffffffffffffffffffff16148015612e3257508360048281548110612e1e57612e1d613674565b5b906000526020600020906008020160010154145b8015612eae57508273ffffffffffffffffffffffffffffffffffffffff1660048281548110612e6457612e63613674565b5b906000526020600020906008020160020160009054906101000a900473ffffffffffffffffffffffffffffffffffffffff1673ffffffffffffffffffffffffffffffffffffffff16145b8015612f025750818181548110612ec857612ec7613674565b5b90600052602060002090600602016004015460048281548110612eee57612eed613674565b5b906000526020600020906008020160040154145b15612f36574260048281548110612f1c57612f1b613674565b5b906000526020600020906008020160060181905550612f49565b8080612f419061371f565b915050612d86565b5050505050565b600033905090565b604051806101000160405280600073ffffffffffffffffffffffffffffffffffffffff16815260200160008152602001600073ffffffffffffffffffffffffffffffffffffffff16815260200160008152602001600081526020016000815260200160008152602001600081525090565b6040518060c00160405280600073ffffffffffffffffffffffffffffffffffffffff16815260200160008152602001600073ffffffffffffffffffffffffffffffffffffffff1681526020016000815260200160008152602001600081525090565b600080fd5b6000819050919050565b61304381613030565b811461304e57600080fd5b50565b6000813590506130608161303a565b92915050565b60006020828403121561307c5761307b61302b565b5b600061308a84828501613051565b91505092915050565b600080604083850312156130aa576130a961302b565b5b60006130b885828601613051565b92505060206130c985828601613051565b9150509250929050565b600081519050919050565b600082825260208201905092915050565b6000819050602082019050919050565b600073ffffffffffffffffffffffffffffffffffffffff82169050919050565b600061312a826130ff565b9050919050565b61313a8161311f565b82525050565b61314981613030565b82525050565b610100820160008201516131666000850182613131565b5060208201516131796020850182613140565b50604082015161318c6040850182613131565b50606082015161319f6060850182613140565b5060808201516131b26080850182613140565b5060a08201516131c560a0850182613140565b5060c08201516131d860c0850182613140565b5060e08201516131eb60e0850182613140565b50505050565b60006131fd838361314f565b6101008301905092915050565b6000602082019050919050565b6000613222826130d3565b61322c81856130de565b9350613237836130ef565b8060005b8381101561326857815161324f88826131f1565b975061325a8361320a565b92505060018101905061323b565b5085935050505092915050565b6000602082019050818103600083015261328f8184613217565b905092915050565b6132a08161311f565b81146132ab57600080fd5b50565b6000813590506132bd81613297565b92915050565b6000806000606084860312156132dc576132db61302b565b5b60006132ea868287016132ae565b93505060206132fb86828701613051565b925050604061330c86828701613051565b9150509250925092565b61331f8161311f565b82525050565b600060208201905061333a6000830184613316565b92915050565b600080604083850312156133575761335661302b565b5b6000613365858286016132ae565b925050602061337685828601613051565b9150509250929050565b61338981613030565b82525050565b60006020820190506133a46000830184613380565b92915050565b60c0820160008201516133c06000850182613131565b5060208201516133d36020850182613140565b5060408201516133e66040850182613131565b5060608201516133f96060850182613140565b50608082015161340c6080850182613140565b5060a082015161341f60a0850182613140565b50505050565b600060c08201905061343a60008301846133aa565b92915050565b6000602082840312156134565761345561302b565b5b6000613464848285016132ae565b91505092915050565b600081519050919050565b600082825260208201905092915050565b6000819050602082019050919050565b60c0820160008201516134af6000850182613131565b5060208201516134c26020850182613140565b5060408201516134d56040850182613131565b5060608201516134e86060850182613140565b5060808201516134fb6080850182613140565b5060a082015161350e60a0850182613140565b50505050565b60006135208383613499565b60c08301905092915050565b6000602082019050919050565b60006135448261346d565b61354e8185613478565b935061355983613489565b8060005b8381101561358a5781516135718882613514565b975061357c8361352c565b92505060018101905061355d565b5085935050505092915050565b600060208201905081810360008301526135b18184613539565b905092915050565b60006040820190506135ce6000830185613380565b6135db6020830184613380565b9392505050565b7f4e487b7100000000000000000000000000000000000000000000000000000000600052604160045260246000fd5b7f4e487b7100000000000000000000000000000000000000000000000000000000600052601160045260246000fd5b600061364b82613030565b915061365683613030565b925082820390508181111561366e5761366d613611565b5b92915050565b7f4e487b7100000000000000000000000000000000000000000000000000000000600052603260045260246000fd5b60006136ae82613030565b91507fffffffffffffffffffffffffffffffffffffffffffffffffffffffffffffffff82036136e0576136df613611565b5b600182019050919050565b60006136f682613030565b915061370183613030565b925082820190508082111561371957613718613611565b5b92915050565b600061372a82613030565b91506000820361373d5761373c613611565b5b600182039050919050565b600082825260208201905092915050565b7f4c697374696e6720666565206e6f742070616964000000000000000000000000600082015250565b600061378f601483613748565b915061379a82613759565b602082019050919050565b600060208201905081810360008301526137be81613782565b9050919050565b7f5072696365206d757374206265203e2030000000000000000000000000000000600082015250565b60006137fb601183613748565b9150613806826137c5565b602082019050919050565b6000602082019050818103600083015261382a816137ee565b9050919050565b60008151905061384081613297565b92915050565b60006020828403121561385c5761385b61302b565b5b600061386a84828501613831565b91505092915050565b7f4e6f74206f776e65720000000000000000000000000000000000000000000000600082015250565b60006138a9600983613748565b91506138b482613873565b602082019050919050565b600060208201905081810360008301526138d88161389c565b9050919050565b7f4e6f7420617070726f7665640000000000000000000000000000000000000000600082015250565b6000613915600c83613748565b9150613920826138df565b602082019050919050565b6000602082019050818103600083015261394481613908565b9050919050565b7f4e6f74206c697374656400000000000000000000000000000000000000000000600082015250565b6000613981600a83613748565b915061398c8261394b565b602082019050919050565b600060208201905081810360008301526139b081613974565b9050919050565b7f43616e6e6f742062757920796f7572206f776e206974656d0000000000000000600082015250565b60006139ed601883613748565b91506139f8826139b7565b602082019050919050565b60006020820190508181036000830152613a1c816139e0565b9050919050565b7f496e73756666696369656e742045544800000000000000000000000000000000600082015250565b6000613a59601083613748565b9150613a6482613a23565b602082019050919050565b60006020820190508181036000830152613a8881613a4c565b9050919050565b600081519050613a9e8161303a565b92915050565b600060208284031215613aba57613ab961302b565b5b6000613ac884828501613a8f565b91505092915050565b6000606082019050613ae66000830186613316565b613af36020830185613316565b613b006040830184613380565b949350505050565b6000608082019050613b1d6000830187613316565b613b2a6020830186613316565b613b376040830185613380565b613b446060830184613380565b95945050505050565b7f4e6f742073656c6c657200000000000000000000000000000000000000000000600082015250565b6000613b83600a83613748565b9150613b8e82613b4d565b602082019050919050565b60006020820190508181036000830152613bb281613b76565b9050919050565b7f507269636520616c72656164792073657420746f20746869732076616c756500600082015250565b6000613bef601f83613748565b9150613bfa82613bb9565b602082019050919050565b60006020820190508181036000830152613c1e81613be2565b9050919050565b6000606082019050613c3a6000830186613316565b613c476020830185613380565b613c546040830184613380565b949350505050565b7f4e487b7100000000000000000000000000000000000000000000000000000000600052603160045260246000fdfea26469706673582212205f1e89d6e78c4f158dd166ed45d10e7a11bd1999e199a5b49dbd1a0442c4d2df64736f6c634300081c0033",
  "linkReferences": {},
  "deployedLinkReferences": {}
}