{
  "_format": "hh-sol-artifact-1",
  "contractName": "NFTv2",
  "sourceName": "contracts/NFTv2.sol",
  "abi": [
    {
      "inputs": [
        {
          "internalType": "address",
          "name": "marketplaceAddress",
          "type": "address"
        }
      ],
      "stateMutability": "nonpayable",
      "type": "constructor"
    },
    {
      "inputs": [
        {
          "internalType": "address",
          "name": "sender",
          "type": "address"
        },
        {
          "internalType": "uint256",
          "name": "tokenId",
          "type": "uint256"
        },
        {
          "internalType": "address",
          "name": "owner",
          "type": "address"
        }
      ],
      "name": "ERC721IncorrectOwner",
      "type": "error"
    },
    {
      "inputs": [
        {
          "internalType": "address",
          "name": "operator",
          "type": "address"
        },
        {
          "internalType": "uint256",
          "name": "tokenId",
          "type": "uint256"
        }
      ],
      "name": "ERC721InsufficientApproval",
      "type": "error"
    },
    {
      "inputs": [
        {
          "internalType": "address",
          "name": "approver",
          "type": "address"
        }
      ],
      "name": "ERC721InvalidApprover",
      "type": "error"
    },
    {
      "inputs": [
        {
          "internalType": "address",
          "name": "operator",
          "type": "address"
        }
      ],
      "name": "ERC721InvalidOperator",
      "type": "error"
    },
    {
      "inputs": [
        {
          "internalType": "address",
          "name": "owner",
          "type": "address"
        }
      ],
      "name": "ERC721InvalidOwner",
      "type": "error"
    },
    {
      "inputs": [
        {
          "internalType": "address",
          "name": "receiver",
          "type": "address"
        }
      ],
      "name": "ERC721InvalidReceiver",
      "type": "error"
    },
    {
      "inputs": [
        {
          "internalType": "address",
          "name": "sender",
          "type": "address"
        }
      ],
      "name": "ERC721InvalidSender",
      "type": "error"
    },
    {
      "inputs": [
        {
          "internalType": "uint256",
          "name": "tokenId",
          "type": "uint256"
        }
      ],
      "name": "ERC721NonexistentToken",
      "type": "error"
    },
    {
      "inputs": [
        {
          "internalType": "address",
          "name": "owner",
          "type": "address"
        }
      ],
      "name": "OwnableInvalidOwner",
      "type": "error"
    },
    {
      "inputs": [
        {
          "internalType": "address",
          "name": "account",
          "type": "address"
        }
      ],
      "name": "OwnableUnauthorizedAccount",
      "type": "error"
    },
    {
      "anonymous": false,
      "inputs": [
        {
          "indexed": true,
          "internalType": "address",
          "name": "owner",
          "type": "address"
        },
        {
          "indexed": true,
          "internalType": "address",
          "name": "approved",
          "type": "address"
        },
        {
          "indexed": true,
          "internalType": "uint256",
          "name": "tokenId",
          "type": "uint256"
        }
      ],
      "name": "Approval",
      "type": "event"
    },
    {
      "anonymous": false,
      "inputs": [
        {
          "indexed": true,
          "internalType": "address",
          "name": "owner",
          "type": "address"
        },
        {
          "indexed": true,
          "internalType": "address",
          "name": "operator",
          "type": "address"
        },
        {
          "indexed": false,
          "internalType": "bool",
          "name": "approved",
          "type": "bool"
        }
      ],
      "name": "ApprovalForAll",
      "type": "event"
    },
    {
      "anonymous": false,
      "inputs": [
        {
          "indexed": false,
          "internalType": "uint256",
          "name": "_fromTokenId",
          "type": "uint256"
        },
        {
          "indexed": false,
          "internalType": "uint256",
          "name": "_toTokenId",
          "type": "uint256"
        }
      ],
      "name": "BatchMetadataUpdate",
      "type": "event"
    },
    {
      "anonymous": false,
      "inputs": [
        {
          "indexed": false,
          "internalType": "uint256",
          "name": "_tokenId",
          "type": "uint256"
        }
      ],
      "name": "MetadataUpdate",
      "type": "event"
    },
    {
      "anonymous": false,
      "inputs": [
        {
          "indexed": true,
          "internalType": "address",
          "name": "creator",
          "type": "address"
        },
        {
          "indexed": true,
          "internalType": "uint256",
          "name": "tokenId",
          "type": "uint256"
        },
        {
          "indexed": false,
          "internalType": "string",
          "name": "tokenURI",
          "type": "string"
        },
        {
          "indexed": false,
          "internalType": "uint256",
          "name": "timestamp",
          "type": "uint256"
        }
      ],
      "name": "NFTMinted",
      "type": "event"
    },
    {
      "anonymous": false,
      "inputs": [
        {
          "indexed": true,
          "internalType": "uint256",
          "name": "tokenId",
          "type": "uint256"
        },
        {
          "indexed": false,
          "internalType": "uint256",
          "name": "newRoyalty",
          "type": "uint256"
        },
        {
          "indexed": false,
          "internalType": "uint256",
          "name": "timestamp",
          "type": "uint256"
        }
      ],
      "name": "NFTRoyaltyUpdated",
      "type": "event"
    },
    {
      "anonymous": false,
      "inputs": [
        {
          "indexed": true,
          "internalType": "address",
          "name": "previousOwner",
          "type": "address"
        },
        {
          "indexed": true,
          "internalType": "address",
          "name": "newOwner",
          "type": "address"
        }
      ],
      "name": "OwnershipTransferred",
      "type": "event"
    },
    {
      "anonymous": false,
      "inputs": [
        {
          "indexed": true,
          "internalType": "address",
          "name": "from",
          "type": "address"
        },
        {
          "indexed": true,
          "internalType": "address",
          "name": "to",
          "type": "address"
        },
        {
          "indexed": true,
          "internalType": "uint256",
          "name": "tokenId",
          "type": "uint256"
        }
      ],
      "name": "Transfer",
      "type": "event"
    },
    {
      "inputs": [
        {
          "internalType": "address",
          "name": "to",
          "type": "address"
        },
        {
          "internalType": "uint256",
          "name": "tokenId",
          "type": "uint256"
        }
      ],
      "name": "approve",
      "outputs": [],
      "stateMutability": "nonpayable",
      "type": "function"
    },
    {
      "inputs": [
        {
          "internalType": "address",
          "name": "owner",
          "type": "address"
        }
      ],
      "name": "balanceOf",
      "outputs": [
        {
          "internalType": "uint256",
          "name": "",
          "type": "uint256"
        }
      ],
      "stateMutability": "view",
      "type": "function"
    },
    {
      "inputs": [
        {
          "internalType": "uint256",
          "name": "tokenId",
          "type": "uint256"
        }
      ],
      "name": "getApproved",
      "outputs": [
        {
          "internalType": "address",
          "name": "",
          "type": "address"
        }
      ],
      "stateMutability": "view",
      "type": "function"
    },
    {
      "inputs": [
        {
          "internalType": "uint256",
          "name": "tokenId",
          "type": "uint256"
        }
      ],
      "name": "getCreatorOfToken",
      "outputs": [
        {
          "internalType": "address",
          "name": "",
          "type": "address"
        }
      ],
      "stateMutability": "view",
      "type": "function"
    },
    {
      "inputs": [],
      "name": "getMarketplaceAddress",
      "outputs": [
        {
          "internalType": "address",
          "name": "",
          "type": "address"
        }
      ],
      "stateMutability": "view",
      "type": "function"
    },
    {
      "inputs": [
        {
          "internalType": "uint256",
          "name": "tokenId",
          "type": "uint256"
        }
      ],
      "name": "getRoyaltyOfToken",
      "outputs": [
        {
          "internalType": "uint256",
          "name": "",
          "type": "uint256"
        }
      ],
      "stateMutability": "view",
      "type": "function"
    },
    {
      "inputs": [
        {
          "internalType": "address",
          "name": "creator",
          "type": "address"
        }
      ],
      "name": "getTokenInfoByCreator",
      "outputs": [
        {
          "components": [
            {
              "internalType": "uint256",
              "name": "tokenId",
              "type": "uint256"
            },
            {
              "internalType": "string",
              "name": "tokenURI",
              "type": "string"
            },
            {
              "internalType": "address",
              "name": "creator",
              "type": "address"
            },
            {
              "internalType": "address",
              "name": "owner",
              "type": "address"
            },
            {
              "internalType": "uint256",
              "name": "royaltyFee",
              "type": "uint256"
            },
            {
              "internalType": "uint256",
              "name": "mintedAt",
              "type": "uint256"
            },
            {
              "internalType": "uint256",
              "name": "lastSoldPrice",
              "type": "uint256"
            }
          ],
          "internalType": "struct NFTv2.FullNFTInfo[]",
          "name": "",
          "type": "tuple[]"
        }
      ],
      "stateMutability": "view",
      "type": "function"
    },
    {
      "inputs": [
        {
          "internalType": "uint256",
          "name": "tokenId",
          "type": "uint256"
        }
      ],
      "name": "getTokenInfoById",
      "outputs": [
        {
          "components": [
            {
              "internalType": "uint256",
              "name": "tokenId",
              "type": "uint256"
            },
            {
              "internalType": "string",
              "name": "tokenURI",
              "type": "string"
            },
            {
              "internalType": "address",
              "name": "creator",
              "type": "address"
            },
            {
              "internalType": "address",
              "name": "owner",
              "type": "address"
            },
            {
              "internalType": "uint256",
              "name": "royaltyFee",
              "type": "uint256"
            },
            {
              "internalType": "uint256",
              "name": "mintedAt",
              "type": "uint256"
            },
            {
              "internalType": "uint256",
              "name": "lastSoldPrice",
              "type": "uint256"
            }
          ],
          "internalType": "struct NFTv2.FullNFTInfo",
          "name": "",
          "type": "tuple"
        }
      ],
      "stateMutability": "view",
      "type": "function"
    },
    {
      "inputs": [
        {
          "internalType": "address",
          "name": "owner",
          "type": "address"
        }
      ],
      "name": "getTokenInfoByOwner",
      "outputs": [
        {
          "components": [
            {
              "internalType": "uint256",
              "name": "tokenId",
              "type": "uint256"
            },
            {
              "internalType": "string",
              "name": "tokenURI",
              "type": "string"
            },
            {
              "internalType": "address",
              "name": "creator",
              "type": "address"
            },
            {
              "internalType": "address",
              "name": "owner",
              "type": "address"
            },
            {
              "internalType": "uint256",
              "name": "royaltyFee",
              "type": "uint256"
            },
            {
              "internalType": "uint256",
              "name": "mintedAt",
              "type": "uint256"
            },
            {
              "internalType": "uint256",
              "name": "lastSoldPrice",
              "type": "uint256"
            }
          ],
          "internalType": "struct NFTv2.FullNFTInfo[]",
          "name": "",
          "type": "tuple[]"
        }
      ],
      "stateMutability": "view",
      "type": "function"
    },
    {
      "inputs": [
        {
          "internalType": "address",
          "name": "creator",
          "type": "address"
        }
      ],
      "name": "getTokensByCreator",
      "outputs": [
        {
          "internalType": "uint256[]",
          "name": "",
          "type": "uint256[]"
        }
      ],
      "stateMutability": "view",
      "type": "function"
    },
    {
      "inputs": [
        {
          "internalType": "address",
          "name": "owner",
          "type": "address"
        }
      ],
      "name": "getTokensByOwner",
      "outputs": [
        {
          "internalType": "uint256[]",
          "name": "",
          "type": "uint256[]"
        }
      ],
      "stateMutability": "view",
      "type": "function"
    },
    {
      "inputs": [
        {
          "internalType": "address",
          "name": "owner",
          "type": "address"
        },
        {
          "internalType": "address",
          "name": "operator",
          "type": "address"
        }
      ],
      "name": "isApprovedForAll",
      "outputs": [
        {
          "internalType": "bool",
          "name": "",
          "type": "bool"
        }
      ],
      "stateMutability": "view",
      "type": "function"
    },
    {
      "inputs": [
        {
          "internalType": "string",
          "name": "tokenURI",
          "type": "string"
        },
        {
          "internalType": "uint256",
          "name": "royaltyFee",
          "type": "uint256"
        }
      ],
      "name": "mint",
      "outputs": [
        {
          "internalType": "uint256",
          "name": "",
          "type": "uint256"
        }
      ],
      "stateMutability": "nonpayable",
      "type": "function"
    },
    {
      "inputs": [],
      "name": "name",
      "outputs": [
        {
          "internalType": "string",
          "name": "",
          "type": "string"
        }
      ],
      "stateMutability": "view",
      "type": "function"
    },
    {
      "inputs": [],
      "name": "owner",
      "outputs": [
        {
          "internalType": "address",
          "name": "",
          "type": "address"
        }
      ],
      "stateMutability": "view",
      "type": "function"
    },
    {
      "inputs": [
        {
          "internalType": "uint256",
          "name": "tokenId",
          "type": "uint256"
        }
      ],
      "name": "ownerOf",
      "outputs": [
        {
          "internalType": "address",
          "name": "",
          "type": "address"
        }
      ],
      "stateMutability": "view",
      "type": "function"
    },
    {
      "inputs": [],
      "name": "renounceOwnership",
      "outputs": [],
      "stateMutability": "nonpayable",
      "type": "function"
    },
    {
      "inputs": [
        {
          "internalType": "address",
          "name": "from",
          "type": "address"
        },
        {
          "internalType": "address",
          "name": "to",
          "type": "address"
        },
        {
          "internalType": "uint256",
          "name": "tokenId",
          "type": "uint256"
        }
      ],
      "name": "safeTransferFrom",
      "outputs": [],
      "stateMutability": "nonpayable",
      "type": "function"
    },
    {
      "inputs": [
        {
          "internalType": "address",
          "name": "from",
          "type": "address"
        },
        {
          "internalType": "address",
          "name": "to",
          "type": "address"
        },
        {
          "internalType": "uint256",
          "name": "tokenId",
          "type": "uint256"
        },
        {
          "internalType": "bytes",
          "name": "data",
          "type": "bytes"
        }
      ],
      "name": "safeTransferFrom",
      "outputs": [],
      "stateMutability": "nonpayable",
      "type": "function"
    },
    {
      "inputs": [
        {
          "internalType": "address",
          "name": "operator",
          "type": "address"
        },
        {
          "internalType": "bool",
          "name": "approved",
          "type": "bool"
        }
      ],
      "name": "setApprovalForAll",
      "outputs": [],
      "stateMutability": "nonpayable",
      "type": "function"
    },
    {
      "inputs": [
        {
          "internalType": "bytes4",
          "name": "interfaceId",
          "type": "bytes4"
        }
      ],
      "name": "supportsInterface",
      "outputs": [
        {
          "internalType": "bool",
          "name": "",
          "type": "bool"
        }
      ],
      "stateMutability": "view",
      "type": "function"
    },
    {
      "inputs": [],
      "name": "symbol",
      "outputs": [
        {
          "internalType": "string",
          "name": "",
          "type": "string"
        }
      ],
      "stateMutability": "view",
      "type": "function"
    },
    {
      "inputs": [
        {
          "internalType": "uint256",
          "name": "tokenId",
          "type": "uint256"
        }
      ],
      "name": "tokenURI",
      "outputs": [
        {
          "internalType": "string",
          "name": "",
          "type": "string"
        }
      ],
      "stateMutability": "view",
      "type": "function"
    },
    {
      "inputs": [
        {
          "internalType": "address",
          "name": "from",
          "type": "address"
        },
        {
          "internalType": "address",
          "name": "to",
          "type": "address"
        },
        {
          "internalType": "uint256",
          "name": "tokenId",
          "type": "uint256"
        }
      ],
      "name": "transferFrom",
      "outputs": [],
      "stateMutability": "nonpayable",
      "type": "function"
    },
    {
      "inputs": [
        {
          "internalType": "address",
          "name": "newOwner",
          "type": "address"
        }
      ],
      "name": "transferOwnership",
      "outputs": [],
      "stateMutability": "nonpayable",
      "type": "function"
    },
    {
      "inputs": [
        {
          "internalType": "uint256",
          "name": "tokenId",
          "type": "uint256"
        },
        {
          "internalType": "bool",
          "name": "listingStatus",
          "type": "bool"
        }
      ],
      "name": "updateListingStatus",
      "outputs": [],
      "stateMutability": "nonpayable",
      "type": "function"
    },
    {
      "inputs": [
        {
          "internalType": "uint256",
          "name": "tokenId",
          "type": "uint256"
        },
        {
          "internalType": "uint256",
          "name": "newRoyalty",
          "type": "uint256"
        }
      ],
      "name": "updateRoyalty",
      "outputs": [],
      "stateMutability": "nonpayable",
      "type": "function"
    }
  ],
  "bytecode": "0x608060405234801561001057600080fd5b50604051614cad380380614cad83398181016040528101906100329190610322565b336040518060400160405280600781526020017f544844204e4654000000000000000000000000000000000000000000000000008152506040518060400160405280600381526020017f544844000000000000000000000000000000000000000000000000000000000081525081600090816100ae919061059f565b5080600190816100be919061059f565b505050600073ffffffffffffffffffffffffffffffffffffffff168173ffffffffffffffffffffffffffffffffffffffff16036101335760006040517f1e4fbdf700000000000000000000000000000000000000000000000000000000815260040161012a9190610680565b60405180910390fd5b610142816101f960201b60201c565b50600073ffffffffffffffffffffffffffffffffffffffff168173ffffffffffffffffffffffffffffffffffffffff16036101b2576040517f08c379a00000000000000000000000000000000000000000000000000000000081526004016101a99061071e565b60405180910390fd5b80600960006101000a81548173ffffffffffffffffffffffffffffffffffffffff021916908373ffffffffffffffffffffffffffffffffffffffff1602179055505061073e565b6000600760009054906101000a900473ffffffffffffffffffffffffffffffffffffffff16905081600760006101000a81548173ffffffffffffffffffffffffffffffffffffffff021916908373ffffffffffffffffffffffffffffffffffffffff1602179055508173ffffffffffffffffffffffffffffffffffffffff168173ffffffffffffffffffffffffffffffffffffffff167f8be0079c531659141344cd1fd0a4f28419497f9722a3daafe3b4186f6b6457e060405160405180910390a35050565b600080fd5b600073ffffffffffffffffffffffffffffffffffffffff82169050919050565b60006102ef826102c4565b9050919050565b6102ff816102e4565b811461030a57600080fd5b50565b60008151905061031c816102f6565b92915050565b600060208284031215610338576103376102bf565b5b60006103468482850161030d565b91505092915050565b600081519050919050565b7f4e487b7100000000000000000000000000000000000000000000000000000000600052604160045260246000fd5b7f4e487b7100000000000000000000000000000000000000000000000000000000600052602260045260246000fd5b600060028204905060018216806103d057607f821691505b6020821081036103e3576103e2610389565b5b50919050565b60008190508160005260206000209050919050565b60006020601f8301049050919050565b600082821b905092915050565b60006008830261044b7fffffffffffffffffffffffffffffffffffffffffffffffffffffffffffffffff8261040e565b610455868361040e565b95508019841693508086168417925050509392505050565b6000819050919050565b6000819050919050565b600061049c6104976104928461046d565b610477565b61046d565b9050919050565b6000819050919050565b6104b683610481565b6104ca6104c2826104a3565b84845461041b565b825550505050565b600090565b6104df6104d2565b6104ea8184846104ad565b505050565b5b8181101561050e576105036000826104d7565b6001810190506104f0565b5050565b601f82111561055357610524816103e9565b61052d846103fe565b8101602085101561053c578190505b610550610548856103fe565b8301826104ef565b50505b505050565b600082821c905092915050565b600061057660001984600802610558565b1980831691505092915050565b600061058f8383610565565b9150826002028217905092915050565b6105a88261034f565b67ffffffffffffffff8111156105c1576105c061035a565b5b6105cb82546103b8565b6105d6828285610512565b600060209050601f83116001811461060957600084156105f7578287015190505b6106018582610583565b865550610669565b601f198416610617866103e9565b60005b8281101561063f5784890151825560018201915060208501945060208101905061061a565b8683101561065c5784890151610658601f891682610565565b8355505b6001600288020188555050505b505050505050565b61067a816102e4565b82525050565b60006020820190506106956000830184610671565b92915050565b600082825260208201905092915050565b7f4d61726b6574706c61636520616464726573732063616e6e6f74206265207a6560008201527f726f000000000000000000000000000000000000000000000000000000000000602082015250565b600061070860228361069b565b9150610713826106ac565b604082019050919050565b60006020820190508181036000830152610737816106fb565b9050919050565b6145608061074d6000396000f3fe608060405234801561001057600080fd5b50600436106101a95760003560e01c8063715018a6116100f9578063b391259711610097578063c87b56dd11610071578063c87b56dd14610504578063d5c7127514610534578063e985e9c514610564578063f2fde38b14610594576101a9565b8063b39125971461049a578063b88d4fde146104ca578063bb8fe785146104e6576101a9565b80638da5cb5b116100d35780638da5cb5b1461042657806395d89b411461044457806398214bcb14610462578063a22cb4651461047e576101a9565b8063715018a6146103d05780637539fc5c146103da578063809e06411461040a576101a9565b806323b872dd1161016657806342842e0e1161014057806342842e0e146103245780634ee9c4a5146103405780636352211e1461037057806370a08231146103a0576101a9565b806323b872dd146102a857806332570d7d146102c457806340398d67146102f4576101a9565b806301ffc9a7146101ae578063056b01ce146101de57806306fdde031461020e578063081812fc1461022c578063095ea7b31461025c5780631f35e34714610278575b600080fd5b6101c860048036038101906101c391906131cf565b6105b0565b6040516101d59190613217565b60405180910390f35b6101f860048036038101906101f391906133ae565b610611565b6040516102059190613419565b60405180910390f35b6102166108ab565b60405161022391906134b3565b60405180910390f35b610246600480360381019061024191906134d5565b61093d565b6040516102539190613543565b60405180910390f35b6102766004803603810190610271919061358a565b610959565b005b610292600480360381019061028d91906135ca565b61096f565b60405161029f91906137bd565b60405180910390f35b6102c260048036038101906102bd91906137df565b610cee565b005b6102de60048036038101906102d991906134d5565b610df0565b6040516102eb91906138ce565b60405180910390f35b61030e600480360381019061030991906135ca565b611057565b60405161031b919061399f565b60405180910390f35b61033e600480360381019061033991906137df565b6111b8565b005b61035a600480360381019061035591906135ca565b6111d8565b60405161036791906137bd565b60405180910390f35b61038a600480360381019061038591906134d5565b6115bc565b6040516103979190613543565b60405180910390f35b6103ba60048036038101906103b591906135ca565b6115ce565b6040516103c79190613419565b60405180910390f35b6103d8611688565b005b6103f460048036038101906103ef91906134d5565b61169c565b6040516104019190613543565b60405180910390f35b610424600480360381019061041f91906139c1565b611724565b005b61042e61191f565b60405161043b9190613543565b60405180910390f35b61044c611949565b60405161045991906134b3565b60405180910390f35b61047c60048036038101906104779190613a2d565b6119db565b005b61049860048036038101906104939190613a6d565b611a9a565b005b6104b460048036038101906104af91906134d5565b611ab0565b6040516104c19190613419565b60405180910390f35b6104e460048036038101906104df9190613b4e565b611b18565b005b6104ee611b3d565b6040516104fb9190613543565b60405180910390f35b61051e600480360381019061051991906134d5565b611b67565b60405161052b91906134b3565b60405180910390f35b61054e600480360381019061054991906135ca565b611c7a565b60405161055b919061399f565b60405180910390f35b61057e60048036038101906105799190613bd1565b611e40565b60405161058b9190613217565b60405180910390f35b6105ae60048036038101906105a991906135ca565b611ed4565b005b6000634906490660e01b7bffffffffffffffffffffffffffffffffffffffffffffffffffffffff1916827bffffffffffffffffffffffffffffffffffffffffffffffffffffffff1916148061060a575061060982611f5a565b5b9050919050565b600080821015610656576040517f08c379a000000000000000000000000000000000000000000000000000000000815260040161064d90613c5d565b60405180910390fd5b606482111561069a576040517f08c379a000000000000000000000000000000000000000000000000000000000815260040161069190613cc9565b60405180910390fd5b600860008154809291906106ad90613d18565b9190505550600060085490506106c3338261203c565b6106cd818561205a565b6001600a60003373ffffffffffffffffffffffffffffffffffffffff1673ffffffffffffffffffffffffffffffffffffffff168152602001908152602001600020600082825461071d9190613d60565b925050819055506040518060a001604052808281526020018581526020013373ffffffffffffffffffffffffffffffffffffffff16815260200184815260200142815250600b60008381526020019081526020016000206000820151816000015560208201518160010190816107939190613fa0565b5060408201518160020160006101000a81548173ffffffffffffffffffffffffffffffffffffffff021916908373ffffffffffffffffffffffffffffffffffffffff160217905550606082015181600301556080820151816004015590505061081e33600960009054906101000a900473ffffffffffffffffffffffffffffffffffffffff16611e40565b6108505761084f600960009054906101000a900473ffffffffffffffffffffffffffffffffffffffff166001611a9a565b5b803373ffffffffffffffffffffffffffffffffffffffff167f7f9dd5d8fa69e733db2277a568b65a9651a3042da18fb2b5ea1966d3891cbfda8642604051610899929190614072565b60405180910390a38091505092915050565b6060600080546108ba90613dc3565b80601f01602080910402602001604051908101604052809291908181526020018280546108e690613dc3565b80156109335780601f1061090857610100808354040283529160200191610933565b820191906000526020600020905b81548152906001019060200180831161091657829003601f168201915b5050505050905090565b6000610948826120b6565b506109528261213e565b9050919050565b61096b828261096661217b565b612183565b5050565b6060600061097c836115ce565b9050600081036109e357600067ffffffffffffffff8111156109a1576109a061324d565b5b6040519080825280602002602001820160405280156109da57816020015b6109c76130fa565b8152602001906001900390816109bf5790505b50915050610ce9565b60008167ffffffffffffffff8111156109ff576109fe61324d565b5b604051908082528060200260200182016040528015610a3857816020015b610a256130fa565b815260200190600190039081610a1d5790505b5090506000805b600854811015610ce1576000600182610a589190613d60565b90508673ffffffffffffffffffffffffffffffffffffffff16610a7a826115bc565b73ffffffffffffffffffffffffffffffffffffffff1614610a9b5750610cd4565b6000600960009054906101000a900473ffffffffffffffffffffffffffffffffffffffff1673ffffffffffffffffffffffffffffffffffffffff1663255f317930846040518363ffffffff1660e01b8152600401610afa9291906140a2565b602060405180830381865afa158015610b17573d6000803e3d6000fd5b505050506040513d601f19601f82011682018060405250810190610b3b91906140e0565b90506040518060e00160405280838152602001600b60008581526020019081526020016000206001018054610b6f90613dc3565b80601f0160208091040260200160405190810160405280929190818152602001828054610b9b90613dc3565b8015610be85780601f10610bbd57610100808354040283529160200191610be8565b820191906000526020600020905b815481529060010190602001808311610bcb57829003601f168201915b50505050508152602001600b600085815260200190815260200160002060020160009054906101000a900473ffffffffffffffffffffffffffffffffffffffff1673ffffffffffffffffffffffffffffffffffffffff168152602001610c4d846115bc565b73ffffffffffffffffffffffffffffffffffffffff168152602001600b6000858152602001908152602001600020600301548152602001600b600085815260200190815260200160002060040154815260200182815250858581518110610cb757610cb661410d565b5b6020026020010181905250600184610ccf9190613d60565b935050505b8080600101915050610a3f565b508193505050505b919050565b600073ffffffffffffffffffffffffffffffffffffffff168273ffffffffffffffffffffffffffffffffffffffff1603610d605760006040517f64a0ae92000000000000000000000000000000000000000000000000000000008152600401610d579190613543565b60405180910390fd5b6000610d748383610d6f61217b565b612195565b90508373ffffffffffffffffffffffffffffffffffffffff168173ffffffffffffffffffffffffffffffffffffffff1614610dea578382826040517f64283d7b000000000000000000000000000000000000000000000000000000008152600401610de19392919061413c565b60405180910390fd5b50505050565b610df86130fa565b610e0182612268565b610e40576040517f08c379a0000000000000000000000000000000000000000000000000000000008152600401610e37906141bf565b60405180910390fd5b6000600960009054906101000a900473ffffffffffffffffffffffffffffffffffffffff1673ffffffffffffffffffffffffffffffffffffffff1663255f317930856040518363ffffffff1660e01b8152600401610e9f9291906140a2565b602060405180830381865afa158015610ebc573d6000803e3d6000fd5b505050506040513d601f19601f82011682018060405250810190610ee091906140e0565b905060006040518060e00160405280858152602001600b60008781526020019081526020016000206001018054610f1690613dc3565b80601f0160208091040260200160405190810160405280929190818152602001828054610f4290613dc3565b8015610f8f5780601f10610f6457610100808354040283529160200191610f8f565b820191906000526020600020905b815481529060010190602001808311610f7257829003601f168201915b50505050508152602001600b600087815260200190815260200160002060020160009054906101000a900473ffffffffffffffffffffffffffffffffffffffff1673ffffffffffffffffffffffffffffffffffffffff168152602001610ff4866115bc565b73ffffffffffffffffffffffffffffffffffffffff168152602001600b6000878152602001908152602001600020600301548152602001600b60008781526020019081526020016000206004015481526020018381525090508092505050919050565b60606000611064836115ce565b9050600081036110c057600067ffffffffffffffff8111156110895761108861324d565b5b6040519080825280602002602001820160405280156110b75781602001602082028036833780820191505090505b509150506111b3565b60008167ffffffffffffffff8111156110dc576110db61324d565b5b60405190808252806020026020018201604052801561110a5781602001602082028036833780820191505090505b5090506000805b6008548110156111ab57600060018261112a9190613d60565b90508673ffffffffffffffffffffffffffffffffffffffff1661114c826115bc565b73ffffffffffffffffffffffffffffffffffffffff161461116d575061119e565b808484815181106111815761118061410d565b5b60200260200101818152505060018361119a9190613d60565b9250505b8080600101915050611111565b508193505050505b919050565b6111d383838360405180602001604052806000815250611b18565b505050565b60606000600a60008473ffffffffffffffffffffffffffffffffffffffff1673ffffffffffffffffffffffffffffffffffffffff1681526020019081526020016000205490506000810361128357600067ffffffffffffffff8111156112415761124061324d565b5b60405190808252806020026020018201604052801561127a57816020015b6112676130fa565b81526020019060019003908161125f5790505b509150506115b7565b60008167ffffffffffffffff81111561129f5761129e61324d565b5b6040519080825280602002602001820160405280156112d857816020015b6112c56130fa565b8152602001906001900390816112bd5790505b5090506000805b6008548110156115af5760006001826112f89190613d60565b90508673ffffffffffffffffffffffffffffffffffffffff16600b600083815260200190815260200160002060020160009054906101000a900473ffffffffffffffffffffffffffffffffffffffff1673ffffffffffffffffffffffffffffffffffffffff161461136957506115a2565b6000600960009054906101000a900473ffffffffffffffffffffffffffffffffffffffff1673ffffffffffffffffffffffffffffffffffffffff1663255f317930846040518363ffffffff1660e01b81526004016113c89291906140a2565b602060405180830381865afa1580156113e5573d6000803e3d6000fd5b505050506040513d601f19601f8201168201806040525081019061140991906140e0565b90506040518060e00160405280838152602001600b6000858152602001908152602001600020600101805461143d90613dc3565b80601f016020809104026020016040519081016040528092919081815260200182805461146990613dc3565b80156114b65780601f1061148b576101008083540402835291602001916114b6565b820191906000526020600020905b81548152906001019060200180831161149957829003601f168201915b50505050508152602001600b600085815260200190815260200160002060020160009054906101000a900473ffffffffffffffffffffffffffffffffffffffff1673ffffffffffffffffffffffffffffffffffffffff16815260200161151b846115bc565b73ffffffffffffffffffffffffffffffffffffffff168152602001600b6000858152602001908152602001600020600301548152602001600b6000858152602001908152602001600020600401548152602001828152508585815181106115855761158461410d565b5b602002602001018190525060018461159d9190613d60565b935050505b80806001019150506112df565b508193505050505b919050565b60006115c7826120b6565b9050919050565b60008073ffffffffffffffffffffffffffffffffffffffff168273ffffffffffffffffffffffffffffffffffffffff16036116415760006040517f89c62b640000000000000000000000000000000000000000000000000000000081526004016116389190613543565b60405180910390fd5b600360008373ffffffffffffffffffffffffffffffffffffffff1673ffffffffffffffffffffffffffffffffffffffff168152602001908152602001600020549050919050565b6116906122c4565b61169a600061234b565b565b60006116a782612268565b6116e6576040517f08c379a00000000000000000000000000000000000000000000000000000000081526004016116dd906141bf565b60405180910390fd5b600b600083815260200190815260200160002060020160009054906101000a900473ffffffffffffffffffffffffffffffffffffffff169050919050565b3373ffffffffffffffffffffffffffffffffffffffff16611744836115bc565b73ffffffffffffffffffffffffffffffffffffffff161461179a576040517f08c379a00000000000000000000000000000000000000000000000000000000081526004016117919061422b565b60405180910390fd5b3373ffffffffffffffffffffffffffffffffffffffff16600b600084815260200190815260200160002060020160009054906101000a900473ffffffffffffffffffffffffffffffffffffffff1673ffffffffffffffffffffffffffffffffffffffff161461183e576040517f08c379a000000000000000000000000000000000000000000000000000000000815260040161183590614297565b60405180910390fd5b6000811015611882576040517f08c379a000000000000000000000000000000000000000000000000000000000815260040161187990613c5d565b60405180910390fd5b60648111156118c6576040517f08c379a00000000000000000000000000000000000000000000000000000000081526004016118bd90613cc9565b60405180910390fd5b80600b600084815260200190815260200160002060030181905550817f6063f4a05c03aa7c4dae47c9b14a3f4f156d08951bacb3a7e1e825116c0b8ae782426040516119139291906142b7565b60405180910390a25050565b6000600760009054906101000a900473ffffffffffffffffffffffffffffffffffffffff16905090565b60606001805461195890613dc3565b80601f016020809104026020016040519081016040528092919081815260200182805461198490613dc3565b80156119d15780601f106119a6576101008083540402835291602001916119d1565b820191906000526020600020905b8154815290600101906020018083116119b457829003601f168201915b5050505050905090565b600960009054906101000a900473ffffffffffffffffffffffffffffffffffffffff1673ffffffffffffffffffffffffffffffffffffffff163373ffffffffffffffffffffffffffffffffffffffff1614611a6b576040517f08c379a0000000000000000000000000000000000000000000000000000000008152600401611a629061432c565b60405180910390fd5b80600c600084815260200190815260200160002060006101000a81548160ff0219169083151502179055505050565b611aac611aa561217b565b8383612411565b5050565b6000611abb82612268565b611afa576040517f08c379a0000000000000000000000000000000000000000000000000000000008152600401611af1906141bf565b60405180910390fd5b600b6000838152602001908152602001600020600301549050919050565b611b23848484610cee565b611b37611b2e61217b565b85858585612580565b50505050565b6000600960009054906101000a900473ffffffffffffffffffffffffffffffffffffffff16905090565b6060611b72826120b6565b506000600660008481526020019081526020016000208054611b9390613dc3565b80601f0160208091040260200160405190810160405280929190818152602001828054611bbf90613dc3565b8015611c0c5780601f10611be157610100808354040283529160200191611c0c565b820191906000526020600020905b815481529060010190602001808311611bef57829003601f168201915b505050505090506000611c1d612731565b90506000815103611c32578192505050611c75565b600082511115611c67578082604051602001611c4f929190614388565b60405160208183030381529060405292505050611c75565b611c7084612748565b925050505b919050565b60606000600a60008473ffffffffffffffffffffffffffffffffffffffff1673ffffffffffffffffffffffffffffffffffffffff16815260200190815260200160002054905060008103611d1a57600067ffffffffffffffff811115611ce357611ce261324d565b5b604051908082528060200260200182016040528015611d115781602001602082028036833780820191505090505b50915050611e3b565b60008167ffffffffffffffff811115611d3657611d3561324d565b5b604051908082528060200260200182016040528015611d645781602001602082028036833780820191505090505b5090506000805b600854811015611e33576000600182611d849190613d60565b90508673ffffffffffffffffffffffffffffffffffffffff16600b600083815260200190815260200160002060020160009054906101000a900473ffffffffffffffffffffffffffffffffffffffff1673ffffffffffffffffffffffffffffffffffffffff1614611df55750611e26565b80848481518110611e0957611e0861410d565b5b602002602001018181525050600183611e229190613d60565b9250505b8080600101915050611d6b565b508193505050505b919050565b6000600560008473ffffffffffffffffffffffffffffffffffffffff1673ffffffffffffffffffffffffffffffffffffffff16815260200190815260200160002060008373ffffffffffffffffffffffffffffffffffffffff1673ffffffffffffffffffffffffffffffffffffffff16815260200190815260200160002060009054906101000a900460ff16905092915050565b611edc6122c4565b600073ffffffffffffffffffffffffffffffffffffffff168173ffffffffffffffffffffffffffffffffffffffff1603611f4e5760006040517f1e4fbdf7000000000000000000000000000000000000000000000000000000008152600401611f459190613543565b60405180910390fd5b611f578161234b565b50565b60007f80ac58cd000000000000000000000000000000000000000000000000000000007bffffffffffffffffffffffffffffffffffffffffffffffffffffffff1916827bffffffffffffffffffffffffffffffffffffffffffffffffffffffff1916148061202557507f5b5e139f000000000000000000000000000000000000000000000000000000007bffffffffffffffffffffffffffffffffffffffffffffffffffffffff1916827bffffffffffffffffffffffffffffffffffffffffffffffffffffffff1916145b806120355750612034826127b1565b5b9050919050565b61205682826040518060200160405280600081525061281b565b5050565b8060066000848152602001908152602001600020908161207a9190613fa0565b507ff8e1a15aba9398e019f0b49df1a4fde98ee17ae345cb5f6b5e2c27f5033e8ce7826040516120aa9190613419565b60405180910390a15050565b6000806120c28361283f565b9050600073ffffffffffffffffffffffffffffffffffffffff168173ffffffffffffffffffffffffffffffffffffffff160361213557826040517f7e27328900000000000000000000000000000000000000000000000000000000815260040161212c9190613419565b60405180910390fd5b80915050919050565b60006004600083815260200190815260200160002060009054906101000a900473ffffffffffffffffffffffffffffffffffffffff169050919050565b600033905090565b612190838383600161287c565b505050565b6000600960009054906101000a900473ffffffffffffffffffffffffffffffffffffffff1673ffffffffffffffffffffffffffffffffffffffff163373ffffffffffffffffffffffffffffffffffffffff16146122545760001515600c600085815260200190815260200160002060009054906101000a900460ff16151514612253576040517f08c379a000000000000000000000000000000000000000000000000000000000815260040161224a906143f8565b60405180910390fd5b5b61225f848484612a41565b90509392505050565b6000816008541015801561227c5750600082115b80156122bd5750600073ffffffffffffffffffffffffffffffffffffffff166122a4836115bc565b73ffffffffffffffffffffffffffffffffffffffff1614155b9050919050565b6122cc61217b565b73ffffffffffffffffffffffffffffffffffffffff166122ea61191f565b73ffffffffffffffffffffffffffffffffffffffff16146123495761230d61217b565b6040517f118cdaa70000000000000000000000000000000000000000000000000000000081526004016123409190613543565b60405180910390fd5b565b6000600760009054906101000a900473ffffffffffffffffffffffffffffffffffffffff16905081600760006101000a81548173ffffffffffffffffffffffffffffffffffffffff021916908373ffffffffffffffffffffffffffffffffffffffff1602179055508173ffffffffffffffffffffffffffffffffffffffff168173ffffffffffffffffffffffffffffffffffffffff167f8be0079c531659141344cd1fd0a4f28419497f9722a3daafe3b4186f6b6457e060405160405180910390a35050565b600073ffffffffffffffffffffffffffffffffffffffff168273ffffffffffffffffffffffffffffffffffffffff160361248257816040517f5b08ba180000000000000000000000000000000000000000000000000000000081526004016124799190613543565b60405180910390fd5b80600560008573ffffffffffffffffffffffffffffffffffffffff1673ffffffffffffffffffffffffffffffffffffffff16815260200190815260200160002060008473ffffffffffffffffffffffffffffffffffffffff1673ffffffffffffffffffffffffffffffffffffffff16815260200190815260200160002060006101000a81548160ff0219169083151502179055508173ffffffffffffffffffffffffffffffffffffffff168373ffffffffffffffffffffffffffffffffffffffff167f17307eab39ab6107e8899845ad3d59bd9653f200f220920489ca2b5937696c31836040516125739190613217565b60405180910390a3505050565b60008373ffffffffffffffffffffffffffffffffffffffff163b111561272a578273ffffffffffffffffffffffffffffffffffffffff1663150b7a02868685856040518563ffffffff1660e01b81526004016125df949392919061446d565b6020604051808303816000875af192505050801561261b57506040513d601f19601f8201168201806040525081019061261891906144ce565b60015b61269f573d806000811461264b576040519150601f19603f3d011682016040523d82523d6000602084013e612650565b606091505b50600081510361269757836040517f64a0ae9200000000000000000000000000000000000000000000000000000000815260040161268e9190613543565b60405180910390fd5b805181602001fd5b63150b7a0260e01b7bffffffffffffffffffffffffffffffffffffffffffffffffffffffff1916817bffffffffffffffffffffffffffffffffffffffffffffffffffffffff19161461272857836040517f64a0ae9200000000000000000000000000000000000000000000000000000000815260040161271f9190613543565b60405180910390fd5b505b5050505050565b606060405180602001604052806000815250905090565b6060612753826120b6565b50600061275e612731565b9050600081511161277e57604051806020016040528060008152506127a9565b8061278884612c5b565b604051602001612799929190614388565b6040516020818303038152906040525b915050919050565b60007f01ffc9a7000000000000000000000000000000000000000000000000000000007bffffffffffffffffffffffffffffffffffffffffffffffffffffffff1916827bffffffffffffffffffffffffffffffffffffffffffffffffffffffff1916149050919050565b6128258383612d29565b61283a61283061217b565b6000858585612580565b505050565b60006002600083815260200190815260200160002060009054906101000a900473ffffffffffffffffffffffffffffffffffffffff169050919050565b80806128b55750600073ffffffffffffffffffffffffffffffffffffffff168273ffffffffffffffffffffffffffffffffffffffff1614155b156129e95760006128c5846120b6565b9050600073ffffffffffffffffffffffffffffffffffffffff168373ffffffffffffffffffffffffffffffffffffffff161415801561293057508273ffffffffffffffffffffffffffffffffffffffff168173ffffffffffffffffffffffffffffffffffffffff1614155b801561294357506129418184611e40565b155b1561298557826040517fa9fbf51f00000000000000000000000000000000000000000000000000000000815260040161297c9190613543565b60405180910390fd5b81156129e757838573ffffffffffffffffffffffffffffffffffffffff168273ffffffffffffffffffffffffffffffffffffffff167f8c5be1e5ebec7d5bd14f71427d1e84f3dd0314c0f7b2291e5b200ac8c7c3b92560405160405180910390a45b505b836004600085815260200190815260200160002060006101000a81548173ffffffffffffffffffffffffffffffffffffffff021916908373ffffffffffffffffffffffffffffffffffffffff16021790555050505050565b600080612a4d8461283f565b9050600073ffffffffffffffffffffffffffffffffffffffff168373ffffffffffffffffffffffffffffffffffffffff1614612a8f57612a8e818486612e22565b5b600073ffffffffffffffffffffffffffffffffffffffff168173ffffffffffffffffffffffffffffffffffffffff1614612b2057612ad160008560008061287c565b6001600360008373ffffffffffffffffffffffffffffffffffffffff1673ffffffffffffffffffffffffffffffffffffffff168152602001908152602001600020600082825403925050819055505b600073ffffffffffffffffffffffffffffffffffffffff168573ffffffffffffffffffffffffffffffffffffffff1614612ba3576001600360008773ffffffffffffffffffffffffffffffffffffffff1673ffffffffffffffffffffffffffffffffffffffff168152602001908152602001600020600082825401925050819055505b846002600086815260200190815260200160002060006101000a81548173ffffffffffffffffffffffffffffffffffffffff021916908373ffffffffffffffffffffffffffffffffffffffff160217905550838573ffffffffffffffffffffffffffffffffffffffff168273ffffffffffffffffffffffffffffffffffffffff167fddf252ad1be2c89b69c2b068fc378daa952ba7f163c4a11628f55a4df523b3ef60405160405180910390a4809150509392505050565b606060006001612c6a84612ee6565b01905060008167ffffffffffffffff811115612c8957612c8861324d565b5b6040519080825280601f01601f191660200182016040528015612cbb5781602001600182028036833780820191505090505b509050600082602001820190505b600115612d1e578080600190039150507f3031323334353637383961626364656600000000000000000000000000000000600a86061a8153600a8581612d1257612d116144fb565b5b04945060008503612cc9575b819350505050919050565b600073ffffffffffffffffffffffffffffffffffffffff168273ffffffffffffffffffffffffffffffffffffffff1603612d9b5760006040517f64a0ae92000000000000000000000000000000000000000000000000000000008152600401612d929190613543565b60405180910390fd5b6000612da983836000612195565b9050600073ffffffffffffffffffffffffffffffffffffffff168173ffffffffffffffffffffffffffffffffffffffff1614612e1d5760006040517f73c6ac6e000000000000000000000000000000000000000000000000000000008152600401612e149190613543565b60405180910390fd5b505050565b612e2d838383613039565b612ee157600073ffffffffffffffffffffffffffffffffffffffff168373ffffffffffffffffffffffffffffffffffffffff1603612ea257806040517f7e273289000000000000000000000000000000000000000000000000000000008152600401612e999190613419565b60405180910390fd5b81816040517f177e802f000000000000000000000000000000000000000000000000000000008152600401612ed89291906140a2565b60405180910390fd5b505050565b600080600090507a184f03e93ff9f4daa797ed6e38ed64bf6a1f0100000000000000008310612f44577a184f03e93ff9f4daa797ed6e38ed64bf6a1f0100000000000000008381612f3a57612f396144fb565b5b0492506040810190505b6d04ee2d6d415b85acef81000000008310612f81576d04ee2d6d415b85acef81000000008381612f7757612f766144fb565b5b0492506020810190505b662386f26fc100008310612fb057662386f26fc100008381612fa657612fa56144fb565b5b0492506010810190505b6305f5e1008310612fd9576305f5e1008381612fcf57612fce6144fb565b5b0492506008810190505b6127108310612ffe576127108381612ff457612ff36144fb565b5b0492506004810190505b606483106130215760648381613017576130166144fb565b5b0492506002810190505b600a8310613030576001810190505b80915050919050565b60008073ffffffffffffffffffffffffffffffffffffffff168373ffffffffffffffffffffffffffffffffffffffff16141580156130f157508273ffffffffffffffffffffffffffffffffffffffff168473ffffffffffffffffffffffffffffffffffffffff1614806130b257506130b18484611e40565b5b806130f057508273ffffffffffffffffffffffffffffffffffffffff166130d88361213e565b73ffffffffffffffffffffffffffffffffffffffff16145b5b90509392505050565b6040518060e001604052806000815260200160608152602001600073ffffffffffffffffffffffffffffffffffffffff168152602001600073ffffffffffffffffffffffffffffffffffffffff1681526020016000815260200160008152602001600081525090565b6000604051905090565b600080fd5b600080fd5b60007fffffffff0000000000000000000000000000000000000000000000000000000082169050919050565b6131ac81613177565b81146131b757600080fd5b50565b6000813590506131c9816131a3565b92915050565b6000602082840312156131e5576131e461316d565b5b60006131f3848285016131ba565b91505092915050565b60008115159050919050565b613211816131fc565b82525050565b600060208201905061322c6000830184613208565b92915050565b600080fd5b600080fd5b6000601f19601f8301169050919050565b7f4e487b7100000000000000000000000000000000000000000000000000000000600052604160045260246000fd5b6132858261323c565b810181811067ffffffffffffffff821117156132a4576132a361324d565b5b80604052505050565b60006132b7613163565b90506132c3828261327c565b919050565b600067ffffffffffffffff8211156132e3576132e261324d565b5b6132ec8261323c565b9050602081019050919050565b82818337600083830152505050565b600061331b613316846132c8565b6132ad565b90508281526020810184848401111561333757613336613237565b5b6133428482856132f9565b509392505050565b600082601f83011261335f5761335e613232565b5b813561336f848260208601613308565b91505092915050565b6000819050919050565b61338b81613378565b811461339657600080fd5b50565b6000813590506133a881613382565b92915050565b600080604083850312156133c5576133c461316d565b5b600083013567ffffffffffffffff8111156133e3576133e2613172565b5b6133ef8582860161334a565b925050602061340085828601613399565b9150509250929050565b61341381613378565b82525050565b600060208201905061342e600083018461340a565b92915050565b600081519050919050565b600082825260208201905092915050565b60005b8381101561346e578082015181840152602081019050613453565b60008484015250505050565b600061348582613434565b61348f818561343f565b935061349f818560208601613450565b6134a88161323c565b840191505092915050565b600060208201905081810360008301526134cd818461347a565b905092915050565b6000602082840312156134eb576134ea61316d565b5b60006134f984828501613399565b91505092915050565b600073ffffffffffffffffffffffffffffffffffffffff82169050919050565b600061352d82613502565b9050919050565b61353d81613522565b82525050565b60006020820190506135586000830184613534565b92915050565b61356781613522565b811461357257600080fd5b50565b6000813590506135848161355e565b92915050565b600080604083850312156135a1576135a061316d565b5b60006135af85828601613575565b92505060206135c085828601613399565b9150509250929050565b6000602082840312156135e0576135df61316d565b5b60006135ee84828501613575565b91505092915050565b600081519050919050565b600082825260208201905092915050565b6000819050602082019050919050565b61362c81613378565b82525050565b600082825260208201905092915050565b600061364e82613434565b6136588185613632565b9350613668818560208601613450565b6136718161323c565b840191505092915050565b61368581613522565b82525050565b600060e0830160008301516136a36000860182613623565b50602083015184820360208601526136bb8282613643565b91505060408301516136d0604086018261367c565b5060608301516136e3606086018261367c565b5060808301516136f66080860182613623565b5060a083015161370960a0860182613623565b5060c083015161371c60c0860182613623565b508091505092915050565b6000613733838361368b565b905092915050565b6000602082019050919050565b6000613753826135f7565b61375d8185613602565b93508360208202850161376f85613613565b8060005b858110156137ab578484038952815161378c8582613727565b94506137978361373b565b925060208a01995050600181019050613773565b50829750879550505050505092915050565b600060208201905081810360008301526137d78184613748565b905092915050565b6000806000606084860312156137f8576137f761316d565b5b600061380686828701613575565b935050602061381786828701613575565b925050604061382886828701613399565b9150509250925092565b600060e08301600083015161384a6000860182613623565b50602083015184820360208601526138628282613643565b9150506040830151613877604086018261367c565b50606083015161388a606086018261367c565b50608083015161389d6080860182613623565b5060a08301516138b060a0860182613623565b5060c08301516138c360c0860182613623565b508091505092915050565b600060208201905081810360008301526138e88184613832565b905092915050565b600081519050919050565b600082825260208201905092915050565b6000819050602082019050919050565b60006139288383613623565b60208301905092915050565b6000602082019050919050565b600061394c826138f0565b61395681856138fb565b93506139618361390c565b8060005b83811015613992578151613979888261391c565b975061398483613934565b925050600181019050613965565b5085935050505092915050565b600060208201905081810360008301526139b98184613941565b905092915050565b600080604083850312156139d8576139d761316d565b5b60006139e685828601613399565b92505060206139f785828601613399565b9150509250929050565b613a0a816131fc565b8114613a1557600080fd5b50565b600081359050613a2781613a01565b92915050565b60008060408385031215613a4457613a4361316d565b5b6000613a5285828601613399565b9250506020613a6385828601613a18565b9150509250929050565b60008060408385031215613a8457613a8361316d565b5b6000613a9285828601613575565b9250506020613aa385828601613a18565b9150509250929050565b600067ffffffffffffffff821115613ac857613ac761324d565b5b613ad18261323c565b9050602081019050919050565b6000613af1613aec84613aad565b6132ad565b905082815260208101848484011115613b0d57613b0c613237565b5b613b188482856132f9565b509392505050565b600082601f830112613b3557613b34613232565b5b8135613b45848260208601613ade565b91505092915050565b60008060008060808587031215613b6857613b6761316d565b5b6000613b7687828801613575565b9450506020613b8787828801613575565b9350506040613b9887828801613399565b925050606085013567ffffffffffffffff811115613bb957613bb8613172565b5b613bc587828801613b20565b91505092959194509250565b60008060408385031215613be857613be761316d565b5b6000613bf685828601613575565b9250506020613c0785828601613575565b9150509250929050565b7f526f79616c7479206d757374206265206e6f6e2d6e6567617469766500000000600082015250565b6000613c47601c8361343f565b9150613c5282613c11565b602082019050919050565b60006020820190508181036000830152613c7681613c3a565b9050919050565b7f526f79616c7479206665652063616e6e6f742065786365656420313030250000600082015250565b6000613cb3601e8361343f565b9150613cbe82613c7d565b602082019050919050565b60006020820190508181036000830152613ce281613ca6565b9050919050565b7f4e487b7100000000000000000000000000000000000000000000000000000000600052601160045260246000fd5b6000613d2382613378565b91507fffffffffffffffffffffffffffffffffffffffffffffffffffffffffffffffff8203613d5557613d54613ce9565b5b600182019050919050565b6000613d6b82613378565b9150613d7683613378565b9250828201905080821115613d8e57613d8d613ce9565b5b92915050565b7f4e487b7100000000000000000000000000000000000000000000000000000000600052602260045260246000fd5b60006002820490506001821680613ddb57607f821691505b602082108103613dee57613ded613d94565b5b50919050565b60008190508160005260206000209050919050565b60006020601f8301049050919050565b600082821b905092915050565b600060088302613e567fffffffffffffffffffffffffffffffffffffffffffffffffffffffffffffffff82613e19565b613e608683613e19565b95508019841693508086168417925050509392505050565b6000819050919050565b6000613e9d613e98613e9384613378565b613e78565b613378565b9050919050565b6000819050919050565b613eb783613e82565b613ecb613ec382613ea4565b848454613e26565b825550505050565b600090565b613ee0613ed3565b613eeb818484613eae565b505050565b5b81811015613f0f57613f04600082613ed8565b600181019050613ef1565b5050565b601f821115613f5457613f2581613df4565b613f2e84613e09565b81016020851015613f3d578190505b613f51613f4985613e09565b830182613ef0565b50505b505050565b600082821c905092915050565b6000613f7760001984600802613f59565b1980831691505092915050565b6000613f908383613f66565b9150826002028217905092915050565b613fa982613434565b67ffffffffffffffff811115613fc257613fc161324d565b5b613fcc8254613dc3565b613fd7828285613f13565b600060209050601f83116001811461400a5760008415613ff8578287015190505b6140028582613f84565b86555061406a565b601f19841661401886613df4565b60005b828110156140405784890151825560018201915060208501945060208101905061401b565b8683101561405d5784890151614059601f891682613f66565b8355505b6001600288020188555050505b505050505050565b6000604082019050818103600083015261408c818561347a565b905061409b602083018461340a565b9392505050565b60006040820190506140b76000830185613534565b6140c4602083018461340a565b9392505050565b6000815190506140da81613382565b92915050565b6000602082840312156140f6576140f561316d565b5b6000614104848285016140cb565b91505092915050565b7f4e487b7100000000000000000000000000000000000000000000000000000000600052603260045260246000fd5b60006060820190506141516000830186613534565b61415e602083018561340a565b61416b6040830184613534565b949350505050565b7f546f6b656e20646f6573206e6f74206578697374000000000000000000000000600082015250565b60006141a960148361343f565b91506141b482614173565b602082019050919050565b600060208201905081810360008301526141d88161419c565b9050919050565b7f4e6f7420746f6b656e206f776e65720000000000000000000000000000000000600082015250565b6000614215600f8361343f565b9150614220826141df565b602082019050919050565b6000602082019050818103600083015261424481614208565b9050919050565b7f4e6f742063726561746f72000000000000000000000000000000000000000000600082015250565b6000614281600b8361343f565b915061428c8261424b565b602082019050919050565b600060208201905081810360008301526142b081614274565b9050919050565b60006040820190506142cc600083018561340a565b6142d9602083018461340a565b9392505050565b7f4e6f74206d61726b6574706c6163652063616c6c000000000000000000000000600082015250565b600061431660148361343f565b9150614321826142e0565b602082019050919050565b6000602082019050818103600083015261434581614309565b9050919050565b600081905092915050565b600061436282613434565b61436c818561434c565b935061437c818560208601613450565b80840191505092915050565b60006143948285614357565b91506143a08284614357565b91508190509392505050565b7f546f6b656e206973206265696e67206c697374656420666f722073616c650000600082015250565b60006143e2601e8361343f565b91506143ed826143ac565b602082019050919050565b60006020820190508181036000830152614411816143d5565b9050919050565b600081519050919050565b600082825260208201905092915050565b600061443f82614418565b6144498185614423565b9350614459818560208601613450565b6144628161323c565b840191505092915050565b60006080820190506144826000830187613534565b61448f6020830186613534565b61449c604083018561340a565b81810360608301526144ae8184614434565b905095945050505050565b6000815190506144c8816131a3565b92915050565b6000602082840312156144e4576144e361316d565b5b60006144f2848285016144b9565b91505092915050565b7f4e487b7100000000000000000000000000000000000000000000000000000000600052601260045260246000fdfea2646970667358221220aab28777b6c8db10bb54132323f5fec72e748fc1ea070121aa7a38af35b17e1964736f6c634300081c0033",
  "linkReferences": {},
  "deployedLinkReferences": {}
}