{
  "_format": "hh-sol-artifact-1",
  "contractName": "NFTv2",
  "sourceName": "contracts/NFTv2.sol",
  "abi": [
    {
      "inputs": [
        {
          "internalType": "address",
          "name": "marketplaceAddress",
          "type": "address"
        }
      ],
      "stateMutability": "nonpayable",
      "type": "constructor"
    },
    {
      "inputs": [
        {
          "internalType": "address",
          "name": "sender",
          "type": "address"
        },
        {
          "internalType": "uint256",
          "name": "tokenId",
          "type": "uint256"
        },
        {
          "internalType": "address",
          "name": "owner",
          "type": "address"
        }
      ],
      "name": "ERC721IncorrectOwner",
      "type": "error"
    },
    {
      "inputs": [
        {
          "internalType": "address",
          "name": "operator",
          "type": "address"
        },
        {
          "internalType": "uint256",
          "name": "tokenId",
          "type": "uint256"
        }
      ],
      "name": "ERC721InsufficientApproval",
      "type": "error"
    },
    {
      "inputs": [
        {
          "internalType": "address",
          "name": "approver",
          "type": "address"
        }
      ],
      "name": "ERC721InvalidApprover",
      "type": "error"
    },
    {
      "inputs": [
        {
          "internalType": "address",
          "name": "operator",
          "type": "address"
        }
      ],
      "name": "ERC721InvalidOperator",
      "type": "error"
    },
    {
      "inputs": [
        {
          "internalType": "address",
          "name": "owner",
          "type": "address"
        }
      ],
      "name": "ERC721InvalidOwner",
      "type": "error"
    },
    {
      "inputs": [
        {
          "internalType": "address",
          "name": "receiver",
          "type": "address"
        }
      ],
      "name": "ERC721InvalidReceiver",
      "type": "error"
    },
    {
      "inputs": [
        {
          "internalType": "address",
          "name": "sender",
          "type": "address"
        }
      ],
      "name": "ERC721InvalidSender",
      "type": "error"
    },
    {
      "inputs": [
        {
          "internalType": "uint256",
          "name": "tokenId",
          "type": "uint256"
        }
      ],
      "name": "ERC721NonexistentToken",
      "type": "error"
    },
    {
      "inputs": [
        {
          "internalType": "address",
          "name": "owner",
          "type": "address"
        }
      ],
      "name": "OwnableInvalidOwner",
      "type": "error"
    },
    {
      "inputs": [
        {
          "internalType": "address",
          "name": "account",
          "type": "address"
        }
      ],
      "name": "OwnableUnauthorizedAccount",
      "type": "error"
    },
    {
      "anonymous": false,
      "inputs": [
        {
          "indexed": true,
          "internalType": "address",
          "name": "owner",
          "type": "address"
        },
        {
          "indexed": true,
          "internalType": "address",
          "name": "approved",
          "type": "address"
        },
        {
          "indexed": true,
          "internalType": "uint256",
          "name": "tokenId",
          "type": "uint256"
        }
      ],
      "name": "Approval",
      "type": "event"
    },
    {
      "anonymous": false,
      "inputs": [
        {
          "indexed": true,
          "internalType": "address",
          "name": "owner",
          "type": "address"
        },
        {
          "indexed": true,
          "internalType": "address",
          "name": "operator",
          "type": "address"
        },
        {
          "indexed": false,
          "internalType": "bool",
          "name": "approved",
          "type": "bool"
        }
      ],
      "name": "ApprovalForAll",
      "type": "event"
    },
    {
      "anonymous": false,
      "inputs": [
        {
          "indexed": false,
          "internalType": "uint256",
          "name": "_fromTokenId",
          "type": "uint256"
        },
        {
          "indexed": false,
          "internalType": "uint256",
          "name": "_toTokenId",
          "type": "uint256"
        }
      ],
      "name": "BatchMetadataUpdate",
      "type": "event"
    },
    {
      "anonymous": false,
      "inputs": [
        {
          "indexed": false,
          "internalType": "uint256",
          "name": "_tokenId",
          "type": "uint256"
        }
      ],
      "name": "MetadataUpdate",
      "type": "event"
    },
    {
      "anonymous": false,
      "inputs": [
        {
          "indexed": true,
          "internalType": "address",
          "name": "creator",
          "type": "address"
        },
        {
          "indexed": true,
          "internalType": "uint256",
          "name": "tokenId",
          "type": "uint256"
        },
        {
          "indexed": false,
          "internalType": "string",
          "name": "tokenURI",
          "type": "string"
        },
        {
          "indexed": false,
          "internalType": "uint256",
          "name": "timestamp",
          "type": "uint256"
        }
      ],
      "name": "NFTMinted",
      "type": "event"
    },
    {
      "anonymous": false,
      "inputs": [
        {
          "indexed": true,
          "internalType": "uint256",
          "name": "tokenId",
          "type": "uint256"
        },
        {
          "indexed": false,
          "internalType": "uint256",
          "name": "newRoyalty",
          "type": "uint256"
        },
        {
          "indexed": false,
          "internalType": "uint256",
          "name": "timestamp",
          "type": "uint256"
        }
      ],
      "name": "NFTRoyaltyUpdated",
      "type": "event"
    },
    {
      "anonymous": false,
      "inputs": [
        {
          "indexed": true,
          "internalType": "address",
          "name": "previousOwner",
          "type": "address"
        },
        {
          "indexed": true,
          "internalType": "address",
          "name": "newOwner",
          "type": "address"
        }
      ],
      "name": "OwnershipTransferred",
      "type": "event"
    },
    {
      "anonymous": false,
      "inputs": [
        {
          "indexed": true,
          "internalType": "address",
          "name": "from",
          "type": "address"
        },
        {
          "indexed": true,
          "internalType": "address",
          "name": "to",
          "type": "address"
        },
        {
          "indexed": true,
          "internalType": "uint256",
          "name": "tokenId",
          "type": "uint256"
        }
      ],
      "name": "Transfer",
      "type": "event"
    },
    {
      "inputs": [
        {
          "internalType": "address",
          "name": "to",
          "type": "address"
        },
        {
          "internalType": "uint256",
          "name": "tokenId",
          "type": "uint256"
        }
      ],
      "name": "approve",
      "outputs": [],
      "stateMutability": "nonpayable",
      "type": "function"
    },
    {
      "inputs": [
        {
          "internalType": "address",
          "name": "owner",
          "type": "address"
        }
      ],
      "name": "balanceOf",
      "outputs": [
        {
          "internalType": "uint256",
          "name": "",
          "type": "uint256"
        }
      ],
      "stateMutability": "view",
      "type": "function"
    },
    {
      "inputs": [
        {
          "internalType": "uint256",
          "name": "tokenId",
          "type": "uint256"
        }
      ],
      "name": "getApproved",
      "outputs": [
        {
          "internalType": "address",
          "name": "",
          "type": "address"
        }
      ],
      "stateMutability": "view",
      "type": "function"
    },
    {
      "inputs": [
        {
          "internalType": "uint256",
          "name": "tokenId",
          "type": "uint256"
        }
      ],
      "name": "getCreatorOfToken",
      "outputs": [
        {
          "internalType": "address",
          "name": "",
          "type": "address"
        }
      ],
      "stateMutability": "view",
      "type": "function"
    },
    {
      "inputs": [],
      "name": "getMarketplaceAddress",
      "outputs": [
        {
          "internalType": "address",
          "name": "",
          "type": "address"
        }
      ],
      "stateMutability": "view",
      "type": "function"
    },
    {
      "inputs": [
        {
          "internalType": "uint256",
          "name": "tokenId",
          "type": "uint256"
        }
      ],
      "name": "getRoyaltyOfToken",
      "outputs": [
        {
          "internalType": "uint256",
          "name": "",
          "type": "uint256"
        }
      ],
      "stateMutability": "view",
      "type": "function"
    },
    {
      "inputs": [
        {
          "internalType": "address",
          "name": "creator",
          "type": "address"
        }
      ],
      "name": "getTokenInfoByCreator",
      "outputs": [
        {
          "components": [
            {
              "internalType": "uint256",
              "name": "tokenId",
              "type": "uint256"
            },
            {
              "internalType": "string",
              "name": "tokenURI",
              "type": "string"
            },
            {
              "internalType": "address",
              "name": "creator",
              "type": "address"
            },
            {
              "internalType": "address",
              "name": "owner",
              "type": "address"
            },
            {
              "internalType": "uint256",
              "name": "royaltyFee",
              "type": "uint256"
            },
            {
              "internalType": "uint256",
              "name": "mintedAt",
              "type": "uint256"
            }
          ],
          "internalType": "struct NFTv2.NFTInfoWithOwner[]",
          "name": "",
          "type": "tuple[]"
        }
      ],
      "stateMutability": "view",
      "type": "function"
    },
    {
      "inputs": [
        {
          "internalType": "uint256",
          "name": "tokenId",
          "type": "uint256"
        }
      ],
      "name": "getTokenInfoById",
      "outputs": [
        {
          "components": [
            {
              "internalType": "uint256",
              "name": "tokenId",
              "type": "uint256"
            },
            {
              "internalType": "string",
              "name": "tokenURI",
              "type": "string"
            },
            {
              "internalType": "address",
              "name": "creator",
              "type": "address"
            },
            {
              "internalType": "uint256",
              "name": "royaltyFee",
              "type": "uint256"
            },
            {
              "internalType": "uint256",
              "name": "mintedAt",
              "type": "uint256"
            }
          ],
          "internalType": "struct NFTv2.NFTInfo",
          "name": "",
          "type": "tuple"
        }
      ],
      "stateMutability": "view",
      "type": "function"
    },
    {
      "inputs": [
        {
          "internalType": "address",
          "name": "owner",
          "type": "address"
        }
      ],
      "name": "getTokenInfoByOwner",
      "outputs": [
        {
          "components": [
            {
              "internalType": "uint256",
              "name": "tokenId",
              "type": "uint256"
            },
            {
              "internalType": "string",
              "name": "tokenURI",
              "type": "string"
            },
            {
              "internalType": "address",
              "name": "creator",
              "type": "address"
            },
            {
              "internalType": "address",
              "name": "owner",
              "type": "address"
            },
            {
              "internalType": "uint256",
              "name": "royaltyFee",
              "type": "uint256"
            },
            {
              "internalType": "uint256",
              "name": "mintedAt",
              "type": "uint256"
            }
          ],
          "internalType": "struct NFTv2.NFTInfoWithOwner[]",
          "name": "",
          "type": "tuple[]"
        }
      ],
      "stateMutability": "view",
      "type": "function"
    },
    {
      "inputs": [
        {
          "internalType": "address",
          "name": "creator",
          "type": "address"
        }
      ],
      "name": "getTokensByCreator",
      "outputs": [
        {
          "internalType": "uint256[]",
          "name": "",
          "type": "uint256[]"
        }
      ],
      "stateMutability": "view",
      "type": "function"
    },
    {
      "inputs": [
        {
          "internalType": "address",
          "name": "owner",
          "type": "address"
        }
      ],
      "name": "getTokensByOwner",
      "outputs": [
        {
          "internalType": "uint256[]",
          "name": "",
          "type": "uint256[]"
        }
      ],
      "stateMutability": "view",
      "type": "function"
    },
    {
      "inputs": [
        {
          "internalType": "address",
          "name": "owner",
          "type": "address"
        },
        {
          "internalType": "address",
          "name": "operator",
          "type": "address"
        }
      ],
      "name": "isApprovedForAll",
      "outputs": [
        {
          "internalType": "bool",
          "name": "",
          "type": "bool"
        }
      ],
      "stateMutability": "view",
      "type": "function"
    },
    {
      "inputs": [
        {
          "internalType": "string",
          "name": "tokenURI",
          "type": "string"
        },
        {
          "internalType": "uint256",
          "name": "royaltyFee",
          "type": "uint256"
        }
      ],
      "name": "mint",
      "outputs": [
        {
          "internalType": "uint256",
          "name": "",
          "type": "uint256"
        }
      ],
      "stateMutability": "nonpayable",
      "type": "function"
    },
    {
      "inputs": [],
      "name": "name",
      "outputs": [
        {
          "internalType": "string",
          "name": "",
          "type": "string"
        }
      ],
      "stateMutability": "view",
      "type": "function"
    },
    {
      "inputs": [],
      "name": "owner",
      "outputs": [
        {
          "internalType": "address",
          "name": "",
          "type": "address"
        }
      ],
      "stateMutability": "view",
      "type": "function"
    },
    {
      "inputs": [
        {
          "internalType": "uint256",
          "name": "tokenId",
          "type": "uint256"
        }
      ],
      "name": "ownerOf",
      "outputs": [
        {
          "internalType": "address",
          "name": "",
          "type": "address"
        }
      ],
      "stateMutability": "view",
      "type": "function"
    },
    {
      "inputs": [],
      "name": "renounceOwnership",
      "outputs": [],
      "stateMutability": "nonpayable",
      "type": "function"
    },
    {
      "inputs": [
        {
          "internalType": "address",
          "name": "from",
          "type": "address"
        },
        {
          "internalType": "address",
          "name": "to",
          "type": "address"
        },
        {
          "internalType": "uint256",
          "name": "tokenId",
          "type": "uint256"
        }
      ],
      "name": "safeTransferFrom",
      "outputs": [],
      "stateMutability": "nonpayable",
      "type": "function"
    },
    {
      "inputs": [
        {
          "internalType": "address",
          "name": "from",
          "type": "address"
        },
        {
          "internalType": "address",
          "name": "to",
          "type": "address"
        },
        {
          "internalType": "uint256",
          "name": "tokenId",
          "type": "uint256"
        },
        {
          "internalType": "bytes",
          "name": "data",
          "type": "bytes"
        }
      ],
      "name": "safeTransferFrom",
      "outputs": [],
      "stateMutability": "nonpayable",
      "type": "function"
    },
    {
      "inputs": [
        {
          "internalType": "address",
          "name": "operator",
          "type": "address"
        },
        {
          "internalType": "bool",
          "name": "approved",
          "type": "bool"
        }
      ],
      "name": "setApprovalForAll",
      "outputs": [],
      "stateMutability": "nonpayable",
      "type": "function"
    },
    {
      "inputs": [
        {
          "internalType": "address",
          "name": "marketplaceAddress",
          "type": "address"
        }
      ],
      "name": "setMarketplaceAddress",
      "outputs": [],
      "stateMutability": "nonpayable",
      "type": "function"
    },
    {
      "inputs": [
        {
          "internalType": "bytes4",
          "name": "interfaceId",
          "type": "bytes4"
        }
      ],
      "name": "supportsInterface",
      "outputs": [
        {
          "internalType": "bool",
          "name": "",
          "type": "bool"
        }
      ],
      "stateMutability": "view",
      "type": "function"
    },
    {
      "inputs": [],
      "name": "symbol",
      "outputs": [
        {
          "internalType": "string",
          "name": "",
          "type": "string"
        }
      ],
      "stateMutability": "view",
      "type": "function"
    },
    {
      "inputs": [
        {
          "internalType": "uint256",
          "name": "tokenId",
          "type": "uint256"
        }
      ],
      "name": "tokenURI",
      "outputs": [
        {
          "internalType": "string",
          "name": "",
          "type": "string"
        }
      ],
      "stateMutability": "view",
      "type": "function"
    },
    {
      "inputs": [
        {
          "internalType": "address",
          "name": "from",
          "type": "address"
        },
        {
          "internalType": "address",
          "name": "to",
          "type": "address"
        },
        {
          "internalType": "uint256",
          "name": "tokenId",
          "type": "uint256"
        }
      ],
      "name": "transferFrom",
      "outputs": [],
      "stateMutability": "nonpayable",
      "type": "function"
    },
    {
      "inputs": [
        {
          "internalType": "address",
          "name": "newOwner",
          "type": "address"
        }
      ],
      "name": "transferOwnership",
      "outputs": [],
      "stateMutability": "nonpayable",
      "type": "function"
    },
    {
      "inputs": [
        {
          "internalType": "uint256",
          "name": "tokenId",
          "type": "uint256"
        },
        {
          "internalType": "uint256",
          "name": "newRoyalty",
          "type": "uint256"
        }
      ],
      "name": "updateRoyalty",
      "outputs": [],
      "stateMutability": "nonpayable",
      "type": "function"
    }
  ],
  "bytecode": "0x608060405234801561001057600080fd5b5060405161489438038061489483398181016040528101906100329190610322565b336040518060400160405280600781526020017f544844204e4654000000000000000000000000000000000000000000000000008152506040518060400160405280600381526020017f544844000000000000000000000000000000000000000000000000000000000081525081600090816100ae919061059f565b5080600190816100be919061059f565b505050600073ffffffffffffffffffffffffffffffffffffffff168173ffffffffffffffffffffffffffffffffffffffff16036101335760006040517f1e4fbdf700000000000000000000000000000000000000000000000000000000815260040161012a9190610680565b60405180910390fd5b610142816101f960201b60201c565b50600073ffffffffffffffffffffffffffffffffffffffff168173ffffffffffffffffffffffffffffffffffffffff16036101b2576040517f08c379a00000000000000000000000000000000000000000000000000000000081526004016101a99061071e565b60405180910390fd5b80600960006101000a81548173ffffffffffffffffffffffffffffffffffffffff021916908373ffffffffffffffffffffffffffffffffffffffff1602179055505061073e565b6000600760009054906101000a900473ffffffffffffffffffffffffffffffffffffffff16905081600760006101000a81548173ffffffffffffffffffffffffffffffffffffffff021916908373ffffffffffffffffffffffffffffffffffffffff1602179055508173ffffffffffffffffffffffffffffffffffffffff168173ffffffffffffffffffffffffffffffffffffffff167f8be0079c531659141344cd1fd0a4f28419497f9722a3daafe3b4186f6b6457e060405160405180910390a35050565b600080fd5b600073ffffffffffffffffffffffffffffffffffffffff82169050919050565b60006102ef826102c4565b9050919050565b6102ff816102e4565b811461030a57600080fd5b50565b60008151905061031c816102f6565b92915050565b600060208284031215610338576103376102bf565b5b60006103468482850161030d565b91505092915050565b600081519050919050565b7f4e487b7100000000000000000000000000000000000000000000000000000000600052604160045260246000fd5b7f4e487b7100000000000000000000000000000000000000000000000000000000600052602260045260246000fd5b600060028204905060018216806103d057607f821691505b6020821081036103e3576103e2610389565b5b50919050565b60008190508160005260206000209050919050565b60006020601f8301049050919050565b600082821b905092915050565b60006008830261044b7fffffffffffffffffffffffffffffffffffffffffffffffffffffffffffffffff8261040e565b610455868361040e565b95508019841693508086168417925050509392505050565b6000819050919050565b6000819050919050565b600061049c6104976104928461046d565b610477565b61046d565b9050919050565b6000819050919050565b6104b683610481565b6104ca6104c2826104a3565b84845461041b565b825550505050565b600090565b6104df6104d2565b6104ea8184846104ad565b505050565b5b8181101561050e576105036000826104d7565b6001810190506104f0565b5050565b601f82111561055357610524816103e9565b61052d846103fe565b8101602085101561053c578190505b610550610548856103fe565b8301826104ef565b50505b505050565b600082821c905092915050565b600061057660001984600802610558565b1980831691505092915050565b600061058f8383610565565b9150826002028217905092915050565b6105a88261034f565b67ffffffffffffffff8111156105c1576105c061035a565b5b6105cb82546103b8565b6105d6828285610512565b600060209050601f83116001811461060957600084156105f7578287015190505b6106018582610583565b865550610669565b601f198416610617866103e9565b60005b8281101561063f5784890151825560018201915060208501945060208101905061061a565b8683101561065c5784890151610658601f891682610565565b8355505b6001600288020188555050505b505050505050565b61067a816102e4565b82525050565b60006020820190506106956000830184610671565b92915050565b600082825260208201905092915050565b7f4d61726b6574706c61636520616464726573732063616e6e6f74206265207a6560008201527f726f000000000000000000000000000000000000000000000000000000000000602082015250565b600061070860228361069b565b9150610713826106ac565b604082019050919050565b60006020820190508181036000830152610737816106fb565b9050919050565b6141478061074d6000396000f3fe608060405234801561001057600080fd5b50600436106101a95760003560e01c8063715018a6116100f9578063b47cc55611610097578063c87b56dd11610071578063c87b56dd14610504578063d5c7127514610534578063e985e9c514610564578063f2fde38b14610594576101a9565b8063b47cc556146104ae578063b88d4fde146104ca578063bb8fe785146104e6576101a9565b80638da5cb5b116100d35780638da5cb5b1461042657806395d89b4114610444578063a22cb46514610462578063b39125971461047e576101a9565b8063715018a6146103d05780637539fc5c146103da578063809e06411461040a576101a9565b806323b872dd1161016657806342842e0e1161014057806342842e0e146103245780634ee9c4a5146103405780636352211e1461037057806370a08231146103a0576101a9565b806323b872dd146102a857806332570d7d146102c457806340398d67146102f4576101a9565b806301ffc9a7146101ae578063056b01ce146101de57806306fdde031461020e578063081812fc1461022c578063095ea7b31461025c5780631f35e34714610278575b600080fd5b6101c860048036038101906101c39190612f23565b6105b0565b6040516101d59190612f6b565b60405180910390f35b6101f860048036038101906101f39190613102565b610611565b604051610205919061316d565b60405180910390f35b61021661088b565b6040516102239190613207565b60405180910390f35b61024660048036038101906102419190613229565b61091d565b6040516102539190613297565b60405180910390f35b610276600480360381019061027191906132de565b610939565b005b610292600480360381019061028d919061331e565b61094f565b60405161029f91906134fe565b60405180910390f35b6102c260048036038101906102bd9190613520565b610c25565b005b6102de60048036038101906102d99190613229565b610d27565b6040516102eb91906135e9565b60405180910390f35b61030e6004803603810190610309919061331e565b610ea2565b60405161031b91906136ba565b60405180910390f35b61033e60048036038101906103399190613520565b611003565b005b61035a6004803603810190610355919061331e565b611023565b60405161036791906134fe565b60405180910390f35b61038a60048036038101906103859190613229565b61135e565b6040516103979190613297565b60405180910390f35b6103ba60048036038101906103b5919061331e565b611370565b6040516103c7919061316d565b60405180910390f35b6103d861142a565b005b6103f460048036038101906103ef9190613229565b61143e565b6040516104019190613297565b60405180910390f35b610424600480360381019061041f91906136dc565b6114c6565b005b61042e61167d565b60405161043b9190613297565b60405180910390f35b61044c6116a7565b6040516104599190613207565b60405180910390f35b61047c60048036038101906104779190613748565b611739565b005b61049860048036038101906104939190613229565b61174f565b6040516104a5919061316d565b60405180910390f35b6104c860048036038101906104c3919061331e565b6117b7565b005b6104e460048036038101906104df9190613829565b611901565b005b6104ee611926565b6040516104fb9190613297565b60405180910390f35b61051e60048036038101906105199190613229565b611950565b60405161052b9190613207565b60405180910390f35b61054e6004803603810190610549919061331e565b611a63565b60405161055b91906136ba565b60405180910390f35b61057e600480360381019061057991906138ac565b611c29565b60405161058b9190612f6b565b60405180910390f35b6105ae60048036038101906105a9919061331e565b611cbd565b005b6000634906490660e01b7bffffffffffffffffffffffffffffffffffffffffffffffffffffffff1916827bffffffffffffffffffffffffffffffffffffffffffffffffffffffff1916148061060a575061060982611d43565b5b9050919050565b600080821015610656576040517f08c379a000000000000000000000000000000000000000000000000000000000815260040161064d90613938565b60405180910390fd5b6008600081548092919061066990613987565b91905055506000600854905061067f3382611e25565b6106898185611e43565b6001600a60003373ffffffffffffffffffffffffffffffffffffffff1673ffffffffffffffffffffffffffffffffffffffff16815260200190815260200160002060008282546106d991906139cf565b925050819055506040518060a001604052808281526020018581526020013373ffffffffffffffffffffffffffffffffffffffff16815260200184815260200142815250600b600083815260200190815260200160002060008201518160000155602082015181600101908161074f9190613c0f565b5060408201518160020160006101000a81548173ffffffffffffffffffffffffffffffffffffffff021916908373ffffffffffffffffffffffffffffffffffffffff1602179055506060820151816003015560808201518160040155905050600960009054906101000a900473ffffffffffffffffffffffffffffffffffffffff1673ffffffffffffffffffffffffffffffffffffffff163373ffffffffffffffffffffffffffffffffffffffff16146108305761082f600960009054906101000a900473ffffffffffffffffffffffffffffffffffffffff1682610939565b5b803373ffffffffffffffffffffffffffffffffffffffff167f7f9dd5d8fa69e733db2277a568b65a9651a3042da18fb2b5ea1966d3891cbfda8642604051610879929190613ce1565b60405180910390a38091505092915050565b60606000805461089a90613a32565b80601f01602080910402602001604051908101604052809291908181526020018280546108c690613a32565b80156109135780601f106108e857610100808354040283529160200191610913565b820191906000526020600020905b8154815290600101906020018083116108f657829003601f168201915b5050505050905090565b600061092882611e9f565b5061093282611f27565b9050919050565b61094b8282610946611f64565b611f6c565b5050565b6060600061095c83611370565b9050600081036109c357600067ffffffffffffffff81111561098157610980612fa1565b5b6040519080825280602002602001820160405280156109ba57816020015b6109a7612e10565b81526020019060019003908161099f5790505b50915050610c20565b60008167ffffffffffffffff8111156109df576109de612fa1565b5b604051908082528060200260200182016040528015610a1857816020015b610a05612e10565b8152602001906001900390816109fd5790505b5090506000805b600854811015610c18576000600182610a3891906139cf565b90508673ffffffffffffffffffffffffffffffffffffffff16610a5a8261135e565b73ffffffffffffffffffffffffffffffffffffffff1614610a7b5750610c0b565b6040518060c00160405280828152602001600b60008481526020019081526020016000206001018054610aad90613a32565b80601f0160208091040260200160405190810160405280929190818152602001828054610ad990613a32565b8015610b265780601f10610afb57610100808354040283529160200191610b26565b820191906000526020600020905b815481529060010190602001808311610b0957829003601f168201915b50505050508152602001600b600084815260200190815260200160002060020160009054906101000a900473ffffffffffffffffffffffffffffffffffffffff1673ffffffffffffffffffffffffffffffffffffffff168152602001610b8b8361135e565b73ffffffffffffffffffffffffffffffffffffffff168152602001600b6000848152602001908152602001600020600301548152602001600b600084815260200190815260200160002060040154815250848481518110610bef57610bee613d11565b5b6020026020010181905250600183610c0791906139cf565b9250505b8080600101915050610a1f565b508193505050505b919050565b600073ffffffffffffffffffffffffffffffffffffffff168273ffffffffffffffffffffffffffffffffffffffff1603610c975760006040517f64a0ae92000000000000000000000000000000000000000000000000000000008152600401610c8e9190613297565b60405180910390fd5b6000610cab8383610ca6611f64565b611f7e565b90508373ffffffffffffffffffffffffffffffffffffffff168173ffffffffffffffffffffffffffffffffffffffff1614610d21578382826040517f64283d7b000000000000000000000000000000000000000000000000000000008152600401610d1893929190613d40565b60405180910390fd5b50505050565b610d2f612e72565b610d3882612198565b610d77576040517f08c379a0000000000000000000000000000000000000000000000000000000008152600401610d6e90613dc3565b60405180910390fd5b600b60008381526020019081526020016000206040518060a001604052908160008201548152602001600182018054610daf90613a32565b80601f0160208091040260200160405190810160405280929190818152602001828054610ddb90613a32565b8015610e285780601f10610dfd57610100808354040283529160200191610e28565b820191906000526020600020905b815481529060010190602001808311610e0b57829003601f168201915b505050505081526020016002820160009054906101000a900473ffffffffffffffffffffffffffffffffffffffff1673ffffffffffffffffffffffffffffffffffffffff1673ffffffffffffffffffffffffffffffffffffffff168152602001600382015481526020016004820154815250509050919050565b60606000610eaf83611370565b905060008103610f0b57600067ffffffffffffffff811115610ed457610ed3612fa1565b5b604051908082528060200260200182016040528015610f025781602001602082028036833780820191505090505b50915050610ffe565b60008167ffffffffffffffff811115610f2757610f26612fa1565b5b604051908082528060200260200182016040528015610f555781602001602082028036833780820191505090505b5090506000805b600854811015610ff6576000600182610f7591906139cf565b90508673ffffffffffffffffffffffffffffffffffffffff16610f978261135e565b73ffffffffffffffffffffffffffffffffffffffff1614610fb85750610fe9565b80848481518110610fcc57610fcb613d11565b5b602002602001018181525050600183610fe591906139cf565b9250505b8080600101915050610f5c565b508193505050505b919050565b61101e83838360405180602001604052806000815250611901565b505050565b60606000600a60008473ffffffffffffffffffffffffffffffffffffffff1673ffffffffffffffffffffffffffffffffffffffff168152602001908152602001600020549050600081036110ce57600067ffffffffffffffff81111561108c5761108b612fa1565b5b6040519080825280602002602001820160405280156110c557816020015b6110b2612e10565b8152602001906001900390816110aa5790505b50915050611359565b60008167ffffffffffffffff8111156110ea576110e9612fa1565b5b60405190808252806020026020018201604052801561112357816020015b611110612e10565b8152602001906001900390816111085790505b5090506000805b60085481101561135157600060018261114391906139cf565b90508673ffffffffffffffffffffffffffffffffffffffff16600b600083815260200190815260200160002060020160009054906101000a900473ffffffffffffffffffffffffffffffffffffffff1673ffffffffffffffffffffffffffffffffffffffff16146111b45750611344565b6040518060c00160405280828152602001600b600084815260200190815260200160002060010180546111e690613a32565b80601f016020809104026020016040519081016040528092919081815260200182805461121290613a32565b801561125f5780601f106112345761010080835404028352916020019161125f565b820191906000526020600020905b81548152906001019060200180831161124257829003601f168201915b50505050508152602001600b600084815260200190815260200160002060020160009054906101000a900473ffffffffffffffffffffffffffffffffffffffff1673ffffffffffffffffffffffffffffffffffffffff1681526020016112c48361135e565b73ffffffffffffffffffffffffffffffffffffffff168152602001600b6000848152602001908152602001600020600301548152602001600b60008481526020019081526020016000206004015481525084848151811061132857611327613d11565b5b602002602001018190525060018361134091906139cf565b9250505b808060010191505061112a565b508193505050505b919050565b600061136982611e9f565b9050919050565b60008073ffffffffffffffffffffffffffffffffffffffff168273ffffffffffffffffffffffffffffffffffffffff16036113e35760006040517f89c62b640000000000000000000000000000000000000000000000000000000081526004016113da9190613297565b60405180910390fd5b600360008373ffffffffffffffffffffffffffffffffffffffff1673ffffffffffffffffffffffffffffffffffffffff168152602001908152602001600020549050919050565b6114326121f4565b61143c600061227b565b565b600061144982612198565b611488576040517f08c379a000000000000000000000000000000000000000000000000000000000815260040161147f90613dc3565b60405180910390fd5b600b600083815260200190815260200160002060020160009054906101000a900473ffffffffffffffffffffffffffffffffffffffff169050919050565b3373ffffffffffffffffffffffffffffffffffffffff166114e68361135e565b73ffffffffffffffffffffffffffffffffffffffff161461153c576040517f08c379a000000000000000000000000000000000000000000000000000000000815260040161153390613e2f565b60405180910390fd5b3373ffffffffffffffffffffffffffffffffffffffff16600b600084815260200190815260200160002060020160009054906101000a900473ffffffffffffffffffffffffffffffffffffffff1673ffffffffffffffffffffffffffffffffffffffff16146115e0576040517f08c379a00000000000000000000000000000000000000000000000000000000081526004016115d790613e9b565b60405180910390fd5b6000811015611624576040517f08c379a000000000000000000000000000000000000000000000000000000000815260040161161b90613938565b60405180910390fd5b80600b600084815260200190815260200160002060030181905550817f6063f4a05c03aa7c4dae47c9b14a3f4f156d08951bacb3a7e1e825116c0b8ae78242604051611671929190613ebb565b60405180910390a25050565b6000600760009054906101000a900473ffffffffffffffffffffffffffffffffffffffff16905090565b6060600180546116b690613a32565b80601f01602080910402602001604051908101604052809291908181526020018280546116e290613a32565b801561172f5780601f106117045761010080835404028352916020019161172f565b820191906000526020600020905b81548152906001019060200180831161171257829003601f168201915b5050505050905090565b61174b611744611f64565b8383612341565b5050565b600061175a82612198565b611799576040517f08c379a000000000000000000000000000000000000000000000000000000000815260040161179090613dc3565b60405180910390fd5b600b6000838152602001908152602001600020600301549050919050565b6117bf6121f4565b600073ffffffffffffffffffffffffffffffffffffffff168173ffffffffffffffffffffffffffffffffffffffff160361182e576040517f08c379a000000000000000000000000000000000000000000000000000000000815260040161182590613f56565b60405180910390fd5b80600960006101000a81548173ffffffffffffffffffffffffffffffffffffffff021916908373ffffffffffffffffffffffffffffffffffffffff1602179055506000600190505b60085481116118fd57600073ffffffffffffffffffffffffffffffffffffffff166118a0826124b0565b73ffffffffffffffffffffffffffffffffffffffff16146118ea576118e9600960009054906101000a900473ffffffffffffffffffffffffffffffffffffffff16826000611f6c565b5b80806118f590613987565b915050611876565b5050565b61190c848484610c25565b611920611917611f64565b858585856124ed565b50505050565b6000600960009054906101000a900473ffffffffffffffffffffffffffffffffffffffff16905090565b606061195b82611e9f565b50600060066000848152602001908152602001600020805461197c90613a32565b80601f01602080910402602001604051908101604052809291908181526020018280546119a890613a32565b80156119f55780601f106119ca576101008083540402835291602001916119f5565b820191906000526020600020905b8154815290600101906020018083116119d857829003601f168201915b505050505090506000611a0661269e565b90506000815103611a1b578192505050611a5e565b600082511115611a50578082604051602001611a38929190613fb2565b60405160208183030381529060405292505050611a5e565b611a59846126b5565b925050505b919050565b60606000600a60008473ffffffffffffffffffffffffffffffffffffffff1673ffffffffffffffffffffffffffffffffffffffff16815260200190815260200160002054905060008103611b0357600067ffffffffffffffff811115611acc57611acb612fa1565b5b604051908082528060200260200182016040528015611afa5781602001602082028036833780820191505090505b50915050611c24565b60008167ffffffffffffffff811115611b1f57611b1e612fa1565b5b604051908082528060200260200182016040528015611b4d5781602001602082028036833780820191505090505b5090506000805b600854811015611c1c576000600182611b6d91906139cf565b90508673ffffffffffffffffffffffffffffffffffffffff16600b600083815260200190815260200160002060020160009054906101000a900473ffffffffffffffffffffffffffffffffffffffff1673ffffffffffffffffffffffffffffffffffffffff1614611bde5750611c0f565b80848481518110611bf257611bf1613d11565b5b602002602001018181525050600183611c0b91906139cf565b9250505b8080600101915050611b54565b508193505050505b919050565b6000600560008473ffffffffffffffffffffffffffffffffffffffff1673ffffffffffffffffffffffffffffffffffffffff16815260200190815260200160002060008373ffffffffffffffffffffffffffffffffffffffff1673ffffffffffffffffffffffffffffffffffffffff16815260200190815260200160002060009054906101000a900460ff16905092915050565b611cc56121f4565b600073ffffffffffffffffffffffffffffffffffffffff168173ffffffffffffffffffffffffffffffffffffffff1603611d375760006040517f1e4fbdf7000000000000000000000000000000000000000000000000000000008152600401611d2e9190613297565b60405180910390fd5b611d408161227b565b50565b60007f80ac58cd000000000000000000000000000000000000000000000000000000007bffffffffffffffffffffffffffffffffffffffffffffffffffffffff1916827bffffffffffffffffffffffffffffffffffffffffffffffffffffffff19161480611e0e57507f5b5e139f000000000000000000000000000000000000000000000000000000007bffffffffffffffffffffffffffffffffffffffffffffffffffffffff1916827bffffffffffffffffffffffffffffffffffffffffffffffffffffffff1916145b80611e1e5750611e1d8261271e565b5b9050919050565b611e3f828260405180602001604052806000815250612788565b5050565b80600660008481526020019081526020016000209081611e639190613c0f565b507ff8e1a15aba9398e019f0b49df1a4fde98ee17ae345cb5f6b5e2c27f5033e8ce782604051611e93919061316d565b60405180910390a15050565b600080611eab836124b0565b9050600073ffffffffffffffffffffffffffffffffffffffff168173ffffffffffffffffffffffffffffffffffffffff1603611f1e57826040517f7e273289000000000000000000000000000000000000000000000000000000008152600401611f15919061316d565b60405180910390fd5b80915050919050565b60006004600083815260200190815260200160002060009054906101000a900473ffffffffffffffffffffffffffffffffffffffff169050919050565b600033905090565b611f7983838360016127ac565b505050565b600080611f8a846124b0565b9050600073ffffffffffffffffffffffffffffffffffffffff168373ffffffffffffffffffffffffffffffffffffffff1614611fcc57611fcb818486612971565b5b600073ffffffffffffffffffffffffffffffffffffffff168173ffffffffffffffffffffffffffffffffffffffff161461205d5761200e6000856000806127ac565b6001600360008373ffffffffffffffffffffffffffffffffffffffff1673ffffffffffffffffffffffffffffffffffffffff168152602001908152602001600020600082825403925050819055505b600073ffffffffffffffffffffffffffffffffffffffff168573ffffffffffffffffffffffffffffffffffffffff16146120e0576001600360008773ffffffffffffffffffffffffffffffffffffffff1673ffffffffffffffffffffffffffffffffffffffff168152602001908152602001600020600082825401925050819055505b846002600086815260200190815260200160002060006101000a81548173ffffffffffffffffffffffffffffffffffffffff021916908373ffffffffffffffffffffffffffffffffffffffff160217905550838573ffffffffffffffffffffffffffffffffffffffff168273ffffffffffffffffffffffffffffffffffffffff167fddf252ad1be2c89b69c2b068fc378daa952ba7f163c4a11628f55a4df523b3ef60405160405180910390a4809150509392505050565b600081600854101580156121ac5750600082115b80156121ed5750600073ffffffffffffffffffffffffffffffffffffffff166121d48361135e565b73ffffffffffffffffffffffffffffffffffffffff1614155b9050919050565b6121fc611f64565b73ffffffffffffffffffffffffffffffffffffffff1661221a61167d565b73ffffffffffffffffffffffffffffffffffffffff16146122795761223d611f64565b6040517f118cdaa70000000000000000000000000000000000000000000000000000000081526004016122709190613297565b60405180910390fd5b565b6000600760009054906101000a900473ffffffffffffffffffffffffffffffffffffffff16905081600760006101000a81548173ffffffffffffffffffffffffffffffffffffffff021916908373ffffffffffffffffffffffffffffffffffffffff1602179055508173ffffffffffffffffffffffffffffffffffffffff168173ffffffffffffffffffffffffffffffffffffffff167f8be0079c531659141344cd1fd0a4f28419497f9722a3daafe3b4186f6b6457e060405160405180910390a35050565b600073ffffffffffffffffffffffffffffffffffffffff168273ffffffffffffffffffffffffffffffffffffffff16036123b257816040517f5b08ba180000000000000000000000000000000000000000000000000000000081526004016123a99190613297565b60405180910390fd5b80600560008573ffffffffffffffffffffffffffffffffffffffff1673ffffffffffffffffffffffffffffffffffffffff16815260200190815260200160002060008473ffffffffffffffffffffffffffffffffffffffff1673ffffffffffffffffffffffffffffffffffffffff16815260200190815260200160002060006101000a81548160ff0219169083151502179055508173ffffffffffffffffffffffffffffffffffffffff168373ffffffffffffffffffffffffffffffffffffffff167f17307eab39ab6107e8899845ad3d59bd9653f200f220920489ca2b5937696c31836040516124a39190612f6b565b60405180910390a3505050565b60006002600083815260200190815260200160002060009054906101000a900473ffffffffffffffffffffffffffffffffffffffff169050919050565b60008373ffffffffffffffffffffffffffffffffffffffff163b1115612697578273ffffffffffffffffffffffffffffffffffffffff1663150b7a02868685856040518563ffffffff1660e01b815260040161254c949392919061402b565b6020604051808303816000875af192505050801561258857506040513d601f19601f82011682018060405250810190612585919061408c565b60015b61260c573d80600081146125b8576040519150601f19603f3d011682016040523d82523d6000602084013e6125bd565b606091505b50600081510361260457836040517f64a0ae920000000000000000000000000000000000000000000000000000000081526004016125fb9190613297565b60405180910390fd5b805181602001fd5b63150b7a0260e01b7bffffffffffffffffffffffffffffffffffffffffffffffffffffffff1916817bffffffffffffffffffffffffffffffffffffffffffffffffffffffff19161461269557836040517f64a0ae9200000000000000000000000000000000000000000000000000000000815260040161268c9190613297565b60405180910390fd5b505b5050505050565b606060405180602001604052806000815250905090565b60606126c082611e9f565b5060006126cb61269e565b905060008151116126eb5760405180602001604052806000815250612716565b806126f584612a35565b604051602001612706929190613fb2565b6040516020818303038152906040525b915050919050565b60007f01ffc9a7000000000000000000000000000000000000000000000000000000007bffffffffffffffffffffffffffffffffffffffffffffffffffffffff1916827bffffffffffffffffffffffffffffffffffffffffffffffffffffffff1916149050919050565b6127928383612b03565b6127a761279d611f64565b60008585856124ed565b505050565b80806127e55750600073ffffffffffffffffffffffffffffffffffffffff168273ffffffffffffffffffffffffffffffffffffffff1614155b156129195760006127f584611e9f565b9050600073ffffffffffffffffffffffffffffffffffffffff168373ffffffffffffffffffffffffffffffffffffffff161415801561286057508273ffffffffffffffffffffffffffffffffffffffff168173ffffffffffffffffffffffffffffffffffffffff1614155b801561287357506128718184611c29565b155b156128b557826040517fa9fbf51f0000000000000000000000000000000000000000000000000000000081526004016128ac9190613297565b60405180910390fd5b811561291757838573ffffffffffffffffffffffffffffffffffffffff168273ffffffffffffffffffffffffffffffffffffffff167f8c5be1e5ebec7d5bd14f71427d1e84f3dd0314c0f7b2291e5b200ac8c7c3b92560405160405180910390a45b505b836004600085815260200190815260200160002060006101000a81548173ffffffffffffffffffffffffffffffffffffffff021916908373ffffffffffffffffffffffffffffffffffffffff16021790555050505050565b61297c838383612bfc565b612a3057600073ffffffffffffffffffffffffffffffffffffffff168373ffffffffffffffffffffffffffffffffffffffff16036129f157806040517f7e2732890000000000000000000000000000000000000000000000000000000081526004016129e8919061316d565b60405180910390fd5b81816040517f177e802f000000000000000000000000000000000000000000000000000000008152600401612a279291906140b9565b60405180910390fd5b505050565b606060006001612a4484612cbd565b01905060008167ffffffffffffffff811115612a6357612a62612fa1565b5b6040519080825280601f01601f191660200182016040528015612a955781602001600182028036833780820191505090505b509050600082602001820190505b600115612af8578080600190039150507f3031323334353637383961626364656600000000000000000000000000000000600a86061a8153600a8581612aec57612aeb6140e2565b5b04945060008503612aa3575b819350505050919050565b600073ffffffffffffffffffffffffffffffffffffffff168273ffffffffffffffffffffffffffffffffffffffff1603612b755760006040517f64a0ae92000000000000000000000000000000000000000000000000000000008152600401612b6c9190613297565b60405180910390fd5b6000612b8383836000611f7e565b9050600073ffffffffffffffffffffffffffffffffffffffff168173ffffffffffffffffffffffffffffffffffffffff1614612bf75760006040517f73c6ac6e000000000000000000000000000000000000000000000000000000008152600401612bee9190613297565b60405180910390fd5b505050565b60008073ffffffffffffffffffffffffffffffffffffffff168373ffffffffffffffffffffffffffffffffffffffff1614158015612cb457508273ffffffffffffffffffffffffffffffffffffffff168473ffffffffffffffffffffffffffffffffffffffff161480612c755750612c748484611c29565b5b80612cb357508273ffffffffffffffffffffffffffffffffffffffff16612c9b83611f27565b73ffffffffffffffffffffffffffffffffffffffff16145b5b90509392505050565b600080600090507a184f03e93ff9f4daa797ed6e38ed64bf6a1f0100000000000000008310612d1b577a184f03e93ff9f4daa797ed6e38ed64bf6a1f0100000000000000008381612d1157612d106140e2565b5b0492506040810190505b6d04ee2d6d415b85acef81000000008310612d58576d04ee2d6d415b85acef81000000008381612d4e57612d4d6140e2565b5b0492506020810190505b662386f26fc100008310612d8757662386f26fc100008381612d7d57612d7c6140e2565b5b0492506010810190505b6305f5e1008310612db0576305f5e1008381612da657612da56140e2565b5b0492506008810190505b6127108310612dd5576127108381612dcb57612dca6140e2565b5b0492506004810190505b60648310612df85760648381612dee57612ded6140e2565b5b0492506002810190505b600a8310612e07576001810190505b80915050919050565b6040518060c001604052806000815260200160608152602001600073ffffffffffffffffffffffffffffffffffffffff168152602001600073ffffffffffffffffffffffffffffffffffffffff16815260200160008152602001600081525090565b6040518060a001604052806000815260200160608152602001600073ffffffffffffffffffffffffffffffffffffffff16815260200160008152602001600081525090565b6000604051905090565b600080fd5b600080fd5b60007fffffffff0000000000000000000000000000000000000000000000000000000082169050919050565b612f0081612ecb565b8114612f0b57600080fd5b50565b600081359050612f1d81612ef7565b92915050565b600060208284031215612f3957612f38612ec1565b5b6000612f4784828501612f0e565b91505092915050565b60008115159050919050565b612f6581612f50565b82525050565b6000602082019050612f806000830184612f5c565b92915050565b600080fd5b600080fd5b6000601f19601f8301169050919050565b7f4e487b7100000000000000000000000000000000000000000000000000000000600052604160045260246000fd5b612fd982612f90565b810181811067ffffffffffffffff82111715612ff857612ff7612fa1565b5b80604052505050565b600061300b612eb7565b90506130178282612fd0565b919050565b600067ffffffffffffffff82111561303757613036612fa1565b5b61304082612f90565b9050602081019050919050565b82818337600083830152505050565b600061306f61306a8461301c565b613001565b90508281526020810184848401111561308b5761308a612f8b565b5b61309684828561304d565b509392505050565b600082601f8301126130b3576130b2612f86565b5b81356130c384826020860161305c565b91505092915050565b6000819050919050565b6130df816130cc565b81146130ea57600080fd5b50565b6000813590506130fc816130d6565b92915050565b6000806040838503121561311957613118612ec1565b5b600083013567ffffffffffffffff81111561313757613136612ec6565b5b6131438582860161309e565b9250506020613154858286016130ed565b9150509250929050565b613167816130cc565b82525050565b6000602082019050613182600083018461315e565b92915050565b600081519050919050565b600082825260208201905092915050565b60005b838110156131c25780820151818401526020810190506131a7565b60008484015250505050565b60006131d982613188565b6131e38185613193565b93506131f38185602086016131a4565b6131fc81612f90565b840191505092915050565b6000602082019050818103600083015261322181846131ce565b905092915050565b60006020828403121561323f5761323e612ec1565b5b600061324d848285016130ed565b91505092915050565b600073ffffffffffffffffffffffffffffffffffffffff82169050919050565b600061328182613256565b9050919050565b61329181613276565b82525050565b60006020820190506132ac6000830184613288565b92915050565b6132bb81613276565b81146132c657600080fd5b50565b6000813590506132d8816132b2565b92915050565b600080604083850312156132f5576132f4612ec1565b5b6000613303858286016132c9565b9250506020613314858286016130ed565b9150509250929050565b60006020828403121561333457613333612ec1565b5b6000613342848285016132c9565b91505092915050565b600081519050919050565b600082825260208201905092915050565b6000819050602082019050919050565b613380816130cc565b82525050565b600082825260208201905092915050565b60006133a282613188565b6133ac8185613386565b93506133bc8185602086016131a4565b6133c581612f90565b840191505092915050565b6133d981613276565b82525050565b600060c0830160008301516133f76000860182613377565b506020830151848203602086015261340f8282613397565b915050604083015161342460408601826133d0565b50606083015161343760608601826133d0565b50608083015161344a6080860182613377565b5060a083015161345d60a0860182613377565b508091505092915050565b600061347483836133df565b905092915050565b6000602082019050919050565b60006134948261334b565b61349e8185613356565b9350836020820285016134b085613367565b8060005b858110156134ec57848403895281516134cd8582613468565b94506134d88361347c565b925060208a019950506001810190506134b4565b50829750879550505050505092915050565b600060208201905081810360008301526135188184613489565b905092915050565b60008060006060848603121561353957613538612ec1565b5b6000613547868287016132c9565b9350506020613558868287016132c9565b9250506040613569868287016130ed565b9150509250925092565b600060a08301600083015161358b6000860182613377565b50602083015184820360208601526135a38282613397565b91505060408301516135b860408601826133d0565b5060608301516135cb6060860182613377565b5060808301516135de6080860182613377565b508091505092915050565b600060208201905081810360008301526136038184613573565b905092915050565b600081519050919050565b600082825260208201905092915050565b6000819050602082019050919050565b60006136438383613377565b60208301905092915050565b6000602082019050919050565b60006136678261360b565b6136718185613616565b935061367c83613627565b8060005b838110156136ad5781516136948882613637565b975061369f8361364f565b925050600181019050613680565b5085935050505092915050565b600060208201905081810360008301526136d4818461365c565b905092915050565b600080604083850312156136f3576136f2612ec1565b5b6000613701858286016130ed565b9250506020613712858286016130ed565b9150509250929050565b61372581612f50565b811461373057600080fd5b50565b6000813590506137428161371c565b92915050565b6000806040838503121561375f5761375e612ec1565b5b600061376d858286016132c9565b925050602061377e85828601613733565b9150509250929050565b600067ffffffffffffffff8211156137a3576137a2612fa1565b5b6137ac82612f90565b9050602081019050919050565b60006137cc6137c784613788565b613001565b9050828152602081018484840111156137e8576137e7612f8b565b5b6137f384828561304d565b509392505050565b600082601f8301126138105761380f612f86565b5b81356138208482602086016137b9565b91505092915050565b6000806000806080858703121561384357613842612ec1565b5b6000613851878288016132c9565b9450506020613862878288016132c9565b9350506040613873878288016130ed565b925050606085013567ffffffffffffffff81111561389457613893612ec6565b5b6138a0878288016137fb565b91505092959194509250565b600080604083850312156138c3576138c2612ec1565b5b60006138d1858286016132c9565b92505060206138e2858286016132c9565b9150509250929050565b7f526f79616c7479206d757374206265206e6f6e2d6e6567617469766500000000600082015250565b6000613922601c83613193565b915061392d826138ec565b602082019050919050565b6000602082019050818103600083015261395181613915565b9050919050565b7f4e487b7100000000000000000000000000000000000000000000000000000000600052601160045260246000fd5b6000613992826130cc565b91507fffffffffffffffffffffffffffffffffffffffffffffffffffffffffffffffff82036139c4576139c3613958565b5b600182019050919050565b60006139da826130cc565b91506139e5836130cc565b92508282019050808211156139fd576139fc613958565b5b92915050565b7f4e487b7100000000000000000000000000000000000000000000000000000000600052602260045260246000fd5b60006002820490506001821680613a4a57607f821691505b602082108103613a5d57613a5c613a03565b5b50919050565b60008190508160005260206000209050919050565b60006020601f8301049050919050565b600082821b905092915050565b600060088302613ac57fffffffffffffffffffffffffffffffffffffffffffffffffffffffffffffffff82613a88565b613acf8683613a88565b95508019841693508086168417925050509392505050565b6000819050919050565b6000613b0c613b07613b02846130cc565b613ae7565b6130cc565b9050919050565b6000819050919050565b613b2683613af1565b613b3a613b3282613b13565b848454613a95565b825550505050565b600090565b613b4f613b42565b613b5a818484613b1d565b505050565b5b81811015613b7e57613b73600082613b47565b600181019050613b60565b5050565b601f821115613bc357613b9481613a63565b613b9d84613a78565b81016020851015613bac578190505b613bc0613bb885613a78565b830182613b5f565b50505b505050565b600082821c905092915050565b6000613be660001984600802613bc8565b1980831691505092915050565b6000613bff8383613bd5565b9150826002028217905092915050565b613c1882613188565b67ffffffffffffffff811115613c3157613c30612fa1565b5b613c3b8254613a32565b613c46828285613b82565b600060209050601f831160018114613c795760008415613c67578287015190505b613c718582613bf3565b865550613cd9565b601f198416613c8786613a63565b60005b82811015613caf57848901518255600182019150602085019450602081019050613c8a565b86831015613ccc5784890151613cc8601f891682613bd5565b8355505b6001600288020188555050505b505050505050565b60006040820190508181036000830152613cfb81856131ce565b9050613d0a602083018461315e565b9392505050565b7f4e487b7100000000000000000000000000000000000000000000000000000000600052603260045260246000fd5b6000606082019050613d556000830186613288565b613d62602083018561315e565b613d6f6040830184613288565b949350505050565b7f546f6b656e20646f6573206e6f74206578697374000000000000000000000000600082015250565b6000613dad601483613193565b9150613db882613d77565b602082019050919050565b60006020820190508181036000830152613ddc81613da0565b9050919050565b7f4e6f7420746f6b656e206f776e65720000000000000000000000000000000000600082015250565b6000613e19600f83613193565b9150613e2482613de3565b602082019050919050565b60006020820190508181036000830152613e4881613e0c565b9050919050565b7f4e6f742063726561746f72000000000000000000000000000000000000000000600082015250565b6000613e85600b83613193565b9150613e9082613e4f565b602082019050919050565b60006020820190508181036000830152613eb481613e78565b9050919050565b6000604082019050613ed0600083018561315e565b613edd602083018461315e565b9392505050565b7f4d61726b6574706c61636520616464726573732063616e6e6f74206265207a6560008201527f726f000000000000000000000000000000000000000000000000000000000000602082015250565b6000613f40602283613193565b9150613f4b82613ee4565b604082019050919050565b60006020820190508181036000830152613f6f81613f33565b9050919050565b600081905092915050565b6000613f8c82613188565b613f968185613f76565b9350613fa68185602086016131a4565b80840191505092915050565b6000613fbe8285613f81565b9150613fca8284613f81565b91508190509392505050565b600081519050919050565b600082825260208201905092915050565b6000613ffd82613fd6565b6140078185613fe1565b93506140178185602086016131a4565b61402081612f90565b840191505092915050565b60006080820190506140406000830187613288565b61404d6020830186613288565b61405a604083018561315e565b818103606083015261406c8184613ff2565b905095945050505050565b60008151905061408681612ef7565b92915050565b6000602082840312156140a2576140a1612ec1565b5b60006140b084828501614077565b91505092915050565b60006040820190506140ce6000830185613288565b6140db602083018461315e565b9392505050565b7f4e487b7100000000000000000000000000000000000000000000000000000000600052601260045260246000fdfea2646970667358221220c6885935abef78fd26a6a010e354997f9a73d6c5a16f5b69d073e5f920ccf00164736f6c634300081c0033",
  "linkReferences": {},
  "deployedLinkReferences": {}
}