{
  "_format": "hh-sol-artifact-1",
  "contractName": "NFTv2",
  "sourceName": "contracts/NFTv2.sol",
  "abi": [
    {
      "inputs": [
        {
          "internalType": "address",
          "name": "marketplaceAddress",
          "type": "address"
        }
      ],
      "stateMutability": "nonpayable",
      "type": "constructor"
    },
    {
      "inputs": [
        {
          "internalType": "address",
          "name": "sender",
          "type": "address"
        },
        {
          "internalType": "uint256",
          "name": "tokenId",
          "type": "uint256"
        },
        {
          "internalType": "address",
          "name": "owner",
          "type": "address"
        }
      ],
      "name": "ERC721IncorrectOwner",
      "type": "error"
    },
    {
      "inputs": [
        {
          "internalType": "address",
          "name": "operator",
          "type": "address"
        },
        {
          "internalType": "uint256",
          "name": "tokenId",
          "type": "uint256"
        }
      ],
      "name": "ERC721InsufficientApproval",
      "type": "error"
    },
    {
      "inputs": [
        {
          "internalType": "address",
          "name": "approver",
          "type": "address"
        }
      ],
      "name": "ERC721InvalidApprover",
      "type": "error"
    },
    {
      "inputs": [
        {
          "internalType": "address",
          "name": "operator",
          "type": "address"
        }
      ],
      "name": "ERC721InvalidOperator",
      "type": "error"
    },
    {
      "inputs": [
        {
          "internalType": "address",
          "name": "owner",
          "type": "address"
        }
      ],
      "name": "ERC721InvalidOwner",
      "type": "error"
    },
    {
      "inputs": [
        {
          "internalType": "address",
          "name": "receiver",
          "type": "address"
        }
      ],
      "name": "ERC721InvalidReceiver",
      "type": "error"
    },
    {
      "inputs": [
        {
          "internalType": "address",
          "name": "sender",
          "type": "address"
        }
      ],
      "name": "ERC721InvalidSender",
      "type": "error"
    },
    {
      "inputs": [
        {
          "internalType": "uint256",
          "name": "tokenId",
          "type": "uint256"
        }
      ],
      "name": "ERC721NonexistentToken",
      "type": "error"
    },
    {
      "inputs": [
        {
          "internalType": "address",
          "name": "owner",
          "type": "address"
        }
      ],
      "name": "OwnableInvalidOwner",
      "type": "error"
    },
    {
      "inputs": [
        {
          "internalType": "address",
          "name": "account",
          "type": "address"
        }
      ],
      "name": "OwnableUnauthorizedAccount",
      "type": "error"
    },
    {
      "anonymous": false,
      "inputs": [
        {
          "indexed": true,
          "internalType": "address",
          "name": "owner",
          "type": "address"
        },
        {
          "indexed": true,
          "internalType": "address",
          "name": "approved",
          "type": "address"
        },
        {
          "indexed": true,
          "internalType": "uint256",
          "name": "tokenId",
          "type": "uint256"
        }
      ],
      "name": "Approval",
      "type": "event"
    },
    {
      "anonymous": false,
      "inputs": [
        {
          "indexed": true,
          "internalType": "address",
          "name": "owner",
          "type": "address"
        },
        {
          "indexed": true,
          "internalType": "address",
          "name": "operator",
          "type": "address"
        },
        {
          "indexed": false,
          "internalType": "bool",
          "name": "approved",
          "type": "bool"
        }
      ],
      "name": "ApprovalForAll",
      "type": "event"
    },
    {
      "anonymous": false,
      "inputs": [
        {
          "indexed": false,
          "internalType": "uint256",
          "name": "_fromTokenId",
          "type": "uint256"
        },
        {
          "indexed": false,
          "internalType": "uint256",
          "name": "_toTokenId",
          "type": "uint256"
        }
      ],
      "name": "BatchMetadataUpdate",
      "type": "event"
    },
    {
      "anonymous": false,
      "inputs": [
        {
          "indexed": false,
          "internalType": "uint256",
          "name": "_tokenId",
          "type": "uint256"
        }
      ],
      "name": "MetadataUpdate",
      "type": "event"
    },
    {
      "anonymous": false,
      "inputs": [
        {
          "indexed": true,
          "internalType": "address",
          "name": "creator",
          "type": "address"
        },
        {
          "indexed": true,
          "internalType": "uint256",
          "name": "tokenId",
          "type": "uint256"
        },
        {
          "indexed": false,
          "internalType": "string",
          "name": "tokenURI",
          "type": "string"
        },
        {
          "indexed": false,
          "internalType": "uint256",
          "name": "timestamp",
          "type": "uint256"
        }
      ],
      "name": "NFTMinted",
      "type": "event"
    },
    {
      "anonymous": false,
      "inputs": [
        {
          "indexed": true,
          "internalType": "uint256",
          "name": "tokenId",
          "type": "uint256"
        },
        {
          "indexed": false,
          "internalType": "uint256",
          "name": "newRoyalty",
          "type": "uint256"
        },
        {
          "indexed": false,
          "internalType": "uint256",
          "name": "timestamp",
          "type": "uint256"
        }
      ],
      "name": "NFTRoyaltyUpdated",
      "type": "event"
    },
    {
      "anonymous": false,
      "inputs": [
        {
          "indexed": true,
          "internalType": "address",
          "name": "previousOwner",
          "type": "address"
        },
        {
          "indexed": true,
          "internalType": "address",
          "name": "newOwner",
          "type": "address"
        }
      ],
      "name": "OwnershipTransferred",
      "type": "event"
    },
    {
      "anonymous": false,
      "inputs": [
        {
          "indexed": true,
          "internalType": "address",
          "name": "from",
          "type": "address"
        },
        {
          "indexed": true,
          "internalType": "address",
          "name": "to",
          "type": "address"
        },
        {
          "indexed": true,
          "internalType": "uint256",
          "name": "tokenId",
          "type": "uint256"
        }
      ],
      "name": "Transfer",
      "type": "event"
    },
    {
      "inputs": [
        {
          "internalType": "address",
          "name": "to",
          "type": "address"
        },
        {
          "internalType": "uint256",
          "name": "tokenId",
          "type": "uint256"
        }
      ],
      "name": "approve",
      "outputs": [],
      "stateMutability": "nonpayable",
      "type": "function"
    },
    {
      "inputs": [
        {
          "internalType": "address",
          "name": "owner",
          "type": "address"
        }
      ],
      "name": "balanceOf",
      "outputs": [
        {
          "internalType": "uint256",
          "name": "",
          "type": "uint256"
        }
      ],
      "stateMutability": "view",
      "type": "function"
    },
    {
      "inputs": [
        {
          "internalType": "uint256",
          "name": "tokenId",
          "type": "uint256"
        }
      ],
      "name": "getApproved",
      "outputs": [
        {
          "internalType": "address",
          "name": "",
          "type": "address"
        }
      ],
      "stateMutability": "view",
      "type": "function"
    },
    {
      "inputs": [
        {
          "internalType": "uint256",
          "name": "tokenId",
          "type": "uint256"
        }
      ],
      "name": "getCreatorOfToken",
      "outputs": [
        {
          "internalType": "address",
          "name": "",
          "type": "address"
        }
      ],
      "stateMutability": "view",
      "type": "function"
    },
    {
      "inputs": [],
      "name": "getMarketplaceAddress",
      "outputs": [
        {
          "internalType": "address",
          "name": "",
          "type": "address"
        }
      ],
      "stateMutability": "view",
      "type": "function"
    },
    {
      "inputs": [
        {
          "internalType": "uint256",
          "name": "tokenId",
          "type": "uint256"
        }
      ],
      "name": "getRoyaltyOfToken",
      "outputs": [
        {
          "internalType": "uint256",
          "name": "",
          "type": "uint256"
        }
      ],
      "stateMutability": "view",
      "type": "function"
    },
    {
      "inputs": [
        {
          "internalType": "address",
          "name": "creator",
          "type": "address"
        }
      ],
      "name": "getTokenInfoByCreator",
      "outputs": [
        {
          "components": [
            {
              "internalType": "uint256",
              "name": "tokenId",
              "type": "uint256"
            },
            {
              "internalType": "string",
              "name": "tokenURI",
              "type": "string"
            },
            {
              "internalType": "address",
              "name": "creator",
              "type": "address"
            },
            {
              "internalType": "address",
              "name": "owner",
              "type": "address"
            },
            {
              "internalType": "uint256",
              "name": "royaltyFee",
              "type": "uint256"
            },
            {
              "internalType": "uint256",
              "name": "mintedAt",
              "type": "uint256"
            }
          ],
          "internalType": "struct NFTv2.NFTInfoWithOwner[]",
          "name": "",
          "type": "tuple[]"
        }
      ],
      "stateMutability": "view",
      "type": "function"
    },
    {
      "inputs": [
        {
          "internalType": "uint256",
          "name": "tokenId",
          "type": "uint256"
        }
      ],
      "name": "getTokenInfoById",
      "outputs": [
        {
          "components": [
            {
              "internalType": "uint256",
              "name": "tokenId",
              "type": "uint256"
            },
            {
              "internalType": "string",
              "name": "tokenURI",
              "type": "string"
            },
            {
              "internalType": "address",
              "name": "creator",
              "type": "address"
            },
            {
              "internalType": "address",
              "name": "owner",
              "type": "address"
            },
            {
              "internalType": "uint256",
              "name": "royaltyFee",
              "type": "uint256"
            },
            {
              "internalType": "uint256",
              "name": "mintedAt",
              "type": "uint256"
            }
          ],
          "internalType": "struct NFTv2.NFTInfoWithOwner",
          "name": "",
          "type": "tuple"
        }
      ],
      "stateMutability": "view",
      "type": "function"
    },
    {
      "inputs": [
        {
          "internalType": "address",
          "name": "owner",
          "type": "address"
        }
      ],
      "name": "getTokenInfoByOwner",
      "outputs": [
        {
          "components": [
            {
              "internalType": "uint256",
              "name": "tokenId",
              "type": "uint256"
            },
            {
              "internalType": "string",
              "name": "tokenURI",
              "type": "string"
            },
            {
              "internalType": "address",
              "name": "creator",
              "type": "address"
            },
            {
              "internalType": "address",
              "name": "owner",
              "type": "address"
            },
            {
              "internalType": "uint256",
              "name": "royaltyFee",
              "type": "uint256"
            },
            {
              "internalType": "uint256",
              "name": "mintedAt",
              "type": "uint256"
            }
          ],
          "internalType": "struct NFTv2.NFTInfoWithOwner[]",
          "name": "",
          "type": "tuple[]"
        }
      ],
      "stateMutability": "view",
      "type": "function"
    },
    {
      "inputs": [
        {
          "internalType": "address",
          "name": "creator",
          "type": "address"
        }
      ],
      "name": "getTokensByCreator",
      "outputs": [
        {
          "internalType": "uint256[]",
          "name": "",
          "type": "uint256[]"
        }
      ],
      "stateMutability": "view",
      "type": "function"
    },
    {
      "inputs": [
        {
          "internalType": "address",
          "name": "owner",
          "type": "address"
        }
      ],
      "name": "getTokensByOwner",
      "outputs": [
        {
          "internalType": "uint256[]",
          "name": "",
          "type": "uint256[]"
        }
      ],
      "stateMutability": "view",
      "type": "function"
    },
    {
      "inputs": [
        {
          "internalType": "address",
          "name": "owner",
          "type": "address"
        },
        {
          "internalType": "address",
          "name": "operator",
          "type": "address"
        }
      ],
      "name": "isApprovedForAll",
      "outputs": [
        {
          "internalType": "bool",
          "name": "",
          "type": "bool"
        }
      ],
      "stateMutability": "view",
      "type": "function"
    },
    {
      "inputs": [
        {
          "internalType": "string",
          "name": "tokenURI",
          "type": "string"
        },
        {
          "internalType": "uint256",
          "name": "royaltyFee",
          "type": "uint256"
        }
      ],
      "name": "mint",
      "outputs": [
        {
          "internalType": "uint256",
          "name": "",
          "type": "uint256"
        }
      ],
      "stateMutability": "nonpayable",
      "type": "function"
    },
    {
      "inputs": [],
      "name": "name",
      "outputs": [
        {
          "internalType": "string",
          "name": "",
          "type": "string"
        }
      ],
      "stateMutability": "view",
      "type": "function"
    },
    {
      "inputs": [],
      "name": "owner",
      "outputs": [
        {
          "internalType": "address",
          "name": "",
          "type": "address"
        }
      ],
      "stateMutability": "view",
      "type": "function"
    },
    {
      "inputs": [
        {
          "internalType": "uint256",
          "name": "tokenId",
          "type": "uint256"
        }
      ],
      "name": "ownerOf",
      "outputs": [
        {
          "internalType": "address",
          "name": "",
          "type": "address"
        }
      ],
      "stateMutability": "view",
      "type": "function"
    },
    {
      "inputs": [],
      "name": "renounceOwnership",
      "outputs": [],
      "stateMutability": "nonpayable",
      "type": "function"
    },
    {
      "inputs": [
        {
          "internalType": "address",
          "name": "from",
          "type": "address"
        },
        {
          "internalType": "address",
          "name": "to",
          "type": "address"
        },
        {
          "internalType": "uint256",
          "name": "tokenId",
          "type": "uint256"
        }
      ],
      "name": "safeTransferFrom",
      "outputs": [],
      "stateMutability": "nonpayable",
      "type": "function"
    },
    {
      "inputs": [
        {
          "internalType": "address",
          "name": "from",
          "type": "address"
        },
        {
          "internalType": "address",
          "name": "to",
          "type": "address"
        },
        {
          "internalType": "uint256",
          "name": "tokenId",
          "type": "uint256"
        },
        {
          "internalType": "bytes",
          "name": "data",
          "type": "bytes"
        }
      ],
      "name": "safeTransferFrom",
      "outputs": [],
      "stateMutability": "nonpayable",
      "type": "function"
    },
    {
      "inputs": [
        {
          "internalType": "address",
          "name": "operator",
          "type": "address"
        },
        {
          "internalType": "bool",
          "name": "approved",
          "type": "bool"
        }
      ],
      "name": "setApprovalForAll",
      "outputs": [],
      "stateMutability": "nonpayable",
      "type": "function"
    },
    {
      "inputs": [
        {
          "internalType": "address",
          "name": "marketplaceAddress",
          "type": "address"
        }
      ],
      "name": "setMarketplaceAddress",
      "outputs": [],
      "stateMutability": "nonpayable",
      "type": "function"
    },
    {
      "inputs": [
        {
          "internalType": "bytes4",
          "name": "interfaceId",
          "type": "bytes4"
        }
      ],
      "name": "supportsInterface",
      "outputs": [
        {
          "internalType": "bool",
          "name": "",
          "type": "bool"
        }
      ],
      "stateMutability": "view",
      "type": "function"
    },
    {
      "inputs": [],
      "name": "symbol",
      "outputs": [
        {
          "internalType": "string",
          "name": "",
          "type": "string"
        }
      ],
      "stateMutability": "view",
      "type": "function"
    },
    {
      "inputs": [
        {
          "internalType": "uint256",
          "name": "tokenId",
          "type": "uint256"
        }
      ],
      "name": "tokenURI",
      "outputs": [
        {
          "internalType": "string",
          "name": "",
          "type": "string"
        }
      ],
      "stateMutability": "view",
      "type": "function"
    },
    {
      "inputs": [
        {
          "internalType": "address",
          "name": "from",
          "type": "address"
        },
        {
          "internalType": "address",
          "name": "to",
          "type": "address"
        },
        {
          "internalType": "uint256",
          "name": "tokenId",
          "type": "uint256"
        }
      ],
      "name": "transferFrom",
      "outputs": [],
      "stateMutability": "nonpayable",
      "type": "function"
    },
    {
      "inputs": [
        {
          "internalType": "address",
          "name": "newOwner",
          "type": "address"
        }
      ],
      "name": "transferOwnership",
      "outputs": [],
      "stateMutability": "nonpayable",
      "type": "function"
    },
    {
      "inputs": [
        {
          "internalType": "uint256",
          "name": "tokenId",
          "type": "uint256"
        },
        {
          "internalType": "uint256",
          "name": "newRoyalty",
          "type": "uint256"
        }
      ],
      "name": "updateRoyalty",
      "outputs": [],
      "stateMutability": "nonpayable",
      "type": "function"
    }
  ],
  "bytecode": "0x608060405234801561001057600080fd5b5060405161499938038061499983398181016040528101906100329190610322565b336040518060400160405280600781526020017f544844204e4654000000000000000000000000000000000000000000000000008152506040518060400160405280600381526020017f544844000000000000000000000000000000000000000000000000000000000081525081600090816100ae919061059f565b5080600190816100be919061059f565b505050600073ffffffffffffffffffffffffffffffffffffffff168173ffffffffffffffffffffffffffffffffffffffff16036101335760006040517f1e4fbdf700000000000000000000000000000000000000000000000000000000815260040161012a9190610680565b60405180910390fd5b610142816101f960201b60201c565b50600073ffffffffffffffffffffffffffffffffffffffff168173ffffffffffffffffffffffffffffffffffffffff16036101b2576040517f08c379a00000000000000000000000000000000000000000000000000000000081526004016101a99061071e565b60405180910390fd5b80600960006101000a81548173ffffffffffffffffffffffffffffffffffffffff021916908373ffffffffffffffffffffffffffffffffffffffff1602179055505061073e565b6000600760009054906101000a900473ffffffffffffffffffffffffffffffffffffffff16905081600760006101000a81548173ffffffffffffffffffffffffffffffffffffffff021916908373ffffffffffffffffffffffffffffffffffffffff1602179055508173ffffffffffffffffffffffffffffffffffffffff168173ffffffffffffffffffffffffffffffffffffffff167f8be0079c531659141344cd1fd0a4f28419497f9722a3daafe3b4186f6b6457e060405160405180910390a35050565b600080fd5b600073ffffffffffffffffffffffffffffffffffffffff82169050919050565b60006102ef826102c4565b9050919050565b6102ff816102e4565b811461030a57600080fd5b50565b60008151905061031c816102f6565b92915050565b600060208284031215610338576103376102bf565b5b60006103468482850161030d565b91505092915050565b600081519050919050565b7f4e487b7100000000000000000000000000000000000000000000000000000000600052604160045260246000fd5b7f4e487b7100000000000000000000000000000000000000000000000000000000600052602260045260246000fd5b600060028204905060018216806103d057607f821691505b6020821081036103e3576103e2610389565b5b50919050565b60008190508160005260206000209050919050565b60006020601f8301049050919050565b600082821b905092915050565b60006008830261044b7fffffffffffffffffffffffffffffffffffffffffffffffffffffffffffffffff8261040e565b610455868361040e565b95508019841693508086168417925050509392505050565b6000819050919050565b6000819050919050565b600061049c6104976104928461046d565b610477565b61046d565b9050919050565b6000819050919050565b6104b683610481565b6104ca6104c2826104a3565b84845461041b565b825550505050565b600090565b6104df6104d2565b6104ea8184846104ad565b505050565b5b8181101561050e576105036000826104d7565b6001810190506104f0565b5050565b601f82111561055357610524816103e9565b61052d846103fe565b8101602085101561053c578190505b610550610548856103fe565b8301826104ef565b50505b505050565b600082821c905092915050565b600061057660001984600802610558565b1980831691505092915050565b600061058f8383610565565b9150826002028217905092915050565b6105a88261034f565b67ffffffffffffffff8111156105c1576105c061035a565b5b6105cb82546103b8565b6105d6828285610512565b600060209050601f83116001811461060957600084156105f7578287015190505b6106018582610583565b865550610669565b601f198416610617866103e9565b60005b8281101561063f5784890151825560018201915060208501945060208101905061061a565b8683101561065c5784890151610658601f891682610565565b8355505b6001600288020188555050505b505050505050565b61067a816102e4565b82525050565b60006020820190506106956000830184610671565b92915050565b600082825260208201905092915050565b7f4d61726b6574706c61636520616464726573732063616e6e6f74206265207a6560008201527f726f000000000000000000000000000000000000000000000000000000000000602082015250565b600061070860228361069b565b9150610713826106ac565b604082019050919050565b60006020820190508181036000830152610737816106fb565b9050919050565b61424c8061074d6000396000f3fe608060405234801561001057600080fd5b50600436106101a95760003560e01c8063715018a6116100f9578063b47cc55611610097578063c87b56dd11610071578063c87b56dd14610504578063d5c7127514610534578063e985e9c514610564578063f2fde38b14610594576101a9565b8063b47cc556146104ae578063b88d4fde146104ca578063bb8fe785146104e6576101a9565b80638da5cb5b116100d35780638da5cb5b1461042657806395d89b4114610444578063a22cb46514610462578063b39125971461047e576101a9565b8063715018a6146103d05780637539fc5c146103da578063809e06411461040a576101a9565b806323b872dd1161016657806342842e0e1161014057806342842e0e146103245780634ee9c4a5146103405780636352211e1461037057806370a08231146103a0576101a9565b806323b872dd146102a857806332570d7d146102c457806340398d67146102f4576101a9565b806301ffc9a7146101ae578063056b01ce146101de57806306fdde031461020e578063081812fc1461022c578063095ea7b31461025c5780631f35e34714610278575b600080fd5b6101c860048036038101906101c39190612fa9565b6105b0565b6040516101d59190612ff1565b60405180910390f35b6101f860048036038101906101f39190613188565b610611565b60405161020591906131f3565b60405180910390f35b6102166108cf565b604051610223919061328d565b60405180910390f35b610246600480360381019061024191906132af565b610961565b604051610253919061331d565b60405180910390f35b61027660048036038101906102719190613364565b61097d565b005b610292600480360381019061028d91906133a4565b610993565b60405161029f9190613584565b60405180910390f35b6102c260048036038101906102bd91906135a6565b610c69565b005b6102de60048036038101906102d991906132af565b610d6b565b6040516102eb9190613682565b60405180910390f35b61030e600480360381019061030991906133a4565b610f29565b60405161031b9190613753565b60405180910390f35b61033e600480360381019061033991906135a6565b61108a565b005b61035a600480360381019061035591906133a4565b6110aa565b6040516103679190613584565b60405180910390f35b61038a600480360381019061038591906132af565b6113e5565b604051610397919061331d565b60405180910390f35b6103ba60048036038101906103b591906133a4565b6113f7565b6040516103c791906131f3565b60405180910390f35b6103d86114b1565b005b6103f460048036038101906103ef91906132af565b6114c5565b604051610401919061331d565b60405180910390f35b610424600480360381019061041f9190613775565b61154d565b005b61042e611748565b60405161043b919061331d565b60405180910390f35b61044c611772565b604051610459919061328d565b60405180910390f35b61047c600480360381019061047791906137e1565b611804565b005b610498600480360381019061049391906132af565b61181a565b6040516104a591906131f3565b60405180910390f35b6104c860048036038101906104c391906133a4565b611882565b005b6104e460048036038101906104df91906138c2565b6119cc565b005b6104ee6119f1565b6040516104fb919061331d565b60405180910390f35b61051e600480360381019061051991906132af565b611a1b565b60405161052b919061328d565b60405180910390f35b61054e600480360381019061054991906133a4565b611b2e565b60405161055b9190613753565b60405180910390f35b61057e60048036038101906105799190613945565b611cf4565b60405161058b9190612ff1565b60405180910390f35b6105ae60048036038101906105a991906133a4565b611d88565b005b6000634906490660e01b7bffffffffffffffffffffffffffffffffffffffffffffffffffffffff1916827bffffffffffffffffffffffffffffffffffffffffffffffffffffffff1916148061060a575061060982611e0e565b5b9050919050565b600080821015610656576040517f08c379a000000000000000000000000000000000000000000000000000000000815260040161064d906139d1565b60405180910390fd5b606482111561069a576040517f08c379a000000000000000000000000000000000000000000000000000000000815260040161069190613a3d565b60405180910390fd5b600860008154809291906106ad90613a8c565b9190505550600060085490506106c33382611ef0565b6106cd8185611f0e565b6001600a60003373ffffffffffffffffffffffffffffffffffffffff1673ffffffffffffffffffffffffffffffffffffffff168152602001908152602001600020600082825461071d9190613ad4565b925050819055506040518060a001604052808281526020018581526020013373ffffffffffffffffffffffffffffffffffffffff16815260200184815260200142815250600b60008381526020019081526020016000206000820151816000015560208201518160010190816107939190613d14565b5060408201518160020160006101000a81548173ffffffffffffffffffffffffffffffffffffffff021916908373ffffffffffffffffffffffffffffffffffffffff1602179055506060820151816003015560808201518160040155905050600960009054906101000a900473ffffffffffffffffffffffffffffffffffffffff1673ffffffffffffffffffffffffffffffffffffffff163373ffffffffffffffffffffffffffffffffffffffff161461087457610873600960009054906101000a900473ffffffffffffffffffffffffffffffffffffffff168261097d565b5b803373ffffffffffffffffffffffffffffffffffffffff167f7f9dd5d8fa69e733db2277a568b65a9651a3042da18fb2b5ea1966d3891cbfda86426040516108bd929190613de6565b60405180910390a38091505092915050565b6060600080546108de90613b37565b80601f016020809104026020016040519081016040528092919081815260200182805461090a90613b37565b80156109575780601f1061092c57610100808354040283529160200191610957565b820191906000526020600020905b81548152906001019060200180831161093a57829003601f168201915b5050505050905090565b600061096c82611f6a565b5061097682611ff2565b9050919050565b61098f828261098a61202f565b612037565b5050565b606060006109a0836113f7565b905060008103610a0757600067ffffffffffffffff8111156109c5576109c4613027565b5b6040519080825280602002602001820160405280156109fe57816020015b6109eb612edb565b8152602001906001900390816109e35790505b50915050610c64565b60008167ffffffffffffffff811115610a2357610a22613027565b5b604051908082528060200260200182016040528015610a5c57816020015b610a49612edb565b815260200190600190039081610a415790505b5090506000805b600854811015610c5c576000600182610a7c9190613ad4565b90508673ffffffffffffffffffffffffffffffffffffffff16610a9e826113e5565b73ffffffffffffffffffffffffffffffffffffffff1614610abf5750610c4f565b6040518060c00160405280828152602001600b60008481526020019081526020016000206001018054610af190613b37565b80601f0160208091040260200160405190810160405280929190818152602001828054610b1d90613b37565b8015610b6a5780601f10610b3f57610100808354040283529160200191610b6a565b820191906000526020600020905b815481529060010190602001808311610b4d57829003601f168201915b50505050508152602001600b600084815260200190815260200160002060020160009054906101000a900473ffffffffffffffffffffffffffffffffffffffff1673ffffffffffffffffffffffffffffffffffffffff168152602001610bcf836113e5565b73ffffffffffffffffffffffffffffffffffffffff168152602001600b6000848152602001908152602001600020600301548152602001600b600084815260200190815260200160002060040154815250848481518110610c3357610c32613e16565b5b6020026020010181905250600183610c4b9190613ad4565b9250505b8080600101915050610a63565b508193505050505b919050565b600073ffffffffffffffffffffffffffffffffffffffff168273ffffffffffffffffffffffffffffffffffffffff1603610cdb5760006040517f64a0ae92000000000000000000000000000000000000000000000000000000008152600401610cd2919061331d565b60405180910390fd5b6000610cef8383610cea61202f565b612049565b90508373ffffffffffffffffffffffffffffffffffffffff168173ffffffffffffffffffffffffffffffffffffffff1614610d65578382826040517f64283d7b000000000000000000000000000000000000000000000000000000008152600401610d5c93929190613e45565b60405180910390fd5b50505050565b610d73612edb565b610d7c82612263565b610dbb576040517f08c379a0000000000000000000000000000000000000000000000000000000008152600401610db290613ec8565b60405180910390fd5b60006040518060c00160405280848152602001600b60008681526020019081526020016000206001018054610def90613b37565b80601f0160208091040260200160405190810160405280929190818152602001828054610e1b90613b37565b8015610e685780601f10610e3d57610100808354040283529160200191610e68565b820191906000526020600020905b815481529060010190602001808311610e4b57829003601f168201915b50505050508152602001600b600086815260200190815260200160002060020160009054906101000a900473ffffffffffffffffffffffffffffffffffffffff1673ffffffffffffffffffffffffffffffffffffffff168152602001610ecd856113e5565b73ffffffffffffffffffffffffffffffffffffffff168152602001600b6000868152602001908152602001600020600301548152602001600b600086815260200190815260200160002060040154815250905080915050919050565b60606000610f36836113f7565b905060008103610f9257600067ffffffffffffffff811115610f5b57610f5a613027565b5b604051908082528060200260200182016040528015610f895781602001602082028036833780820191505090505b50915050611085565b60008167ffffffffffffffff811115610fae57610fad613027565b5b604051908082528060200260200182016040528015610fdc5781602001602082028036833780820191505090505b5090506000805b60085481101561107d576000600182610ffc9190613ad4565b90508673ffffffffffffffffffffffffffffffffffffffff1661101e826113e5565b73ffffffffffffffffffffffffffffffffffffffff161461103f5750611070565b8084848151811061105357611052613e16565b5b60200260200101818152505060018361106c9190613ad4565b9250505b8080600101915050610fe3565b508193505050505b919050565b6110a5838383604051806020016040528060008152506119cc565b505050565b60606000600a60008473ffffffffffffffffffffffffffffffffffffffff1673ffffffffffffffffffffffffffffffffffffffff1681526020019081526020016000205490506000810361115557600067ffffffffffffffff81111561111357611112613027565b5b60405190808252806020026020018201604052801561114c57816020015b611139612edb565b8152602001906001900390816111315790505b509150506113e0565b60008167ffffffffffffffff81111561117157611170613027565b5b6040519080825280602002602001820160405280156111aa57816020015b611197612edb565b81526020019060019003908161118f5790505b5090506000805b6008548110156113d85760006001826111ca9190613ad4565b90508673ffffffffffffffffffffffffffffffffffffffff16600b600083815260200190815260200160002060020160009054906101000a900473ffffffffffffffffffffffffffffffffffffffff1673ffffffffffffffffffffffffffffffffffffffff161461123b57506113cb565b6040518060c00160405280828152602001600b6000848152602001908152602001600020600101805461126d90613b37565b80601f016020809104026020016040519081016040528092919081815260200182805461129990613b37565b80156112e65780601f106112bb576101008083540402835291602001916112e6565b820191906000526020600020905b8154815290600101906020018083116112c957829003601f168201915b50505050508152602001600b600084815260200190815260200160002060020160009054906101000a900473ffffffffffffffffffffffffffffffffffffffff1673ffffffffffffffffffffffffffffffffffffffff16815260200161134b836113e5565b73ffffffffffffffffffffffffffffffffffffffff168152602001600b6000848152602001908152602001600020600301548152602001600b6000848152602001908152602001600020600401548152508484815181106113af576113ae613e16565b5b60200260200101819052506001836113c79190613ad4565b9250505b80806001019150506111b1565b508193505050505b919050565b60006113f082611f6a565b9050919050565b60008073ffffffffffffffffffffffffffffffffffffffff168273ffffffffffffffffffffffffffffffffffffffff160361146a5760006040517f89c62b64000000000000000000000000000000000000000000000000000000008152600401611461919061331d565b60405180910390fd5b600360008373ffffffffffffffffffffffffffffffffffffffff1673ffffffffffffffffffffffffffffffffffffffff168152602001908152602001600020549050919050565b6114b96122bf565b6114c36000612346565b565b60006114d082612263565b61150f576040517f08c379a000000000000000000000000000000000000000000000000000000000815260040161150690613ec8565b60405180910390fd5b600b600083815260200190815260200160002060020160009054906101000a900473ffffffffffffffffffffffffffffffffffffffff169050919050565b3373ffffffffffffffffffffffffffffffffffffffff1661156d836113e5565b73ffffffffffffffffffffffffffffffffffffffff16146115c3576040517f08c379a00000000000000000000000000000000000000000000000000000000081526004016115ba90613f34565b60405180910390fd5b3373ffffffffffffffffffffffffffffffffffffffff16600b600084815260200190815260200160002060020160009054906101000a900473ffffffffffffffffffffffffffffffffffffffff1673ffffffffffffffffffffffffffffffffffffffff1614611667576040517f08c379a000000000000000000000000000000000000000000000000000000000815260040161165e90613fa0565b60405180910390fd5b60008110156116ab576040517f08c379a00000000000000000000000000000000000000000000000000000000081526004016116a2906139d1565b60405180910390fd5b60648111156116ef576040517f08c379a00000000000000000000000000000000000000000000000000000000081526004016116e690613a3d565b60405180910390fd5b80600b600084815260200190815260200160002060030181905550817f6063f4a05c03aa7c4dae47c9b14a3f4f156d08951bacb3a7e1e825116c0b8ae7824260405161173c929190613fc0565b60405180910390a25050565b6000600760009054906101000a900473ffffffffffffffffffffffffffffffffffffffff16905090565b60606001805461178190613b37565b80601f01602080910402602001604051908101604052809291908181526020018280546117ad90613b37565b80156117fa5780601f106117cf576101008083540402835291602001916117fa565b820191906000526020600020905b8154815290600101906020018083116117dd57829003601f168201915b5050505050905090565b61181661180f61202f565b838361240c565b5050565b600061182582612263565b611864576040517f08c379a000000000000000000000000000000000000000000000000000000000815260040161185b90613ec8565b60405180910390fd5b600b6000838152602001908152602001600020600301549050919050565b61188a6122bf565b600073ffffffffffffffffffffffffffffffffffffffff168173ffffffffffffffffffffffffffffffffffffffff16036118f9576040517f08c379a00000000000000000000000000000000000000000000000000000000081526004016118f09061405b565b60405180910390fd5b80600960006101000a81548173ffffffffffffffffffffffffffffffffffffffff021916908373ffffffffffffffffffffffffffffffffffffffff1602179055506000600190505b60085481116119c857600073ffffffffffffffffffffffffffffffffffffffff1661196b8261257b565b73ffffffffffffffffffffffffffffffffffffffff16146119b5576119b4600960009054906101000a900473ffffffffffffffffffffffffffffffffffffffff16826000612037565b5b80806119c090613a8c565b915050611941565b5050565b6119d7848484610c69565b6119eb6119e261202f565b858585856125b8565b50505050565b6000600960009054906101000a900473ffffffffffffffffffffffffffffffffffffffff16905090565b6060611a2682611f6a565b506000600660008481526020019081526020016000208054611a4790613b37565b80601f0160208091040260200160405190810160405280929190818152602001828054611a7390613b37565b8015611ac05780601f10611a9557610100808354040283529160200191611ac0565b820191906000526020600020905b815481529060010190602001808311611aa357829003601f168201915b505050505090506000611ad1612769565b90506000815103611ae6578192505050611b29565b600082511115611b1b578082604051602001611b039291906140b7565b60405160208183030381529060405292505050611b29565b611b2484612780565b925050505b919050565b60606000600a60008473ffffffffffffffffffffffffffffffffffffffff1673ffffffffffffffffffffffffffffffffffffffff16815260200190815260200160002054905060008103611bce57600067ffffffffffffffff811115611b9757611b96613027565b5b604051908082528060200260200182016040528015611bc55781602001602082028036833780820191505090505b50915050611cef565b60008167ffffffffffffffff811115611bea57611be9613027565b5b604051908082528060200260200182016040528015611c185781602001602082028036833780820191505090505b5090506000805b600854811015611ce7576000600182611c389190613ad4565b90508673ffffffffffffffffffffffffffffffffffffffff16600b600083815260200190815260200160002060020160009054906101000a900473ffffffffffffffffffffffffffffffffffffffff1673ffffffffffffffffffffffffffffffffffffffff1614611ca95750611cda565b80848481518110611cbd57611cbc613e16565b5b602002602001018181525050600183611cd69190613ad4565b9250505b8080600101915050611c1f565b508193505050505b919050565b6000600560008473ffffffffffffffffffffffffffffffffffffffff1673ffffffffffffffffffffffffffffffffffffffff16815260200190815260200160002060008373ffffffffffffffffffffffffffffffffffffffff1673ffffffffffffffffffffffffffffffffffffffff16815260200190815260200160002060009054906101000a900460ff16905092915050565b611d906122bf565b600073ffffffffffffffffffffffffffffffffffffffff168173ffffffffffffffffffffffffffffffffffffffff1603611e025760006040517f1e4fbdf7000000000000000000000000000000000000000000000000000000008152600401611df9919061331d565b60405180910390fd5b611e0b81612346565b50565b60007f80ac58cd000000000000000000000000000000000000000000000000000000007bffffffffffffffffffffffffffffffffffffffffffffffffffffffff1916827bffffffffffffffffffffffffffffffffffffffffffffffffffffffff19161480611ed957507f5b5e139f000000000000000000000000000000000000000000000000000000007bffffffffffffffffffffffffffffffffffffffffffffffffffffffff1916827bffffffffffffffffffffffffffffffffffffffffffffffffffffffff1916145b80611ee95750611ee8826127e9565b5b9050919050565b611f0a828260405180602001604052806000815250612853565b5050565b80600660008481526020019081526020016000209081611f2e9190613d14565b507ff8e1a15aba9398e019f0b49df1a4fde98ee17ae345cb5f6b5e2c27f5033e8ce782604051611f5e91906131f3565b60405180910390a15050565b600080611f768361257b565b9050600073ffffffffffffffffffffffffffffffffffffffff168173ffffffffffffffffffffffffffffffffffffffff1603611fe957826040517f7e273289000000000000000000000000000000000000000000000000000000008152600401611fe091906131f3565b60405180910390fd5b80915050919050565b60006004600083815260200190815260200160002060009054906101000a900473ffffffffffffffffffffffffffffffffffffffff169050919050565b600033905090565b6120448383836001612877565b505050565b6000806120558461257b565b9050600073ffffffffffffffffffffffffffffffffffffffff168373ffffffffffffffffffffffffffffffffffffffff161461209757612096818486612a3c565b5b600073ffffffffffffffffffffffffffffffffffffffff168173ffffffffffffffffffffffffffffffffffffffff1614612128576120d9600085600080612877565b6001600360008373ffffffffffffffffffffffffffffffffffffffff1673ffffffffffffffffffffffffffffffffffffffff168152602001908152602001600020600082825403925050819055505b600073ffffffffffffffffffffffffffffffffffffffff168573ffffffffffffffffffffffffffffffffffffffff16146121ab576001600360008773ffffffffffffffffffffffffffffffffffffffff1673ffffffffffffffffffffffffffffffffffffffff168152602001908152602001600020600082825401925050819055505b846002600086815260200190815260200160002060006101000a81548173ffffffffffffffffffffffffffffffffffffffff021916908373ffffffffffffffffffffffffffffffffffffffff160217905550838573ffffffffffffffffffffffffffffffffffffffff168273ffffffffffffffffffffffffffffffffffffffff167fddf252ad1be2c89b69c2b068fc378daa952ba7f163c4a11628f55a4df523b3ef60405160405180910390a4809150509392505050565b600081600854101580156122775750600082115b80156122b85750600073ffffffffffffffffffffffffffffffffffffffff1661229f836113e5565b73ffffffffffffffffffffffffffffffffffffffff1614155b9050919050565b6122c761202f565b73ffffffffffffffffffffffffffffffffffffffff166122e5611748565b73ffffffffffffffffffffffffffffffffffffffff16146123445761230861202f565b6040517f118cdaa700000000000000000000000000000000000000000000000000000000815260040161233b919061331d565b60405180910390fd5b565b6000600760009054906101000a900473ffffffffffffffffffffffffffffffffffffffff16905081600760006101000a81548173ffffffffffffffffffffffffffffffffffffffff021916908373ffffffffffffffffffffffffffffffffffffffff1602179055508173ffffffffffffffffffffffffffffffffffffffff168173ffffffffffffffffffffffffffffffffffffffff167f8be0079c531659141344cd1fd0a4f28419497f9722a3daafe3b4186f6b6457e060405160405180910390a35050565b600073ffffffffffffffffffffffffffffffffffffffff168273ffffffffffffffffffffffffffffffffffffffff160361247d57816040517f5b08ba18000000000000000000000000000000000000000000000000000000008152600401612474919061331d565b60405180910390fd5b80600560008573ffffffffffffffffffffffffffffffffffffffff1673ffffffffffffffffffffffffffffffffffffffff16815260200190815260200160002060008473ffffffffffffffffffffffffffffffffffffffff1673ffffffffffffffffffffffffffffffffffffffff16815260200190815260200160002060006101000a81548160ff0219169083151502179055508173ffffffffffffffffffffffffffffffffffffffff168373ffffffffffffffffffffffffffffffffffffffff167f17307eab39ab6107e8899845ad3d59bd9653f200f220920489ca2b5937696c318360405161256e9190612ff1565b60405180910390a3505050565b60006002600083815260200190815260200160002060009054906101000a900473ffffffffffffffffffffffffffffffffffffffff169050919050565b60008373ffffffffffffffffffffffffffffffffffffffff163b1115612762578273ffffffffffffffffffffffffffffffffffffffff1663150b7a02868685856040518563ffffffff1660e01b81526004016126179493929190614130565b6020604051808303816000875af192505050801561265357506040513d601f19601f820116820180604052508101906126509190614191565b60015b6126d7573d8060008114612683576040519150601f19603f3d011682016040523d82523d6000602084013e612688565b606091505b5060008151036126cf57836040517f64a0ae920000000000000000000000000000000000000000000000000000000081526004016126c6919061331d565b60405180910390fd5b805181602001fd5b63150b7a0260e01b7bffffffffffffffffffffffffffffffffffffffffffffffffffffffff1916817bffffffffffffffffffffffffffffffffffffffffffffffffffffffff19161461276057836040517f64a0ae92000000000000000000000000000000000000000000000000000000008152600401612757919061331d565b60405180910390fd5b505b5050505050565b606060405180602001604052806000815250905090565b606061278b82611f6a565b506000612796612769565b905060008151116127b657604051806020016040528060008152506127e1565b806127c084612b00565b6040516020016127d19291906140b7565b6040516020818303038152906040525b915050919050565b60007f01ffc9a7000000000000000000000000000000000000000000000000000000007bffffffffffffffffffffffffffffffffffffffffffffffffffffffff1916827bffffffffffffffffffffffffffffffffffffffffffffffffffffffff1916149050919050565b61285d8383612bce565b61287261286861202f565b60008585856125b8565b505050565b80806128b05750600073ffffffffffffffffffffffffffffffffffffffff168273ffffffffffffffffffffffffffffffffffffffff1614155b156129e45760006128c084611f6a565b9050600073ffffffffffffffffffffffffffffffffffffffff168373ffffffffffffffffffffffffffffffffffffffff161415801561292b57508273ffffffffffffffffffffffffffffffffffffffff168173ffffffffffffffffffffffffffffffffffffffff1614155b801561293e575061293c8184611cf4565b155b1561298057826040517fa9fbf51f000000000000000000000000000000000000000000000000000000008152600401612977919061331d565b60405180910390fd5b81156129e257838573ffffffffffffffffffffffffffffffffffffffff168273ffffffffffffffffffffffffffffffffffffffff167f8c5be1e5ebec7d5bd14f71427d1e84f3dd0314c0f7b2291e5b200ac8c7c3b92560405160405180910390a45b505b836004600085815260200190815260200160002060006101000a81548173ffffffffffffffffffffffffffffffffffffffff021916908373ffffffffffffffffffffffffffffffffffffffff16021790555050505050565b612a47838383612cc7565b612afb57600073ffffffffffffffffffffffffffffffffffffffff168373ffffffffffffffffffffffffffffffffffffffff1603612abc57806040517f7e273289000000000000000000000000000000000000000000000000000000008152600401612ab391906131f3565b60405180910390fd5b81816040517f177e802f000000000000000000000000000000000000000000000000000000008152600401612af29291906141be565b60405180910390fd5b505050565b606060006001612b0f84612d88565b01905060008167ffffffffffffffff811115612b2e57612b2d613027565b5b6040519080825280601f01601f191660200182016040528015612b605781602001600182028036833780820191505090505b509050600082602001820190505b600115612bc3578080600190039150507f3031323334353637383961626364656600000000000000000000000000000000600a86061a8153600a8581612bb757612bb66141e7565b5b04945060008503612b6e575b819350505050919050565b600073ffffffffffffffffffffffffffffffffffffffff168273ffffffffffffffffffffffffffffffffffffffff1603612c405760006040517f64a0ae92000000000000000000000000000000000000000000000000000000008152600401612c37919061331d565b60405180910390fd5b6000612c4e83836000612049565b9050600073ffffffffffffffffffffffffffffffffffffffff168173ffffffffffffffffffffffffffffffffffffffff1614612cc25760006040517f73c6ac6e000000000000000000000000000000000000000000000000000000008152600401612cb9919061331d565b60405180910390fd5b505050565b60008073ffffffffffffffffffffffffffffffffffffffff168373ffffffffffffffffffffffffffffffffffffffff1614158015612d7f57508273ffffffffffffffffffffffffffffffffffffffff168473ffffffffffffffffffffffffffffffffffffffff161480612d405750612d3f8484611cf4565b5b80612d7e57508273ffffffffffffffffffffffffffffffffffffffff16612d6683611ff2565b73ffffffffffffffffffffffffffffffffffffffff16145b5b90509392505050565b600080600090507a184f03e93ff9f4daa797ed6e38ed64bf6a1f0100000000000000008310612de6577a184f03e93ff9f4daa797ed6e38ed64bf6a1f0100000000000000008381612ddc57612ddb6141e7565b5b0492506040810190505b6d04ee2d6d415b85acef81000000008310612e23576d04ee2d6d415b85acef81000000008381612e1957612e186141e7565b5b0492506020810190505b662386f26fc100008310612e5257662386f26fc100008381612e4857612e476141e7565b5b0492506010810190505b6305f5e1008310612e7b576305f5e1008381612e7157612e706141e7565b5b0492506008810190505b6127108310612ea0576127108381612e9657612e956141e7565b5b0492506004810190505b60648310612ec35760648381612eb957612eb86141e7565b5b0492506002810190505b600a8310612ed2576001810190505b80915050919050565b6040518060c001604052806000815260200160608152602001600073ffffffffffffffffffffffffffffffffffffffff168152602001600073ffffffffffffffffffffffffffffffffffffffff16815260200160008152602001600081525090565b6000604051905090565b600080fd5b600080fd5b60007fffffffff0000000000000000000000000000000000000000000000000000000082169050919050565b612f8681612f51565b8114612f9157600080fd5b50565b600081359050612fa381612f7d565b92915050565b600060208284031215612fbf57612fbe612f47565b5b6000612fcd84828501612f94565b91505092915050565b60008115159050919050565b612feb81612fd6565b82525050565b60006020820190506130066000830184612fe2565b92915050565b600080fd5b600080fd5b6000601f19601f8301169050919050565b7f4e487b7100000000000000000000000000000000000000000000000000000000600052604160045260246000fd5b61305f82613016565b810181811067ffffffffffffffff8211171561307e5761307d613027565b5b80604052505050565b6000613091612f3d565b905061309d8282613056565b919050565b600067ffffffffffffffff8211156130bd576130bc613027565b5b6130c682613016565b9050602081019050919050565b82818337600083830152505050565b60006130f56130f0846130a2565b613087565b90508281526020810184848401111561311157613110613011565b5b61311c8482856130d3565b509392505050565b600082601f8301126131395761313861300c565b5b81356131498482602086016130e2565b91505092915050565b6000819050919050565b61316581613152565b811461317057600080fd5b50565b6000813590506131828161315c565b92915050565b6000806040838503121561319f5761319e612f47565b5b600083013567ffffffffffffffff8111156131bd576131bc612f4c565b5b6131c985828601613124565b92505060206131da85828601613173565b9150509250929050565b6131ed81613152565b82525050565b600060208201905061320860008301846131e4565b92915050565b600081519050919050565b600082825260208201905092915050565b60005b8381101561324857808201518184015260208101905061322d565b60008484015250505050565b600061325f8261320e565b6132698185613219565b935061327981856020860161322a565b61328281613016565b840191505092915050565b600060208201905081810360008301526132a78184613254565b905092915050565b6000602082840312156132c5576132c4612f47565b5b60006132d384828501613173565b91505092915050565b600073ffffffffffffffffffffffffffffffffffffffff82169050919050565b6000613307826132dc565b9050919050565b613317816132fc565b82525050565b6000602082019050613332600083018461330e565b92915050565b613341816132fc565b811461334c57600080fd5b50565b60008135905061335e81613338565b92915050565b6000806040838503121561337b5761337a612f47565b5b60006133898582860161334f565b925050602061339a85828601613173565b9150509250929050565b6000602082840312156133ba576133b9612f47565b5b60006133c88482850161334f565b91505092915050565b600081519050919050565b600082825260208201905092915050565b6000819050602082019050919050565b61340681613152565b82525050565b600082825260208201905092915050565b60006134288261320e565b613432818561340c565b935061344281856020860161322a565b61344b81613016565b840191505092915050565b61345f816132fc565b82525050565b600060c08301600083015161347d60008601826133fd565b5060208301518482036020860152613495828261341d565b91505060408301516134aa6040860182613456565b5060608301516134bd6060860182613456565b5060808301516134d060808601826133fd565b5060a08301516134e360a08601826133fd565b508091505092915050565b60006134fa8383613465565b905092915050565b6000602082019050919050565b600061351a826133d1565b61352481856133dc565b935083602082028501613536856133ed565b8060005b85811015613572578484038952815161355385826134ee565b945061355e83613502565b925060208a0199505060018101905061353a565b50829750879550505050505092915050565b6000602082019050818103600083015261359e818461350f565b905092915050565b6000806000606084860312156135bf576135be612f47565b5b60006135cd8682870161334f565b93505060206135de8682870161334f565b92505060406135ef86828701613173565b9150509250925092565b600060c08301600083015161361160008601826133fd565b5060208301518482036020860152613629828261341d565b915050604083015161363e6040860182613456565b5060608301516136516060860182613456565b50608083015161366460808601826133fd565b5060a083015161367760a08601826133fd565b508091505092915050565b6000602082019050818103600083015261369c81846135f9565b905092915050565b600081519050919050565b600082825260208201905092915050565b6000819050602082019050919050565b60006136dc83836133fd565b60208301905092915050565b6000602082019050919050565b6000613700826136a4565b61370a81856136af565b9350613715836136c0565b8060005b8381101561374657815161372d88826136d0565b9750613738836136e8565b925050600181019050613719565b5085935050505092915050565b6000602082019050818103600083015261376d81846136f5565b905092915050565b6000806040838503121561378c5761378b612f47565b5b600061379a85828601613173565b92505060206137ab85828601613173565b9150509250929050565b6137be81612fd6565b81146137c957600080fd5b50565b6000813590506137db816137b5565b92915050565b600080604083850312156137f8576137f7612f47565b5b60006138068582860161334f565b9250506020613817858286016137cc565b9150509250929050565b600067ffffffffffffffff82111561383c5761383b613027565b5b61384582613016565b9050602081019050919050565b600061386561386084613821565b613087565b90508281526020810184848401111561388157613880613011565b5b61388c8482856130d3565b509392505050565b600082601f8301126138a9576138a861300c565b5b81356138b9848260208601613852565b91505092915050565b600080600080608085870312156138dc576138db612f47565b5b60006138ea8782880161334f565b94505060206138fb8782880161334f565b935050604061390c87828801613173565b925050606085013567ffffffffffffffff81111561392d5761392c612f4c565b5b61393987828801613894565b91505092959194509250565b6000806040838503121561395c5761395b612f47565b5b600061396a8582860161334f565b925050602061397b8582860161334f565b9150509250929050565b7f526f79616c7479206d757374206265206e6f6e2d6e6567617469766500000000600082015250565b60006139bb601c83613219565b91506139c682613985565b602082019050919050565b600060208201905081810360008301526139ea816139ae565b9050919050565b7f526f79616c7479206665652063616e6e6f742065786365656420313030250000600082015250565b6000613a27601e83613219565b9150613a32826139f1565b602082019050919050565b60006020820190508181036000830152613a5681613a1a565b9050919050565b7f4e487b7100000000000000000000000000000000000000000000000000000000600052601160045260246000fd5b6000613a9782613152565b91507fffffffffffffffffffffffffffffffffffffffffffffffffffffffffffffffff8203613ac957613ac8613a5d565b5b600182019050919050565b6000613adf82613152565b9150613aea83613152565b9250828201905080821115613b0257613b01613a5d565b5b92915050565b7f4e487b7100000000000000000000000000000000000000000000000000000000600052602260045260246000fd5b60006002820490506001821680613b4f57607f821691505b602082108103613b6257613b61613b08565b5b50919050565b60008190508160005260206000209050919050565b60006020601f8301049050919050565b600082821b905092915050565b600060088302613bca7fffffffffffffffffffffffffffffffffffffffffffffffffffffffffffffffff82613b8d565b613bd48683613b8d565b95508019841693508086168417925050509392505050565b6000819050919050565b6000613c11613c0c613c0784613152565b613bec565b613152565b9050919050565b6000819050919050565b613c2b83613bf6565b613c3f613c3782613c18565b848454613b9a565b825550505050565b600090565b613c54613c47565b613c5f818484613c22565b505050565b5b81811015613c8357613c78600082613c4c565b600181019050613c65565b5050565b601f821115613cc857613c9981613b68565b613ca284613b7d565b81016020851015613cb1578190505b613cc5613cbd85613b7d565b830182613c64565b50505b505050565b600082821c905092915050565b6000613ceb60001984600802613ccd565b1980831691505092915050565b6000613d048383613cda565b9150826002028217905092915050565b613d1d8261320e565b67ffffffffffffffff811115613d3657613d35613027565b5b613d408254613b37565b613d4b828285613c87565b600060209050601f831160018114613d7e5760008415613d6c578287015190505b613d768582613cf8565b865550613dde565b601f198416613d8c86613b68565b60005b82811015613db457848901518255600182019150602085019450602081019050613d8f565b86831015613dd15784890151613dcd601f891682613cda565b8355505b6001600288020188555050505b505050505050565b60006040820190508181036000830152613e008185613254565b9050613e0f60208301846131e4565b9392505050565b7f4e487b7100000000000000000000000000000000000000000000000000000000600052603260045260246000fd5b6000606082019050613e5a600083018661330e565b613e6760208301856131e4565b613e74604083018461330e565b949350505050565b7f546f6b656e20646f6573206e6f74206578697374000000000000000000000000600082015250565b6000613eb2601483613219565b9150613ebd82613e7c565b602082019050919050565b60006020820190508181036000830152613ee181613ea5565b9050919050565b7f4e6f7420746f6b656e206f776e65720000000000000000000000000000000000600082015250565b6000613f1e600f83613219565b9150613f2982613ee8565b602082019050919050565b60006020820190508181036000830152613f4d81613f11565b9050919050565b7f4e6f742063726561746f72000000000000000000000000000000000000000000600082015250565b6000613f8a600b83613219565b9150613f9582613f54565b602082019050919050565b60006020820190508181036000830152613fb981613f7d565b9050919050565b6000604082019050613fd560008301856131e4565b613fe260208301846131e4565b9392505050565b7f4d61726b6574706c61636520616464726573732063616e6e6f74206265207a6560008201527f726f000000000000000000000000000000000000000000000000000000000000602082015250565b6000614045602283613219565b915061405082613fe9565b604082019050919050565b6000602082019050818103600083015261407481614038565b9050919050565b600081905092915050565b60006140918261320e565b61409b818561407b565b93506140ab81856020860161322a565b80840191505092915050565b60006140c38285614086565b91506140cf8284614086565b91508190509392505050565b600081519050919050565b600082825260208201905092915050565b6000614102826140db565b61410c81856140e6565b935061411c81856020860161322a565b61412581613016565b840191505092915050565b6000608082019050614145600083018761330e565b614152602083018661330e565b61415f60408301856131e4565b818103606083015261417181846140f7565b905095945050505050565b60008151905061418b81612f7d565b92915050565b6000602082840312156141a7576141a6612f47565b5b60006141b58482850161417c565b91505092915050565b60006040820190506141d3600083018561330e565b6141e060208301846131e4565b9392505050565b7f4e487b7100000000000000000000000000000000000000000000000000000000600052601260045260246000fdfea264697066735822122001500bc47e960ddb392caf71c2e48e94aff1eb3577c5c2bf6580f8432a6ba5a164736f6c634300081c0033",
  "linkReferences": {},
  "deployedLinkReferences": {}
}