{
  "_format": "hh-sol-artifact-1",
  "contractName": "NFTMarketplacev2",
  "sourceName": "contracts/NFTMarketplacev2.sol",
  "abi": [
    {
      "inputs": [],
      "stateMutability": "nonpayable",
      "type": "constructor"
    },
    {
      "inputs": [
        {
          "internalType": "address",
          "name": "owner",
          "type": "address"
        }
      ],
      "name": "OwnableInvalidOwner",
      "type": "error"
    },
    {
      "inputs": [
        {
          "internalType": "address",
          "name": "account",
          "type": "address"
        }
      ],
      "name": "OwnableUnauthorizedAccount",
      "type": "error"
    },
    {
      "inputs": [],
      "name": "ReentrancyGuardReentrantCall",
      "type": "error"
    },
    {
      "anonymous": false,
      "inputs": [
        {
          "indexed": false,
          "internalType": "uint256",
          "name": "amount",
          "type": "uint256"
        },
        {
          "indexed": false,
          "internalType": "uint256",
          "name": "timestamp",
          "type": "uint256"
        }
      ],
      "name": "FeeWithdrawn",
      "type": "event"
    },
    {
      "anonymous": false,
      "inputs": [
        {
          "indexed": true,
          "internalType": "address",
          "name": "nft",
          "type": "address"
        },
        {
          "indexed": true,
          "internalType": "uint256",
          "name": "tokenId",
          "type": "uint256"
        },
        {
          "indexed": false,
          "internalType": "uint256",
          "name": "timestamp",
          "type": "uint256"
        }
      ],
      "name": "ItemCanceled",
      "type": "event"
    },
    {
      "anonymous": false,
      "inputs": [
        {
          "indexed": true,
          "internalType": "address",
          "name": "nft",
          "type": "address"
        },
        {
          "indexed": true,
          "internalType": "uint256",
          "name": "tokenId",
          "type": "uint256"
        },
        {
          "indexed": true,
          "internalType": "address",
          "name": "seller",
          "type": "address"
        },
        {
          "indexed": false,
          "internalType": "uint256",
          "name": "price",
          "type": "uint256"
        },
        {
          "indexed": false,
          "internalType": "uint256",
          "name": "timestamp",
          "type": "uint256"
        }
      ],
      "name": "ItemListed",
      "type": "event"
    },
    {
      "anonymous": false,
      "inputs": [
        {
          "indexed": true,
          "internalType": "address",
          "name": "nft",
          "type": "address"
        },
        {
          "indexed": true,
          "internalType": "uint256",
          "name": "tokenId",
          "type": "uint256"
        },
        {
          "indexed": false,
          "internalType": "address",
          "name": "seller",
          "type": "address"
        },
        {
          "indexed": false,
          "internalType": "address",
          "name": "buyer",
          "type": "address"
        },
        {
          "indexed": false,
          "internalType": "uint256",
          "name": "price",
          "type": "uint256"
        },
        {
          "indexed": false,
          "internalType": "uint256",
          "name": "timestamp",
          "type": "uint256"
        }
      ],
      "name": "ItemSold",
      "type": "event"
    },
    {
      "anonymous": false,
      "inputs": [
        {
          "indexed": false,
          "internalType": "uint256",
          "name": "newFee",
          "type": "uint256"
        },
        {
          "indexed": false,
          "internalType": "uint256",
          "name": "timestamp",
          "type": "uint256"
        }
      ],
      "name": "ListingFeeUpdated",
      "type": "event"
    },
    {
      "anonymous": false,
      "inputs": [
        {
          "indexed": true,
          "internalType": "address",
          "name": "nft",
          "type": "address"
        },
        {
          "indexed": true,
          "internalType": "uint256",
          "name": "tokenId",
          "type": "uint256"
        },
        {
          "indexed": false,
          "internalType": "address",
          "name": "seller",
          "type": "address"
        },
        {
          "indexed": false,
          "internalType": "uint256",
          "name": "newPrice",
          "type": "uint256"
        },
        {
          "indexed": false,
          "internalType": "uint256",
          "name": "timestamp",
          "type": "uint256"
        }
      ],
      "name": "ListingUpdated",
      "type": "event"
    },
    {
      "anonymous": false,
      "inputs": [
        {
          "indexed": true,
          "internalType": "address",
          "name": "previousOwner",
          "type": "address"
        },
        {
          "indexed": true,
          "internalType": "address",
          "name": "newOwner",
          "type": "address"
        }
      ],
      "name": "OwnershipTransferred",
      "type": "event"
    },
    {
      "inputs": [
        {
          "internalType": "address",
          "name": "nft",
          "type": "address"
        },
        {
          "internalType": "uint256",
          "name": "tokenId",
          "type": "uint256"
        }
      ],
      "name": "buyItem",
      "outputs": [],
      "stateMutability": "payable",
      "type": "function"
    },
    {
      "inputs": [
        {
          "internalType": "address",
          "name": "nft",
          "type": "address"
        },
        {
          "internalType": "uint256",
          "name": "tokenId",
          "type": "uint256"
        }
      ],
      "name": "cancelListing",
      "outputs": [],
      "stateMutability": "nonpayable",
      "type": "function"
    },
    {
      "inputs": [],
      "name": "getAllListings",
      "outputs": [
        {
          "components": [
            {
              "internalType": "address",
              "name": "nft",
              "type": "address"
            },
            {
              "internalType": "uint256",
              "name": "tokenId",
              "type": "uint256"
            },
            {
              "internalType": "address",
              "name": "seller",
              "type": "address"
            },
            {
              "internalType": "uint256",
              "name": "price",
              "type": "uint256"
            },
            {
              "internalType": "uint256",
              "name": "listedAt",
              "type": "uint256"
            },
            {
              "internalType": "uint256",
              "name": "updatedAt",
              "type": "uint256"
            },
            {
              "internalType": "uint256",
              "name": "canceledAt",
              "type": "uint256"
            },
            {
              "internalType": "uint256",
              "name": "soldAt",
              "type": "uint256"
            },
            {
              "internalType": "address",
              "name": "buyer",
              "type": "address"
            }
          ],
          "internalType": "struct NFTMarketplacev2.ListingLogInfo[]",
          "name": "",
          "type": "tuple[]"
        }
      ],
      "stateMutability": "view",
      "type": "function"
    },
    {
      "inputs": [
        {
          "internalType": "address",
          "name": "nft",
          "type": "address"
        },
        {
          "internalType": "uint256",
          "name": "tokenId",
          "type": "uint256"
        }
      ],
      "name": "getHistoricalTransaction",
      "outputs": [
        {
          "components": [
            {
              "internalType": "uint256",
              "name": "blockOfFirstTransaction",
              "type": "uint256"
            },
            {
              "internalType": "uint256",
              "name": "blockOfLastTransaction",
              "type": "uint256"
            },
            {
              "internalType": "uint256",
              "name": "firstTransactionTimestamp",
              "type": "uint256"
            },
            {
              "internalType": "uint256",
              "name": "lastTransactionTimestamp",
              "type": "uint256"
            },
            {
              "internalType": "uint256",
              "name": "transactionCount",
              "type": "uint256"
            }
          ],
          "internalType": "struct NFTMarketplacev2.HistoricalTransaction",
          "name": "",
          "type": "tuple"
        }
      ],
      "stateMutability": "view",
      "type": "function"
    },
    {
      "inputs": [
        {
          "internalType": "address",
          "name": "nft",
          "type": "address"
        },
        {
          "internalType": "uint256",
          "name": "tokenId",
          "type": "uint256"
        }
      ],
      "name": "getHistoryTransactionsByNFT",
      "outputs": [
        {
          "components": [
            {
              "internalType": "address",
              "name": "nft",
              "type": "address"
            },
            {
              "internalType": "uint256",
              "name": "tokenId",
              "type": "uint256"
            },
            {
              "internalType": "address",
              "name": "seller",
              "type": "address"
            },
            {
              "internalType": "uint256",
              "name": "price",
              "type": "uint256"
            },
            {
              "internalType": "uint256",
              "name": "listedAt",
              "type": "uint256"
            },
            {
              "internalType": "uint256",
              "name": "updatedAt",
              "type": "uint256"
            },
            {
              "internalType": "uint256",
              "name": "canceledAt",
              "type": "uint256"
            },
            {
              "internalType": "uint256",
              "name": "soldAt",
              "type": "uint256"
            },
            {
              "internalType": "address",
              "name": "buyer",
              "type": "address"
            }
          ],
          "internalType": "struct NFTMarketplacev2.ListingLogInfo[]",
          "name": "",
          "type": "tuple[]"
        }
      ],
      "stateMutability": "view",
      "type": "function"
    },
    {
      "inputs": [
        {
          "internalType": "address",
          "name": "nft",
          "type": "address"
        },
        {
          "internalType": "uint256",
          "name": "tokenId",
          "type": "uint256"
        }
      ],
      "name": "getLastSoldPrice",
      "outputs": [
        {
          "internalType": "uint256",
          "name": "",
          "type": "uint256"
        }
      ],
      "stateMutability": "view",
      "type": "function"
    },
    {
      "inputs": [
        {
          "internalType": "uint256",
          "name": "limit",
          "type": "uint256"
        },
        {
          "internalType": "uint256",
          "name": "offset",
          "type": "uint256"
        }
      ],
      "name": "getLatestListings",
      "outputs": [
        {
          "components": [
            {
              "internalType": "address",
              "name": "nft",
              "type": "address"
            },
            {
              "internalType": "uint256",
              "name": "tokenId",
              "type": "uint256"
            },
            {
              "internalType": "address",
              "name": "seller",
              "type": "address"
            },
            {
              "internalType": "uint256",
              "name": "price",
              "type": "uint256"
            },
            {
              "internalType": "uint256",
              "name": "listedAt",
              "type": "uint256"
            },
            {
              "internalType": "uint256",
              "name": "updatedAt",
              "type": "uint256"
            },
            {
              "internalType": "uint256",
              "name": "canceledAt",
              "type": "uint256"
            },
            {
              "internalType": "uint256",
              "name": "soldAt",
              "type": "uint256"
            },
            {
              "internalType": "address",
              "name": "buyer",
              "type": "address"
            }
          ],
          "internalType": "struct NFTMarketplacev2.ListingLogInfo[]",
          "name": "",
          "type": "tuple[]"
        }
      ],
      "stateMutability": "view",
      "type": "function"
    },
    {
      "inputs": [
        {
          "internalType": "address",
          "name": "nft",
          "type": "address"
        },
        {
          "internalType": "uint256",
          "name": "tokenId",
          "type": "uint256"
        }
      ],
      "name": "getListingById",
      "outputs": [
        {
          "components": [
            {
              "internalType": "address",
              "name": "nft",
              "type": "address"
            },
            {
              "internalType": "uint256",
              "name": "tokenId",
              "type": "uint256"
            },
            {
              "internalType": "address",
              "name": "seller",
              "type": "address"
            },
            {
              "internalType": "uint256",
              "name": "price",
              "type": "uint256"
            },
            {
              "internalType": "uint256",
              "name": "listedAt",
              "type": "uint256"
            },
            {
              "internalType": "uint256",
              "name": "updatedAt",
              "type": "uint256"
            }
          ],
          "internalType": "struct NFTMarketplacev2.Listing",
          "name": "",
          "type": "tuple"
        }
      ],
      "stateMutability": "view",
      "type": "function"
    },
    {
      "inputs": [],
      "name": "getListingFee",
      "outputs": [
        {
          "internalType": "uint256",
          "name": "",
          "type": "uint256"
        }
      ],
      "stateMutability": "view",
      "type": "function"
    },
    {
      "inputs": [
        {
          "internalType": "address",
          "name": "seller",
          "type": "address"
        }
      ],
      "name": "getListingsBySeller",
      "outputs": [
        {
          "components": [
            {
              "internalType": "address",
              "name": "nft",
              "type": "address"
            },
            {
              "internalType": "uint256",
              "name": "tokenId",
              "type": "uint256"
            },
            {
              "internalType": "address",
              "name": "seller",
              "type": "address"
            },
            {
              "internalType": "uint256",
              "name": "price",
              "type": "uint256"
            },
            {
              "internalType": "uint256",
              "name": "listedAt",
              "type": "uint256"
            },
            {
              "internalType": "uint256",
              "name": "updatedAt",
              "type": "uint256"
            }
          ],
          "internalType": "struct NFTMarketplacev2.Listing[]",
          "name": "",
          "type": "tuple[]"
        }
      ],
      "stateMutability": "view",
      "type": "function"
    },
    {
      "inputs": [
        {
          "internalType": "address",
          "name": "nft",
          "type": "address"
        },
        {
          "internalType": "address",
          "name": "creator",
          "type": "address"
        }
      ],
      "name": "getTotalRoyaltyFeesByCreator",
      "outputs": [
        {
          "components": [
            {
              "internalType": "uint256",
              "name": "tokenId",
              "type": "uint256"
            },
            {
              "internalType": "uint256",
              "name": "totalRoyaltyFee",
              "type": "uint256"
            }
          ],
          "internalType": "struct NFTMarketplacev2.RoyaltyInfo[]",
          "name": "",
          "type": "tuple[]"
        }
      ],
      "stateMutability": "view",
      "type": "function"
    },
    {
      "inputs": [
        {
          "internalType": "address",
          "name": "nft",
          "type": "address"
        },
        {
          "internalType": "address",
          "name": "creator",
          "type": "address"
        },
        {
          "internalType": "uint256",
          "name": "tokenId",
          "type": "uint256"
        }
      ],
      "name": "getTotalRoyaltyFeesByCreatorAndToken",
      "outputs": [
        {
          "internalType": "uint256",
          "name": "",
          "type": "uint256"
        }
      ],
      "stateMutability": "view",
      "type": "function"
    },
    {
      "inputs": [
        {
          "internalType": "address",
          "name": "nft",
          "type": "address"
        },
        {
          "internalType": "uint256",
          "name": "tokenId",
          "type": "uint256"
        },
        {
          "internalType": "uint256",
          "name": "price",
          "type": "uint256"
        }
      ],
      "name": "listItem",
      "outputs": [],
      "stateMutability": "payable",
      "type": "function"
    },
    {
      "inputs": [],
      "name": "owner",
      "outputs": [
        {
          "internalType": "address",
          "name": "",
          "type": "address"
        }
      ],
      "stateMutability": "view",
      "type": "function"
    },
    {
      "inputs": [],
      "name": "renounceOwnership",
      "outputs": [],
      "stateMutability": "nonpayable",
      "type": "function"
    },
    {
      "inputs": [
        {
          "internalType": "uint256",
          "name": "_fee",
          "type": "uint256"
        }
      ],
      "name": "setListingFee",
      "outputs": [],
      "stateMutability": "nonpayable",
      "type": "function"
    },
    {
      "inputs": [
        {
          "internalType": "address",
          "name": "newOwner",
          "type": "address"
        }
      ],
      "name": "transferOwnership",
      "outputs": [],
      "stateMutability": "nonpayable",
      "type": "function"
    },
    {
      "inputs": [
        {
          "internalType": "address",
          "name": "nft",
          "type": "address"
        },
        {
          "internalType": "uint256",
          "name": "tokenId",
          "type": "uint256"
        },
        {
          "internalType": "uint256",
          "name": "newPrice",
          "type": "uint256"
        }
      ],
      "name": "updateListingPrice",
      "outputs": [],
      "stateMutability": "nonpayable",
      "type": "function"
    },
    {
      "inputs": [],
      "name": "withdrawFees",
      "outputs": [],
      "stateMutability": "nonpayable",
      "type": "function"
    }
  ],
  "bytecode": "0x6080604052655af3107a400060075534801561001a57600080fd5b5033600073ffffffffffffffffffffffffffffffffffffffff168173ffffffffffffffffffffffffffffffffffffffff160361008e5760006040517f1e4fbdf700000000000000000000000000000000000000000000000000000000815260040161008591906101af565b60405180910390fd5b61009d816100aa60201b60201c565b50600180819055506101ca565b60008060009054906101000a900473ffffffffffffffffffffffffffffffffffffffff169050816000806101000a81548173ffffffffffffffffffffffffffffffffffffffff021916908373ffffffffffffffffffffffffffffffffffffffff1602179055508173ffffffffffffffffffffffffffffffffffffffff168173ffffffffffffffffffffffffffffffffffffffff167f8be0079c531659141344cd1fd0a4f28419497f9722a3daafe3b4186f6b6457e060405160405180910390a35050565b600073ffffffffffffffffffffffffffffffffffffffff82169050919050565b60006101998261016e565b9050919050565b6101a98161018e565b82525050565b60006020820190506101c460008301846101a0565b92915050565b61529b806101d96000396000f3fe6080604052600436106101145760003560e01c8063914552c6116100a0578063b8fe6abe11610064578063b8fe6abe14610395578063bf71cdb8146103c0578063d8cba251146103fd578063f2fde38b1461043a578063f7232f671461046357610114565b8063914552c6146102ab5780639f37092a146102e8578063ab15b9d114610304578063ae73ccec14610341578063b2ddee061461036c57610114565b8063476343ee116100e7578063476343ee146101f95780634cfa466614610210578063715018a61461024d57806389bfd38f146102645780638da5cb5b1461028057610114565b8063131dbd09146101195780631b53e9f814610142578063255f31791461017f5780632e701507146101bc575b600080fd5b34801561012557600080fd5b50610140600480360381019061013b9190614062565b61048c565b005b34801561014e57600080fd5b50610169600480360381019061016491906140ed565b6104d7565b604051610176919061414f565b60405180910390f35b34801561018b57600080fd5b506101a660048036038101906101a1919061416a565b610570565b6040516101b3919061414f565b60405180910390f35b3480156101c857600080fd5b506101e360048036038101906101de91906141aa565b6106dc565b6040516101f0919061436f565b60405180910390f35b34801561020557600080fd5b5061020e610b5f565b005b34801561021c57600080fd5b506102376004803603810190610232919061416a565b610bf6565b604051610244919061436f565b60405180910390f35b34801561025957600080fd5b50610262610ff7565b005b61027e60048036038101906102799190614391565b61100b565b005b34801561028c57600080fd5b506102956118de565b6040516102a291906143f3565b60405180910390f35b3480156102b757600080fd5b506102d260048036038101906102cd919061440e565b611907565b6040516102df919061452c565b60405180910390f35b61030260048036038101906102fd919061416a565b611af0565b005b34801561031057600080fd5b5061032b6004803603810190610326919061416a565b61264c565b60405161033891906145b6565b60405180910390f35b34801561034d57600080fd5b506103566126e9565b604051610363919061436f565b60405180910390f35b34801561037857600080fd5b50610393600480360381019061038e919061416a565b612a6c565b005b3480156103a157600080fd5b506103aa612d55565b6040516103b7919061414f565b60405180910390f35b3480156103cc57600080fd5b506103e760048036038101906103e2919061416a565b612d5f565b6040516103f4919061464c565b60405180910390f35b34801561040957600080fd5b50610424600480360381019061041f9190614667565b612e9e565b60405161043191906147be565b60405180910390f35b34801561044657600080fd5b50610461600480360381019061045c9190614667565b613010565b005b34801561046f57600080fd5b5061048a60048036038101906104859190614391565b613096565b005b610494613776565b806007819055507f83bee1c75d00c29e66092d821c1c82aa4792fe1f058e8dff38d5d394d37916dd81426040516104cc9291906147e0565b60405180910390a150565b6000600460008573ffffffffffffffffffffffffffffffffffffffff1673ffffffffffffffffffffffffffffffffffffffff16815260200190815260200160002060008473ffffffffffffffffffffffffffffffffffffffff1673ffffffffffffffffffffffffffffffffffffffff16815260200190815260200160002060008381526020019081526020016000205490509392505050565b60008060068054905090505b60008111156106d0578373ffffffffffffffffffffffffffffffffffffffff1660066001836105ab9190614838565b815481106105bc576105bb61486c565b5b906000526020600020906009020160000160009054906101000a900473ffffffffffffffffffffffffffffffffffffffff1673ffffffffffffffffffffffffffffffffffffffff16148015610641575082600660018361061c9190614838565b8154811061062d5761062c61486c565b5b906000526020600020906009020160010154145b801561067e5750600060066001836106599190614838565b8154811061066a5761066961486c565b5b906000526020600020906009020160070154115b156106bd5760066001826106929190614838565b815481106106a3576106a261486c565b5b9060005260206000209060090201600301549150506106d6565b80806106c89061489b565b91505061057c565b50600090505b92915050565b60606000600680549050905080831061074c57600067ffffffffffffffff81111561070a576107096148c4565b5b60405190808252806020026020018201604052801561074357816020015b610730613edf565b8152602001906001900390816107285790505b50915050610b59565b6000841161075957600a93505b6000806001836107699190614838565b905060008390505b6000811115610837576000600660018361078b9190614838565b8154811061079c5761079b61486c565b5b90600052602060002090600902016006015411806107eb5750600060066001836107c69190614838565b815481106107d7576107d661486c565b5b906000526020600020906009020160070154115b6108245782806107fa906148f3565b9350508587610809919061493b565b83106108235760018161081c9190614838565b9150610837565b5b808061082f9061489b565b915050610771565b5060008214806108475750848211155b156108ab57600067ffffffffffffffff811115610867576108666148c4565b5b6040519080825280602002602001820160405280156108a057816020015b61088d613edf565b8152602001906001900390816108855790505b509350505050610b59565b84866108b7919061493b565b82116108d05784826108c99190614838565b95506108dd565b858210156108dc578195505b5b60008667ffffffffffffffff8111156108f9576108f86148c4565b5b60405190808252806020026020018201604052801561093257816020015b61091f613edf565b8152602001906001900390816109175790505b5090506000808390505b85811015610b4f5760006006828154811061095a5761095961486c565b5b906000526020600020906009020160060154118061099d57506000600682815481106109895761098861486c565b5b906000526020600020906009020160070154115b610b4257600681815481106109b5576109b461486c565b5b9060005260206000209060090201604051806101200160405290816000820160009054906101000a900473ffffffffffffffffffffffffffffffffffffffff1673ffffffffffffffffffffffffffffffffffffffff1673ffffffffffffffffffffffffffffffffffffffff168152602001600182015481526020016002820160009054906101000a900473ffffffffffffffffffffffffffffffffffffffff1673ffffffffffffffffffffffffffffffffffffffff1673ffffffffffffffffffffffffffffffffffffffff16815260200160038201548152602001600482015481526020016005820154815260200160068201548152602001600782015481526020016008820160009054906101000a900473ffffffffffffffffffffffffffffffffffffffff1673ffffffffffffffffffffffffffffffffffffffff1673ffffffffffffffffffffffffffffffffffffffff1681525050838381518110610b2057610b1f61486c565b5b60200260200101819052508180610b36906148f3565b92505088821015610b4f575b808060010191505061093c565b5081955050505050505b92915050565b610b67613776565b6000479050610b746118de565b73ffffffffffffffffffffffffffffffffffffffff166108fc829081150290604051600060405180830381858888f19350505050158015610bb9573d6000803e3d6000fd5b507f0a86d3615abd799fbaa5be89d4941a68641aec3f02b8f19faff5dfade02817bc8142604051610beb9291906147e0565b60405180910390a150565b6060600060068054905090506000805b82811015610d04578573ffffffffffffffffffffffffffffffffffffffff1660068281548110610c3957610c3861486c565b5b906000526020600020906009020160000160009054906101000a900473ffffffffffffffffffffffffffffffffffffffff1673ffffffffffffffffffffffffffffffffffffffff16148015610cb257508460068281548110610c9e57610c9d61486c565b5b906000526020600020906009020160010154145b8015610ce35750600060068281548110610ccf57610cce61486c565b5b906000526020600020906009020160070154115b15610cf7578180610cf3906148f3565b9250505b8080600101915050610c06565b5060008167ffffffffffffffff811115610d2157610d206148c4565b5b604051908082528060200260200182016040528015610d5a57816020015b610d47613edf565b815260200190600190039081610d3f5790505b5090506000805b84811015610fe9578773ffffffffffffffffffffffffffffffffffffffff1660068281548110610d9457610d9361486c565b5b906000526020600020906009020160000160009054906101000a900473ffffffffffffffffffffffffffffffffffffffff1673ffffffffffffffffffffffffffffffffffffffff16148015610e0d57508660068281548110610df957610df861486c565b5b906000526020600020906009020160010154145b8015610e3e5750600060068281548110610e2a57610e2961486c565b5b906000526020600020906009020160070154115b15610fdc5760068181548110610e5757610e5661486c565b5b9060005260206000209060090201604051806101200160405290816000820160009054906101000a900473ffffffffffffffffffffffffffffffffffffffff1673ffffffffffffffffffffffffffffffffffffffff1673ffffffffffffffffffffffffffffffffffffffff168152602001600182015481526020016002820160009054906101000a900473ffffffffffffffffffffffffffffffffffffffff1673ffffffffffffffffffffffffffffffffffffffff1673ffffffffffffffffffffffffffffffffffffffff16815260200160038201548152602001600482015481526020016005820154815260200160068201548152602001600782015481526020016008820160009054906101000a900473ffffffffffffffffffffffffffffffffffffffff1673ffffffffffffffffffffffffffffffffffffffff1673ffffffffffffffffffffffffffffffffffffffff1681525050838381518110610fc257610fc161486c565b5b60200260200101819052508180610fd8906148f3565b9250505b8080600101915050610d61565b508194505050505092915050565b610fff613776565b61100960006137fd565b565b6110136138c1565b600754341015611058576040517f08c379a000000000000000000000000000000000000000000000000000000000815260040161104f906149cc565b60405180910390fd5b6064811161109b576040517f08c379a000000000000000000000000000000000000000000000000000000000815260040161109290614a38565b60405180910390fd5b600073ffffffffffffffffffffffffffffffffffffffff16600260008573ffffffffffffffffffffffffffffffffffffffff1673ffffffffffffffffffffffffffffffffffffffff168152602001908152602001600020600084815260200190815260200160002060020160009054906101000a900473ffffffffffffffffffffffffffffffffffffffff1673ffffffffffffffffffffffffffffffffffffffff161461117d576040517f08c379a000000000000000000000000000000000000000000000000000000000815260040161117490614aa4565b60405180910390fd5b60008390503373ffffffffffffffffffffffffffffffffffffffff168173ffffffffffffffffffffffffffffffffffffffff16636352211e856040518263ffffffff1660e01b81526004016111d2919061414f565b602060405180830381865afa1580156111ef573d6000803e3d6000fd5b505050506040513d601f19601f820116820180604052508101906112139190614ad9565b73ffffffffffffffffffffffffffffffffffffffff1614611269576040517f08c379a000000000000000000000000000000000000000000000000000000000815260040161126090614b52565b60405180910390fd5b8073ffffffffffffffffffffffffffffffffffffffff1663e985e9c533306040518363ffffffff1660e01b81526004016112a4929190614b72565b602060405180830381865afa1580156112c1573d6000803e3d6000fd5b505050506040513d601f19601f820116820180604052508101906112e59190614bd3565b611324576040517f08c379a000000000000000000000000000000000000000000000000000000000815260040161131b90614c4c565b60405180910390fd5b6040518060c001604052808573ffffffffffffffffffffffffffffffffffffffff1681526020018481526020013373ffffffffffffffffffffffffffffffffffffffff16815260200183815260200142815260200142815250600260008673ffffffffffffffffffffffffffffffffffffffff1673ffffffffffffffffffffffffffffffffffffffff168152602001908152602001600020600085815260200190815260200160002060008201518160000160006101000a81548173ffffffffffffffffffffffffffffffffffffffff021916908373ffffffffffffffffffffffffffffffffffffffff1602179055506020820151816001015560408201518160020160006101000a81548173ffffffffffffffffffffffffffffffffffffffff021916908373ffffffffffffffffffffffffffffffffffffffff160217905550606082015181600301556080820151816004015560a082015181600501559050508373ffffffffffffffffffffffffffffffffffffffff166398214bcb8460016040518363ffffffff1660e01b81526004016114c2929190614c7b565b600060405180830381600087803b1580156114dc57600080fd5b505af11580156114f0573d6000803e3d6000fd5b50505050600360003373ffffffffffffffffffffffffffffffffffffffff1673ffffffffffffffffffffffffffffffffffffffff168152602001908152602001600020600260008673ffffffffffffffffffffffffffffffffffffffff1673ffffffffffffffffffffffffffffffffffffffff168152602001908152602001600020600085815260200190815260200160002090806001815401808255809150506001900390600052602060002090600602016000909190919091506000820160009054906101000a900473ffffffffffffffffffffffffffffffffffffffff168160000160006101000a81548173ffffffffffffffffffffffffffffffffffffffff021916908373ffffffffffffffffffffffffffffffffffffffff160217905550600182015481600101556002820160009054906101000a900473ffffffffffffffffffffffffffffffffffffffff168160020160006101000a81548173ffffffffffffffffffffffffffffffffffffffff021916908373ffffffffffffffffffffffffffffffffffffffff160217905550600382015481600301556004820154816004015560058201548160050155505060066040518061012001604052808673ffffffffffffffffffffffffffffffffffffffff1681526020018581526020013373ffffffffffffffffffffffffffffffffffffffff1681526020018481526020014281526020014281526020016000815260200160008152602001600073ffffffffffffffffffffffffffffffffffffffff16815250908060018154018082558091505060019003906000526020600020906009020160009091909190915060008201518160000160006101000a81548173ffffffffffffffffffffffffffffffffffffffff021916908373ffffffffffffffffffffffffffffffffffffffff1602179055506020820151816001015560408201518160020160006101000a81548173ffffffffffffffffffffffffffffffffffffffff021916908373ffffffffffffffffffffffffffffffffffffffff160217905550606082015181600301556080820151816004015560a0820151816005015560c0820151816006015560e082015181600701556101008201518160080160006101000a81548173ffffffffffffffffffffffffffffffffffffffff021916908373ffffffffffffffffffffffffffffffffffffffff16021790555050503373ffffffffffffffffffffffffffffffffffffffff16838573ffffffffffffffffffffffffffffffffffffffff167fbd5d1836d4114b1a1785c873a084824203ab9c294b3694e6a9fa69234a9113c685426040516118c89291906147e0565b60405180910390a4506118d9613907565b505050565b60008060009054906101000a900473ffffffffffffffffffffffffffffffffffffffff16905090565b606060008373ffffffffffffffffffffffffffffffffffffffff1663d5c71275846040518263ffffffff1660e01b815260040161194491906143f3565b600060405180830381865afa158015611961573d6000803e3d6000fd5b505050506040513d6000823e3d601f19601f8201168201806040525081019061198a9190614de3565b90506000815167ffffffffffffffff8111156119a9576119a86148c4565b5b6040519080825280602002602001820160405280156119e257816020015b6119cf613f6d565b8152602001906001900390816119c75790505b50905060005b8251811015611ae4576000838281518110611a0657611a0561486c565b5b602002602001015190506000600460008973ffffffffffffffffffffffffffffffffffffffff1673ffffffffffffffffffffffffffffffffffffffff16815260200190815260200160002060008873ffffffffffffffffffffffffffffffffffffffff1673ffffffffffffffffffffffffffffffffffffffff1681526020019081526020016000206000838152602001908152602001600020549050604051806040016040528083815260200182815250848481518110611aca57611ac961486c565b5b6020026020010181905250505080806001019150506119e8565b50809250505092915050565b611af86138c1565b6000600260008473ffffffffffffffffffffffffffffffffffffffff1673ffffffffffffffffffffffffffffffffffffffff16815260200190815260200160002060008381526020019081526020016000206040518060c00160405290816000820160009054906101000a900473ffffffffffffffffffffffffffffffffffffffff1673ffffffffffffffffffffffffffffffffffffffff1673ffffffffffffffffffffffffffffffffffffffff168152602001600182015481526020016002820160009054906101000a900473ffffffffffffffffffffffffffffffffffffffff1673ffffffffffffffffffffffffffffffffffffffff1673ffffffffffffffffffffffffffffffffffffffff16815260200160038201548152602001600482015481526020016005820154815250509050600073ffffffffffffffffffffffffffffffffffffffff16816040015173ffffffffffffffffffffffffffffffffffffffff1603611c9e576040517f08c379a0000000000000000000000000000000000000000000000000000000008152600401611c9590614e78565b60405180910390fd5b3373ffffffffffffffffffffffffffffffffffffffff16816040015173ffffffffffffffffffffffffffffffffffffffff1603611d10576040517f08c379a0000000000000000000000000000000000000000000000000000000008152600401611d0790614ee4565b60405180910390fd5b8273ffffffffffffffffffffffffffffffffffffffff1663e985e9c58260400151306040518363ffffffff1660e01b8152600401611d4f929190614b72565b602060405180830381865afa158015611d6c573d6000803e3d6000fd5b505050506040513d601f19601f82011682018060405250810190611d909190614bd3565b611dcf576040517f08c379a0000000000000000000000000000000000000000000000000000000008152600401611dc690614c4c565b60405180910390fd5b8060600151341015611e16576040517f08c379a0000000000000000000000000000000000000000000000000000000008152600401611e0d90614f50565b60405180910390fd5b60008373ffffffffffffffffffffffffffffffffffffffff1663b3912597846040518263ffffffff1660e01b8152600401611e51919061414f565b602060405180830381865afa158015611e6e573d6000803e3d6000fd5b505050506040513d601f19601f82011682018060405250810190611e929190614f70565b905060008473ffffffffffffffffffffffffffffffffffffffff16637539fc5c856040518263ffffffff1660e01b8152600401611ecf919061414f565b602060405180830381865afa158015611eec573d6000803e3d6000fd5b505050506040513d601f19601f82011682018060405250810190611f109190614ad9565b90506000836060015190506000846040015173ffffffffffffffffffffffffffffffffffffffff168373ffffffffffffffffffffffffffffffffffffffff1614611fc8576064848660600151611f669190614f9d565b611f70919061500e565b905034811115611fb5576040517f08c379a0000000000000000000000000000000000000000000000000000000008152600401611fac9061508b565b60405180910390fd5b808560600151611fc59190614838565b91505b60008111156120765780600460008973ffffffffffffffffffffffffffffffffffffffff1673ffffffffffffffffffffffffffffffffffffffff16815260200190815260200160002060008573ffffffffffffffffffffffffffffffffffffffff1673ffffffffffffffffffffffffffffffffffffffff1681526020019081526020016000206000888152602001908152602001600020600082825461206e919061493b565b925050819055505b846040015173ffffffffffffffffffffffffffffffffffffffff168373ffffffffffffffffffffffffffffffffffffffff16036121525781600460008973ffffffffffffffffffffffffffffffffffffffff1673ffffffffffffffffffffffffffffffffffffffff16815260200190815260200160002060008573ffffffffffffffffffffffffffffffffffffffff1673ffffffffffffffffffffffffffffffffffffffff1681526020019081526020016000206000888152602001908152602001600020600082825461214a919061493b565b925050819055505b8673ffffffffffffffffffffffffffffffffffffffff166342842e0e866040015133896040518463ffffffff1660e01b8152600401612193939291906150ab565b600060405180830381600087803b1580156121ad57600080fd5b505af11580156121c1573d6000803e3d6000fd5b505050506000811115612216578273ffffffffffffffffffffffffffffffffffffffff166108fc829081150290604051600060405180830381858888f19350505050158015612214573d6000803e3d6000fd5b505b846040015173ffffffffffffffffffffffffffffffffffffffff166108fc839081150290604051600060405180830381858888f19350505050158015612260573d6000803e3d6000fd5b508673ffffffffffffffffffffffffffffffffffffffff166398214bcb8760006040518363ffffffff1660e01b815260040161229d929190614c7b565b600060405180830381600087803b1580156122b757600080fd5b505af11580156122cb573d6000803e3d6000fd5b505050506122de87878760400151613910565b600060068054905090505b600081111561253d578773ffffffffffffffffffffffffffffffffffffffff1660066001836123189190614838565b815481106123295761232861486c565b5b906000526020600020906009020160000160009054906101000a900473ffffffffffffffffffffffffffffffffffffffff1673ffffffffffffffffffffffffffffffffffffffff161480156123ae57508660066001836123899190614838565b8154811061239a5761239961486c565b5b906000526020600020906009020160010154145b801561243a5750856040015173ffffffffffffffffffffffffffffffffffffffff1660066001836123df9190614838565b815481106123f0576123ef61486c565b5b906000526020600020906009020160020160009054906101000a900473ffffffffffffffffffffffffffffffffffffffff1673ffffffffffffffffffffffffffffffffffffffff16145b801561247a5750856080015160066001836124559190614838565b815481106124665761246561486c565b5b906000526020600020906009020160040154145b1561252a5742600660018361248f9190614838565b815481106124a05761249f61486c565b5b9060005260206000209060090201600701819055503360066001836124c59190614838565b815481106124d6576124d561486c565b5b906000526020600020906009020160080160006101000a81548173ffffffffffffffffffffffffffffffffffffffff021916908373ffffffffffffffffffffffffffffffffffffffff16021790555061253d565b80806125359061489b565b9150506122e9565b506000600560008973ffffffffffffffffffffffffffffffffffffffff1673ffffffffffffffffffffffffffffffffffffffff1681526020019081526020016000206000888152602001908152602001600020905060008160040154036125b1574381600001819055504281600201819055505b4381600101819055504281600301819055508060040160008154809291906125d8906148f3565b9190505550868873ffffffffffffffffffffffffffffffffffffffff167f2781b6bf1d50821bde8d8e1ea36be5557167d6b25dde84a52efb147adf2e6d358860400151338a606001514260405161263294939291906150e2565b60405180910390a3505050505050612648613907565b5050565b612654613f87565b600560008473ffffffffffffffffffffffffffffffffffffffff1673ffffffffffffffffffffffffffffffffffffffff16815260200190815260200160002060008381526020019081526020016000206040518060a001604052908160008201548152602001600182015481526020016002820154815260200160038201548152602001600482015481525050905092915050565b606060006006805490500361270357606080915050612a69565b600060068054905090506000805b828110156127925760006006828154811061272f5761272e61486c565b5b9060005260206000209060090201600601541180612772575060006006828154811061275e5761275d61486c565b5b906000526020600020906009020160070154115b612785578180612781906148f3565b9250505b8080600101915050612711565b50600081036127f957600067ffffffffffffffff8111156127b6576127b56148c4565b5b6040519080825280602002602001820160405280156127ef57816020015b6127dc613edf565b8152602001906001900390816127d45790505b5092505050612a69565b60008167ffffffffffffffff811115612815576128146148c4565b5b60405190808252806020026020018201604052801561284e57816020015b61283b613edf565b8152602001906001900390816128335790505b5090506000805b84811015612a60576000600682815481106128735761287261486c565b5b90600052602060002090600902016006015411806128b657506000600682815481106128a2576128a161486c565b5b906000526020600020906009020160070154115b612a5357600681815481106128ce576128cd61486c565b5b9060005260206000209060090201604051806101200160405290816000820160009054906101000a900473ffffffffffffffffffffffffffffffffffffffff1673ffffffffffffffffffffffffffffffffffffffff1673ffffffffffffffffffffffffffffffffffffffff168152602001600182015481526020016002820160009054906101000a900473ffffffffffffffffffffffffffffffffffffffff1673ffffffffffffffffffffffffffffffffffffffff1673ffffffffffffffffffffffffffffffffffffffff16815260200160038201548152602001600482015481526020016005820154815260200160068201548152602001600782015481526020016008820160009054906101000a900473ffffffffffffffffffffffffffffffffffffffff1673ffffffffffffffffffffffffffffffffffffffff1673ffffffffffffffffffffffffffffffffffffffff1681525050838381518110612a3957612a3861486c565b5b60200260200101819052508180612a4f906148f3565b9250505b8080600101915050612855565b50819450505050505b90565b6000600260008473ffffffffffffffffffffffffffffffffffffffff1673ffffffffffffffffffffffffffffffffffffffff16815260200190815260200160002060008381526020019081526020016000206040518060c00160405290816000820160009054906101000a900473ffffffffffffffffffffffffffffffffffffffff1673ffffffffffffffffffffffffffffffffffffffff1673ffffffffffffffffffffffffffffffffffffffff168152602001600182015481526020016002820160009054906101000a900473ffffffffffffffffffffffffffffffffffffffff1673ffffffffffffffffffffffffffffffffffffffff1673ffffffffffffffffffffffffffffffffffffffff16815260200160038201548152602001600482015481526020016005820154815250509050600073ffffffffffffffffffffffffffffffffffffffff16816040015173ffffffffffffffffffffffffffffffffffffffff1603612c12576040517f08c379a0000000000000000000000000000000000000000000000000000000008152600401612c0990614e78565b60405180910390fd5b3373ffffffffffffffffffffffffffffffffffffffff16816040015173ffffffffffffffffffffffffffffffffffffffff1614612c84576040517f08c379a0000000000000000000000000000000000000000000000000000000008152600401612c7b90615173565b60405180910390fd5b612c9383838360400151613910565b8273ffffffffffffffffffffffffffffffffffffffff166398214bcb8360006040518363ffffffff1660e01b8152600401612ccf929190614c7b565b600060405180830381600087803b158015612ce957600080fd5b505af1158015612cfd573d6000803e3d6000fd5b50505050818373ffffffffffffffffffffffffffffffffffffffff167f25164b296f6f11aec8bd7dd4fc2b26e884fe09e27ff3852f49459976584f045d42604051612d48919061414f565b60405180910390a3505050565b6000600754905090565b612d67613fb6565b600260008473ffffffffffffffffffffffffffffffffffffffff1673ffffffffffffffffffffffffffffffffffffffff16815260200190815260200160002060008381526020019081526020016000206040518060c00160405290816000820160009054906101000a900473ffffffffffffffffffffffffffffffffffffffff1673ffffffffffffffffffffffffffffffffffffffff1673ffffffffffffffffffffffffffffffffffffffff168152602001600182015481526020016002820160009054906101000a900473ffffffffffffffffffffffffffffffffffffffff1673ffffffffffffffffffffffffffffffffffffffff1673ffffffffffffffffffffffffffffffffffffffff1681526020016003820154815260200160048201548152602001600582015481525050905092915050565b6060600360008373ffffffffffffffffffffffffffffffffffffffff1673ffffffffffffffffffffffffffffffffffffffff168152602001908152602001600020805480602002602001604051908101604052809291908181526020016000905b8282101561300557838290600052602060002090600602016040518060c00160405290816000820160009054906101000a900473ffffffffffffffffffffffffffffffffffffffff1673ffffffffffffffffffffffffffffffffffffffff1673ffffffffffffffffffffffffffffffffffffffff168152602001600182015481526020016002820160009054906101000a900473ffffffffffffffffffffffffffffffffffffffff1673ffffffffffffffffffffffffffffffffffffffff1673ffffffffffffffffffffffffffffffffffffffff168152602001600382015481526020016004820154815260200160058201548152505081526020019060010190612eff565b505050509050919050565b613018613776565b600073ffffffffffffffffffffffffffffffffffffffff168173ffffffffffffffffffffffffffffffffffffffff160361308a5760006040517f1e4fbdf700000000000000000000000000000000000000000000000000000000815260040161308191906143f3565b60405180910390fd5b613093816137fd565b50565b6000600260008573ffffffffffffffffffffffffffffffffffffffff1673ffffffffffffffffffffffffffffffffffffffff16815260200190815260200160002060008481526020019081526020016000209050600073ffffffffffffffffffffffffffffffffffffffff168160020160009054906101000a900473ffffffffffffffffffffffffffffffffffffffff1673ffffffffffffffffffffffffffffffffffffffff160361317d576040517f08c379a000000000000000000000000000000000000000000000000000000000815260040161317490614e78565b60405180910390fd5b3373ffffffffffffffffffffffffffffffffffffffff168160020160009054906101000a900473ffffffffffffffffffffffffffffffffffffffff1673ffffffffffffffffffffffffffffffffffffffff161461320f576040517f08c379a000000000000000000000000000000000000000000000000000000000815260040161320690615173565b60405180910390fd5b60648211613252576040517f08c379a000000000000000000000000000000000000000000000000000000000815260040161324990614a38565b60405180910390fd5b80600301548203613298576040517f08c379a000000000000000000000000000000000000000000000000000000000815260040161328f906151df565b60405180910390fd5b81816003018190555042816005018190555060005b600360003373ffffffffffffffffffffffffffffffffffffffff1673ffffffffffffffffffffffffffffffffffffffff168152602001908152602001600020805490508110156134fa578473ffffffffffffffffffffffffffffffffffffffff16600360003373ffffffffffffffffffffffffffffffffffffffff1673ffffffffffffffffffffffffffffffffffffffff168152602001908152602001600020828154811061335f5761335e61486c565b5b906000526020600020906006020160000160009054906101000a900473ffffffffffffffffffffffffffffffffffffffff1673ffffffffffffffffffffffffffffffffffffffff16148015613415575083600360003373ffffffffffffffffffffffffffffffffffffffff1673ffffffffffffffffffffffffffffffffffffffff16815260200190815260200160002082815481106134015761340061486c565b5b906000526020600020906006020160010154145b156134ed5782600360003373ffffffffffffffffffffffffffffffffffffffff1673ffffffffffffffffffffffffffffffffffffffff168152602001908152602001600020828154811061346c5761346b61486c565b5b90600052602060002090600602016003018190555042600360003373ffffffffffffffffffffffffffffffffffffffff1673ffffffffffffffffffffffffffffffffffffffff16815260200190815260200160002082815481106134d3576134d261486c565b5b9060005260206000209060060201600501819055506134fa565b80806001019150506132ad565b50600060068054905090505b600081111561371c578473ffffffffffffffffffffffffffffffffffffffff1660066001836135359190614838565b815481106135465761354561486c565b5b906000526020600020906009020160000160009054906101000a900473ffffffffffffffffffffffffffffffffffffffff1673ffffffffffffffffffffffffffffffffffffffff161480156135cb57508360066001836135a69190614838565b815481106135b7576135b661486c565b5b906000526020600020906009020160010154145b801561365357503373ffffffffffffffffffffffffffffffffffffffff1660066001836135f89190614838565b815481106136095761360861486c565b5b906000526020600020906009020160020160009054906101000a900473ffffffffffffffffffffffffffffffffffffffff1673ffffffffffffffffffffffffffffffffffffffff16145b801561369357508160040154600660018361366e9190614838565b8154811061367f5761367e61486c565b5b906000526020600020906009020160040154145b15613709578260066001836136a89190614838565b815481106136b9576136b861486c565b5b9060005260206000209060090201600301819055504260066001836136de9190614838565b815481106136ef576136ee61486c565b5b90600052602060002090600902016005018190555061371c565b80806137149061489b565b915050613506565b50828473ffffffffffffffffffffffffffffffffffffffff167fb8f3dda438349ef6632f812d6bc7aa3c2cfdb9e02aa0aac16324dcebbdc02bbb338542604051613768939291906151ff565b60405180910390a350505050565b61377e613ed7565b73ffffffffffffffffffffffffffffffffffffffff1661379c6118de565b73ffffffffffffffffffffffffffffffffffffffff16146137fb576137bf613ed7565b6040517f118cdaa70000000000000000000000000000000000000000000000000000000081526004016137f291906143f3565b60405180910390fd5b565b60008060009054906101000a900473ffffffffffffffffffffffffffffffffffffffff169050816000806101000a81548173ffffffffffffffffffffffffffffffffffffffff021916908373ffffffffffffffffffffffffffffffffffffffff1602179055508173ffffffffffffffffffffffffffffffffffffffff168173ffffffffffffffffffffffffffffffffffffffff167f8be0079c531659141344cd1fd0a4f28419497f9722a3daafe3b4186f6b6457e060405160405180910390a35050565b6002600154036138fd576040517f3ee5aeb500000000000000000000000000000000000000000000000000000000815260040160405180910390fd5b6002600181905550565b60018081905550565b600260008473ffffffffffffffffffffffffffffffffffffffff1673ffffffffffffffffffffffffffffffffffffffff1681526020019081526020016000206000838152602001908152602001600020600080820160006101000a81549073ffffffffffffffffffffffffffffffffffffffff021916905560018201600090556002820160006101000a81549073ffffffffffffffffffffffffffffffffffffffff021916905560038201600090556004820160009055600582016000905550506000600360008373ffffffffffffffffffffffffffffffffffffffff1673ffffffffffffffffffffffffffffffffffffffff16815260200190815260200160002090506000805b8280549050811015613ce7578573ffffffffffffffffffffffffffffffffffffffff16838281548110613a4e57613a4d61486c565b5b906000526020600020906006020160000160009054906101000a900473ffffffffffffffffffffffffffffffffffffffff1673ffffffffffffffffffffffffffffffffffffffff16148015613ac6575084838281548110613ab257613ab161486c565b5b906000526020600020906006020160010154145b15613cda57828181548110613ade57613add61486c565b5b90600052602060002090600602016004015491508260018480549050613b049190614838565b81548110613b1557613b1461486c565b5b9060005260206000209060060201838281548110613b3657613b3561486c565b5b90600052602060002090600602016000820160009054906101000a900473ffffffffffffffffffffffffffffffffffffffff168160000160006101000a81548173ffffffffffffffffffffffffffffffffffffffff021916908373ffffffffffffffffffffffffffffffffffffffff160217905550600182015481600101556002820160009054906101000a900473ffffffffffffffffffffffffffffffffffffffff168160020160006101000a81548173ffffffffffffffffffffffffffffffffffffffff021916908373ffffffffffffffffffffffffffffffffffffffff16021790555060038201548160030155600482015481600401556005820154816005015590505082805480613c4e57613c4d615236565b5b6001900381819060005260206000209060060201600080820160006101000a81549073ffffffffffffffffffffffffffffffffffffffff021916905560018201600090556002820160006101000a81549073ffffffffffffffffffffffffffffffffffffffff021916905560038201600090556004820160009055600582016000905550509055613ce7565b8080600101915050613a18565b50600060068054905090505b6000811115613ecf578573ffffffffffffffffffffffffffffffffffffffff166006600183613d229190614838565b81548110613d3357613d3261486c565b5b906000526020600020906009020160000160009054906101000a900473ffffffffffffffffffffffffffffffffffffffff1673ffffffffffffffffffffffffffffffffffffffff16148015613db85750846006600183613d939190614838565b81548110613da457613da361486c565b5b906000526020600020906009020160010154145b8015613e4057508373ffffffffffffffffffffffffffffffffffffffff166006600183613de59190614838565b81548110613df657613df561486c565b5b906000526020600020906009020160020160009054906101000a900473ffffffffffffffffffffffffffffffffffffffff1673ffffffffffffffffffffffffffffffffffffffff16145b8015613e7c5750816006600183613e579190614838565b81548110613e6857613e6761486c565b5b906000526020600020906009020160040154145b15613ebc57426006600183613e919190614838565b81548110613ea257613ea161486c565b5b906000526020600020906009020160060181905550613ecf565b8080613ec79061489b565b915050613cf3565b505050505050565b600033905090565b604051806101200160405280600073ffffffffffffffffffffffffffffffffffffffff16815260200160008152602001600073ffffffffffffffffffffffffffffffffffffffff1681526020016000815260200160008152602001600081526020016000815260200160008152602001600073ffffffffffffffffffffffffffffffffffffffff1681525090565b604051806040016040528060008152602001600081525090565b6040518060a0016040528060008152602001600081526020016000815260200160008152602001600081525090565b6040518060c00160405280600073ffffffffffffffffffffffffffffffffffffffff16815260200160008152602001600073ffffffffffffffffffffffffffffffffffffffff1681526020016000815260200160008152602001600081525090565b6000604051905090565b600080fd5b600080fd5b6000819050919050565b61403f8161402c565b811461404a57600080fd5b50565b60008135905061405c81614036565b92915050565b60006020828403121561407857614077614022565b5b60006140868482850161404d565b91505092915050565b600073ffffffffffffffffffffffffffffffffffffffff82169050919050565b60006140ba8261408f565b9050919050565b6140ca816140af565b81146140d557600080fd5b50565b6000813590506140e7816140c1565b92915050565b60008060006060848603121561410657614105614022565b5b6000614114868287016140d8565b9350506020614125868287016140d8565b92505060406141368682870161404d565b9150509250925092565b6141498161402c565b82525050565b60006020820190506141646000830184614140565b92915050565b6000806040838503121561418157614180614022565b5b600061418f858286016140d8565b92505060206141a08582860161404d565b9150509250929050565b600080604083850312156141c1576141c0614022565b5b60006141cf8582860161404d565b92505060206141e08582860161404d565b9150509250929050565b600081519050919050565b600082825260208201905092915050565b6000819050602082019050919050565b61421f816140af565b82525050565b61422e8161402c565b82525050565b6101208201600082015161424b6000850182614216565b50602082015161425e6020850182614225565b5060408201516142716040850182614216565b5060608201516142846060850182614225565b5060808201516142976080850182614225565b5060a08201516142aa60a0850182614225565b5060c08201516142bd60c0850182614225565b5060e08201516142d060e0850182614225565b506101008201516142e5610100850182614216565b50505050565b60006142f78383614234565b6101208301905092915050565b6000602082019050919050565b600061431c826141ea565b61432681856141f5565b935061433183614206565b8060005b8381101561436257815161434988826142eb565b975061435483614304565b925050600181019050614335565b5085935050505092915050565b600060208201905081810360008301526143898184614311565b905092915050565b6000806000606084860312156143aa576143a9614022565b5b60006143b8868287016140d8565b93505060206143c98682870161404d565b92505060406143da8682870161404d565b9150509250925092565b6143ed816140af565b82525050565b600060208201905061440860008301846143e4565b92915050565b6000806040838503121561442557614424614022565b5b6000614433858286016140d8565b9250506020614444858286016140d8565b9150509250929050565b600081519050919050565b600082825260208201905092915050565b6000819050602082019050919050565b6040820160008201516144906000850182614225565b5060208201516144a36020850182614225565b50505050565b60006144b5838361447a565b60408301905092915050565b6000602082019050919050565b60006144d98261444e565b6144e38185614459565b93506144ee8361446a565b8060005b8381101561451f57815161450688826144a9565b9750614511836144c1565b9250506001810190506144f2565b5085935050505092915050565b6000602082019050818103600083015261454681846144ce565b905092915050565b60a0820160008201516145646000850182614225565b5060208201516145776020850182614225565b50604082015161458a6040850182614225565b50606082015161459d6060850182614225565b5060808201516145b06080850182614225565b50505050565b600060a0820190506145cb600083018461454e565b92915050565b60c0820160008201516145e76000850182614216565b5060208201516145fa6020850182614225565b50604082015161460d6040850182614216565b5060608201516146206060850182614225565b5060808201516146336080850182614225565b5060a082015161464660a0850182614225565b50505050565b600060c08201905061466160008301846145d1565b92915050565b60006020828403121561467d5761467c614022565b5b600061468b848285016140d8565b91505092915050565b600081519050919050565b600082825260208201905092915050565b6000819050602082019050919050565b60c0820160008201516146d66000850182614216565b5060208201516146e96020850182614225565b5060408201516146fc6040850182614216565b50606082015161470f6060850182614225565b5060808201516147226080850182614225565b5060a082015161473560a0850182614225565b50505050565b600061474783836146c0565b60c08301905092915050565b6000602082019050919050565b600061476b82614694565b614775818561469f565b9350614780836146b0565b8060005b838110156147b1578151614798888261473b565b97506147a383614753565b925050600181019050614784565b5085935050505092915050565b600060208201905081810360008301526147d88184614760565b905092915050565b60006040820190506147f56000830185614140565b6148026020830184614140565b9392505050565b7f4e487b7100000000000000000000000000000000000000000000000000000000600052601160045260246000fd5b60006148438261402c565b915061484e8361402c565b925082820390508181111561486657614865614809565b5b92915050565b7f4e487b7100000000000000000000000000000000000000000000000000000000600052603260045260246000fd5b60006148a68261402c565b9150600082036148b9576148b8614809565b5b600182039050919050565b7f4e487b7100000000000000000000000000000000000000000000000000000000600052604160045260246000fd5b60006148fe8261402c565b91507fffffffffffffffffffffffffffffffffffffffffffffffffffffffffffffffff82036149305761492f614809565b5b600182019050919050565b60006149468261402c565b91506149518361402c565b925082820190508082111561496957614968614809565b5b92915050565b600082825260208201905092915050565b7f4c697374696e6720666565206e6f742070616964000000000000000000000000600082015250565b60006149b660148361496f565b91506149c182614980565b602082019050919050565b600060208201905081810360008301526149e5816149a9565b9050919050565b7f5072696365206d757374206265203e2031303020776569000000000000000000600082015250565b6000614a2260178361496f565b9150614a2d826149ec565b602082019050919050565b60006020820190508181036000830152614a5181614a15565b9050919050565b7f416c7265616479206c6973746564000000000000000000000000000000000000600082015250565b6000614a8e600e8361496f565b9150614a9982614a58565b602082019050919050565b60006020820190508181036000830152614abd81614a81565b9050919050565b600081519050614ad3816140c1565b92915050565b600060208284031215614aef57614aee614022565b5b6000614afd84828501614ac4565b91505092915050565b7f4e6f74206f776e65720000000000000000000000000000000000000000000000600082015250565b6000614b3c60098361496f565b9150614b4782614b06565b602082019050919050565b60006020820190508181036000830152614b6b81614b2f565b9050919050565b6000604082019050614b8760008301856143e4565b614b9460208301846143e4565b9392505050565b60008115159050919050565b614bb081614b9b565b8114614bbb57600080fd5b50565b600081519050614bcd81614ba7565b92915050565b600060208284031215614be957614be8614022565b5b6000614bf784828501614bbe565b91505092915050565b7f4d61726b6574706c616365206e6f7420617070726f7665640000000000000000600082015250565b6000614c3660188361496f565b9150614c4182614c00565b602082019050919050565b60006020820190508181036000830152614c6581614c29565b9050919050565b614c7581614b9b565b82525050565b6000604082019050614c906000830185614140565b614c9d6020830184614c6c565b9392505050565b600080fd5b6000601f19601f8301169050919050565b614cc382614ca9565b810181811067ffffffffffffffff82111715614ce257614ce16148c4565b5b80604052505050565b6000614cf5614018565b9050614d018282614cba565b919050565b600067ffffffffffffffff821115614d2157614d206148c4565b5b602082029050602081019050919050565b600080fd5b600081519050614d4681614036565b92915050565b6000614d5f614d5a84614d06565b614ceb565b90508083825260208201905060208402830185811115614d8257614d81614d32565b5b835b81811015614dab5780614d978882614d37565b845260208401935050602081019050614d84565b5050509392505050565b600082601f830112614dca57614dc9614ca4565b5b8151614dda848260208601614d4c565b91505092915050565b600060208284031215614df957614df8614022565b5b600082015167ffffffffffffffff811115614e1757614e16614027565b5b614e2384828501614db5565b91505092915050565b7f4e6f74206c697374656400000000000000000000000000000000000000000000600082015250565b6000614e62600a8361496f565b9150614e6d82614e2c565b602082019050919050565b60006020820190508181036000830152614e9181614e55565b9050919050565b7f43616e6e6f742062757920796f7572206f776e206974656d0000000000000000600082015250565b6000614ece60188361496f565b9150614ed982614e98565b602082019050919050565b60006020820190508181036000830152614efd81614ec1565b9050919050565b7f496e73756666696369656e742045544800000000000000000000000000000000600082015250565b6000614f3a60108361496f565b9150614f4582614f04565b602082019050919050565b60006020820190508181036000830152614f6981614f2d565b9050919050565b600060208284031215614f8657614f85614022565b5b6000614f9484828501614d37565b91505092915050565b6000614fa88261402c565b9150614fb38361402c565b9250828202614fc18161402c565b91508282048414831517614fd857614fd7614809565b5b5092915050565b7f4e487b7100000000000000000000000000000000000000000000000000000000600052601260045260246000fd5b60006150198261402c565b91506150248361402c565b92508261503457615033614fdf565b5b828204905092915050565b7f526f79616c7479206665652065786365656473207061796d656e740000000000600082015250565b6000615075601b8361496f565b91506150808261503f565b602082019050919050565b600060208201905081810360008301526150a481615068565b9050919050565b60006060820190506150c060008301866143e4565b6150cd60208301856143e4565b6150da6040830184614140565b949350505050565b60006080820190506150f760008301876143e4565b61510460208301866143e4565b6151116040830185614140565b61511e6060830184614140565b95945050505050565b7f4e6f742073656c6c657200000000000000000000000000000000000000000000600082015250565b600061515d600a8361496f565b915061516882615127565b602082019050919050565b6000602082019050818103600083015261518c81615150565b9050919050565b7f507269636520616c72656164792073657420746f20746869732076616c756500600082015250565b60006151c9601f8361496f565b91506151d482615193565b602082019050919050565b600060208201905081810360008301526151f8816151bc565b9050919050565b600060608201905061521460008301866143e4565b6152216020830185614140565b61522e6040830184614140565b949350505050565b7f4e487b7100000000000000000000000000000000000000000000000000000000600052603160045260246000fdfea26469706673582212205fd6fe202af3f2a3fe32e9e6a4544384a3b22629fb69ccaa646d8839b8ae24d364736f6c634300081c0033",
  "linkReferences": {},
  "deployedLinkReferences": {}
}