{
  "_format": "hh-sol-artifact-1",
  "contractName": "NFTMarketplacev2",
  "sourceName": "contracts/NFTMarketplacev2.sol",
  "abi": [
    {
      "inputs": [],
      "stateMutability": "nonpayable",
      "type": "constructor"
    },
    {
      "inputs": [
        {
          "internalType": "address",
          "name": "owner",
          "type": "address"
        }
      ],
      "name": "OwnableInvalidOwner",
      "type": "error"
    },
    {
      "inputs": [
        {
          "internalType": "address",
          "name": "account",
          "type": "address"
        }
      ],
      "name": "OwnableUnauthorizedAccount",
      "type": "error"
    },
    {
      "inputs": [],
      "name": "ReentrancyGuardReentrantCall",
      "type": "error"
    },
    {
      "anonymous": false,
      "inputs": [
        {
          "indexed": false,
          "internalType": "uint256",
          "name": "amount",
          "type": "uint256"
        },
        {
          "indexed": false,
          "internalType": "uint256",
          "name": "timestamp",
          "type": "uint256"
        }
      ],
      "name": "FeeWithdrawn",
      "type": "event"
    },
    {
      "anonymous": false,
      "inputs": [
        {
          "indexed": true,
          "internalType": "address",
          "name": "nft",
          "type": "address"
        },
        {
          "indexed": true,
          "internalType": "uint256",
          "name": "tokenId",
          "type": "uint256"
        },
        {
          "indexed": false,
          "internalType": "uint256",
          "name": "timestamp",
          "type": "uint256"
        }
      ],
      "name": "ItemCanceled",
      "type": "event"
    },
    {
      "anonymous": false,
      "inputs": [
        {
          "indexed": true,
          "internalType": "address",
          "name": "nft",
          "type": "address"
        },
        {
          "indexed": true,
          "internalType": "uint256",
          "name": "tokenId",
          "type": "uint256"
        },
        {
          "indexed": true,
          "internalType": "address",
          "name": "seller",
          "type": "address"
        },
        {
          "indexed": false,
          "internalType": "uint256",
          "name": "price",
          "type": "uint256"
        },
        {
          "indexed": false,
          "internalType": "uint256",
          "name": "timestamp",
          "type": "uint256"
        }
      ],
      "name": "ItemListed",
      "type": "event"
    },
    {
      "anonymous": false,
      "inputs": [
        {
          "indexed": true,
          "internalType": "address",
          "name": "nft",
          "type": "address"
        },
        {
          "indexed": true,
          "internalType": "uint256",
          "name": "tokenId",
          "type": "uint256"
        },
        {
          "indexed": false,
          "internalType": "address",
          "name": "seller",
          "type": "address"
        },
        {
          "indexed": false,
          "internalType": "address",
          "name": "buyer",
          "type": "address"
        },
        {
          "indexed": false,
          "internalType": "uint256",
          "name": "price",
          "type": "uint256"
        },
        {
          "indexed": false,
          "internalType": "uint256",
          "name": "timestamp",
          "type": "uint256"
        }
      ],
      "name": "ItemSold",
      "type": "event"
    },
    {
      "anonymous": false,
      "inputs": [
        {
          "indexed": false,
          "internalType": "uint256",
          "name": "newFee",
          "type": "uint256"
        },
        {
          "indexed": false,
          "internalType": "uint256",
          "name": "timestamp",
          "type": "uint256"
        }
      ],
      "name": "ListingFeeUpdated",
      "type": "event"
    },
    {
      "anonymous": false,
      "inputs": [
        {
          "indexed": true,
          "internalType": "address",
          "name": "nft",
          "type": "address"
        },
        {
          "indexed": true,
          "internalType": "uint256",
          "name": "tokenId",
          "type": "uint256"
        },
        {
          "indexed": false,
          "internalType": "address",
          "name": "seller",
          "type": "address"
        },
        {
          "indexed": false,
          "internalType": "uint256",
          "name": "newPrice",
          "type": "uint256"
        },
        {
          "indexed": false,
          "internalType": "uint256",
          "name": "timestamp",
          "type": "uint256"
        }
      ],
      "name": "ListingUpdated",
      "type": "event"
    },
    {
      "anonymous": false,
      "inputs": [
        {
          "indexed": true,
          "internalType": "address",
          "name": "previousOwner",
          "type": "address"
        },
        {
          "indexed": true,
          "internalType": "address",
          "name": "newOwner",
          "type": "address"
        }
      ],
      "name": "OwnershipTransferred",
      "type": "event"
    },
    {
      "inputs": [
        {
          "internalType": "address",
          "name": "nft",
          "type": "address"
        },
        {
          "internalType": "uint256",
          "name": "tokenId",
          "type": "uint256"
        }
      ],
      "name": "buyItem",
      "outputs": [],
      "stateMutability": "payable",
      "type": "function"
    },
    {
      "inputs": [
        {
          "internalType": "address",
          "name": "nft",
          "type": "address"
        },
        {
          "internalType": "uint256",
          "name": "tokenId",
          "type": "uint256"
        }
      ],
      "name": "cancelListing",
      "outputs": [],
      "stateMutability": "nonpayable",
      "type": "function"
    },
    {
      "inputs": [],
      "name": "getAllListings",
      "outputs": [
        {
          "components": [
            {
              "internalType": "address",
              "name": "nft",
              "type": "address"
            },
            {
              "internalType": "uint256",
              "name": "tokenId",
              "type": "uint256"
            },
            {
              "internalType": "address",
              "name": "seller",
              "type": "address"
            },
            {
              "internalType": "uint256",
              "name": "price",
              "type": "uint256"
            },
            {
              "internalType": "uint256",
              "name": "listedAt",
              "type": "uint256"
            },
            {
              "internalType": "uint256",
              "name": "updatedAt",
              "type": "uint256"
            },
            {
              "internalType": "uint256",
              "name": "canceledAt",
              "type": "uint256"
            },
            {
              "internalType": "uint256",
              "name": "soldAt",
              "type": "uint256"
            },
            {
              "internalType": "address",
              "name": "buyer",
              "type": "address"
            }
          ],
          "internalType": "struct NFTMarketplacev2.ListingLogInfo[]",
          "name": "",
          "type": "tuple[]"
        }
      ],
      "stateMutability": "view",
      "type": "function"
    },
    {
      "inputs": [
        {
          "internalType": "address",
          "name": "nft",
          "type": "address"
        },
        {
          "internalType": "uint256",
          "name": "tokenId",
          "type": "uint256"
        }
      ],
      "name": "getHistoryTransactionsByNFT",
      "outputs": [
        {
          "components": [
            {
              "internalType": "address",
              "name": "nft",
              "type": "address"
            },
            {
              "internalType": "uint256",
              "name": "tokenId",
              "type": "uint256"
            },
            {
              "internalType": "address",
              "name": "seller",
              "type": "address"
            },
            {
              "internalType": "uint256",
              "name": "price",
              "type": "uint256"
            },
            {
              "internalType": "uint256",
              "name": "listedAt",
              "type": "uint256"
            },
            {
              "internalType": "uint256",
              "name": "updatedAt",
              "type": "uint256"
            },
            {
              "internalType": "uint256",
              "name": "canceledAt",
              "type": "uint256"
            },
            {
              "internalType": "uint256",
              "name": "soldAt",
              "type": "uint256"
            },
            {
              "internalType": "address",
              "name": "buyer",
              "type": "address"
            }
          ],
          "internalType": "struct NFTMarketplacev2.ListingLogInfo[]",
          "name": "",
          "type": "tuple[]"
        }
      ],
      "stateMutability": "view",
      "type": "function"
    },
    {
      "inputs": [
        {
          "internalType": "address",
          "name": "nft",
          "type": "address"
        },
        {
          "internalType": "uint256",
          "name": "tokenId",
          "type": "uint256"
        }
      ],
      "name": "getLastSoldPrice",
      "outputs": [
        {
          "internalType": "uint256",
          "name": "",
          "type": "uint256"
        }
      ],
      "stateMutability": "view",
      "type": "function"
    },
    {
      "inputs": [
        {
          "internalType": "uint256",
          "name": "limit",
          "type": "uint256"
        },
        {
          "internalType": "uint256",
          "name": "offset",
          "type": "uint256"
        }
      ],
      "name": "getLatestListings",
      "outputs": [
        {
          "components": [
            {
              "internalType": "address",
              "name": "nft",
              "type": "address"
            },
            {
              "internalType": "uint256",
              "name": "tokenId",
              "type": "uint256"
            },
            {
              "internalType": "address",
              "name": "seller",
              "type": "address"
            },
            {
              "internalType": "uint256",
              "name": "price",
              "type": "uint256"
            },
            {
              "internalType": "uint256",
              "name": "listedAt",
              "type": "uint256"
            },
            {
              "internalType": "uint256",
              "name": "updatedAt",
              "type": "uint256"
            },
            {
              "internalType": "uint256",
              "name": "canceledAt",
              "type": "uint256"
            },
            {
              "internalType": "uint256",
              "name": "soldAt",
              "type": "uint256"
            },
            {
              "internalType": "address",
              "name": "buyer",
              "type": "address"
            }
          ],
          "internalType": "struct NFTMarketplacev2.ListingLogInfo[]",
          "name": "",
          "type": "tuple[]"
        }
      ],
      "stateMutability": "view",
      "type": "function"
    },
    {
      "inputs": [
        {
          "internalType": "address",
          "name": "nft",
          "type": "address"
        },
        {
          "internalType": "uint256",
          "name": "tokenId",
          "type": "uint256"
        }
      ],
      "name": "getListingById",
      "outputs": [
        {
          "components": [
            {
              "internalType": "address",
              "name": "nft",
              "type": "address"
            },
            {
              "internalType": "uint256",
              "name": "tokenId",
              "type": "uint256"
            },
            {
              "internalType": "address",
              "name": "seller",
              "type": "address"
            },
            {
              "internalType": "uint256",
              "name": "price",
              "type": "uint256"
            },
            {
              "internalType": "uint256",
              "name": "listedAt",
              "type": "uint256"
            },
            {
              "internalType": "uint256",
              "name": "updatedAt",
              "type": "uint256"
            }
          ],
          "internalType": "struct NFTMarketplacev2.Listing",
          "name": "",
          "type": "tuple"
        }
      ],
      "stateMutability": "view",
      "type": "function"
    },
    {
      "inputs": [],
      "name": "getListingFee",
      "outputs": [
        {
          "internalType": "uint256",
          "name": "",
          "type": "uint256"
        }
      ],
      "stateMutability": "view",
      "type": "function"
    },
    {
      "inputs": [
        {
          "internalType": "address",
          "name": "seller",
          "type": "address"
        }
      ],
      "name": "getListingsBySeller",
      "outputs": [
        {
          "components": [
            {
              "internalType": "address",
              "name": "nft",
              "type": "address"
            },
            {
              "internalType": "uint256",
              "name": "tokenId",
              "type": "uint256"
            },
            {
              "internalType": "address",
              "name": "seller",
              "type": "address"
            },
            {
              "internalType": "uint256",
              "name": "price",
              "type": "uint256"
            },
            {
              "internalType": "uint256",
              "name": "listedAt",
              "type": "uint256"
            },
            {
              "internalType": "uint256",
              "name": "updatedAt",
              "type": "uint256"
            }
          ],
          "internalType": "struct NFTMarketplacev2.Listing[]",
          "name": "",
          "type": "tuple[]"
        }
      ],
      "stateMutability": "view",
      "type": "function"
    },
    {
      "inputs": [
        {
          "internalType": "address",
          "name": "nft",
          "type": "address"
        },
        {
          "internalType": "uint256",
          "name": "tokenId",
          "type": "uint256"
        },
        {
          "internalType": "uint256",
          "name": "price",
          "type": "uint256"
        }
      ],
      "name": "listItem",
      "outputs": [],
      "stateMutability": "payable",
      "type": "function"
    },
    {
      "inputs": [],
      "name": "owner",
      "outputs": [
        {
          "internalType": "address",
          "name": "",
          "type": "address"
        }
      ],
      "stateMutability": "view",
      "type": "function"
    },
    {
      "inputs": [],
      "name": "renounceOwnership",
      "outputs": [],
      "stateMutability": "nonpayable",
      "type": "function"
    },
    {
      "inputs": [
        {
          "internalType": "uint256",
          "name": "_fee",
          "type": "uint256"
        }
      ],
      "name": "setListingFee",
      "outputs": [],
      "stateMutability": "nonpayable",
      "type": "function"
    },
    {
      "inputs": [
        {
          "internalType": "address",
          "name": "newOwner",
          "type": "address"
        }
      ],
      "name": "transferOwnership",
      "outputs": [],
      "stateMutability": "nonpayable",
      "type": "function"
    },
    {
      "inputs": [
        {
          "internalType": "address",
          "name": "nft",
          "type": "address"
        },
        {
          "internalType": "uint256",
          "name": "tokenId",
          "type": "uint256"
        },
        {
          "internalType": "uint256",
          "name": "newPrice",
          "type": "uint256"
        }
      ],
      "name": "updateListingPrice",
      "outputs": [],
      "stateMutability": "nonpayable",
      "type": "function"
    },
    {
      "inputs": [],
      "name": "withdrawFees",
      "outputs": [],
      "stateMutability": "nonpayable",
      "type": "function"
    }
  ],
  "bytecode": "0x6080604052655af3107a400060055534801561001a57600080fd5b5033600073ffffffffffffffffffffffffffffffffffffffff168173ffffffffffffffffffffffffffffffffffffffff160361008e5760006040517f1e4fbdf700000000000000000000000000000000000000000000000000000000815260040161008591906101af565b60405180910390fd5b61009d816100aa60201b60201c565b50600180819055506101ca565b60008060009054906101000a900473ffffffffffffffffffffffffffffffffffffffff169050816000806101000a81548173ffffffffffffffffffffffffffffffffffffffff021916908373ffffffffffffffffffffffffffffffffffffffff1602179055508173ffffffffffffffffffffffffffffffffffffffff168173ffffffffffffffffffffffffffffffffffffffff167f8be0079c531659141344cd1fd0a4f28419497f9722a3daafe3b4186f6b6457e060405160405180910390a35050565b600073ffffffffffffffffffffffffffffffffffffffff82169050919050565b60006101998261016e565b9050919050565b6101a98161018e565b82525050565b60006020820190506101c460008301846101a0565b92915050565b6146c0806101d96000396000f3fe6080604052600436106100f35760003560e01c80639f37092a1161008a578063bf71cdb811610059578063bf71cdb8146102e8578063d8cba25114610325578063f2fde38b14610362578063f7232f671461038b576100f3565b80639f37092a1461024d578063ae73ccec14610269578063b2ddee0614610294578063b8fe6abe146102bd576100f3565b80634cfa4666116100c65780634cfa4666146101b2578063715018a6146101ef57806389bfd38f146102065780638da5cb5b14610222576100f3565b8063131dbd09146100f8578063255f3179146101215780632e7015071461015e578063476343ee1461019b575b600080fd5b34801561010457600080fd5b5061011f600480360381019061011a9190613848565b6103b4565b005b34801561012d57600080fd5b50610148600480360381019061014391906138d3565b6103ff565b6040516101559190613922565b60405180910390f35b34801561016a57600080fd5b506101856004803603810190610180919061393d565b61056b565b6040516101929190613b02565b60405180910390f35b3480156101a757600080fd5b506101b06109ee565b005b3480156101be57600080fd5b506101d960048036038101906101d491906138d3565b610a85565b6040516101e69190613b02565b60405180910390f35b3480156101fb57600080fd5b50610204610e86565b005b610220600480360381019061021b9190613b24565b610e9a565b005b34801561022e57600080fd5b506102376116ff565b6040516102449190613b86565b60405180910390f35b610267600480360381019061026291906138d3565b611728565b005b34801561027557600080fd5b5061027e611fad565b60405161028b9190613b02565b60405180910390f35b3480156102a057600080fd5b506102bb60048036038101906102b691906138d3565b612318565b005b3480156102c957600080fd5b506102d2612593565b6040516102df9190613922565b60405180910390f35b3480156102f457600080fd5b5061030f600480360381019061030a91906138d3565b61259d565b60405161031c9190613c1c565b60405180910390f35b34801561033157600080fd5b5061034c60048036038101906103479190613c37565b6126dc565b6040516103599190613d8e565b60405180910390f35b34801561036e57600080fd5b5061038960048036038101906103849190613c37565b61284e565b005b34801561039757600080fd5b506103b260048036038101906103ad9190613b24565b6128d4565b005b6103bc612fb4565b806005819055507f83bee1c75d00c29e66092d821c1c82aa4792fe1f058e8dff38d5d394d37916dd81426040516103f4929190613db0565b60405180910390a150565b60008060048054905090505b600081111561055f578373ffffffffffffffffffffffffffffffffffffffff16600460018361043a9190613e08565b8154811061044b5761044a613e3c565b5b906000526020600020906009020160000160009054906101000a900473ffffffffffffffffffffffffffffffffffffffff1673ffffffffffffffffffffffffffffffffffffffff161480156104d057508260046001836104ab9190613e08565b815481106104bc576104bb613e3c565b5b906000526020600020906009020160010154145b801561050d5750600060046001836104e89190613e08565b815481106104f9576104f8613e3c565b5b906000526020600020906009020160070154115b1561054c5760046001826105219190613e08565b8154811061053257610531613e3c565b5b906000526020600020906009020160030154915050610565565b808061055790613e6b565b91505061040b565b50600090505b92915050565b6060600060048054905090508083106105db57600067ffffffffffffffff81111561059957610598613e94565b5b6040519080825280602002602001820160405280156105d257816020015b6105bf61371d565b8152602001906001900390816105b75790505b509150506109e8565b600084116105e857600a93505b6000806001836105f89190613e08565b905060008390505b60008111156106c6576000600460018361061a9190613e08565b8154811061062b5761062a613e3c565b5b906000526020600020906009020160060154118061067a5750600060046001836106559190613e08565b8154811061066657610665613e3c565b5b906000526020600020906009020160070154115b6106b357828061068990613ec3565b93505085876106989190613f0b565b83106106b2576001816106ab9190613e08565b91506106c6565b5b80806106be90613e6b565b915050610600565b5060008214806106d65750848211155b1561073a57600067ffffffffffffffff8111156106f6576106f5613e94565b5b60405190808252806020026020018201604052801561072f57816020015b61071c61371d565b8152602001906001900390816107145790505b5093505050506109e8565b84866107469190613f0b565b821161075f5784826107589190613e08565b955061076c565b8582101561076b578195505b5b60008667ffffffffffffffff81111561078857610787613e94565b5b6040519080825280602002602001820160405280156107c157816020015b6107ae61371d565b8152602001906001900390816107a65790505b5090506000808390505b858110156109de576000600482815481106107e9576107e8613e3c565b5b906000526020600020906009020160060154118061082c575060006004828154811061081857610817613e3c565b5b906000526020600020906009020160070154115b6109d1576004818154811061084457610843613e3c565b5b9060005260206000209060090201604051806101200160405290816000820160009054906101000a900473ffffffffffffffffffffffffffffffffffffffff1673ffffffffffffffffffffffffffffffffffffffff1673ffffffffffffffffffffffffffffffffffffffff168152602001600182015481526020016002820160009054906101000a900473ffffffffffffffffffffffffffffffffffffffff1673ffffffffffffffffffffffffffffffffffffffff1673ffffffffffffffffffffffffffffffffffffffff16815260200160038201548152602001600482015481526020016005820154815260200160068201548152602001600782015481526020016008820160009054906101000a900473ffffffffffffffffffffffffffffffffffffffff1673ffffffffffffffffffffffffffffffffffffffff1673ffffffffffffffffffffffffffffffffffffffff16815250508383815181106109af576109ae613e3c565b5b602002602001018190525081806109c590613ec3565b925050888210156109de575b80806001019150506107cb565b5081955050505050505b92915050565b6109f6612fb4565b6000479050610a036116ff565b73ffffffffffffffffffffffffffffffffffffffff166108fc829081150290604051600060405180830381858888f19350505050158015610a48573d6000803e3d6000fd5b507f0a86d3615abd799fbaa5be89d4941a68641aec3f02b8f19faff5dfade02817bc8142604051610a7a929190613db0565b60405180910390a150565b6060600060048054905090506000805b82811015610b93578573ffffffffffffffffffffffffffffffffffffffff1660048281548110610ac857610ac7613e3c565b5b906000526020600020906009020160000160009054906101000a900473ffffffffffffffffffffffffffffffffffffffff1673ffffffffffffffffffffffffffffffffffffffff16148015610b4157508460048281548110610b2d57610b2c613e3c565b5b906000526020600020906009020160010154145b8015610b725750600060048281548110610b5e57610b5d613e3c565b5b906000526020600020906009020160070154115b15610b86578180610b8290613ec3565b9250505b8080600101915050610a95565b5060008167ffffffffffffffff811115610bb057610baf613e94565b5b604051908082528060200260200182016040528015610be957816020015b610bd661371d565b815260200190600190039081610bce5790505b5090506000805b84811015610e78578773ffffffffffffffffffffffffffffffffffffffff1660048281548110610c2357610c22613e3c565b5b906000526020600020906009020160000160009054906101000a900473ffffffffffffffffffffffffffffffffffffffff1673ffffffffffffffffffffffffffffffffffffffff16148015610c9c57508660048281548110610c8857610c87613e3c565b5b906000526020600020906009020160010154145b8015610ccd5750600060048281548110610cb957610cb8613e3c565b5b906000526020600020906009020160070154115b15610e6b5760048181548110610ce657610ce5613e3c565b5b9060005260206000209060090201604051806101200160405290816000820160009054906101000a900473ffffffffffffffffffffffffffffffffffffffff1673ffffffffffffffffffffffffffffffffffffffff1673ffffffffffffffffffffffffffffffffffffffff168152602001600182015481526020016002820160009054906101000a900473ffffffffffffffffffffffffffffffffffffffff1673ffffffffffffffffffffffffffffffffffffffff1673ffffffffffffffffffffffffffffffffffffffff16815260200160038201548152602001600482015481526020016005820154815260200160068201548152602001600782015481526020016008820160009054906101000a900473ffffffffffffffffffffffffffffffffffffffff1673ffffffffffffffffffffffffffffffffffffffff1673ffffffffffffffffffffffffffffffffffffffff1681525050838381518110610e5157610e50613e3c565b5b60200260200101819052508180610e6790613ec3565b9250505b8080600101915050610bf0565b508194505050505092915050565b610e8e612fb4565b610e98600061303b565b565b610ea26130ff565b600554341015610ee7576040517f08c379a0000000000000000000000000000000000000000000000000000000008152600401610ede90613f9c565b60405180910390fd5b60648111610f2a576040517f08c379a0000000000000000000000000000000000000000000000000000000008152600401610f2190614008565b60405180910390fd5b600073ffffffffffffffffffffffffffffffffffffffff16600260008573ffffffffffffffffffffffffffffffffffffffff1673ffffffffffffffffffffffffffffffffffffffff168152602001908152602001600020600084815260200190815260200160002060020160009054906101000a900473ffffffffffffffffffffffffffffffffffffffff1673ffffffffffffffffffffffffffffffffffffffff161461100c576040517f08c379a000000000000000000000000000000000000000000000000000000000815260040161100390614074565b60405180910390fd5b60008390503373ffffffffffffffffffffffffffffffffffffffff168173ffffffffffffffffffffffffffffffffffffffff16636352211e856040518263ffffffff1660e01b81526004016110619190613922565b602060405180830381865afa15801561107e573d6000803e3d6000fd5b505050506040513d601f19601f820116820180604052508101906110a291906140a9565b73ffffffffffffffffffffffffffffffffffffffff16146110f8576040517f08c379a00000000000000000000000000000000000000000000000000000000081526004016110ef90614122565b60405180910390fd5b8073ffffffffffffffffffffffffffffffffffffffff1663e985e9c533306040518363ffffffff1660e01b8152600401611133929190614142565b602060405180830381865afa158015611150573d6000803e3d6000fd5b505050506040513d601f19601f8201168201806040525081019061117491906141a3565b6111b3576040517f08c379a00000000000000000000000000000000000000000000000000000000081526004016111aa9061421c565b60405180910390fd5b6040518060c001604052808573ffffffffffffffffffffffffffffffffffffffff1681526020018481526020013373ffffffffffffffffffffffffffffffffffffffff16815260200183815260200142815260200142815250600260008673ffffffffffffffffffffffffffffffffffffffff1673ffffffffffffffffffffffffffffffffffffffff168152602001908152602001600020600085815260200190815260200160002060008201518160000160006101000a81548173ffffffffffffffffffffffffffffffffffffffff021916908373ffffffffffffffffffffffffffffffffffffffff1602179055506020820151816001015560408201518160020160006101000a81548173ffffffffffffffffffffffffffffffffffffffff021916908373ffffffffffffffffffffffffffffffffffffffff160217905550606082015181600301556080820151816004015560a08201518160050155905050600360003373ffffffffffffffffffffffffffffffffffffffff1673ffffffffffffffffffffffffffffffffffffffff168152602001908152602001600020600260008673ffffffffffffffffffffffffffffffffffffffff1673ffffffffffffffffffffffffffffffffffffffff168152602001908152602001600020600085815260200190815260200160002090806001815401808255809150506001900390600052602060002090600602016000909190919091506000820160009054906101000a900473ffffffffffffffffffffffffffffffffffffffff168160000160006101000a81548173ffffffffffffffffffffffffffffffffffffffff021916908373ffffffffffffffffffffffffffffffffffffffff160217905550600182015481600101556002820160009054906101000a900473ffffffffffffffffffffffffffffffffffffffff168160020160006101000a81548173ffffffffffffffffffffffffffffffffffffffff021916908373ffffffffffffffffffffffffffffffffffffffff160217905550600382015481600301556004820154816004015560058201548160050155505060046040518061012001604052808673ffffffffffffffffffffffffffffffffffffffff1681526020018581526020013373ffffffffffffffffffffffffffffffffffffffff1681526020018481526020014281526020014281526020016000815260200160008152602001600073ffffffffffffffffffffffffffffffffffffffff16815250908060018154018082558091505060019003906000526020600020906009020160009091909190915060008201518160000160006101000a81548173ffffffffffffffffffffffffffffffffffffffff021916908373ffffffffffffffffffffffffffffffffffffffff1602179055506020820151816001015560408201518160020160006101000a81548173ffffffffffffffffffffffffffffffffffffffff021916908373ffffffffffffffffffffffffffffffffffffffff160217905550606082015181600301556080820151816004015560a0820151816005015560c0820151816006015560e082015181600701556101008201518160080160006101000a81548173ffffffffffffffffffffffffffffffffffffffff021916908373ffffffffffffffffffffffffffffffffffffffff16021790555050503373ffffffffffffffffffffffffffffffffffffffff16838573ffffffffffffffffffffffffffffffffffffffff167fbd5d1836d4114b1a1785c873a084824203ab9c294b3694e6a9fa69234a9113c685426040516116e9929190613db0565b60405180910390a4506116fa613145565b505050565b60008060009054906101000a900473ffffffffffffffffffffffffffffffffffffffff16905090565b6117306130ff565b6000600260008473ffffffffffffffffffffffffffffffffffffffff1673ffffffffffffffffffffffffffffffffffffffff16815260200190815260200160002060008381526020019081526020016000206040518060c00160405290816000820160009054906101000a900473ffffffffffffffffffffffffffffffffffffffff1673ffffffffffffffffffffffffffffffffffffffff1673ffffffffffffffffffffffffffffffffffffffff168152602001600182015481526020016002820160009054906101000a900473ffffffffffffffffffffffffffffffffffffffff1673ffffffffffffffffffffffffffffffffffffffff1673ffffffffffffffffffffffffffffffffffffffff16815260200160038201548152602001600482015481526020016005820154815250509050600073ffffffffffffffffffffffffffffffffffffffff16816040015173ffffffffffffffffffffffffffffffffffffffff16036118d6576040517f08c379a00000000000000000000000000000000000000000000000000000000081526004016118cd90614288565b60405180910390fd5b3373ffffffffffffffffffffffffffffffffffffffff16816040015173ffffffffffffffffffffffffffffffffffffffff1603611948576040517f08c379a000000000000000000000000000000000000000000000000000000000815260040161193f906142f4565b60405180910390fd5b8273ffffffffffffffffffffffffffffffffffffffff1663e985e9c58260400151306040518363ffffffff1660e01b8152600401611987929190614142565b602060405180830381865afa1580156119a4573d6000803e3d6000fd5b505050506040513d601f19601f820116820180604052508101906119c891906141a3565b611a07576040517f08c379a00000000000000000000000000000000000000000000000000000000081526004016119fe9061421c565b60405180910390fd5b8060600151341015611a4e576040517f08c379a0000000000000000000000000000000000000000000000000000000008152600401611a4590614360565b60405180910390fd5b60008373ffffffffffffffffffffffffffffffffffffffff1663b3912597846040518263ffffffff1660e01b8152600401611a899190613922565b602060405180830381865afa158015611aa6573d6000803e3d6000fd5b505050506040513d601f19601f82011682018060405250810190611aca9190614395565b905060008473ffffffffffffffffffffffffffffffffffffffff16637539fc5c856040518263ffffffff1660e01b8152600401611b079190613922565b602060405180830381865afa158015611b24573d6000803e3d6000fd5b505050506040513d601f19601f82011682018060405250810190611b4891906140a9565b905060006064838560600151611b5e91906143c2565b611b689190614433565b905034811115611bad576040517f08c379a0000000000000000000000000000000000000000000000000000000008152600401611ba4906144b0565b60405180910390fd5b6000818560600151611bbf9190613e08565b9050611bd08787876040015161314e565b600060048054905090505b6000811115611e2f578773ffffffffffffffffffffffffffffffffffffffff166004600183611c0a9190613e08565b81548110611c1b57611c1a613e3c565b5b906000526020600020906009020160000160009054906101000a900473ffffffffffffffffffffffffffffffffffffffff1673ffffffffffffffffffffffffffffffffffffffff16148015611ca05750866004600183611c7b9190613e08565b81548110611c8c57611c8b613e3c565b5b906000526020600020906009020160010154145b8015611d2c5750856040015173ffffffffffffffffffffffffffffffffffffffff166004600183611cd19190613e08565b81548110611ce257611ce1613e3c565b5b906000526020600020906009020160020160009054906101000a900473ffffffffffffffffffffffffffffffffffffffff1673ffffffffffffffffffffffffffffffffffffffff16145b8015611d6c575085608001516004600183611d479190613e08565b81548110611d5857611d57613e3c565b5b906000526020600020906009020160040154145b15611e1c57426004600183611d819190613e08565b81548110611d9257611d91613e3c565b5b906000526020600020906009020160070181905550336004600183611db79190613e08565b81548110611dc857611dc7613e3c565b5b906000526020600020906009020160080160006101000a81548173ffffffffffffffffffffffffffffffffffffffff021916908373ffffffffffffffffffffffffffffffffffffffff160217905550611e2f565b8080611e2790613e6b565b915050611bdb565b508673ffffffffffffffffffffffffffffffffffffffff166342842e0e866040015133896040518463ffffffff1660e01b8152600401611e71939291906144d0565b600060405180830381600087803b158015611e8b57600080fd5b505af1158015611e9f573d6000803e3d6000fd5b505050506000821115611ef4578273ffffffffffffffffffffffffffffffffffffffff166108fc839081150290604051600060405180830381858888f19350505050158015611ef2573d6000803e3d6000fd5b505b846040015173ffffffffffffffffffffffffffffffffffffffff166108fc829081150290604051600060405180830381858888f19350505050158015611f3e573d6000803e3d6000fd5b50858773ffffffffffffffffffffffffffffffffffffffff167f2781b6bf1d50821bde8d8e1ea36be5557167d6b25dde84a52efb147adf2e6d35876040015133896060015142604051611f949493929190614507565b60405180910390a35050505050611fa9613145565b5050565b6060600060048054905090506000805b8281101561203e57600060048281548110611fdb57611fda613e3c565b5b906000526020600020906009020160060154118061201e575060006004828154811061200a57612009613e3c565b5b906000526020600020906009020160070154115b61203157818061202d90613ec3565b9250505b8080600101915050611fbd565b50600081036120a557600067ffffffffffffffff81111561206257612061613e94565b5b60405190808252806020026020018201604052801561209b57816020015b61208861371d565b8152602001906001900390816120805790505b5092505050612315565b60008167ffffffffffffffff8111156120c1576120c0613e94565b5b6040519080825280602002602001820160405280156120fa57816020015b6120e761371d565b8152602001906001900390816120df5790505b5090506000805b8481101561230c5760006004828154811061211f5761211e613e3c565b5b9060005260206000209060090201600601541180612162575060006004828154811061214e5761214d613e3c565b5b906000526020600020906009020160070154115b6122ff576004818154811061217a57612179613e3c565b5b9060005260206000209060090201604051806101200160405290816000820160009054906101000a900473ffffffffffffffffffffffffffffffffffffffff1673ffffffffffffffffffffffffffffffffffffffff1673ffffffffffffffffffffffffffffffffffffffff168152602001600182015481526020016002820160009054906101000a900473ffffffffffffffffffffffffffffffffffffffff1673ffffffffffffffffffffffffffffffffffffffff1673ffffffffffffffffffffffffffffffffffffffff16815260200160038201548152602001600482015481526020016005820154815260200160068201548152602001600782015481526020016008820160009054906101000a900473ffffffffffffffffffffffffffffffffffffffff1673ffffffffffffffffffffffffffffffffffffffff1673ffffffffffffffffffffffffffffffffffffffff16815250508383815181106122e5576122e4613e3c565b5b602002602001018190525081806122fb90613ec3565b9250505b8080600101915050612101565b50819450505050505b90565b6000600260008473ffffffffffffffffffffffffffffffffffffffff1673ffffffffffffffffffffffffffffffffffffffff16815260200190815260200160002060008381526020019081526020016000206040518060c00160405290816000820160009054906101000a900473ffffffffffffffffffffffffffffffffffffffff1673ffffffffffffffffffffffffffffffffffffffff1673ffffffffffffffffffffffffffffffffffffffff168152602001600182015481526020016002820160009054906101000a900473ffffffffffffffffffffffffffffffffffffffff1673ffffffffffffffffffffffffffffffffffffffff1673ffffffffffffffffffffffffffffffffffffffff16815260200160038201548152602001600482015481526020016005820154815250509050600073ffffffffffffffffffffffffffffffffffffffff16816040015173ffffffffffffffffffffffffffffffffffffffff16036124be576040517f08c379a00000000000000000000000000000000000000000000000000000000081526004016124b590614288565b60405180910390fd5b3373ffffffffffffffffffffffffffffffffffffffff16816040015173ffffffffffffffffffffffffffffffffffffffff1614612530576040517f08c379a000000000000000000000000000000000000000000000000000000000815260040161252790614598565b60405180910390fd5b61253f8383836040015161314e565b818373ffffffffffffffffffffffffffffffffffffffff167f25164b296f6f11aec8bd7dd4fc2b26e884fe09e27ff3852f49459976584f045d426040516125869190613922565b60405180910390a3505050565b6000600554905090565b6125a56137ab565b600260008473ffffffffffffffffffffffffffffffffffffffff1673ffffffffffffffffffffffffffffffffffffffff16815260200190815260200160002060008381526020019081526020016000206040518060c00160405290816000820160009054906101000a900473ffffffffffffffffffffffffffffffffffffffff1673ffffffffffffffffffffffffffffffffffffffff1673ffffffffffffffffffffffffffffffffffffffff168152602001600182015481526020016002820160009054906101000a900473ffffffffffffffffffffffffffffffffffffffff1673ffffffffffffffffffffffffffffffffffffffff1673ffffffffffffffffffffffffffffffffffffffff1681526020016003820154815260200160048201548152602001600582015481525050905092915050565b6060600360008373ffffffffffffffffffffffffffffffffffffffff1673ffffffffffffffffffffffffffffffffffffffff168152602001908152602001600020805480602002602001604051908101604052809291908181526020016000905b8282101561284357838290600052602060002090600602016040518060c00160405290816000820160009054906101000a900473ffffffffffffffffffffffffffffffffffffffff1673ffffffffffffffffffffffffffffffffffffffff1673ffffffffffffffffffffffffffffffffffffffff168152602001600182015481526020016002820160009054906101000a900473ffffffffffffffffffffffffffffffffffffffff1673ffffffffffffffffffffffffffffffffffffffff1673ffffffffffffffffffffffffffffffffffffffff16815260200160038201548152602001600482015481526020016005820154815250508152602001906001019061273d565b505050509050919050565b612856612fb4565b600073ffffffffffffffffffffffffffffffffffffffff168173ffffffffffffffffffffffffffffffffffffffff16036128c85760006040517f1e4fbdf70000000000000000000000000000000000000000000000000000000081526004016128bf9190613b86565b60405180910390fd5b6128d18161303b565b50565b6000600260008573ffffffffffffffffffffffffffffffffffffffff1673ffffffffffffffffffffffffffffffffffffffff16815260200190815260200160002060008481526020019081526020016000209050600073ffffffffffffffffffffffffffffffffffffffff168160020160009054906101000a900473ffffffffffffffffffffffffffffffffffffffff1673ffffffffffffffffffffffffffffffffffffffff16036129bb576040517f08c379a00000000000000000000000000000000000000000000000000000000081526004016129b290614288565b60405180910390fd5b3373ffffffffffffffffffffffffffffffffffffffff168160020160009054906101000a900473ffffffffffffffffffffffffffffffffffffffff1673ffffffffffffffffffffffffffffffffffffffff1614612a4d576040517f08c379a0000000000000000000000000000000000000000000000000000000008152600401612a4490614598565b60405180910390fd5b60648211612a90576040517f08c379a0000000000000000000000000000000000000000000000000000000008152600401612a8790614008565b60405180910390fd5b80600301548203612ad6576040517f08c379a0000000000000000000000000000000000000000000000000000000008152600401612acd90614604565b60405180910390fd5b81816003018190555042816005018190555060005b600360003373ffffffffffffffffffffffffffffffffffffffff1673ffffffffffffffffffffffffffffffffffffffff16815260200190815260200160002080549050811015612d38578473ffffffffffffffffffffffffffffffffffffffff16600360003373ffffffffffffffffffffffffffffffffffffffff1673ffffffffffffffffffffffffffffffffffffffff1681526020019081526020016000208281548110612b9d57612b9c613e3c565b5b906000526020600020906006020160000160009054906101000a900473ffffffffffffffffffffffffffffffffffffffff1673ffffffffffffffffffffffffffffffffffffffff16148015612c53575083600360003373ffffffffffffffffffffffffffffffffffffffff1673ffffffffffffffffffffffffffffffffffffffff1681526020019081526020016000208281548110612c3f57612c3e613e3c565b5b906000526020600020906006020160010154145b15612d2b5782600360003373ffffffffffffffffffffffffffffffffffffffff1673ffffffffffffffffffffffffffffffffffffffff1681526020019081526020016000208281548110612caa57612ca9613e3c565b5b90600052602060002090600602016003018190555042600360003373ffffffffffffffffffffffffffffffffffffffff1673ffffffffffffffffffffffffffffffffffffffff1681526020019081526020016000208281548110612d1157612d10613e3c565b5b906000526020600020906006020160050181905550612d38565b8080600101915050612aeb565b50600060048054905090505b6000811115612f5a578473ffffffffffffffffffffffffffffffffffffffff166004600183612d739190613e08565b81548110612d8457612d83613e3c565b5b906000526020600020906009020160000160009054906101000a900473ffffffffffffffffffffffffffffffffffffffff1673ffffffffffffffffffffffffffffffffffffffff16148015612e095750836004600183612de49190613e08565b81548110612df557612df4613e3c565b5b906000526020600020906009020160010154145b8015612e9157503373ffffffffffffffffffffffffffffffffffffffff166004600183612e369190613e08565b81548110612e4757612e46613e3c565b5b906000526020600020906009020160020160009054906101000a900473ffffffffffffffffffffffffffffffffffffffff1673ffffffffffffffffffffffffffffffffffffffff16145b8015612ed1575081600401546004600183612eac9190613e08565b81548110612ebd57612ebc613e3c565b5b906000526020600020906009020160040154145b15612f4757826004600183612ee69190613e08565b81548110612ef757612ef6613e3c565b5b906000526020600020906009020160030181905550426004600183612f1c9190613e08565b81548110612f2d57612f2c613e3c565b5b906000526020600020906009020160050181905550612f5a565b8080612f5290613e6b565b915050612d44565b50828473ffffffffffffffffffffffffffffffffffffffff167fb8f3dda438349ef6632f812d6bc7aa3c2cfdb9e02aa0aac16324dcebbdc02bbb338542604051612fa693929190614624565b60405180910390a350505050565b612fbc613715565b73ffffffffffffffffffffffffffffffffffffffff16612fda6116ff565b73ffffffffffffffffffffffffffffffffffffffff161461303957612ffd613715565b6040517f118cdaa70000000000000000000000000000000000000000000000000000000081526004016130309190613b86565b60405180910390fd5b565b60008060009054906101000a900473ffffffffffffffffffffffffffffffffffffffff169050816000806101000a81548173ffffffffffffffffffffffffffffffffffffffff021916908373ffffffffffffffffffffffffffffffffffffffff1602179055508173ffffffffffffffffffffffffffffffffffffffff168173ffffffffffffffffffffffffffffffffffffffff167f8be0079c531659141344cd1fd0a4f28419497f9722a3daafe3b4186f6b6457e060405160405180910390a35050565b60026001540361313b576040517f3ee5aeb500000000000000000000000000000000000000000000000000000000815260040160405180910390fd5b6002600181905550565b60018081905550565b600260008473ffffffffffffffffffffffffffffffffffffffff1673ffffffffffffffffffffffffffffffffffffffff1681526020019081526020016000206000838152602001908152602001600020600080820160006101000a81549073ffffffffffffffffffffffffffffffffffffffff021916905560018201600090556002820160006101000a81549073ffffffffffffffffffffffffffffffffffffffff021916905560038201600090556004820160009055600582016000905550506000600360008373ffffffffffffffffffffffffffffffffffffffff1673ffffffffffffffffffffffffffffffffffffffff16815260200190815260200160002090506000805b8280549050811015613525578573ffffffffffffffffffffffffffffffffffffffff1683828154811061328c5761328b613e3c565b5b906000526020600020906006020160000160009054906101000a900473ffffffffffffffffffffffffffffffffffffffff1673ffffffffffffffffffffffffffffffffffffffff161480156133045750848382815481106132f0576132ef613e3c565b5b906000526020600020906006020160010154145b156135185782818154811061331c5761331b613e3c565b5b906000526020600020906006020160040154915082600184805490506133429190613e08565b8154811061335357613352613e3c565b5b906000526020600020906006020183828154811061337457613373613e3c565b5b90600052602060002090600602016000820160009054906101000a900473ffffffffffffffffffffffffffffffffffffffff168160000160006101000a81548173ffffffffffffffffffffffffffffffffffffffff021916908373ffffffffffffffffffffffffffffffffffffffff160217905550600182015481600101556002820160009054906101000a900473ffffffffffffffffffffffffffffffffffffffff168160020160006101000a81548173ffffffffffffffffffffffffffffffffffffffff021916908373ffffffffffffffffffffffffffffffffffffffff1602179055506003820154816003015560048201548160040155600582015481600501559050508280548061348c5761348b61465b565b5b6001900381819060005260206000209060060201600080820160006101000a81549073ffffffffffffffffffffffffffffffffffffffff021916905560018201600090556002820160006101000a81549073ffffffffffffffffffffffffffffffffffffffff021916905560038201600090556004820160009055600582016000905550509055613525565b8080600101915050613256565b50600060048054905090505b600081111561370d578573ffffffffffffffffffffffffffffffffffffffff1660046001836135609190613e08565b8154811061357157613570613e3c565b5b906000526020600020906009020160000160009054906101000a900473ffffffffffffffffffffffffffffffffffffffff1673ffffffffffffffffffffffffffffffffffffffff161480156135f657508460046001836135d19190613e08565b815481106135e2576135e1613e3c565b5b906000526020600020906009020160010154145b801561367e57508373ffffffffffffffffffffffffffffffffffffffff1660046001836136239190613e08565b8154811061363457613633613e3c565b5b906000526020600020906009020160020160009054906101000a900473ffffffffffffffffffffffffffffffffffffffff1673ffffffffffffffffffffffffffffffffffffffff16145b80156136ba57508160046001836136959190613e08565b815481106136a6576136a5613e3c565b5b906000526020600020906009020160040154145b156136fa574260046001836136cf9190613e08565b815481106136e0576136df613e3c565b5b90600052602060002090600902016006018190555061370d565b808061370590613e6b565b915050613531565b505050505050565b600033905090565b604051806101200160405280600073ffffffffffffffffffffffffffffffffffffffff16815260200160008152602001600073ffffffffffffffffffffffffffffffffffffffff1681526020016000815260200160008152602001600081526020016000815260200160008152602001600073ffffffffffffffffffffffffffffffffffffffff1681525090565b6040518060c00160405280600073ffffffffffffffffffffffffffffffffffffffff16815260200160008152602001600073ffffffffffffffffffffffffffffffffffffffff1681526020016000815260200160008152602001600081525090565b600080fd5b6000819050919050565b61382581613812565b811461383057600080fd5b50565b6000813590506138428161381c565b92915050565b60006020828403121561385e5761385d61380d565b5b600061386c84828501613833565b91505092915050565b600073ffffffffffffffffffffffffffffffffffffffff82169050919050565b60006138a082613875565b9050919050565b6138b081613895565b81146138bb57600080fd5b50565b6000813590506138cd816138a7565b92915050565b600080604083850312156138ea576138e961380d565b5b60006138f8858286016138be565b925050602061390985828601613833565b9150509250929050565b61391c81613812565b82525050565b60006020820190506139376000830184613913565b92915050565b600080604083850312156139545761395361380d565b5b600061396285828601613833565b925050602061397385828601613833565b9150509250929050565b600081519050919050565b600082825260208201905092915050565b6000819050602082019050919050565b6139b281613895565b82525050565b6139c181613812565b82525050565b610120820160008201516139de60008501826139a9565b5060208201516139f160208501826139b8565b506040820151613a0460408501826139a9565b506060820151613a1760608501826139b8565b506080820151613a2a60808501826139b8565b5060a0820151613a3d60a08501826139b8565b5060c0820151613a5060c08501826139b8565b5060e0820151613a6360e08501826139b8565b50610100820151613a786101008501826139a9565b50505050565b6000613a8a83836139c7565b6101208301905092915050565b6000602082019050919050565b6000613aaf8261397d565b613ab98185613988565b9350613ac483613999565b8060005b83811015613af5578151613adc8882613a7e565b9750613ae783613a97565b925050600181019050613ac8565b5085935050505092915050565b60006020820190508181036000830152613b1c8184613aa4565b905092915050565b600080600060608486031215613b3d57613b3c61380d565b5b6000613b4b868287016138be565b9350506020613b5c86828701613833565b9250506040613b6d86828701613833565b9150509250925092565b613b8081613895565b82525050565b6000602082019050613b9b6000830184613b77565b92915050565b60c082016000820151613bb760008501826139a9565b506020820151613bca60208501826139b8565b506040820151613bdd60408501826139a9565b506060820151613bf060608501826139b8565b506080820151613c0360808501826139b8565b5060a0820151613c1660a08501826139b8565b50505050565b600060c082019050613c316000830184613ba1565b92915050565b600060208284031215613c4d57613c4c61380d565b5b6000613c5b848285016138be565b91505092915050565b600081519050919050565b600082825260208201905092915050565b6000819050602082019050919050565b60c082016000820151613ca660008501826139a9565b506020820151613cb960208501826139b8565b506040820151613ccc60408501826139a9565b506060820151613cdf60608501826139b8565b506080820151613cf260808501826139b8565b5060a0820151613d0560a08501826139b8565b50505050565b6000613d178383613c90565b60c08301905092915050565b6000602082019050919050565b6000613d3b82613c64565b613d458185613c6f565b9350613d5083613c80565b8060005b83811015613d81578151613d688882613d0b565b9750613d7383613d23565b925050600181019050613d54565b5085935050505092915050565b60006020820190508181036000830152613da88184613d30565b905092915050565b6000604082019050613dc56000830185613913565b613dd26020830184613913565b9392505050565b7f4e487b7100000000000000000000000000000000000000000000000000000000600052601160045260246000fd5b6000613e1382613812565b9150613e1e83613812565b9250828203905081811115613e3657613e35613dd9565b5b92915050565b7f4e487b7100000000000000000000000000000000000000000000000000000000600052603260045260246000fd5b6000613e7682613812565b915060008203613e8957613e88613dd9565b5b600182039050919050565b7f4e487b7100000000000000000000000000000000000000000000000000000000600052604160045260246000fd5b6000613ece82613812565b91507fffffffffffffffffffffffffffffffffffffffffffffffffffffffffffffffff8203613f0057613eff613dd9565b5b600182019050919050565b6000613f1682613812565b9150613f2183613812565b9250828201905080821115613f3957613f38613dd9565b5b92915050565b600082825260208201905092915050565b7f4c697374696e6720666565206e6f742070616964000000000000000000000000600082015250565b6000613f86601483613f3f565b9150613f9182613f50565b602082019050919050565b60006020820190508181036000830152613fb581613f79565b9050919050565b7f5072696365206d757374206265203e2031303020776569000000000000000000600082015250565b6000613ff2601783613f3f565b9150613ffd82613fbc565b602082019050919050565b6000602082019050818103600083015261402181613fe5565b9050919050565b7f416c7265616479206c6973746564000000000000000000000000000000000000600082015250565b600061405e600e83613f3f565b915061406982614028565b602082019050919050565b6000602082019050818103600083015261408d81614051565b9050919050565b6000815190506140a3816138a7565b92915050565b6000602082840312156140bf576140be61380d565b5b60006140cd84828501614094565b91505092915050565b7f4e6f74206f776e65720000000000000000000000000000000000000000000000600082015250565b600061410c600983613f3f565b9150614117826140d6565b602082019050919050565b6000602082019050818103600083015261413b816140ff565b9050919050565b60006040820190506141576000830185613b77565b6141646020830184613b77565b9392505050565b60008115159050919050565b6141808161416b565b811461418b57600080fd5b50565b60008151905061419d81614177565b92915050565b6000602082840312156141b9576141b861380d565b5b60006141c78482850161418e565b91505092915050565b7f4d61726b6574706c616365206e6f7420617070726f7665640000000000000000600082015250565b6000614206601883613f3f565b9150614211826141d0565b602082019050919050565b60006020820190508181036000830152614235816141f9565b9050919050565b7f4e6f74206c697374656400000000000000000000000000000000000000000000600082015250565b6000614272600a83613f3f565b915061427d8261423c565b602082019050919050565b600060208201905081810360008301526142a181614265565b9050919050565b7f43616e6e6f742062757920796f7572206f776e206974656d0000000000000000600082015250565b60006142de601883613f3f565b91506142e9826142a8565b602082019050919050565b6000602082019050818103600083015261430d816142d1565b9050919050565b7f496e73756666696369656e742045544800000000000000000000000000000000600082015250565b600061434a601083613f3f565b915061435582614314565b602082019050919050565b600060208201905081810360008301526143798161433d565b9050919050565b60008151905061438f8161381c565b92915050565b6000602082840312156143ab576143aa61380d565b5b60006143b984828501614380565b91505092915050565b60006143cd82613812565b91506143d883613812565b92508282026143e681613812565b915082820484148315176143fd576143fc613dd9565b5b5092915050565b7f4e487b7100000000000000000000000000000000000000000000000000000000600052601260045260246000fd5b600061443e82613812565b915061444983613812565b92508261445957614458614404565b5b828204905092915050565b7f526f79616c7479206665652065786365656473207061796d656e740000000000600082015250565b600061449a601b83613f3f565b91506144a582614464565b602082019050919050565b600060208201905081810360008301526144c98161448d565b9050919050565b60006060820190506144e56000830186613b77565b6144f26020830185613b77565b6144ff6040830184613913565b949350505050565b600060808201905061451c6000830187613b77565b6145296020830186613b77565b6145366040830185613913565b6145436060830184613913565b95945050505050565b7f4e6f742073656c6c657200000000000000000000000000000000000000000000600082015250565b6000614582600a83613f3f565b915061458d8261454c565b602082019050919050565b600060208201905081810360008301526145b181614575565b9050919050565b7f507269636520616c72656164792073657420746f20746869732076616c756500600082015250565b60006145ee601f83613f3f565b91506145f9826145b8565b602082019050919050565b6000602082019050818103600083015261461d816145e1565b9050919050565b60006060820190506146396000830186613b77565b6146466020830185613913565b6146536040830184613913565b949350505050565b7f4e487b7100000000000000000000000000000000000000000000000000000000600052603160045260246000fdfea2646970667358221220b9df7eae200cdeca703b145a21925d768228c5e85df9d00e0cee1ab74dd51af664736f6c634300081c0033",
  "linkReferences": {},
  "deployedLinkReferences": {}
}