{
  "_format": "hh-sol-artifact-1",
  "contractName": "NFTv2",
  "sourceName": "contracts/NFTv2.sol",
  "abi": [
    {
      "inputs": [
        {
          "internalType": "address",
          "name": "marketplaceAddress",
          "type": "address"
        }
      ],
      "stateMutability": "nonpayable",
      "type": "constructor"
    },
    {
      "inputs": [
        {
          "internalType": "address",
          "name": "sender",
          "type": "address"
        },
        {
          "internalType": "uint256",
          "name": "tokenId",
          "type": "uint256"
        },
        {
          "internalType": "address",
          "name": "owner",
          "type": "address"
        }
      ],
      "name": "ERC721IncorrectOwner",
      "type": "error"
    },
    {
      "inputs": [
        {
          "internalType": "address",
          "name": "operator",
          "type": "address"
        },
        {
          "internalType": "uint256",
          "name": "tokenId",
          "type": "uint256"
        }
      ],
      "name": "ERC721InsufficientApproval",
      "type": "error"
    },
    {
      "inputs": [
        {
          "internalType": "address",
          "name": "approver",
          "type": "address"
        }
      ],
      "name": "ERC721InvalidApprover",
      "type": "error"
    },
    {
      "inputs": [
        {
          "internalType": "address",
          "name": "operator",
          "type": "address"
        }
      ],
      "name": "ERC721InvalidOperator",
      "type": "error"
    },
    {
      "inputs": [
        {
          "internalType": "address",
          "name": "owner",
          "type": "address"
        }
      ],
      "name": "ERC721InvalidOwner",
      "type": "error"
    },
    {
      "inputs": [
        {
          "internalType": "address",
          "name": "receiver",
          "type": "address"
        }
      ],
      "name": "ERC721InvalidReceiver",
      "type": "error"
    },
    {
      "inputs": [
        {
          "internalType": "address",
          "name": "sender",
          "type": "address"
        }
      ],
      "name": "ERC721InvalidSender",
      "type": "error"
    },
    {
      "inputs": [
        {
          "internalType": "uint256",
          "name": "tokenId",
          "type": "uint256"
        }
      ],
      "name": "ERC721NonexistentToken",
      "type": "error"
    },
    {
      "inputs": [
        {
          "internalType": "address",
          "name": "owner",
          "type": "address"
        }
      ],
      "name": "OwnableInvalidOwner",
      "type": "error"
    },
    {
      "inputs": [
        {
          "internalType": "address",
          "name": "account",
          "type": "address"
        }
      ],
      "name": "OwnableUnauthorizedAccount",
      "type": "error"
    },
    {
      "anonymous": false,
      "inputs": [
        {
          "indexed": true,
          "internalType": "address",
          "name": "owner",
          "type": "address"
        },
        {
          "indexed": true,
          "internalType": "address",
          "name": "approved",
          "type": "address"
        },
        {
          "indexed": true,
          "internalType": "uint256",
          "name": "tokenId",
          "type": "uint256"
        }
      ],
      "name": "Approval",
      "type": "event"
    },
    {
      "anonymous": false,
      "inputs": [
        {
          "indexed": true,
          "internalType": "address",
          "name": "owner",
          "type": "address"
        },
        {
          "indexed": true,
          "internalType": "address",
          "name": "operator",
          "type": "address"
        },
        {
          "indexed": false,
          "internalType": "bool",
          "name": "approved",
          "type": "bool"
        }
      ],
      "name": "ApprovalForAll",
      "type": "event"
    },
    {
      "anonymous": false,
      "inputs": [
        {
          "indexed": false,
          "internalType": "uint256",
          "name": "_fromTokenId",
          "type": "uint256"
        },
        {
          "indexed": false,
          "internalType": "uint256",
          "name": "_toTokenId",
          "type": "uint256"
        }
      ],
      "name": "BatchMetadataUpdate",
      "type": "event"
    },
    {
      "anonymous": false,
      "inputs": [
        {
          "indexed": false,
          "internalType": "uint256",
          "name": "_tokenId",
          "type": "uint256"
        }
      ],
      "name": "MetadataUpdate",
      "type": "event"
    },
    {
      "anonymous": false,
      "inputs": [
        {
          "indexed": true,
          "internalType": "address",
          "name": "creator",
          "type": "address"
        },
        {
          "indexed": true,
          "internalType": "uint256",
          "name": "tokenId",
          "type": "uint256"
        },
        {
          "indexed": false,
          "internalType": "string",
          "name": "tokenURI",
          "type": "string"
        },
        {
          "indexed": false,
          "internalType": "uint256",
          "name": "timestamp",
          "type": "uint256"
        }
      ],
      "name": "NFTMinted",
      "type": "event"
    },
    {
      "anonymous": false,
      "inputs": [
        {
          "indexed": true,
          "internalType": "uint256",
          "name": "tokenId",
          "type": "uint256"
        },
        {
          "indexed": false,
          "internalType": "uint256",
          "name": "newRoyalty",
          "type": "uint256"
        },
        {
          "indexed": false,
          "internalType": "uint256",
          "name": "timestamp",
          "type": "uint256"
        }
      ],
      "name": "NFTRoyaltyUpdated",
      "type": "event"
    },
    {
      "anonymous": false,
      "inputs": [
        {
          "indexed": true,
          "internalType": "address",
          "name": "previousOwner",
          "type": "address"
        },
        {
          "indexed": true,
          "internalType": "address",
          "name": "newOwner",
          "type": "address"
        }
      ],
      "name": "OwnershipTransferred",
      "type": "event"
    },
    {
      "anonymous": false,
      "inputs": [
        {
          "indexed": true,
          "internalType": "address",
          "name": "from",
          "type": "address"
        },
        {
          "indexed": true,
          "internalType": "address",
          "name": "to",
          "type": "address"
        },
        {
          "indexed": true,
          "internalType": "uint256",
          "name": "tokenId",
          "type": "uint256"
        }
      ],
      "name": "Transfer",
      "type": "event"
    },
    {
      "inputs": [
        {
          "internalType": "address",
          "name": "to",
          "type": "address"
        },
        {
          "internalType": "uint256",
          "name": "tokenId",
          "type": "uint256"
        }
      ],
      "name": "approve",
      "outputs": [],
      "stateMutability": "nonpayable",
      "type": "function"
    },
    {
      "inputs": [
        {
          "internalType": "address",
          "name": "owner",
          "type": "address"
        }
      ],
      "name": "balanceOf",
      "outputs": [
        {
          "internalType": "uint256",
          "name": "",
          "type": "uint256"
        }
      ],
      "stateMutability": "view",
      "type": "function"
    },
    {
      "inputs": [
        {
          "internalType": "uint256",
          "name": "tokenId",
          "type": "uint256"
        }
      ],
      "name": "getApproved",
      "outputs": [
        {
          "internalType": "address",
          "name": "",
          "type": "address"
        }
      ],
      "stateMutability": "view",
      "type": "function"
    },
    {
      "inputs": [
        {
          "internalType": "uint256",
          "name": "tokenId",
          "type": "uint256"
        }
      ],
      "name": "getCreatorOfToken",
      "outputs": [
        {
          "internalType": "address",
          "name": "",
          "type": "address"
        }
      ],
      "stateMutability": "view",
      "type": "function"
    },
    {
      "inputs": [],
      "name": "getMarketplaceAddress",
      "outputs": [
        {
          "internalType": "address",
          "name": "",
          "type": "address"
        }
      ],
      "stateMutability": "view",
      "type": "function"
    },
    {
      "inputs": [
        {
          "internalType": "uint256",
          "name": "tokenId",
          "type": "uint256"
        }
      ],
      "name": "getRoyaltyOfToken",
      "outputs": [
        {
          "internalType": "uint256",
          "name": "",
          "type": "uint256"
        }
      ],
      "stateMutability": "view",
      "type": "function"
    },
    {
      "inputs": [
        {
          "internalType": "address",
          "name": "creator",
          "type": "address"
        }
      ],
      "name": "getTokenInfoByCreator",
      "outputs": [
        {
          "components": [
            {
              "internalType": "uint256",
              "name": "tokenId",
              "type": "uint256"
            },
            {
              "internalType": "string",
              "name": "tokenURI",
              "type": "string"
            },
            {
              "internalType": "address",
              "name": "creator",
              "type": "address"
            },
            {
              "internalType": "address",
              "name": "owner",
              "type": "address"
            },
            {
              "internalType": "uint256",
              "name": "royaltyFee",
              "type": "uint256"
            },
            {
              "internalType": "uint256",
              "name": "mintedAt",
              "type": "uint256"
            }
          ],
          "internalType": "struct NFTv2.NFTInfoWithOwner[]",
          "name": "",
          "type": "tuple[]"
        }
      ],
      "stateMutability": "view",
      "type": "function"
    },
    {
      "inputs": [
        {
          "internalType": "uint256",
          "name": "tokenId",
          "type": "uint256"
        }
      ],
      "name": "getTokenInfoById",
      "outputs": [
        {
          "components": [
            {
              "internalType": "uint256",
              "name": "tokenId",
              "type": "uint256"
            },
            {
              "internalType": "string",
              "name": "tokenURI",
              "type": "string"
            },
            {
              "internalType": "address",
              "name": "creator",
              "type": "address"
            },
            {
              "internalType": "address",
              "name": "owner",
              "type": "address"
            },
            {
              "internalType": "uint256",
              "name": "royaltyFee",
              "type": "uint256"
            },
            {
              "internalType": "uint256",
              "name": "mintedAt",
              "type": "uint256"
            }
          ],
          "internalType": "struct NFTv2.NFTInfoWithOwner",
          "name": "",
          "type": "tuple"
        }
      ],
      "stateMutability": "view",
      "type": "function"
    },
    {
      "inputs": [
        {
          "internalType": "address",
          "name": "owner",
          "type": "address"
        }
      ],
      "name": "getTokenInfoByOwner",
      "outputs": [
        {
          "components": [
            {
              "internalType": "uint256",
              "name": "tokenId",
              "type": "uint256"
            },
            {
              "internalType": "string",
              "name": "tokenURI",
              "type": "string"
            },
            {
              "internalType": "address",
              "name": "creator",
              "type": "address"
            },
            {
              "internalType": "address",
              "name": "owner",
              "type": "address"
            },
            {
              "internalType": "uint256",
              "name": "royaltyFee",
              "type": "uint256"
            },
            {
              "internalType": "uint256",
              "name": "mintedAt",
              "type": "uint256"
            }
          ],
          "internalType": "struct NFTv2.NFTInfoWithOwner[]",
          "name": "",
          "type": "tuple[]"
        }
      ],
      "stateMutability": "view",
      "type": "function"
    },
    {
      "inputs": [
        {
          "internalType": "address",
          "name": "creator",
          "type": "address"
        }
      ],
      "name": "getTokensByCreator",
      "outputs": [
        {
          "internalType": "uint256[]",
          "name": "",
          "type": "uint256[]"
        }
      ],
      "stateMutability": "view",
      "type": "function"
    },
    {
      "inputs": [
        {
          "internalType": "address",
          "name": "owner",
          "type": "address"
        }
      ],
      "name": "getTokensByOwner",
      "outputs": [
        {
          "internalType": "uint256[]",
          "name": "",
          "type": "uint256[]"
        }
      ],
      "stateMutability": "view",
      "type": "function"
    },
    {
      "inputs": [
        {
          "internalType": "address",
          "name": "owner",
          "type": "address"
        },
        {
          "internalType": "address",
          "name": "operator",
          "type": "address"
        }
      ],
      "name": "isApprovedForAll",
      "outputs": [
        {
          "internalType": "bool",
          "name": "",
          "type": "bool"
        }
      ],
      "stateMutability": "view",
      "type": "function"
    },
    {
      "inputs": [
        {
          "internalType": "string",
          "name": "tokenURI",
          "type": "string"
        },
        {
          "internalType": "uint256",
          "name": "royaltyFee",
          "type": "uint256"
        }
      ],
      "name": "mint",
      "outputs": [
        {
          "internalType": "uint256",
          "name": "",
          "type": "uint256"
        }
      ],
      "stateMutability": "nonpayable",
      "type": "function"
    },
    {
      "inputs": [],
      "name": "name",
      "outputs": [
        {
          "internalType": "string",
          "name": "",
          "type": "string"
        }
      ],
      "stateMutability": "view",
      "type": "function"
    },
    {
      "inputs": [],
      "name": "owner",
      "outputs": [
        {
          "internalType": "address",
          "name": "",
          "type": "address"
        }
      ],
      "stateMutability": "view",
      "type": "function"
    },
    {
      "inputs": [
        {
          "internalType": "uint256",
          "name": "tokenId",
          "type": "uint256"
        }
      ],
      "name": "ownerOf",
      "outputs": [
        {
          "internalType": "address",
          "name": "",
          "type": "address"
        }
      ],
      "stateMutability": "view",
      "type": "function"
    },
    {
      "inputs": [],
      "name": "renounceOwnership",
      "outputs": [],
      "stateMutability": "nonpayable",
      "type": "function"
    },
    {
      "inputs": [
        {
          "internalType": "address",
          "name": "from",
          "type": "address"
        },
        {
          "internalType": "address",
          "name": "to",
          "type": "address"
        },
        {
          "internalType": "uint256",
          "name": "tokenId",
          "type": "uint256"
        }
      ],
      "name": "safeTransferFrom",
      "outputs": [],
      "stateMutability": "nonpayable",
      "type": "function"
    },
    {
      "inputs": [
        {
          "internalType": "address",
          "name": "from",
          "type": "address"
        },
        {
          "internalType": "address",
          "name": "to",
          "type": "address"
        },
        {
          "internalType": "uint256",
          "name": "tokenId",
          "type": "uint256"
        },
        {
          "internalType": "bytes",
          "name": "data",
          "type": "bytes"
        }
      ],
      "name": "safeTransferFrom",
      "outputs": [],
      "stateMutability": "nonpayable",
      "type": "function"
    },
    {
      "inputs": [
        {
          "internalType": "address",
          "name": "operator",
          "type": "address"
        },
        {
          "internalType": "bool",
          "name": "approved",
          "type": "bool"
        }
      ],
      "name": "setApprovalForAll",
      "outputs": [],
      "stateMutability": "nonpayable",
      "type": "function"
    },
    {
      "inputs": [
        {
          "internalType": "bytes4",
          "name": "interfaceId",
          "type": "bytes4"
        }
      ],
      "name": "supportsInterface",
      "outputs": [
        {
          "internalType": "bool",
          "name": "",
          "type": "bool"
        }
      ],
      "stateMutability": "view",
      "type": "function"
    },
    {
      "inputs": [],
      "name": "symbol",
      "outputs": [
        {
          "internalType": "string",
          "name": "",
          "type": "string"
        }
      ],
      "stateMutability": "view",
      "type": "function"
    },
    {
      "inputs": [
        {
          "internalType": "uint256",
          "name": "tokenId",
          "type": "uint256"
        }
      ],
      "name": "tokenURI",
      "outputs": [
        {
          "internalType": "string",
          "name": "",
          "type": "string"
        }
      ],
      "stateMutability": "view",
      "type": "function"
    },
    {
      "inputs": [
        {
          "internalType": "address",
          "name": "from",
          "type": "address"
        },
        {
          "internalType": "address",
          "name": "to",
          "type": "address"
        },
        {
          "internalType": "uint256",
          "name": "tokenId",
          "type": "uint256"
        }
      ],
      "name": "transferFrom",
      "outputs": [],
      "stateMutability": "nonpayable",
      "type": "function"
    },
    {
      "inputs": [
        {
          "internalType": "address",
          "name": "newOwner",
          "type": "address"
        }
      ],
      "name": "transferOwnership",
      "outputs": [],
      "stateMutability": "nonpayable",
      "type": "function"
    },
    {
      "inputs": [
        {
          "internalType": "uint256",
          "name": "tokenId",
          "type": "uint256"
        },
        {
          "internalType": "uint256",
          "name": "newRoyalty",
          "type": "uint256"
        }
      ],
      "name": "updateRoyalty",
      "outputs": [],
      "stateMutability": "nonpayable",
      "type": "function"
    }
  ],
  "bytecode": "0x608060405234801561001057600080fd5b5060405161476238038061476283398181016040528101906100329190610322565b336040518060400160405280600781526020017f544844204e4654000000000000000000000000000000000000000000000000008152506040518060400160405280600381526020017f544844000000000000000000000000000000000000000000000000000000000081525081600090816100ae919061059f565b5080600190816100be919061059f565b505050600073ffffffffffffffffffffffffffffffffffffffff168173ffffffffffffffffffffffffffffffffffffffff16036101335760006040517f1e4fbdf700000000000000000000000000000000000000000000000000000000815260040161012a9190610680565b60405180910390fd5b610142816101f960201b60201c565b50600073ffffffffffffffffffffffffffffffffffffffff168173ffffffffffffffffffffffffffffffffffffffff16036101b2576040517f08c379a00000000000000000000000000000000000000000000000000000000081526004016101a99061071e565b60405180910390fd5b80600960006101000a81548173ffffffffffffffffffffffffffffffffffffffff021916908373ffffffffffffffffffffffffffffffffffffffff1602179055505061073e565b6000600760009054906101000a900473ffffffffffffffffffffffffffffffffffffffff16905081600760006101000a81548173ffffffffffffffffffffffffffffffffffffffff021916908373ffffffffffffffffffffffffffffffffffffffff1602179055508173ffffffffffffffffffffffffffffffffffffffff168173ffffffffffffffffffffffffffffffffffffffff167f8be0079c531659141344cd1fd0a4f28419497f9722a3daafe3b4186f6b6457e060405160405180910390a35050565b600080fd5b600073ffffffffffffffffffffffffffffffffffffffff82169050919050565b60006102ef826102c4565b9050919050565b6102ff816102e4565b811461030a57600080fd5b50565b60008151905061031c816102f6565b92915050565b600060208284031215610338576103376102bf565b5b60006103468482850161030d565b91505092915050565b600081519050919050565b7f4e487b7100000000000000000000000000000000000000000000000000000000600052604160045260246000fd5b7f4e487b7100000000000000000000000000000000000000000000000000000000600052602260045260246000fd5b600060028204905060018216806103d057607f821691505b6020821081036103e3576103e2610389565b5b50919050565b60008190508160005260206000209050919050565b60006020601f8301049050919050565b600082821b905092915050565b60006008830261044b7fffffffffffffffffffffffffffffffffffffffffffffffffffffffffffffffff8261040e565b610455868361040e565b95508019841693508086168417925050509392505050565b6000819050919050565b6000819050919050565b600061049c6104976104928461046d565b610477565b61046d565b9050919050565b6000819050919050565b6104b683610481565b6104ca6104c2826104a3565b84845461041b565b825550505050565b600090565b6104df6104d2565b6104ea8184846104ad565b505050565b5b8181101561050e576105036000826104d7565b6001810190506104f0565b5050565b601f82111561055357610524816103e9565b61052d846103fe565b8101602085101561053c578190505b610550610548856103fe565b8301826104ef565b50505b505050565b600082821c905092915050565b600061057660001984600802610558565b1980831691505092915050565b600061058f8383610565565b9150826002028217905092915050565b6105a88261034f565b67ffffffffffffffff8111156105c1576105c061035a565b5b6105cb82546103b8565b6105d6828285610512565b600060209050601f83116001811461060957600084156105f7578287015190505b6106018582610583565b865550610669565b601f198416610617866103e9565b60005b8281101561063f5784890151825560018201915060208501945060208101905061061a565b8683101561065c5784890151610658601f891682610565565b8355505b6001600288020188555050505b505050505050565b61067a816102e4565b82525050565b60006020820190506106956000830184610671565b92915050565b600082825260208201905092915050565b7f4d61726b6574706c61636520616464726573732063616e6e6f74206265207a6560008201527f726f000000000000000000000000000000000000000000000000000000000000602082015250565b600061070860228361069b565b9150610713826106ac565b604082019050919050565b60006020820190508181036000830152610737816106fb565b9050919050565b6140158061074d6000396000f3fe608060405234801561001057600080fd5b506004361061018e5760003560e01c8063715018a6116100de578063b391259711610097578063c87b56dd11610071578063c87b56dd146104cd578063d5c71275146104fd578063e985e9c51461052d578063f2fde38b1461055d5761018e565b8063b391259714610463578063b88d4fde14610493578063bb8fe785146104af5761018e565b8063715018a6146103b55780637539fc5c146103bf578063809e0641146103ef5780638da5cb5b1461040b57806395d89b4114610429578063a22cb465146104475761018e565b806323b872dd1161014b57806342842e0e1161012557806342842e0e146103095780634ee9c4a5146103255780636352211e1461035557806370a08231146103855761018e565b806323b872dd1461028d57806332570d7d146102a957806340398d67146102d95761018e565b806301ffc9a714610193578063056b01ce146101c357806306fdde03146101f3578063081812fc14610211578063095ea7b3146102415780631f35e3471461025d575b600080fd5b6101ad60048036038101906101a89190612e04565b610579565b6040516101ba9190612e4c565b60405180910390f35b6101dd60048036038101906101d89190612fe3565b6105da565b6040516101ea919061304e565b60405180910390f35b6101fb610874565b60405161020891906130e8565b60405180910390f35b61022b6004803603810190610226919061310a565b610906565b6040516102389190613178565b60405180910390f35b61025b600480360381019061025691906131bf565b610922565b005b610277600480360381019061027291906131ff565b610938565b60405161028491906133df565b60405180910390f35b6102a760048036038101906102a29190613401565b610c0e565b005b6102c360048036038101906102be919061310a565b610d10565b6040516102d091906134dd565b60405180910390f35b6102f360048036038101906102ee91906131ff565b610ece565b60405161030091906135ae565b60405180910390f35b610323600480360381019061031e9190613401565b61102f565b005b61033f600480360381019061033a91906131ff565b61104f565b60405161034c91906133df565b60405180910390f35b61036f600480360381019061036a919061310a565b61138a565b60405161037c9190613178565b60405180910390f35b61039f600480360381019061039a91906131ff565b61139c565b6040516103ac919061304e565b60405180910390f35b6103bd611456565b005b6103d960048036038101906103d4919061310a565b61146a565b6040516103e69190613178565b60405180910390f35b610409600480360381019061040491906135d0565b6114f2565b005b6104136116ed565b6040516104209190613178565b60405180910390f35b610431611717565b60405161043e91906130e8565b60405180910390f35b610461600480360381019061045c919061363c565b6117a9565b005b61047d6004803603810190610478919061310a565b6117bf565b60405161048a919061304e565b60405180910390f35b6104ad60048036038101906104a8919061371d565b611827565b005b6104b761184c565b6040516104c49190613178565b60405180910390f35b6104e760048036038101906104e2919061310a565b611876565b6040516104f491906130e8565b60405180910390f35b610517600480360381019061051291906131ff565b611989565b60405161052491906135ae565b60405180910390f35b610547600480360381019061054291906137a0565b611b4f565b6040516105549190612e4c565b60405180910390f35b610577600480360381019061057291906131ff565b611be3565b005b6000634906490660e01b7bffffffffffffffffffffffffffffffffffffffffffffffffffffffff1916827bffffffffffffffffffffffffffffffffffffffffffffffffffffffff191614806105d357506105d282611c69565b5b9050919050565b60008082101561061f576040517f08c379a00000000000000000000000000000000000000000000000000000000081526004016106169061382c565b60405180910390fd5b6064821115610663576040517f08c379a000000000000000000000000000000000000000000000000000000000815260040161065a90613898565b60405180910390fd5b60086000815480929190610676906138e7565b91905055506000600854905061068c3382611d4b565b6106968185611d69565b6001600a60003373ffffffffffffffffffffffffffffffffffffffff1673ffffffffffffffffffffffffffffffffffffffff16815260200190815260200160002060008282546106e6919061392f565b925050819055506040518060a001604052808281526020018581526020013373ffffffffffffffffffffffffffffffffffffffff16815260200184815260200142815250600b600083815260200190815260200160002060008201518160000155602082015181600101908161075c9190613b6f565b5060408201518160020160006101000a81548173ffffffffffffffffffffffffffffffffffffffff021916908373ffffffffffffffffffffffffffffffffffffffff16021790555060608201518160030155608082015181600401559050506107e733600960009054906101000a900473ffffffffffffffffffffffffffffffffffffffff16611b4f565b61081957610818600960009054906101000a900473ffffffffffffffffffffffffffffffffffffffff1660016117a9565b5b803373ffffffffffffffffffffffffffffffffffffffff167f7f9dd5d8fa69e733db2277a568b65a9651a3042da18fb2b5ea1966d3891cbfda8642604051610862929190613c41565b60405180910390a38091505092915050565b60606000805461088390613992565b80601f01602080910402602001604051908101604052809291908181526020018280546108af90613992565b80156108fc5780601f106108d1576101008083540402835291602001916108fc565b820191906000526020600020905b8154815290600101906020018083116108df57829003601f168201915b5050505050905090565b600061091182611dc5565b5061091b82611e4d565b9050919050565b610934828261092f611e8a565b611e92565b5050565b606060006109458361139c565b9050600081036109ac57600067ffffffffffffffff81111561096a57610969612e82565b5b6040519080825280602002602001820160405280156109a357816020015b610990612d36565b8152602001906001900390816109885790505b50915050610c09565b60008167ffffffffffffffff8111156109c8576109c7612e82565b5b604051908082528060200260200182016040528015610a0157816020015b6109ee612d36565b8152602001906001900390816109e65790505b5090506000805b600854811015610c01576000600182610a21919061392f565b90508673ffffffffffffffffffffffffffffffffffffffff16610a438261138a565b73ffffffffffffffffffffffffffffffffffffffff1614610a645750610bf4565b6040518060c00160405280828152602001600b60008481526020019081526020016000206001018054610a9690613992565b80601f0160208091040260200160405190810160405280929190818152602001828054610ac290613992565b8015610b0f5780601f10610ae457610100808354040283529160200191610b0f565b820191906000526020600020905b815481529060010190602001808311610af257829003601f168201915b50505050508152602001600b600084815260200190815260200160002060020160009054906101000a900473ffffffffffffffffffffffffffffffffffffffff1673ffffffffffffffffffffffffffffffffffffffff168152602001610b748361138a565b73ffffffffffffffffffffffffffffffffffffffff168152602001600b6000848152602001908152602001600020600301548152602001600b600084815260200190815260200160002060040154815250848481518110610bd857610bd7613c71565b5b6020026020010181905250600183610bf0919061392f565b9250505b8080600101915050610a08565b508193505050505b919050565b600073ffffffffffffffffffffffffffffffffffffffff168273ffffffffffffffffffffffffffffffffffffffff1603610c805760006040517f64a0ae92000000000000000000000000000000000000000000000000000000008152600401610c779190613178565b60405180910390fd5b6000610c948383610c8f611e8a565b611ea4565b90508373ffffffffffffffffffffffffffffffffffffffff168173ffffffffffffffffffffffffffffffffffffffff1614610d0a578382826040517f64283d7b000000000000000000000000000000000000000000000000000000008152600401610d0193929190613ca0565b60405180910390fd5b50505050565b610d18612d36565b610d21826120be565b610d60576040517f08c379a0000000000000000000000000000000000000000000000000000000008152600401610d5790613d23565b60405180910390fd5b60006040518060c00160405280848152602001600b60008681526020019081526020016000206001018054610d9490613992565b80601f0160208091040260200160405190810160405280929190818152602001828054610dc090613992565b8015610e0d5780601f10610de257610100808354040283529160200191610e0d565b820191906000526020600020905b815481529060010190602001808311610df057829003601f168201915b50505050508152602001600b600086815260200190815260200160002060020160009054906101000a900473ffffffffffffffffffffffffffffffffffffffff1673ffffffffffffffffffffffffffffffffffffffff168152602001610e728561138a565b73ffffffffffffffffffffffffffffffffffffffff168152602001600b6000868152602001908152602001600020600301548152602001600b600086815260200190815260200160002060040154815250905080915050919050565b60606000610edb8361139c565b905060008103610f3757600067ffffffffffffffff811115610f0057610eff612e82565b5b604051908082528060200260200182016040528015610f2e5781602001602082028036833780820191505090505b5091505061102a565b60008167ffffffffffffffff811115610f5357610f52612e82565b5b604051908082528060200260200182016040528015610f815781602001602082028036833780820191505090505b5090506000805b600854811015611022576000600182610fa1919061392f565b90508673ffffffffffffffffffffffffffffffffffffffff16610fc38261138a565b73ffffffffffffffffffffffffffffffffffffffff1614610fe45750611015565b80848481518110610ff857610ff7613c71565b5b602002602001018181525050600183611011919061392f565b9250505b8080600101915050610f88565b508193505050505b919050565b61104a83838360405180602001604052806000815250611827565b505050565b60606000600a60008473ffffffffffffffffffffffffffffffffffffffff1673ffffffffffffffffffffffffffffffffffffffff168152602001908152602001600020549050600081036110fa57600067ffffffffffffffff8111156110b8576110b7612e82565b5b6040519080825280602002602001820160405280156110f157816020015b6110de612d36565b8152602001906001900390816110d65790505b50915050611385565b60008167ffffffffffffffff81111561111657611115612e82565b5b60405190808252806020026020018201604052801561114f57816020015b61113c612d36565b8152602001906001900390816111345790505b5090506000805b60085481101561137d57600060018261116f919061392f565b90508673ffffffffffffffffffffffffffffffffffffffff16600b600083815260200190815260200160002060020160009054906101000a900473ffffffffffffffffffffffffffffffffffffffff1673ffffffffffffffffffffffffffffffffffffffff16146111e05750611370565b6040518060c00160405280828152602001600b6000848152602001908152602001600020600101805461121290613992565b80601f016020809104026020016040519081016040528092919081815260200182805461123e90613992565b801561128b5780601f106112605761010080835404028352916020019161128b565b820191906000526020600020905b81548152906001019060200180831161126e57829003601f168201915b50505050508152602001600b600084815260200190815260200160002060020160009054906101000a900473ffffffffffffffffffffffffffffffffffffffff1673ffffffffffffffffffffffffffffffffffffffff1681526020016112f08361138a565b73ffffffffffffffffffffffffffffffffffffffff168152602001600b6000848152602001908152602001600020600301548152602001600b60008481526020019081526020016000206004015481525084848151811061135457611353613c71565b5b602002602001018190525060018361136c919061392f565b9250505b8080600101915050611156565b508193505050505b919050565b600061139582611dc5565b9050919050565b60008073ffffffffffffffffffffffffffffffffffffffff168273ffffffffffffffffffffffffffffffffffffffff160361140f5760006040517f89c62b640000000000000000000000000000000000000000000000000000000081526004016114069190613178565b60405180910390fd5b600360008373ffffffffffffffffffffffffffffffffffffffff1673ffffffffffffffffffffffffffffffffffffffff168152602001908152602001600020549050919050565b61145e61211a565b61146860006121a1565b565b6000611475826120be565b6114b4576040517f08c379a00000000000000000000000000000000000000000000000000000000081526004016114ab90613d23565b60405180910390fd5b600b600083815260200190815260200160002060020160009054906101000a900473ffffffffffffffffffffffffffffffffffffffff169050919050565b3373ffffffffffffffffffffffffffffffffffffffff166115128361138a565b73ffffffffffffffffffffffffffffffffffffffff1614611568576040517f08c379a000000000000000000000000000000000000000000000000000000000815260040161155f90613d8f565b60405180910390fd5b3373ffffffffffffffffffffffffffffffffffffffff16600b600084815260200190815260200160002060020160009054906101000a900473ffffffffffffffffffffffffffffffffffffffff1673ffffffffffffffffffffffffffffffffffffffff161461160c576040517f08c379a000000000000000000000000000000000000000000000000000000000815260040161160390613dfb565b60405180910390fd5b6000811015611650576040517f08c379a00000000000000000000000000000000000000000000000000000000081526004016116479061382c565b60405180910390fd5b6064811115611694576040517f08c379a000000000000000000000000000000000000000000000000000000000815260040161168b90613898565b60405180910390fd5b80600b600084815260200190815260200160002060030181905550817f6063f4a05c03aa7c4dae47c9b14a3f4f156d08951bacb3a7e1e825116c0b8ae782426040516116e1929190613e1b565b60405180910390a25050565b6000600760009054906101000a900473ffffffffffffffffffffffffffffffffffffffff16905090565b60606001805461172690613992565b80601f016020809104026020016040519081016040528092919081815260200182805461175290613992565b801561179f5780601f106117745761010080835404028352916020019161179f565b820191906000526020600020905b81548152906001019060200180831161178257829003601f168201915b5050505050905090565b6117bb6117b4611e8a565b8383612267565b5050565b60006117ca826120be565b611809576040517f08c379a000000000000000000000000000000000000000000000000000000000815260040161180090613d23565b60405180910390fd5b600b6000838152602001908152602001600020600301549050919050565b611832848484610c0e565b61184661183d611e8a565b858585856123d6565b50505050565b6000600960009054906101000a900473ffffffffffffffffffffffffffffffffffffffff16905090565b606061188182611dc5565b5060006006600084815260200190815260200160002080546118a290613992565b80601f01602080910402602001604051908101604052809291908181526020018280546118ce90613992565b801561191b5780601f106118f05761010080835404028352916020019161191b565b820191906000526020600020905b8154815290600101906020018083116118fe57829003601f168201915b50505050509050600061192c612587565b90506000815103611941578192505050611984565b60008251111561197657808260405160200161195e929190613e80565b60405160208183030381529060405292505050611984565b61197f8461259e565b925050505b919050565b60606000600a60008473ffffffffffffffffffffffffffffffffffffffff1673ffffffffffffffffffffffffffffffffffffffff16815260200190815260200160002054905060008103611a2957600067ffffffffffffffff8111156119f2576119f1612e82565b5b604051908082528060200260200182016040528015611a205781602001602082028036833780820191505090505b50915050611b4a565b60008167ffffffffffffffff811115611a4557611a44612e82565b5b604051908082528060200260200182016040528015611a735781602001602082028036833780820191505090505b5090506000805b600854811015611b42576000600182611a93919061392f565b90508673ffffffffffffffffffffffffffffffffffffffff16600b600083815260200190815260200160002060020160009054906101000a900473ffffffffffffffffffffffffffffffffffffffff1673ffffffffffffffffffffffffffffffffffffffff1614611b045750611b35565b80848481518110611b1857611b17613c71565b5b602002602001018181525050600183611b31919061392f565b9250505b8080600101915050611a7a565b508193505050505b919050565b6000600560008473ffffffffffffffffffffffffffffffffffffffff1673ffffffffffffffffffffffffffffffffffffffff16815260200190815260200160002060008373ffffffffffffffffffffffffffffffffffffffff1673ffffffffffffffffffffffffffffffffffffffff16815260200190815260200160002060009054906101000a900460ff16905092915050565b611beb61211a565b600073ffffffffffffffffffffffffffffffffffffffff168173ffffffffffffffffffffffffffffffffffffffff1603611c5d5760006040517f1e4fbdf7000000000000000000000000000000000000000000000000000000008152600401611c549190613178565b60405180910390fd5b611c66816121a1565b50565b60007f80ac58cd000000000000000000000000000000000000000000000000000000007bffffffffffffffffffffffffffffffffffffffffffffffffffffffff1916827bffffffffffffffffffffffffffffffffffffffffffffffffffffffff19161480611d3457507f5b5e139f000000000000000000000000000000000000000000000000000000007bffffffffffffffffffffffffffffffffffffffffffffffffffffffff1916827bffffffffffffffffffffffffffffffffffffffffffffffffffffffff1916145b80611d445750611d4382612607565b5b9050919050565b611d65828260405180602001604052806000815250612671565b5050565b80600660008481526020019081526020016000209081611d899190613b6f565b507ff8e1a15aba9398e019f0b49df1a4fde98ee17ae345cb5f6b5e2c27f5033e8ce782604051611db9919061304e565b60405180910390a15050565b600080611dd183612695565b9050600073ffffffffffffffffffffffffffffffffffffffff168173ffffffffffffffffffffffffffffffffffffffff1603611e4457826040517f7e273289000000000000000000000000000000000000000000000000000000008152600401611e3b919061304e565b60405180910390fd5b80915050919050565b60006004600083815260200190815260200160002060009054906101000a900473ffffffffffffffffffffffffffffffffffffffff169050919050565b600033905090565b611e9f83838360016126d2565b505050565b600080611eb084612695565b9050600073ffffffffffffffffffffffffffffffffffffffff168373ffffffffffffffffffffffffffffffffffffffff1614611ef257611ef1818486612897565b5b600073ffffffffffffffffffffffffffffffffffffffff168173ffffffffffffffffffffffffffffffffffffffff1614611f8357611f346000856000806126d2565b6001600360008373ffffffffffffffffffffffffffffffffffffffff1673ffffffffffffffffffffffffffffffffffffffff168152602001908152602001600020600082825403925050819055505b600073ffffffffffffffffffffffffffffffffffffffff168573ffffffffffffffffffffffffffffffffffffffff1614612006576001600360008773ffffffffffffffffffffffffffffffffffffffff1673ffffffffffffffffffffffffffffffffffffffff168152602001908152602001600020600082825401925050819055505b846002600086815260200190815260200160002060006101000a81548173ffffffffffffffffffffffffffffffffffffffff021916908373ffffffffffffffffffffffffffffffffffffffff160217905550838573ffffffffffffffffffffffffffffffffffffffff168273ffffffffffffffffffffffffffffffffffffffff167fddf252ad1be2c89b69c2b068fc378daa952ba7f163c4a11628f55a4df523b3ef60405160405180910390a4809150509392505050565b600081600854101580156120d25750600082115b80156121135750600073ffffffffffffffffffffffffffffffffffffffff166120fa8361138a565b73ffffffffffffffffffffffffffffffffffffffff1614155b9050919050565b612122611e8a565b73ffffffffffffffffffffffffffffffffffffffff166121406116ed565b73ffffffffffffffffffffffffffffffffffffffff161461219f57612163611e8a565b6040517f118cdaa70000000000000000000000000000000000000000000000000000000081526004016121969190613178565b60405180910390fd5b565b6000600760009054906101000a900473ffffffffffffffffffffffffffffffffffffffff16905081600760006101000a81548173ffffffffffffffffffffffffffffffffffffffff021916908373ffffffffffffffffffffffffffffffffffffffff1602179055508173ffffffffffffffffffffffffffffffffffffffff168173ffffffffffffffffffffffffffffffffffffffff167f8be0079c531659141344cd1fd0a4f28419497f9722a3daafe3b4186f6b6457e060405160405180910390a35050565b600073ffffffffffffffffffffffffffffffffffffffff168273ffffffffffffffffffffffffffffffffffffffff16036122d857816040517f5b08ba180000000000000000000000000000000000000000000000000000000081526004016122cf9190613178565b60405180910390fd5b80600560008573ffffffffffffffffffffffffffffffffffffffff1673ffffffffffffffffffffffffffffffffffffffff16815260200190815260200160002060008473ffffffffffffffffffffffffffffffffffffffff1673ffffffffffffffffffffffffffffffffffffffff16815260200190815260200160002060006101000a81548160ff0219169083151502179055508173ffffffffffffffffffffffffffffffffffffffff168373ffffffffffffffffffffffffffffffffffffffff167f17307eab39ab6107e8899845ad3d59bd9653f200f220920489ca2b5937696c31836040516123c99190612e4c565b60405180910390a3505050565b60008373ffffffffffffffffffffffffffffffffffffffff163b1115612580578273ffffffffffffffffffffffffffffffffffffffff1663150b7a02868685856040518563ffffffff1660e01b81526004016124359493929190613ef9565b6020604051808303816000875af192505050801561247157506040513d601f19601f8201168201806040525081019061246e9190613f5a565b60015b6124f5573d80600081146124a1576040519150601f19603f3d011682016040523d82523d6000602084013e6124a6565b606091505b5060008151036124ed57836040517f64a0ae920000000000000000000000000000000000000000000000000000000081526004016124e49190613178565b60405180910390fd5b805181602001fd5b63150b7a0260e01b7bffffffffffffffffffffffffffffffffffffffffffffffffffffffff1916817bffffffffffffffffffffffffffffffffffffffffffffffffffffffff19161461257e57836040517f64a0ae920000000000000000000000000000000000000000000000000000000081526004016125759190613178565b60405180910390fd5b505b5050505050565b606060405180602001604052806000815250905090565b60606125a982611dc5565b5060006125b4612587565b905060008151116125d457604051806020016040528060008152506125ff565b806125de8461295b565b6040516020016125ef929190613e80565b6040516020818303038152906040525b915050919050565b60007f01ffc9a7000000000000000000000000000000000000000000000000000000007bffffffffffffffffffffffffffffffffffffffffffffffffffffffff1916827bffffffffffffffffffffffffffffffffffffffffffffffffffffffff1916149050919050565b61267b8383612a29565b612690612686611e8a565b60008585856123d6565b505050565b60006002600083815260200190815260200160002060009054906101000a900473ffffffffffffffffffffffffffffffffffffffff169050919050565b808061270b5750600073ffffffffffffffffffffffffffffffffffffffff168273ffffffffffffffffffffffffffffffffffffffff1614155b1561283f57600061271b84611dc5565b9050600073ffffffffffffffffffffffffffffffffffffffff168373ffffffffffffffffffffffffffffffffffffffff161415801561278657508273ffffffffffffffffffffffffffffffffffffffff168173ffffffffffffffffffffffffffffffffffffffff1614155b801561279957506127978184611b4f565b155b156127db57826040517fa9fbf51f0000000000000000000000000000000000000000000000000000000081526004016127d29190613178565b60405180910390fd5b811561283d57838573ffffffffffffffffffffffffffffffffffffffff168273ffffffffffffffffffffffffffffffffffffffff167f8c5be1e5ebec7d5bd14f71427d1e84f3dd0314c0f7b2291e5b200ac8c7c3b92560405160405180910390a45b505b836004600085815260200190815260200160002060006101000a81548173ffffffffffffffffffffffffffffffffffffffff021916908373ffffffffffffffffffffffffffffffffffffffff16021790555050505050565b6128a2838383612b22565b61295657600073ffffffffffffffffffffffffffffffffffffffff168373ffffffffffffffffffffffffffffffffffffffff160361291757806040517f7e27328900000000000000000000000000000000000000000000000000000000815260040161290e919061304e565b60405180910390fd5b81816040517f177e802f00000000000000000000000000000000000000000000000000000000815260040161294d929190613f87565b60405180910390fd5b505050565b60606000600161296a84612be3565b01905060008167ffffffffffffffff81111561298957612988612e82565b5b6040519080825280601f01601f1916602001820160405280156129bb5781602001600182028036833780820191505090505b509050600082602001820190505b600115612a1e578080600190039150507f3031323334353637383961626364656600000000000000000000000000000000600a86061a8153600a8581612a1257612a11613fb0565b5b049450600085036129c9575b819350505050919050565b600073ffffffffffffffffffffffffffffffffffffffff168273ffffffffffffffffffffffffffffffffffffffff1603612a9b5760006040517f64a0ae92000000000000000000000000000000000000000000000000000000008152600401612a929190613178565b60405180910390fd5b6000612aa983836000611ea4565b9050600073ffffffffffffffffffffffffffffffffffffffff168173ffffffffffffffffffffffffffffffffffffffff1614612b1d5760006040517f73c6ac6e000000000000000000000000000000000000000000000000000000008152600401612b149190613178565b60405180910390fd5b505050565b60008073ffffffffffffffffffffffffffffffffffffffff168373ffffffffffffffffffffffffffffffffffffffff1614158015612bda57508273ffffffffffffffffffffffffffffffffffffffff168473ffffffffffffffffffffffffffffffffffffffff161480612b9b5750612b9a8484611b4f565b5b80612bd957508273ffffffffffffffffffffffffffffffffffffffff16612bc183611e4d565b73ffffffffffffffffffffffffffffffffffffffff16145b5b90509392505050565b600080600090507a184f03e93ff9f4daa797ed6e38ed64bf6a1f0100000000000000008310612c41577a184f03e93ff9f4daa797ed6e38ed64bf6a1f0100000000000000008381612c3757612c36613fb0565b5b0492506040810190505b6d04ee2d6d415b85acef81000000008310612c7e576d04ee2d6d415b85acef81000000008381612c7457612c73613fb0565b5b0492506020810190505b662386f26fc100008310612cad57662386f26fc100008381612ca357612ca2613fb0565b5b0492506010810190505b6305f5e1008310612cd6576305f5e1008381612ccc57612ccb613fb0565b5b0492506008810190505b6127108310612cfb576127108381612cf157612cf0613fb0565b5b0492506004810190505b60648310612d1e5760648381612d1457612d13613fb0565b5b0492506002810190505b600a8310612d2d576001810190505b80915050919050565b6040518060c001604052806000815260200160608152602001600073ffffffffffffffffffffffffffffffffffffffff168152602001600073ffffffffffffffffffffffffffffffffffffffff16815260200160008152602001600081525090565b6000604051905090565b600080fd5b600080fd5b60007fffffffff0000000000000000000000000000000000000000000000000000000082169050919050565b612de181612dac565b8114612dec57600080fd5b50565b600081359050612dfe81612dd8565b92915050565b600060208284031215612e1a57612e19612da2565b5b6000612e2884828501612def565b91505092915050565b60008115159050919050565b612e4681612e31565b82525050565b6000602082019050612e616000830184612e3d565b92915050565b600080fd5b600080fd5b6000601f19601f8301169050919050565b7f4e487b7100000000000000000000000000000000000000000000000000000000600052604160045260246000fd5b612eba82612e71565b810181811067ffffffffffffffff82111715612ed957612ed8612e82565b5b80604052505050565b6000612eec612d98565b9050612ef88282612eb1565b919050565b600067ffffffffffffffff821115612f1857612f17612e82565b5b612f2182612e71565b9050602081019050919050565b82818337600083830152505050565b6000612f50612f4b84612efd565b612ee2565b905082815260208101848484011115612f6c57612f6b612e6c565b5b612f77848285612f2e565b509392505050565b600082601f830112612f9457612f93612e67565b5b8135612fa4848260208601612f3d565b91505092915050565b6000819050919050565b612fc081612fad565b8114612fcb57600080fd5b50565b600081359050612fdd81612fb7565b92915050565b60008060408385031215612ffa57612ff9612da2565b5b600083013567ffffffffffffffff81111561301857613017612da7565b5b61302485828601612f7f565b925050602061303585828601612fce565b9150509250929050565b61304881612fad565b82525050565b6000602082019050613063600083018461303f565b92915050565b600081519050919050565b600082825260208201905092915050565b60005b838110156130a3578082015181840152602081019050613088565b60008484015250505050565b60006130ba82613069565b6130c48185613074565b93506130d4818560208601613085565b6130dd81612e71565b840191505092915050565b6000602082019050818103600083015261310281846130af565b905092915050565b6000602082840312156131205761311f612da2565b5b600061312e84828501612fce565b91505092915050565b600073ffffffffffffffffffffffffffffffffffffffff82169050919050565b600061316282613137565b9050919050565b61317281613157565b82525050565b600060208201905061318d6000830184613169565b92915050565b61319c81613157565b81146131a757600080fd5b50565b6000813590506131b981613193565b92915050565b600080604083850312156131d6576131d5612da2565b5b60006131e4858286016131aa565b92505060206131f585828601612fce565b9150509250929050565b60006020828403121561321557613214612da2565b5b6000613223848285016131aa565b91505092915050565b600081519050919050565b600082825260208201905092915050565b6000819050602082019050919050565b61326181612fad565b82525050565b600082825260208201905092915050565b600061328382613069565b61328d8185613267565b935061329d818560208601613085565b6132a681612e71565b840191505092915050565b6132ba81613157565b82525050565b600060c0830160008301516132d86000860182613258565b50602083015184820360208601526132f08282613278565b915050604083015161330560408601826132b1565b50606083015161331860608601826132b1565b50608083015161332b6080860182613258565b5060a083015161333e60a0860182613258565b508091505092915050565b600061335583836132c0565b905092915050565b6000602082019050919050565b60006133758261322c565b61337f8185613237565b93508360208202850161339185613248565b8060005b858110156133cd57848403895281516133ae8582613349565b94506133b98361335d565b925060208a01995050600181019050613395565b50829750879550505050505092915050565b600060208201905081810360008301526133f9818461336a565b905092915050565b60008060006060848603121561341a57613419612da2565b5b6000613428868287016131aa565b9350506020613439868287016131aa565b925050604061344a86828701612fce565b9150509250925092565b600060c08301600083015161346c6000860182613258565b50602083015184820360208601526134848282613278565b915050604083015161349960408601826132b1565b5060608301516134ac60608601826132b1565b5060808301516134bf6080860182613258565b5060a08301516134d260a0860182613258565b508091505092915050565b600060208201905081810360008301526134f78184613454565b905092915050565b600081519050919050565b600082825260208201905092915050565b6000819050602082019050919050565b60006135378383613258565b60208301905092915050565b6000602082019050919050565b600061355b826134ff565b613565818561350a565b93506135708361351b565b8060005b838110156135a1578151613588888261352b565b975061359383613543565b925050600181019050613574565b5085935050505092915050565b600060208201905081810360008301526135c88184613550565b905092915050565b600080604083850312156135e7576135e6612da2565b5b60006135f585828601612fce565b925050602061360685828601612fce565b9150509250929050565b61361981612e31565b811461362457600080fd5b50565b60008135905061363681613610565b92915050565b6000806040838503121561365357613652612da2565b5b6000613661858286016131aa565b925050602061367285828601613627565b9150509250929050565b600067ffffffffffffffff82111561369757613696612e82565b5b6136a082612e71565b9050602081019050919050565b60006136c06136bb8461367c565b612ee2565b9050828152602081018484840111156136dc576136db612e6c565b5b6136e7848285612f2e565b509392505050565b600082601f83011261370457613703612e67565b5b81356137148482602086016136ad565b91505092915050565b6000806000806080858703121561373757613736612da2565b5b6000613745878288016131aa565b9450506020613756878288016131aa565b935050604061376787828801612fce565b925050606085013567ffffffffffffffff81111561378857613787612da7565b5b613794878288016136ef565b91505092959194509250565b600080604083850312156137b7576137b6612da2565b5b60006137c5858286016131aa565b92505060206137d6858286016131aa565b9150509250929050565b7f526f79616c7479206d757374206265206e6f6e2d6e6567617469766500000000600082015250565b6000613816601c83613074565b9150613821826137e0565b602082019050919050565b6000602082019050818103600083015261384581613809565b9050919050565b7f526f79616c7479206665652063616e6e6f742065786365656420313030250000600082015250565b6000613882601e83613074565b915061388d8261384c565b602082019050919050565b600060208201905081810360008301526138b181613875565b9050919050565b7f4e487b7100000000000000000000000000000000000000000000000000000000600052601160045260246000fd5b60006138f282612fad565b91507fffffffffffffffffffffffffffffffffffffffffffffffffffffffffffffffff8203613924576139236138b8565b5b600182019050919050565b600061393a82612fad565b915061394583612fad565b925082820190508082111561395d5761395c6138b8565b5b92915050565b7f4e487b7100000000000000000000000000000000000000000000000000000000600052602260045260246000fd5b600060028204905060018216806139aa57607f821691505b6020821081036139bd576139bc613963565b5b50919050565b60008190508160005260206000209050919050565b60006020601f8301049050919050565b600082821b905092915050565b600060088302613a257fffffffffffffffffffffffffffffffffffffffffffffffffffffffffffffffff826139e8565b613a2f86836139e8565b95508019841693508086168417925050509392505050565b6000819050919050565b6000613a6c613a67613a6284612fad565b613a47565b612fad565b9050919050565b6000819050919050565b613a8683613a51565b613a9a613a9282613a73565b8484546139f5565b825550505050565b600090565b613aaf613aa2565b613aba818484613a7d565b505050565b5b81811015613ade57613ad3600082613aa7565b600181019050613ac0565b5050565b601f821115613b2357613af4816139c3565b613afd846139d8565b81016020851015613b0c578190505b613b20613b18856139d8565b830182613abf565b50505b505050565b600082821c905092915050565b6000613b4660001984600802613b28565b1980831691505092915050565b6000613b5f8383613b35565b9150826002028217905092915050565b613b7882613069565b67ffffffffffffffff811115613b9157613b90612e82565b5b613b9b8254613992565b613ba6828285613ae2565b600060209050601f831160018114613bd95760008415613bc7578287015190505b613bd18582613b53565b865550613c39565b601f198416613be7866139c3565b60005b82811015613c0f57848901518255600182019150602085019450602081019050613bea565b86831015613c2c5784890151613c28601f891682613b35565b8355505b6001600288020188555050505b505050505050565b60006040820190508181036000830152613c5b81856130af565b9050613c6a602083018461303f565b9392505050565b7f4e487b7100000000000000000000000000000000000000000000000000000000600052603260045260246000fd5b6000606082019050613cb56000830186613169565b613cc2602083018561303f565b613ccf6040830184613169565b949350505050565b7f546f6b656e20646f6573206e6f74206578697374000000000000000000000000600082015250565b6000613d0d601483613074565b9150613d1882613cd7565b602082019050919050565b60006020820190508181036000830152613d3c81613d00565b9050919050565b7f4e6f7420746f6b656e206f776e65720000000000000000000000000000000000600082015250565b6000613d79600f83613074565b9150613d8482613d43565b602082019050919050565b60006020820190508181036000830152613da881613d6c565b9050919050565b7f4e6f742063726561746f72000000000000000000000000000000000000000000600082015250565b6000613de5600b83613074565b9150613df082613daf565b602082019050919050565b60006020820190508181036000830152613e1481613dd8565b9050919050565b6000604082019050613e30600083018561303f565b613e3d602083018461303f565b9392505050565b600081905092915050565b6000613e5a82613069565b613e648185613e44565b9350613e74818560208601613085565b80840191505092915050565b6000613e8c8285613e4f565b9150613e988284613e4f565b91508190509392505050565b600081519050919050565b600082825260208201905092915050565b6000613ecb82613ea4565b613ed58185613eaf565b9350613ee5818560208601613085565b613eee81612e71565b840191505092915050565b6000608082019050613f0e6000830187613169565b613f1b6020830186613169565b613f28604083018561303f565b8181036060830152613f3a8184613ec0565b905095945050505050565b600081519050613f5481612dd8565b92915050565b600060208284031215613f7057613f6f612da2565b5b6000613f7e84828501613f45565b91505092915050565b6000604082019050613f9c6000830185613169565b613fa9602083018461303f565b9392505050565b7f4e487b7100000000000000000000000000000000000000000000000000000000600052601260045260246000fdfea2646970667358221220b298948f2721ce0f32744f97bec1b13e2e2d924a46d304cbf51d5d23eafd781564736f6c634300081c0033",
  "linkReferences": {},
  "deployedLinkReferences": {}
}