{
  "_format": "hh-sol-artifact-1",
  "contractName": "NFTv2",
  "sourceName": "contracts/NFTv2.sol",
  "abi": [
    {
      "inputs": [
        {
          "internalType": "address",
          "name": "marketplaceAddress",
          "type": "address"
        }
      ],
      "stateMutability": "nonpayable",
      "type": "constructor"
    },
    {
      "inputs": [
        {
          "internalType": "address",
          "name": "sender",
          "type": "address"
        },
        {
          "internalType": "uint256",
          "name": "tokenId",
          "type": "uint256"
        },
        {
          "internalType": "address",
          "name": "owner",
          "type": "address"
        }
      ],
      "name": "ERC721IncorrectOwner",
      "type": "error"
    },
    {
      "inputs": [
        {
          "internalType": "address",
          "name": "operator",
          "type": "address"
        },
        {
          "internalType": "uint256",
          "name": "tokenId",
          "type": "uint256"
        }
      ],
      "name": "ERC721InsufficientApproval",
      "type": "error"
    },
    {
      "inputs": [
        {
          "internalType": "address",
          "name": "approver",
          "type": "address"
        }
      ],
      "name": "ERC721InvalidApprover",
      "type": "error"
    },
    {
      "inputs": [
        {
          "internalType": "address",
          "name": "operator",
          "type": "address"
        }
      ],
      "name": "ERC721InvalidOperator",
      "type": "error"
    },
    {
      "inputs": [
        {
          "internalType": "address",
          "name": "owner",
          "type": "address"
        }
      ],
      "name": "ERC721InvalidOwner",
      "type": "error"
    },
    {
      "inputs": [
        {
          "internalType": "address",
          "name": "receiver",
          "type": "address"
        }
      ],
      "name": "ERC721InvalidReceiver",
      "type": "error"
    },
    {
      "inputs": [
        {
          "internalType": "address",
          "name": "sender",
          "type": "address"
        }
      ],
      "name": "ERC721InvalidSender",
      "type": "error"
    },
    {
      "inputs": [
        {
          "internalType": "uint256",
          "name": "tokenId",
          "type": "uint256"
        }
      ],
      "name": "ERC721NonexistentToken",
      "type": "error"
    },
    {
      "inputs": [
        {
          "internalType": "address",
          "name": "owner",
          "type": "address"
        }
      ],
      "name": "OwnableInvalidOwner",
      "type": "error"
    },
    {
      "inputs": [
        {
          "internalType": "address",
          "name": "account",
          "type": "address"
        }
      ],
      "name": "OwnableUnauthorizedAccount",
      "type": "error"
    },
    {
      "anonymous": false,
      "inputs": [
        {
          "indexed": true,
          "internalType": "address",
          "name": "owner",
          "type": "address"
        },
        {
          "indexed": true,
          "internalType": "address",
          "name": "approved",
          "type": "address"
        },
        {
          "indexed": true,
          "internalType": "uint256",
          "name": "tokenId",
          "type": "uint256"
        }
      ],
      "name": "Approval",
      "type": "event"
    },
    {
      "anonymous": false,
      "inputs": [
        {
          "indexed": true,
          "internalType": "address",
          "name": "owner",
          "type": "address"
        },
        {
          "indexed": true,
          "internalType": "address",
          "name": "operator",
          "type": "address"
        },
        {
          "indexed": false,
          "internalType": "bool",
          "name": "approved",
          "type": "bool"
        }
      ],
      "name": "ApprovalForAll",
      "type": "event"
    },
    {
      "anonymous": false,
      "inputs": [
        {
          "indexed": false,
          "internalType": "uint256",
          "name": "_fromTokenId",
          "type": "uint256"
        },
        {
          "indexed": false,
          "internalType": "uint256",
          "name": "_toTokenId",
          "type": "uint256"
        }
      ],
      "name": "BatchMetadataUpdate",
      "type": "event"
    },
    {
      "anonymous": false,
      "inputs": [
        {
          "indexed": false,
          "internalType": "uint256",
          "name": "_tokenId",
          "type": "uint256"
        }
      ],
      "name": "MetadataUpdate",
      "type": "event"
    },
    {
      "anonymous": false,
      "inputs": [
        {
          "indexed": true,
          "internalType": "address",
          "name": "creator",
          "type": "address"
        },
        {
          "indexed": true,
          "internalType": "uint256",
          "name": "tokenId",
          "type": "uint256"
        },
        {
          "indexed": false,
          "internalType": "string",
          "name": "tokenURI",
          "type": "string"
        },
        {
          "indexed": false,
          "internalType": "uint256",
          "name": "timestamp",
          "type": "uint256"
        }
      ],
      "name": "NFTMinted",
      "type": "event"
    },
    {
      "anonymous": false,
      "inputs": [
        {
          "indexed": true,
          "internalType": "uint256",
          "name": "tokenId",
          "type": "uint256"
        },
        {
          "indexed": false,
          "internalType": "uint256",
          "name": "newRoyalty",
          "type": "uint256"
        },
        {
          "indexed": false,
          "internalType": "uint256",
          "name": "timestamp",
          "type": "uint256"
        }
      ],
      "name": "NFTRoyaltyUpdated",
      "type": "event"
    },
    {
      "anonymous": false,
      "inputs": [
        {
          "indexed": true,
          "internalType": "address",
          "name": "previousOwner",
          "type": "address"
        },
        {
          "indexed": true,
          "internalType": "address",
          "name": "newOwner",
          "type": "address"
        }
      ],
      "name": "OwnershipTransferred",
      "type": "event"
    },
    {
      "anonymous": false,
      "inputs": [
        {
          "indexed": true,
          "internalType": "address",
          "name": "from",
          "type": "address"
        },
        {
          "indexed": true,
          "internalType": "address",
          "name": "to",
          "type": "address"
        },
        {
          "indexed": true,
          "internalType": "uint256",
          "name": "tokenId",
          "type": "uint256"
        }
      ],
      "name": "Transfer",
      "type": "event"
    },
    {
      "inputs": [
        {
          "internalType": "address",
          "name": "to",
          "type": "address"
        },
        {
          "internalType": "uint256",
          "name": "tokenId",
          "type": "uint256"
        }
      ],
      "name": "approve",
      "outputs": [],
      "stateMutability": "nonpayable",
      "type": "function"
    },
    {
      "inputs": [
        {
          "internalType": "address",
          "name": "owner",
          "type": "address"
        }
      ],
      "name": "balanceOf",
      "outputs": [
        {
          "internalType": "uint256",
          "name": "",
          "type": "uint256"
        }
      ],
      "stateMutability": "view",
      "type": "function"
    },
    {
      "inputs": [
        {
          "internalType": "uint256",
          "name": "tokenId",
          "type": "uint256"
        }
      ],
      "name": "getApproved",
      "outputs": [
        {
          "internalType": "address",
          "name": "",
          "type": "address"
        }
      ],
      "stateMutability": "view",
      "type": "function"
    },
    {
      "inputs": [
        {
          "internalType": "uint256",
          "name": "tokenId",
          "type": "uint256"
        }
      ],
      "name": "getCreatorOfToken",
      "outputs": [
        {
          "internalType": "address",
          "name": "",
          "type": "address"
        }
      ],
      "stateMutability": "view",
      "type": "function"
    },
    {
      "inputs": [],
      "name": "getMarketplaceAddress",
      "outputs": [
        {
          "internalType": "address",
          "name": "",
          "type": "address"
        }
      ],
      "stateMutability": "view",
      "type": "function"
    },
    {
      "inputs": [
        {
          "internalType": "uint256",
          "name": "tokenId",
          "type": "uint256"
        }
      ],
      "name": "getRoyaltyOfToken",
      "outputs": [
        {
          "internalType": "uint256",
          "name": "",
          "type": "uint256"
        }
      ],
      "stateMutability": "view",
      "type": "function"
    },
    {
      "inputs": [
        {
          "internalType": "address",
          "name": "creator",
          "type": "address"
        }
      ],
      "name": "getTokenInfoByCreator",
      "outputs": [
        {
          "components": [
            {
              "internalType": "uint256",
              "name": "tokenId",
              "type": "uint256"
            },
            {
              "internalType": "string",
              "name": "tokenURI",
              "type": "string"
            },
            {
              "internalType": "address",
              "name": "creator",
              "type": "address"
            },
            {
              "internalType": "address",
              "name": "owner",
              "type": "address"
            },
            {
              "internalType": "uint256",
              "name": "royaltyFee",
              "type": "uint256"
            },
            {
              "internalType": "uint256",
              "name": "mintedAt",
              "type": "uint256"
            },
            {
              "internalType": "uint256",
              "name": "lastSoldPrice",
              "type": "uint256"
            }
          ],
          "internalType": "struct NFTv2.FullNFTInfo[]",
          "name": "",
          "type": "tuple[]"
        }
      ],
      "stateMutability": "view",
      "type": "function"
    },
    {
      "inputs": [
        {
          "internalType": "uint256",
          "name": "tokenId",
          "type": "uint256"
        }
      ],
      "name": "getTokenInfoById",
      "outputs": [
        {
          "components": [
            {
              "internalType": "uint256",
              "name": "tokenId",
              "type": "uint256"
            },
            {
              "internalType": "string",
              "name": "tokenURI",
              "type": "string"
            },
            {
              "internalType": "address",
              "name": "creator",
              "type": "address"
            },
            {
              "internalType": "address",
              "name": "owner",
              "type": "address"
            },
            {
              "internalType": "uint256",
              "name": "royaltyFee",
              "type": "uint256"
            },
            {
              "internalType": "uint256",
              "name": "mintedAt",
              "type": "uint256"
            },
            {
              "internalType": "uint256",
              "name": "lastSoldPrice",
              "type": "uint256"
            }
          ],
          "internalType": "struct NFTv2.FullNFTInfo",
          "name": "",
          "type": "tuple"
        }
      ],
      "stateMutability": "view",
      "type": "function"
    },
    {
      "inputs": [
        {
          "internalType": "address",
          "name": "owner",
          "type": "address"
        }
      ],
      "name": "getTokenInfoByOwner",
      "outputs": [
        {
          "components": [
            {
              "internalType": "uint256",
              "name": "tokenId",
              "type": "uint256"
            },
            {
              "internalType": "string",
              "name": "tokenURI",
              "type": "string"
            },
            {
              "internalType": "address",
              "name": "creator",
              "type": "address"
            },
            {
              "internalType": "address",
              "name": "owner",
              "type": "address"
            },
            {
              "internalType": "uint256",
              "name": "royaltyFee",
              "type": "uint256"
            },
            {
              "internalType": "uint256",
              "name": "mintedAt",
              "type": "uint256"
            },
            {
              "internalType": "uint256",
              "name": "lastSoldPrice",
              "type": "uint256"
            }
          ],
          "internalType": "struct NFTv2.FullNFTInfo[]",
          "name": "",
          "type": "tuple[]"
        }
      ],
      "stateMutability": "view",
      "type": "function"
    },
    {
      "inputs": [
        {
          "internalType": "address",
          "name": "creator",
          "type": "address"
        }
      ],
      "name": "getTokensByCreator",
      "outputs": [
        {
          "internalType": "uint256[]",
          "name": "",
          "type": "uint256[]"
        }
      ],
      "stateMutability": "view",
      "type": "function"
    },
    {
      "inputs": [
        {
          "internalType": "address",
          "name": "owner",
          "type": "address"
        }
      ],
      "name": "getTokensByOwner",
      "outputs": [
        {
          "internalType": "uint256[]",
          "name": "",
          "type": "uint256[]"
        }
      ],
      "stateMutability": "view",
      "type": "function"
    },
    {
      "inputs": [
        {
          "internalType": "address",
          "name": "owner",
          "type": "address"
        },
        {
          "internalType": "address",
          "name": "operator",
          "type": "address"
        }
      ],
      "name": "isApprovedForAll",
      "outputs": [
        {
          "internalType": "bool",
          "name": "",
          "type": "bool"
        }
      ],
      "stateMutability": "view",
      "type": "function"
    },
    {
      "inputs": [
        {
          "internalType": "string",
          "name": "tokenURI",
          "type": "string"
        },
        {
          "internalType": "uint256",
          "name": "royaltyFee",
          "type": "uint256"
        }
      ],
      "name": "mint",
      "outputs": [
        {
          "internalType": "uint256",
          "name": "",
          "type": "uint256"
        }
      ],
      "stateMutability": "nonpayable",
      "type": "function"
    },
    {
      "inputs": [],
      "name": "name",
      "outputs": [
        {
          "internalType": "string",
          "name": "",
          "type": "string"
        }
      ],
      "stateMutability": "view",
      "type": "function"
    },
    {
      "inputs": [],
      "name": "owner",
      "outputs": [
        {
          "internalType": "address",
          "name": "",
          "type": "address"
        }
      ],
      "stateMutability": "view",
      "type": "function"
    },
    {
      "inputs": [
        {
          "internalType": "uint256",
          "name": "tokenId",
          "type": "uint256"
        }
      ],
      "name": "ownerOf",
      "outputs": [
        {
          "internalType": "address",
          "name": "",
          "type": "address"
        }
      ],
      "stateMutability": "view",
      "type": "function"
    },
    {
      "inputs": [],
      "name": "renounceOwnership",
      "outputs": [],
      "stateMutability": "nonpayable",
      "type": "function"
    },
    {
      "inputs": [
        {
          "internalType": "address",
          "name": "from",
          "type": "address"
        },
        {
          "internalType": "address",
          "name": "to",
          "type": "address"
        },
        {
          "internalType": "uint256",
          "name": "tokenId",
          "type": "uint256"
        }
      ],
      "name": "safeTransferFrom",
      "outputs": [],
      "stateMutability": "nonpayable",
      "type": "function"
    },
    {
      "inputs": [
        {
          "internalType": "address",
          "name": "from",
          "type": "address"
        },
        {
          "internalType": "address",
          "name": "to",
          "type": "address"
        },
        {
          "internalType": "uint256",
          "name": "tokenId",
          "type": "uint256"
        },
        {
          "internalType": "bytes",
          "name": "data",
          "type": "bytes"
        }
      ],
      "name": "safeTransferFrom",
      "outputs": [],
      "stateMutability": "nonpayable",
      "type": "function"
    },
    {
      "inputs": [
        {
          "internalType": "address",
          "name": "operator",
          "type": "address"
        },
        {
          "internalType": "bool",
          "name": "approved",
          "type": "bool"
        }
      ],
      "name": "setApprovalForAll",
      "outputs": [],
      "stateMutability": "nonpayable",
      "type": "function"
    },
    {
      "inputs": [
        {
          "internalType": "bytes4",
          "name": "interfaceId",
          "type": "bytes4"
        }
      ],
      "name": "supportsInterface",
      "outputs": [
        {
          "internalType": "bool",
          "name": "",
          "type": "bool"
        }
      ],
      "stateMutability": "view",
      "type": "function"
    },
    {
      "inputs": [],
      "name": "symbol",
      "outputs": [
        {
          "internalType": "string",
          "name": "",
          "type": "string"
        }
      ],
      "stateMutability": "view",
      "type": "function"
    },
    {
      "inputs": [
        {
          "internalType": "uint256",
          "name": "tokenId",
          "type": "uint256"
        }
      ],
      "name": "tokenURI",
      "outputs": [
        {
          "internalType": "string",
          "name": "",
          "type": "string"
        }
      ],
      "stateMutability": "view",
      "type": "function"
    },
    {
      "inputs": [
        {
          "internalType": "address",
          "name": "from",
          "type": "address"
        },
        {
          "internalType": "address",
          "name": "to",
          "type": "address"
        },
        {
          "internalType": "uint256",
          "name": "tokenId",
          "type": "uint256"
        }
      ],
      "name": "transferFrom",
      "outputs": [],
      "stateMutability": "nonpayable",
      "type": "function"
    },
    {
      "inputs": [
        {
          "internalType": "address",
          "name": "newOwner",
          "type": "address"
        }
      ],
      "name": "transferOwnership",
      "outputs": [],
      "stateMutability": "nonpayable",
      "type": "function"
    },
    {
      "inputs": [
        {
          "internalType": "uint256",
          "name": "tokenId",
          "type": "uint256"
        },
        {
          "internalType": "bool",
          "name": "listingStatus",
          "type": "bool"
        }
      ],
      "name": "updateListingStatus",
      "outputs": [],
      "stateMutability": "nonpayable",
      "type": "function"
    },
    {
      "inputs": [
        {
          "internalType": "uint256",
          "name": "tokenId",
          "type": "uint256"
        },
        {
          "internalType": "uint256",
          "name": "newRoyalty",
          "type": "uint256"
        }
      ],
      "name": "updateRoyalty",
      "outputs": [],
      "stateMutability": "nonpayable",
      "type": "function"
    }
  ],
  "bytecode": "0x608060405234801561001057600080fd5b50604051614e6a380380614e6a83398181016040528101906100329190610322565b336040518060400160405280600781526020017f544844204e4654000000000000000000000000000000000000000000000000008152506040518060400160405280600381526020017f544844000000000000000000000000000000000000000000000000000000000081525081600090816100ae919061059f565b5080600190816100be919061059f565b505050600073ffffffffffffffffffffffffffffffffffffffff168173ffffffffffffffffffffffffffffffffffffffff16036101335760006040517f1e4fbdf700000000000000000000000000000000000000000000000000000000815260040161012a9190610680565b60405180910390fd5b610142816101f960201b60201c565b50600073ffffffffffffffffffffffffffffffffffffffff168173ffffffffffffffffffffffffffffffffffffffff16036101b2576040517f08c379a00000000000000000000000000000000000000000000000000000000081526004016101a99061071e565b60405180910390fd5b80600960006101000a81548173ffffffffffffffffffffffffffffffffffffffff021916908373ffffffffffffffffffffffffffffffffffffffff1602179055505061073e565b6000600760009054906101000a900473ffffffffffffffffffffffffffffffffffffffff16905081600760006101000a81548173ffffffffffffffffffffffffffffffffffffffff021916908373ffffffffffffffffffffffffffffffffffffffff1602179055508173ffffffffffffffffffffffffffffffffffffffff168173ffffffffffffffffffffffffffffffffffffffff167f8be0079c531659141344cd1fd0a4f28419497f9722a3daafe3b4186f6b6457e060405160405180910390a35050565b600080fd5b600073ffffffffffffffffffffffffffffffffffffffff82169050919050565b60006102ef826102c4565b9050919050565b6102ff816102e4565b811461030a57600080fd5b50565b60008151905061031c816102f6565b92915050565b600060208284031215610338576103376102bf565b5b60006103468482850161030d565b91505092915050565b600081519050919050565b7f4e487b7100000000000000000000000000000000000000000000000000000000600052604160045260246000fd5b7f4e487b7100000000000000000000000000000000000000000000000000000000600052602260045260246000fd5b600060028204905060018216806103d057607f821691505b6020821081036103e3576103e2610389565b5b50919050565b60008190508160005260206000209050919050565b60006020601f8301049050919050565b600082821b905092915050565b60006008830261044b7fffffffffffffffffffffffffffffffffffffffffffffffffffffffffffffffff8261040e565b610455868361040e565b95508019841693508086168417925050509392505050565b6000819050919050565b6000819050919050565b600061049c6104976104928461046d565b610477565b61046d565b9050919050565b6000819050919050565b6104b683610481565b6104ca6104c2826104a3565b84845461041b565b825550505050565b600090565b6104df6104d2565b6104ea8184846104ad565b505050565b5b8181101561050e576105036000826104d7565b6001810190506104f0565b5050565b601f82111561055357610524816103e9565b61052d846103fe565b8101602085101561053c578190505b610550610548856103fe565b8301826104ef565b50505b505050565b600082821c905092915050565b600061057660001984600802610558565b1980831691505092915050565b600061058f8383610565565b9150826002028217905092915050565b6105a88261034f565b67ffffffffffffffff8111156105c1576105c061035a565b5b6105cb82546103b8565b6105d6828285610512565b600060209050601f83116001811461060957600084156105f7578287015190505b6106018582610583565b865550610669565b601f198416610617866103e9565b60005b8281101561063f5784890151825560018201915060208501945060208101905061061a565b8683101561065c5784890151610658601f891682610565565b8355505b6001600288020188555050505b505050505050565b61067a816102e4565b82525050565b60006020820190506106956000830184610671565b92915050565b600082825260208201905092915050565b7f4d61726b6574706c61636520616464726573732063616e6e6f74206265207a6560008201527f726f000000000000000000000000000000000000000000000000000000000000602082015250565b600061070860228361069b565b9150610713826106ac565b604082019050919050565b60006020820190508181036000830152610737816106fb565b9050919050565b61471d8061074d6000396000f3fe608060405234801561001057600080fd5b50600436106101a95760003560e01c8063715018a6116100f9578063b391259711610097578063c87b56dd11610071578063c87b56dd14610504578063d5c7127514610534578063e985e9c514610564578063f2fde38b14610594576101a9565b8063b39125971461049a578063b88d4fde146104ca578063bb8fe785146104e6576101a9565b80638da5cb5b116100d35780638da5cb5b1461042657806395d89b411461044457806398214bcb14610462578063a22cb4651461047e576101a9565b8063715018a6146103d05780637539fc5c146103da578063809e06411461040a576101a9565b806323b872dd1161016657806342842e0e1161014057806342842e0e146103245780634ee9c4a5146103405780636352211e1461037057806370a08231146103a0576101a9565b806323b872dd146102a857806332570d7d146102c457806340398d67146102f4576101a9565b806301ffc9a7146101ae578063056b01ce146101de57806306fdde031461020e578063081812fc1461022c578063095ea7b31461025c5780631f35e34714610278575b600080fd5b6101c860048036038101906101c39190613266565b6105b0565b6040516101d591906132ae565b60405180910390f35b6101f860048036038101906101f39190613445565b610611565b60405161020591906134b0565b60405180910390f35b610216610942565b604051610223919061354a565b60405180910390f35b6102466004803603810190610241919061356c565b6109d4565b60405161025391906135da565b60405180910390f35b61027660048036038101906102719190613621565b6109f0565b005b610292600480360381019061028d9190613661565b610a06565b60405161029f9190613854565b60405180910390f35b6102c260048036038101906102bd9190613876565b610d85565b005b6102de60048036038101906102d9919061356c565b610e87565b6040516102eb9190613965565b60405180910390f35b61030e60048036038101906103099190613661565b6110ee565b60405161031b9190613a36565b60405180910390f35b61033e60048036038101906103399190613876565b61124f565b005b61035a60048036038101906103559190613661565b61126f565b6040516103679190613854565b60405180910390f35b61038a6004803603810190610385919061356c565b611653565b60405161039791906135da565b60405180910390f35b6103ba60048036038101906103b59190613661565b611665565b6040516103c791906134b0565b60405180910390f35b6103d861171f565b005b6103f460048036038101906103ef919061356c565b611733565b60405161040191906135da565b60405180910390f35b610424600480360381019061041f9190613a58565b6117bb565b005b61042e6119b6565b60405161043b91906135da565b60405180910390f35b61044c6119e0565b604051610459919061354a565b60405180910390f35b61047c60048036038101906104779190613ac4565b611a72565b005b61049860048036038101906104939190613b04565b611b31565b005b6104b460048036038101906104af919061356c565b611b47565b6040516104c191906134b0565b60405180910390f35b6104e460048036038101906104df9190613be5565b611baf565b005b6104ee611bd4565b6040516104fb91906135da565b60405180910390f35b61051e6004803603810190610519919061356c565b611bfe565b60405161052b919061354a565b60405180910390f35b61054e60048036038101906105499190613661565b611d11565b60405161055b9190613a36565b60405180910390f35b61057e60048036038101906105799190613c68565b611ed7565b60405161058b91906132ae565b60405180910390f35b6105ae60048036038101906105a99190613661565b611f6b565b005b6000634906490660e01b7bffffffffffffffffffffffffffffffffffffffffffffffffffffffff1916827bffffffffffffffffffffffffffffffffffffffffffffffffffffffff1916148061060a575061060982611ff1565b5b9050919050565b600080821015610656576040517f08c379a000000000000000000000000000000000000000000000000000000000815260040161064d90613cf4565b60405180910390fd5b606482111561069a576040517f08c379a000000000000000000000000000000000000000000000000000000000815260040161069190613d60565b60405180910390fd5b6000600190505b6008548111610730578380519060200120600b60008381526020019081526020016000206001016040516106d59190613e83565b60405180910390200361071d576040517f08c379a000000000000000000000000000000000000000000000000000000000815260040161071490613ee6565b60405180910390fd5b808061072890613f35565b9150506106a1565b506008600081548092919061074490613f35565b91905055506000600854905061075a33826120d3565b61076481856120f1565b6001600a60003373ffffffffffffffffffffffffffffffffffffffff1673ffffffffffffffffffffffffffffffffffffffff16815260200190815260200160002060008282546107b49190613f7d565b925050819055506040518060a001604052808281526020018581526020013373ffffffffffffffffffffffffffffffffffffffff16815260200184815260200142815250600b600083815260200190815260200160002060008201518160000155602082015181600101908161082a919061415d565b5060408201518160020160006101000a81548173ffffffffffffffffffffffffffffffffffffffff021916908373ffffffffffffffffffffffffffffffffffffffff16021790555060608201518160030155608082015181600401559050506108b533600960009054906101000a900473ffffffffffffffffffffffffffffffffffffffff16611ed7565b6108e7576108e6600960009054906101000a900473ffffffffffffffffffffffffffffffffffffffff166001611b31565b5b803373ffffffffffffffffffffffffffffffffffffffff167f7f9dd5d8fa69e733db2277a568b65a9651a3042da18fb2b5ea1966d3891cbfda864260405161093092919061422f565b60405180910390a38091505092915050565b60606000805461095190613daf565b80601f016020809104026020016040519081016040528092919081815260200182805461097d90613daf565b80156109ca5780601f1061099f576101008083540402835291602001916109ca565b820191906000526020600020905b8154815290600101906020018083116109ad57829003601f168201915b5050505050905090565b60006109df8261214d565b506109e9826121d5565b9050919050565b610a0282826109fd612212565b61221a565b5050565b60606000610a1383611665565b905060008103610a7a57600067ffffffffffffffff811115610a3857610a376132e4565b5b604051908082528060200260200182016040528015610a7157816020015b610a5e613191565b815260200190600190039081610a565790505b50915050610d80565b60008167ffffffffffffffff811115610a9657610a956132e4565b5b604051908082528060200260200182016040528015610acf57816020015b610abc613191565b815260200190600190039081610ab45790505b5090506000805b600854811015610d78576000600182610aef9190613f7d565b90508673ffffffffffffffffffffffffffffffffffffffff16610b1182611653565b73ffffffffffffffffffffffffffffffffffffffff1614610b325750610d6b565b6000600960009054906101000a900473ffffffffffffffffffffffffffffffffffffffff1673ffffffffffffffffffffffffffffffffffffffff1663255f317930846040518363ffffffff1660e01b8152600401610b9192919061425f565b602060405180830381865afa158015610bae573d6000803e3d6000fd5b505050506040513d601f19601f82011682018060405250810190610bd2919061429d565b90506040518060e00160405280838152602001600b60008581526020019081526020016000206001018054610c0690613daf565b80601f0160208091040260200160405190810160405280929190818152602001828054610c3290613daf565b8015610c7f5780601f10610c5457610100808354040283529160200191610c7f565b820191906000526020600020905b815481529060010190602001808311610c6257829003601f168201915b50505050508152602001600b600085815260200190815260200160002060020160009054906101000a900473ffffffffffffffffffffffffffffffffffffffff1673ffffffffffffffffffffffffffffffffffffffff168152602001610ce484611653565b73ffffffffffffffffffffffffffffffffffffffff168152602001600b6000858152602001908152602001600020600301548152602001600b600085815260200190815260200160002060040154815260200182815250858581518110610d4e57610d4d6142ca565b5b6020026020010181905250600184610d669190613f7d565b935050505b8080600101915050610ad6565b508193505050505b919050565b600073ffffffffffffffffffffffffffffffffffffffff168273ffffffffffffffffffffffffffffffffffffffff1603610df75760006040517f64a0ae92000000000000000000000000000000000000000000000000000000008152600401610dee91906135da565b60405180910390fd5b6000610e0b8383610e06612212565b61222c565b90508373ffffffffffffffffffffffffffffffffffffffff168173ffffffffffffffffffffffffffffffffffffffff1614610e81578382826040517f64283d7b000000000000000000000000000000000000000000000000000000008152600401610e78939291906142f9565b60405180910390fd5b50505050565b610e8f613191565b610e98826122ff565b610ed7576040517f08c379a0000000000000000000000000000000000000000000000000000000008152600401610ece9061437c565b60405180910390fd5b6000600960009054906101000a900473ffffffffffffffffffffffffffffffffffffffff1673ffffffffffffffffffffffffffffffffffffffff1663255f317930856040518363ffffffff1660e01b8152600401610f3692919061425f565b602060405180830381865afa158015610f53573d6000803e3d6000fd5b505050506040513d601f19601f82011682018060405250810190610f77919061429d565b905060006040518060e00160405280858152602001600b60008781526020019081526020016000206001018054610fad90613daf565b80601f0160208091040260200160405190810160405280929190818152602001828054610fd990613daf565b80156110265780601f10610ffb57610100808354040283529160200191611026565b820191906000526020600020905b81548152906001019060200180831161100957829003601f168201915b50505050508152602001600b600087815260200190815260200160002060020160009054906101000a900473ffffffffffffffffffffffffffffffffffffffff1673ffffffffffffffffffffffffffffffffffffffff16815260200161108b86611653565b73ffffffffffffffffffffffffffffffffffffffff168152602001600b6000878152602001908152602001600020600301548152602001600b60008781526020019081526020016000206004015481526020018381525090508092505050919050565b606060006110fb83611665565b90506000810361115757600067ffffffffffffffff8111156111205761111f6132e4565b5b60405190808252806020026020018201604052801561114e5781602001602082028036833780820191505090505b5091505061124a565b60008167ffffffffffffffff811115611173576111726132e4565b5b6040519080825280602002602001820160405280156111a15781602001602082028036833780820191505090505b5090506000805b6008548110156112425760006001826111c19190613f7d565b90508673ffffffffffffffffffffffffffffffffffffffff166111e382611653565b73ffffffffffffffffffffffffffffffffffffffff16146112045750611235565b80848481518110611218576112176142ca565b5b6020026020010181815250506001836112319190613f7d565b9250505b80806001019150506111a8565b508193505050505b919050565b61126a83838360405180602001604052806000815250611baf565b505050565b60606000600a60008473ffffffffffffffffffffffffffffffffffffffff1673ffffffffffffffffffffffffffffffffffffffff1681526020019081526020016000205490506000810361131a57600067ffffffffffffffff8111156112d8576112d76132e4565b5b60405190808252806020026020018201604052801561131157816020015b6112fe613191565b8152602001906001900390816112f65790505b5091505061164e565b60008167ffffffffffffffff811115611336576113356132e4565b5b60405190808252806020026020018201604052801561136f57816020015b61135c613191565b8152602001906001900390816113545790505b5090506000805b60085481101561164657600060018261138f9190613f7d565b90508673ffffffffffffffffffffffffffffffffffffffff16600b600083815260200190815260200160002060020160009054906101000a900473ffffffffffffffffffffffffffffffffffffffff1673ffffffffffffffffffffffffffffffffffffffff16146114005750611639565b6000600960009054906101000a900473ffffffffffffffffffffffffffffffffffffffff1673ffffffffffffffffffffffffffffffffffffffff1663255f317930846040518363ffffffff1660e01b815260040161145f92919061425f565b602060405180830381865afa15801561147c573d6000803e3d6000fd5b505050506040513d601f19601f820116820180604052508101906114a0919061429d565b90506040518060e00160405280838152602001600b600085815260200190815260200160002060010180546114d490613daf565b80601f016020809104026020016040519081016040528092919081815260200182805461150090613daf565b801561154d5780601f106115225761010080835404028352916020019161154d565b820191906000526020600020905b81548152906001019060200180831161153057829003601f168201915b50505050508152602001600b600085815260200190815260200160002060020160009054906101000a900473ffffffffffffffffffffffffffffffffffffffff1673ffffffffffffffffffffffffffffffffffffffff1681526020016115b284611653565b73ffffffffffffffffffffffffffffffffffffffff168152602001600b6000858152602001908152602001600020600301548152602001600b60008581526020019081526020016000206004015481526020018281525085858151811061161c5761161b6142ca565b5b60200260200101819052506001846116349190613f7d565b935050505b8080600101915050611376565b508193505050505b919050565b600061165e8261214d565b9050919050565b60008073ffffffffffffffffffffffffffffffffffffffff168273ffffffffffffffffffffffffffffffffffffffff16036116d85760006040517f89c62b640000000000000000000000000000000000000000000000000000000081526004016116cf91906135da565b60405180910390fd5b600360008373ffffffffffffffffffffffffffffffffffffffff1673ffffffffffffffffffffffffffffffffffffffff168152602001908152602001600020549050919050565b61172761235b565b61173160006123e2565b565b600061173e826122ff565b61177d576040517f08c379a00000000000000000000000000000000000000000000000000000000081526004016117749061437c565b60405180910390fd5b600b600083815260200190815260200160002060020160009054906101000a900473ffffffffffffffffffffffffffffffffffffffff169050919050565b3373ffffffffffffffffffffffffffffffffffffffff166117db83611653565b73ffffffffffffffffffffffffffffffffffffffff1614611831576040517f08c379a0000000000000000000000000000000000000000000000000000000008152600401611828906143e8565b60405180910390fd5b3373ffffffffffffffffffffffffffffffffffffffff16600b600084815260200190815260200160002060020160009054906101000a900473ffffffffffffffffffffffffffffffffffffffff1673ffffffffffffffffffffffffffffffffffffffff16146118d5576040517f08c379a00000000000000000000000000000000000000000000000000000000081526004016118cc90614454565b60405180910390fd5b6000811015611919576040517f08c379a000000000000000000000000000000000000000000000000000000000815260040161191090613cf4565b60405180910390fd5b606481111561195d576040517f08c379a000000000000000000000000000000000000000000000000000000000815260040161195490613d60565b60405180910390fd5b80600b600084815260200190815260200160002060030181905550817f6063f4a05c03aa7c4dae47c9b14a3f4f156d08951bacb3a7e1e825116c0b8ae782426040516119aa929190614474565b60405180910390a25050565b6000600760009054906101000a900473ffffffffffffffffffffffffffffffffffffffff16905090565b6060600180546119ef90613daf565b80601f0160208091040260200160405190810160405280929190818152602001828054611a1b90613daf565b8015611a685780601f10611a3d57610100808354040283529160200191611a68565b820191906000526020600020905b815481529060010190602001808311611a4b57829003601f168201915b5050505050905090565b600960009054906101000a900473ffffffffffffffffffffffffffffffffffffffff1673ffffffffffffffffffffffffffffffffffffffff163373ffffffffffffffffffffffffffffffffffffffff1614611b02576040517f08c379a0000000000000000000000000000000000000000000000000000000008152600401611af9906144e9565b60405180910390fd5b80600c600084815260200190815260200160002060006101000a81548160ff0219169083151502179055505050565b611b43611b3c612212565b83836124a8565b5050565b6000611b52826122ff565b611b91576040517f08c379a0000000000000000000000000000000000000000000000000000000008152600401611b889061437c565b60405180910390fd5b600b6000838152602001908152602001600020600301549050919050565b611bba848484610d85565b611bce611bc5612212565b85858585612617565b50505050565b6000600960009054906101000a900473ffffffffffffffffffffffffffffffffffffffff16905090565b6060611c098261214d565b506000600660008481526020019081526020016000208054611c2a90613daf565b80601f0160208091040260200160405190810160405280929190818152602001828054611c5690613daf565b8015611ca35780601f10611c7857610100808354040283529160200191611ca3565b820191906000526020600020905b815481529060010190602001808311611c8657829003601f168201915b505050505090506000611cb46127c8565b90506000815103611cc9578192505050611d0c565b600082511115611cfe578082604051602001611ce6929190614545565b60405160208183030381529060405292505050611d0c565b611d07846127df565b925050505b919050565b60606000600a60008473ffffffffffffffffffffffffffffffffffffffff1673ffffffffffffffffffffffffffffffffffffffff16815260200190815260200160002054905060008103611db157600067ffffffffffffffff811115611d7a57611d796132e4565b5b604051908082528060200260200182016040528015611da85781602001602082028036833780820191505090505b50915050611ed2565b60008167ffffffffffffffff811115611dcd57611dcc6132e4565b5b604051908082528060200260200182016040528015611dfb5781602001602082028036833780820191505090505b5090506000805b600854811015611eca576000600182611e1b9190613f7d565b90508673ffffffffffffffffffffffffffffffffffffffff16600b600083815260200190815260200160002060020160009054906101000a900473ffffffffffffffffffffffffffffffffffffffff1673ffffffffffffffffffffffffffffffffffffffff1614611e8c5750611ebd565b80848481518110611ea057611e9f6142ca565b5b602002602001018181525050600183611eb99190613f7d565b9250505b8080600101915050611e02565b508193505050505b919050565b6000600560008473ffffffffffffffffffffffffffffffffffffffff1673ffffffffffffffffffffffffffffffffffffffff16815260200190815260200160002060008373ffffffffffffffffffffffffffffffffffffffff1673ffffffffffffffffffffffffffffffffffffffff16815260200190815260200160002060009054906101000a900460ff16905092915050565b611f7361235b565b600073ffffffffffffffffffffffffffffffffffffffff168173ffffffffffffffffffffffffffffffffffffffff1603611fe55760006040517f1e4fbdf7000000000000000000000000000000000000000000000000000000008152600401611fdc91906135da565b60405180910390fd5b611fee816123e2565b50565b60007f80ac58cd000000000000000000000000000000000000000000000000000000007bffffffffffffffffffffffffffffffffffffffffffffffffffffffff1916827bffffffffffffffffffffffffffffffffffffffffffffffffffffffff191614806120bc57507f5b5e139f000000000000000000000000000000000000000000000000000000007bffffffffffffffffffffffffffffffffffffffffffffffffffffffff1916827bffffffffffffffffffffffffffffffffffffffffffffffffffffffff1916145b806120cc57506120cb82612848565b5b9050919050565b6120ed8282604051806020016040528060008152506128b2565b5050565b80600660008481526020019081526020016000209081612111919061415d565b507ff8e1a15aba9398e019f0b49df1a4fde98ee17ae345cb5f6b5e2c27f5033e8ce78260405161214191906134b0565b60405180910390a15050565b600080612159836128d6565b9050600073ffffffffffffffffffffffffffffffffffffffff168173ffffffffffffffffffffffffffffffffffffffff16036121cc57826040517f7e2732890000000000000000000000000000000000000000000000000000000081526004016121c391906134b0565b60405180910390fd5b80915050919050565b60006004600083815260200190815260200160002060009054906101000a900473ffffffffffffffffffffffffffffffffffffffff169050919050565b600033905090565b6122278383836001612913565b505050565b6000600960009054906101000a900473ffffffffffffffffffffffffffffffffffffffff1673ffffffffffffffffffffffffffffffffffffffff163373ffffffffffffffffffffffffffffffffffffffff16146122eb5760001515600c600085815260200190815260200160002060009054906101000a900460ff161515146122ea576040517f08c379a00000000000000000000000000000000000000000000000000000000081526004016122e1906145b5565b60405180910390fd5b5b6122f6848484612ad8565b90509392505050565b600081600854101580156123135750600082115b80156123545750600073ffffffffffffffffffffffffffffffffffffffff1661233b83611653565b73ffffffffffffffffffffffffffffffffffffffff1614155b9050919050565b612363612212565b73ffffffffffffffffffffffffffffffffffffffff166123816119b6565b73ffffffffffffffffffffffffffffffffffffffff16146123e0576123a4612212565b6040517f118cdaa70000000000000000000000000000000000000000000000000000000081526004016123d791906135da565b60405180910390fd5b565b6000600760009054906101000a900473ffffffffffffffffffffffffffffffffffffffff16905081600760006101000a81548173ffffffffffffffffffffffffffffffffffffffff021916908373ffffffffffffffffffffffffffffffffffffffff1602179055508173ffffffffffffffffffffffffffffffffffffffff168173ffffffffffffffffffffffffffffffffffffffff167f8be0079c531659141344cd1fd0a4f28419497f9722a3daafe3b4186f6b6457e060405160405180910390a35050565b600073ffffffffffffffffffffffffffffffffffffffff168273ffffffffffffffffffffffffffffffffffffffff160361251957816040517f5b08ba1800000000000000000000000000000000000000000000000000000000815260040161251091906135da565b60405180910390fd5b80600560008573ffffffffffffffffffffffffffffffffffffffff1673ffffffffffffffffffffffffffffffffffffffff16815260200190815260200160002060008473ffffffffffffffffffffffffffffffffffffffff1673ffffffffffffffffffffffffffffffffffffffff16815260200190815260200160002060006101000a81548160ff0219169083151502179055508173ffffffffffffffffffffffffffffffffffffffff168373ffffffffffffffffffffffffffffffffffffffff167f17307eab39ab6107e8899845ad3d59bd9653f200f220920489ca2b5937696c318360405161260a91906132ae565b60405180910390a3505050565b60008373ffffffffffffffffffffffffffffffffffffffff163b11156127c1578273ffffffffffffffffffffffffffffffffffffffff1663150b7a02868685856040518563ffffffff1660e01b8152600401612676949392919061462a565b6020604051808303816000875af19250505080156126b257506040513d601f19601f820116820180604052508101906126af919061468b565b60015b612736573d80600081146126e2576040519150601f19603f3d011682016040523d82523d6000602084013e6126e7565b606091505b50600081510361272e57836040517f64a0ae9200000000000000000000000000000000000000000000000000000000815260040161272591906135da565b60405180910390fd5b805181602001fd5b63150b7a0260e01b7bffffffffffffffffffffffffffffffffffffffffffffffffffffffff1916817bffffffffffffffffffffffffffffffffffffffffffffffffffffffff1916146127bf57836040517f64a0ae920000000000000000000000000000000000000000000000000000000081526004016127b691906135da565b60405180910390fd5b505b5050505050565b606060405180602001604052806000815250905090565b60606127ea8261214d565b5060006127f56127c8565b905060008151116128155760405180602001604052806000815250612840565b8061281f84612cf2565b604051602001612830929190614545565b6040516020818303038152906040525b915050919050565b60007f01ffc9a7000000000000000000000000000000000000000000000000000000007bffffffffffffffffffffffffffffffffffffffffffffffffffffffff1916827bffffffffffffffffffffffffffffffffffffffffffffffffffffffff1916149050919050565b6128bc8383612dc0565b6128d16128c7612212565b6000858585612617565b505050565b60006002600083815260200190815260200160002060009054906101000a900473ffffffffffffffffffffffffffffffffffffffff169050919050565b808061294c5750600073ffffffffffffffffffffffffffffffffffffffff168273ffffffffffffffffffffffffffffffffffffffff1614155b15612a8057600061295c8461214d565b9050600073ffffffffffffffffffffffffffffffffffffffff168373ffffffffffffffffffffffffffffffffffffffff16141580156129c757508273ffffffffffffffffffffffffffffffffffffffff168173ffffffffffffffffffffffffffffffffffffffff1614155b80156129da57506129d88184611ed7565b155b15612a1c57826040517fa9fbf51f000000000000000000000000000000000000000000000000000000008152600401612a1391906135da565b60405180910390fd5b8115612a7e57838573ffffffffffffffffffffffffffffffffffffffff168273ffffffffffffffffffffffffffffffffffffffff167f8c5be1e5ebec7d5bd14f71427d1e84f3dd0314c0f7b2291e5b200ac8c7c3b92560405160405180910390a45b505b836004600085815260200190815260200160002060006101000a81548173ffffffffffffffffffffffffffffffffffffffff021916908373ffffffffffffffffffffffffffffffffffffffff16021790555050505050565b600080612ae4846128d6565b9050600073ffffffffffffffffffffffffffffffffffffffff168373ffffffffffffffffffffffffffffffffffffffff1614612b2657612b25818486612eb9565b5b600073ffffffffffffffffffffffffffffffffffffffff168173ffffffffffffffffffffffffffffffffffffffff1614612bb757612b68600085600080612913565b6001600360008373ffffffffffffffffffffffffffffffffffffffff1673ffffffffffffffffffffffffffffffffffffffff168152602001908152602001600020600082825403925050819055505b600073ffffffffffffffffffffffffffffffffffffffff168573ffffffffffffffffffffffffffffffffffffffff1614612c3a576001600360008773ffffffffffffffffffffffffffffffffffffffff1673ffffffffffffffffffffffffffffffffffffffff168152602001908152602001600020600082825401925050819055505b846002600086815260200190815260200160002060006101000a81548173ffffffffffffffffffffffffffffffffffffffff021916908373ffffffffffffffffffffffffffffffffffffffff160217905550838573ffffffffffffffffffffffffffffffffffffffff168273ffffffffffffffffffffffffffffffffffffffff167fddf252ad1be2c89b69c2b068fc378daa952ba7f163c4a11628f55a4df523b3ef60405160405180910390a4809150509392505050565b606060006001612d0184612f7d565b01905060008167ffffffffffffffff811115612d2057612d1f6132e4565b5b6040519080825280601f01601f191660200182016040528015612d525781602001600182028036833780820191505090505b509050600082602001820190505b600115612db5578080600190039150507f3031323334353637383961626364656600000000000000000000000000000000600a86061a8153600a8581612da957612da86146b8565b5b04945060008503612d60575b819350505050919050565b600073ffffffffffffffffffffffffffffffffffffffff168273ffffffffffffffffffffffffffffffffffffffff1603612e325760006040517f64a0ae92000000000000000000000000000000000000000000000000000000008152600401612e2991906135da565b60405180910390fd5b6000612e408383600061222c565b9050600073ffffffffffffffffffffffffffffffffffffffff168173ffffffffffffffffffffffffffffffffffffffff1614612eb45760006040517f73c6ac6e000000000000000000000000000000000000000000000000000000008152600401612eab91906135da565b60405180910390fd5b505050565b612ec48383836130d0565b612f7857600073ffffffffffffffffffffffffffffffffffffffff168373ffffffffffffffffffffffffffffffffffffffff1603612f3957806040517f7e273289000000000000000000000000000000000000000000000000000000008152600401612f3091906134b0565b60405180910390fd5b81816040517f177e802f000000000000000000000000000000000000000000000000000000008152600401612f6f92919061425f565b60405180910390fd5b505050565b600080600090507a184f03e93ff9f4daa797ed6e38ed64bf6a1f0100000000000000008310612fdb577a184f03e93ff9f4daa797ed6e38ed64bf6a1f0100000000000000008381612fd157612fd06146b8565b5b0492506040810190505b6d04ee2d6d415b85acef81000000008310613018576d04ee2d6d415b85acef8100000000838161300e5761300d6146b8565b5b0492506020810190505b662386f26fc10000831061304757662386f26fc10000838161303d5761303c6146b8565b5b0492506010810190505b6305f5e1008310613070576305f5e1008381613066576130656146b8565b5b0492506008810190505b612710831061309557612710838161308b5761308a6146b8565b5b0492506004810190505b606483106130b857606483816130ae576130ad6146b8565b5b0492506002810190505b600a83106130c7576001810190505b80915050919050565b60008073ffffffffffffffffffffffffffffffffffffffff168373ffffffffffffffffffffffffffffffffffffffff161415801561318857508273ffffffffffffffffffffffffffffffffffffffff168473ffffffffffffffffffffffffffffffffffffffff16148061314957506131488484611ed7565b5b8061318757508273ffffffffffffffffffffffffffffffffffffffff1661316f836121d5565b73ffffffffffffffffffffffffffffffffffffffff16145b5b90509392505050565b6040518060e001604052806000815260200160608152602001600073ffffffffffffffffffffffffffffffffffffffff168152602001600073ffffffffffffffffffffffffffffffffffffffff1681526020016000815260200160008152602001600081525090565b6000604051905090565b600080fd5b600080fd5b60007fffffffff0000000000000000000000000000000000000000000000000000000082169050919050565b6132438161320e565b811461324e57600080fd5b50565b6000813590506132608161323a565b92915050565b60006020828403121561327c5761327b613204565b5b600061328a84828501613251565b91505092915050565b60008115159050919050565b6132a881613293565b82525050565b60006020820190506132c3600083018461329f565b92915050565b600080fd5b600080fd5b6000601f19601f8301169050919050565b7f4e487b7100000000000000000000000000000000000000000000000000000000600052604160045260246000fd5b61331c826132d3565b810181811067ffffffffffffffff8211171561333b5761333a6132e4565b5b80604052505050565b600061334e6131fa565b905061335a8282613313565b919050565b600067ffffffffffffffff82111561337a576133796132e4565b5b613383826132d3565b9050602081019050919050565b82818337600083830152505050565b60006133b26133ad8461335f565b613344565b9050828152602081018484840111156133ce576133cd6132ce565b5b6133d9848285613390565b509392505050565b600082601f8301126133f6576133f56132c9565b5b813561340684826020860161339f565b91505092915050565b6000819050919050565b6134228161340f565b811461342d57600080fd5b50565b60008135905061343f81613419565b92915050565b6000806040838503121561345c5761345b613204565b5b600083013567ffffffffffffffff81111561347a57613479613209565b5b613486858286016133e1565b925050602061349785828601613430565b9150509250929050565b6134aa8161340f565b82525050565b60006020820190506134c560008301846134a1565b92915050565b600081519050919050565b600082825260208201905092915050565b60005b838110156135055780820151818401526020810190506134ea565b60008484015250505050565b600061351c826134cb565b61352681856134d6565b93506135368185602086016134e7565b61353f816132d3565b840191505092915050565b600060208201905081810360008301526135648184613511565b905092915050565b60006020828403121561358257613581613204565b5b600061359084828501613430565b91505092915050565b600073ffffffffffffffffffffffffffffffffffffffff82169050919050565b60006135c482613599565b9050919050565b6135d4816135b9565b82525050565b60006020820190506135ef60008301846135cb565b92915050565b6135fe816135b9565b811461360957600080fd5b50565b60008135905061361b816135f5565b92915050565b6000806040838503121561363857613637613204565b5b60006136468582860161360c565b925050602061365785828601613430565b9150509250929050565b60006020828403121561367757613676613204565b5b60006136858482850161360c565b91505092915050565b600081519050919050565b600082825260208201905092915050565b6000819050602082019050919050565b6136c38161340f565b82525050565b600082825260208201905092915050565b60006136e5826134cb565b6136ef81856136c9565b93506136ff8185602086016134e7565b613708816132d3565b840191505092915050565b61371c816135b9565b82525050565b600060e08301600083015161373a60008601826136ba565b506020830151848203602086015261375282826136da565b91505060408301516137676040860182613713565b50606083015161377a6060860182613713565b50608083015161378d60808601826136ba565b5060a08301516137a060a08601826136ba565b5060c08301516137b360c08601826136ba565b508091505092915050565b60006137ca8383613722565b905092915050565b6000602082019050919050565b60006137ea8261368e565b6137f48185613699565b935083602082028501613806856136aa565b8060005b85811015613842578484038952815161382385826137be565b945061382e836137d2565b925060208a0199505060018101905061380a565b50829750879550505050505092915050565b6000602082019050818103600083015261386e81846137df565b905092915050565b60008060006060848603121561388f5761388e613204565b5b600061389d8682870161360c565b93505060206138ae8682870161360c565b92505060406138bf86828701613430565b9150509250925092565b600060e0830160008301516138e160008601826136ba565b50602083015184820360208601526138f982826136da565b915050604083015161390e6040860182613713565b5060608301516139216060860182613713565b50608083015161393460808601826136ba565b5060a083015161394760a08601826136ba565b5060c083015161395a60c08601826136ba565b508091505092915050565b6000602082019050818103600083015261397f81846138c9565b905092915050565b600081519050919050565b600082825260208201905092915050565b6000819050602082019050919050565b60006139bf83836136ba565b60208301905092915050565b6000602082019050919050565b60006139e382613987565b6139ed8185613992565b93506139f8836139a3565b8060005b83811015613a29578151613a1088826139b3565b9750613a1b836139cb565b9250506001810190506139fc565b5085935050505092915050565b60006020820190508181036000830152613a5081846139d8565b905092915050565b60008060408385031215613a6f57613a6e613204565b5b6000613a7d85828601613430565b9250506020613a8e85828601613430565b9150509250929050565b613aa181613293565b8114613aac57600080fd5b50565b600081359050613abe81613a98565b92915050565b60008060408385031215613adb57613ada613204565b5b6000613ae985828601613430565b9250506020613afa85828601613aaf565b9150509250929050565b60008060408385031215613b1b57613b1a613204565b5b6000613b298582860161360c565b9250506020613b3a85828601613aaf565b9150509250929050565b600067ffffffffffffffff821115613b5f57613b5e6132e4565b5b613b68826132d3565b9050602081019050919050565b6000613b88613b8384613b44565b613344565b905082815260208101848484011115613ba457613ba36132ce565b5b613baf848285613390565b509392505050565b600082601f830112613bcc57613bcb6132c9565b5b8135613bdc848260208601613b75565b91505092915050565b60008060008060808587031215613bff57613bfe613204565b5b6000613c0d8782880161360c565b9450506020613c1e8782880161360c565b9350506040613c2f87828801613430565b925050606085013567ffffffffffffffff811115613c5057613c4f613209565b5b613c5c87828801613bb7565b91505092959194509250565b60008060408385031215613c7f57613c7e613204565b5b6000613c8d8582860161360c565b9250506020613c9e8582860161360c565b9150509250929050565b7f526f79616c7479206d757374206265206e6f6e2d6e6567617469766500000000600082015250565b6000613cde601c836134d6565b9150613ce982613ca8565b602082019050919050565b60006020820190508181036000830152613d0d81613cd1565b9050919050565b7f526f79616c7479206665652063616e6e6f742065786365656420313030250000600082015250565b6000613d4a601e836134d6565b9150613d5582613d14565b602082019050919050565b60006020820190508181036000830152613d7981613d3d565b9050919050565b7f4e487b7100000000000000000000000000000000000000000000000000000000600052602260045260246000fd5b60006002820490506001821680613dc757607f821691505b602082108103613dda57613dd9613d80565b5b50919050565b600081905092915050565b60008190508160005260206000209050919050565b60008154613e0d81613daf565b613e178186613de0565b94506001821660008114613e325760018114613e4757613e7a565b60ff1983168652811515820286019350613e7a565b613e5085613deb565b60005b83811015613e7257815481890152600182019150602081019050613e53565b838801955050505b50505092915050565b6000613e8f8284613e00565b915081905092915050565b7f546f6b656e2055524920616c7265616479206578697374730000000000000000600082015250565b6000613ed06018836134d6565b9150613edb82613e9a565b602082019050919050565b60006020820190508181036000830152613eff81613ec3565b9050919050565b7f4e487b7100000000000000000000000000000000000000000000000000000000600052601160045260246000fd5b6000613f408261340f565b91507fffffffffffffffffffffffffffffffffffffffffffffffffffffffffffffffff8203613f7257613f71613f06565b5b600182019050919050565b6000613f888261340f565b9150613f938361340f565b9250828201905080821115613fab57613faa613f06565b5b92915050565b60008190508160005260206000209050919050565b60006020601f8301049050919050565b600082821b905092915050565b6000600883026140137fffffffffffffffffffffffffffffffffffffffffffffffffffffffffffffffff82613fd6565b61401d8683613fd6565b95508019841693508086168417925050509392505050565b6000819050919050565b600061405a6140556140508461340f565b614035565b61340f565b9050919050565b6000819050919050565b6140748361403f565b61408861408082614061565b848454613fe3565b825550505050565b600090565b61409d614090565b6140a881848461406b565b505050565b5b818110156140cc576140c1600082614095565b6001810190506140ae565b5050565b601f821115614111576140e281613fb1565b6140eb84613fc6565b810160208510156140fa578190505b61410e61410685613fc6565b8301826140ad565b50505b505050565b600082821c905092915050565b600061413460001984600802614116565b1980831691505092915050565b600061414d8383614123565b9150826002028217905092915050565b614166826134cb565b67ffffffffffffffff81111561417f5761417e6132e4565b5b6141898254613daf565b6141948282856140d0565b600060209050601f8311600181146141c757600084156141b5578287015190505b6141bf8582614141565b865550614227565b601f1984166141d586613fb1565b60005b828110156141fd578489015182556001820191506020850194506020810190506141d8565b8683101561421a5784890151614216601f891682614123565b8355505b6001600288020188555050505b505050505050565b600060408201905081810360008301526142498185613511565b905061425860208301846134a1565b9392505050565b600060408201905061427460008301856135cb565b61428160208301846134a1565b9392505050565b60008151905061429781613419565b92915050565b6000602082840312156142b3576142b2613204565b5b60006142c184828501614288565b91505092915050565b7f4e487b7100000000000000000000000000000000000000000000000000000000600052603260045260246000fd5b600060608201905061430e60008301866135cb565b61431b60208301856134a1565b61432860408301846135cb565b949350505050565b7f546f6b656e20646f6573206e6f74206578697374000000000000000000000000600082015250565b60006143666014836134d6565b915061437182614330565b602082019050919050565b6000602082019050818103600083015261439581614359565b9050919050565b7f4e6f7420746f6b656e206f776e65720000000000000000000000000000000000600082015250565b60006143d2600f836134d6565b91506143dd8261439c565b602082019050919050565b60006020820190508181036000830152614401816143c5565b9050919050565b7f4e6f742063726561746f72000000000000000000000000000000000000000000600082015250565b600061443e600b836134d6565b915061444982614408565b602082019050919050565b6000602082019050818103600083015261446d81614431565b9050919050565b600060408201905061448960008301856134a1565b61449660208301846134a1565b9392505050565b7f4e6f74206d61726b6574706c6163652063616c6c000000000000000000000000600082015250565b60006144d36014836134d6565b91506144de8261449d565b602082019050919050565b60006020820190508181036000830152614502816144c6565b9050919050565b600081905092915050565b600061451f826134cb565b6145298185614509565b93506145398185602086016134e7565b80840191505092915050565b60006145518285614514565b915061455d8284614514565b91508190509392505050565b7f546f6b656e206973206265696e67206c697374656420666f722073616c650000600082015250565b600061459f601e836134d6565b91506145aa82614569565b602082019050919050565b600060208201905081810360008301526145ce81614592565b9050919050565b600081519050919050565b600082825260208201905092915050565b60006145fc826145d5565b61460681856145e0565b93506146168185602086016134e7565b61461f816132d3565b840191505092915050565b600060808201905061463f60008301876135cb565b61464c60208301866135cb565b61465960408301856134a1565b818103606083015261466b81846145f1565b905095945050505050565b6000815190506146858161323a565b92915050565b6000602082840312156146a1576146a0613204565b5b60006146af84828501614676565b91505092915050565b7f4e487b7100000000000000000000000000000000000000000000000000000000600052601260045260246000fdfea2646970667358221220761176749ca56e89ea995203bd86c61c556fc6700ce611fa7730b902eee80bd564736f6c634300081c0033",
  "linkReferences": {},
  "deployedLinkReferences": {}
}