{
  "_format": "hh-sol-artifact-1",
  "contractName": "NFTv2",
  "sourceName": "contracts/NFTv2.sol",
  "abi": [
    {
      "inputs": [
        {
          "internalType": "address",
          "name": "marketplaceAddress",
          "type": "address"
        }
      ],
      "stateMutability": "nonpayable",
      "type": "constructor"
    },
    {
      "inputs": [
        {
          "internalType": "address",
          "name": "sender",
          "type": "address"
        },
        {
          "internalType": "uint256",
          "name": "tokenId",
          "type": "uint256"
        },
        {
          "internalType": "address",
          "name": "owner",
          "type": "address"
        }
      ],
      "name": "ERC721IncorrectOwner",
      "type": "error"
    },
    {
      "inputs": [
        {
          "internalType": "address",
          "name": "operator",
          "type": "address"
        },
        {
          "internalType": "uint256",
          "name": "tokenId",
          "type": "uint256"
        }
      ],
      "name": "ERC721InsufficientApproval",
      "type": "error"
    },
    {
      "inputs": [
        {
          "internalType": "address",
          "name": "approver",
          "type": "address"
        }
      ],
      "name": "ERC721InvalidApprover",
      "type": "error"
    },
    {
      "inputs": [
        {
          "internalType": "address",
          "name": "operator",
          "type": "address"
        }
      ],
      "name": "ERC721InvalidOperator",
      "type": "error"
    },
    {
      "inputs": [
        {
          "internalType": "address",
          "name": "owner",
          "type": "address"
        }
      ],
      "name": "ERC721InvalidOwner",
      "type": "error"
    },
    {
      "inputs": [
        {
          "internalType": "address",
          "name": "receiver",
          "type": "address"
        }
      ],
      "name": "ERC721InvalidReceiver",
      "type": "error"
    },
    {
      "inputs": [
        {
          "internalType": "address",
          "name": "sender",
          "type": "address"
        }
      ],
      "name": "ERC721InvalidSender",
      "type": "error"
    },
    {
      "inputs": [
        {
          "internalType": "uint256",
          "name": "tokenId",
          "type": "uint256"
        }
      ],
      "name": "ERC721NonexistentToken",
      "type": "error"
    },
    {
      "inputs": [
        {
          "internalType": "address",
          "name": "owner",
          "type": "address"
        }
      ],
      "name": "OwnableInvalidOwner",
      "type": "error"
    },
    {
      "inputs": [
        {
          "internalType": "address",
          "name": "account",
          "type": "address"
        }
      ],
      "name": "OwnableUnauthorizedAccount",
      "type": "error"
    },
    {
      "anonymous": false,
      "inputs": [
        {
          "indexed": true,
          "internalType": "address",
          "name": "owner",
          "type": "address"
        },
        {
          "indexed": true,
          "internalType": "address",
          "name": "approved",
          "type": "address"
        },
        {
          "indexed": true,
          "internalType": "uint256",
          "name": "tokenId",
          "type": "uint256"
        }
      ],
      "name": "Approval",
      "type": "event"
    },
    {
      "anonymous": false,
      "inputs": [
        {
          "indexed": true,
          "internalType": "address",
          "name": "owner",
          "type": "address"
        },
        {
          "indexed": true,
          "internalType": "address",
          "name": "operator",
          "type": "address"
        },
        {
          "indexed": false,
          "internalType": "bool",
          "name": "approved",
          "type": "bool"
        }
      ],
      "name": "ApprovalForAll",
      "type": "event"
    },
    {
      "anonymous": false,
      "inputs": [
        {
          "indexed": false,
          "internalType": "uint256",
          "name": "_fromTokenId",
          "type": "uint256"
        },
        {
          "indexed": false,
          "internalType": "uint256",
          "name": "_toTokenId",
          "type": "uint256"
        }
      ],
      "name": "BatchMetadataUpdate",
      "type": "event"
    },
    {
      "anonymous": false,
      "inputs": [
        {
          "indexed": false,
          "internalType": "uint256",
          "name": "_tokenId",
          "type": "uint256"
        }
      ],
      "name": "MetadataUpdate",
      "type": "event"
    },
    {
      "anonymous": false,
      "inputs": [
        {
          "indexed": true,
          "internalType": "address",
          "name": "creator",
          "type": "address"
        },
        {
          "indexed": true,
          "internalType": "uint256",
          "name": "tokenId",
          "type": "uint256"
        },
        {
          "indexed": false,
          "internalType": "string",
          "name": "tokenURI",
          "type": "string"
        },
        {
          "indexed": false,
          "internalType": "uint256",
          "name": "timestamp",
          "type": "uint256"
        }
      ],
      "name": "NFTMinted",
      "type": "event"
    },
    {
      "anonymous": false,
      "inputs": [
        {
          "indexed": true,
          "internalType": "uint256",
          "name": "tokenId",
          "type": "uint256"
        },
        {
          "indexed": false,
          "internalType": "uint256",
          "name": "newRoyalty",
          "type": "uint256"
        },
        {
          "indexed": false,
          "internalType": "uint256",
          "name": "timestamp",
          "type": "uint256"
        }
      ],
      "name": "NFTRoyaltyUpdated",
      "type": "event"
    },
    {
      "anonymous": false,
      "inputs": [
        {
          "indexed": true,
          "internalType": "address",
          "name": "previousOwner",
          "type": "address"
        },
        {
          "indexed": true,
          "internalType": "address",
          "name": "newOwner",
          "type": "address"
        }
      ],
      "name": "OwnershipTransferred",
      "type": "event"
    },
    {
      "anonymous": false,
      "inputs": [
        {
          "indexed": true,
          "internalType": "address",
          "name": "from",
          "type": "address"
        },
        {
          "indexed": true,
          "internalType": "address",
          "name": "to",
          "type": "address"
        },
        {
          "indexed": true,
          "internalType": "uint256",
          "name": "tokenId",
          "type": "uint256"
        }
      ],
      "name": "Transfer",
      "type": "event"
    },
    {
      "inputs": [
        {
          "internalType": "address",
          "name": "to",
          "type": "address"
        },
        {
          "internalType": "uint256",
          "name": "tokenId",
          "type": "uint256"
        }
      ],
      "name": "approve",
      "outputs": [],
      "stateMutability": "nonpayable",
      "type": "function"
    },
    {
      "inputs": [
        {
          "internalType": "address",
          "name": "owner",
          "type": "address"
        }
      ],
      "name": "balanceOf",
      "outputs": [
        {
          "internalType": "uint256",
          "name": "",
          "type": "uint256"
        }
      ],
      "stateMutability": "view",
      "type": "function"
    },
    {
      "inputs": [
        {
          "internalType": "uint256",
          "name": "tokenId",
          "type": "uint256"
        }
      ],
      "name": "getApproved",
      "outputs": [
        {
          "internalType": "address",
          "name": "",
          "type": "address"
        }
      ],
      "stateMutability": "view",
      "type": "function"
    },
    {
      "inputs": [
        {
          "internalType": "uint256",
          "name": "tokenId",
          "type": "uint256"
        }
      ],
      "name": "getCreatorOfToken",
      "outputs": [
        {
          "internalType": "address",
          "name": "",
          "type": "address"
        }
      ],
      "stateMutability": "view",
      "type": "function"
    },
    {
      "inputs": [],
      "name": "getMarketplaceAddress",
      "outputs": [
        {
          "internalType": "address",
          "name": "",
          "type": "address"
        }
      ],
      "stateMutability": "view",
      "type": "function"
    },
    {
      "inputs": [
        {
          "internalType": "uint256",
          "name": "tokenId",
          "type": "uint256"
        }
      ],
      "name": "getRoyaltyOfToken",
      "outputs": [
        {
          "internalType": "uint256",
          "name": "",
          "type": "uint256"
        }
      ],
      "stateMutability": "view",
      "type": "function"
    },
    {
      "inputs": [
        {
          "internalType": "address",
          "name": "creator",
          "type": "address"
        }
      ],
      "name": "getTokenInfoByCreator",
      "outputs": [
        {
          "components": [
            {
              "internalType": "uint256",
              "name": "tokenId",
              "type": "uint256"
            },
            {
              "internalType": "string",
              "name": "tokenURI",
              "type": "string"
            },
            {
              "internalType": "address",
              "name": "creator",
              "type": "address"
            },
            {
              "internalType": "address",
              "name": "owner",
              "type": "address"
            },
            {
              "internalType": "uint256",
              "name": "royaltyFee",
              "type": "uint256"
            },
            {
              "internalType": "uint256",
              "name": "mintedAt",
              "type": "uint256"
            },
            {
              "internalType": "uint256",
              "name": "lastSoldPrice",
              "type": "uint256"
            }
          ],
          "internalType": "struct NFTv2.FullNFTInfo[]",
          "name": "",
          "type": "tuple[]"
        }
      ],
      "stateMutability": "view",
      "type": "function"
    },
    {
      "inputs": [
        {
          "internalType": "uint256",
          "name": "tokenId",
          "type": "uint256"
        }
      ],
      "name": "getTokenInfoById",
      "outputs": [
        {
          "components": [
            {
              "internalType": "uint256",
              "name": "tokenId",
              "type": "uint256"
            },
            {
              "internalType": "string",
              "name": "tokenURI",
              "type": "string"
            },
            {
              "internalType": "address",
              "name": "creator",
              "type": "address"
            },
            {
              "internalType": "address",
              "name": "owner",
              "type": "address"
            },
            {
              "internalType": "uint256",
              "name": "royaltyFee",
              "type": "uint256"
            },
            {
              "internalType": "uint256",
              "name": "mintedAt",
              "type": "uint256"
            },
            {
              "internalType": "uint256",
              "name": "lastSoldPrice",
              "type": "uint256"
            }
          ],
          "internalType": "struct NFTv2.FullNFTInfo",
          "name": "",
          "type": "tuple"
        }
      ],
      "stateMutability": "view",
      "type": "function"
    },
    {
      "inputs": [
        {
          "internalType": "address",
          "name": "owner",
          "type": "address"
        }
      ],
      "name": "getTokenInfoByOwner",
      "outputs": [
        {
          "components": [
            {
              "internalType": "uint256",
              "name": "tokenId",
              "type": "uint256"
            },
            {
              "internalType": "string",
              "name": "tokenURI",
              "type": "string"
            },
            {
              "internalType": "address",
              "name": "creator",
              "type": "address"
            },
            {
              "internalType": "address",
              "name": "owner",
              "type": "address"
            },
            {
              "internalType": "uint256",
              "name": "royaltyFee",
              "type": "uint256"
            },
            {
              "internalType": "uint256",
              "name": "mintedAt",
              "type": "uint256"
            },
            {
              "internalType": "uint256",
              "name": "lastSoldPrice",
              "type": "uint256"
            }
          ],
          "internalType": "struct NFTv2.FullNFTInfo[]",
          "name": "",
          "type": "tuple[]"
        }
      ],
      "stateMutability": "view",
      "type": "function"
    },
    {
      "inputs": [
        {
          "internalType": "address",
          "name": "creator",
          "type": "address"
        }
      ],
      "name": "getTokensByCreator",
      "outputs": [
        {
          "internalType": "uint256[]",
          "name": "",
          "type": "uint256[]"
        }
      ],
      "stateMutability": "view",
      "type": "function"
    },
    {
      "inputs": [
        {
          "internalType": "address",
          "name": "owner",
          "type": "address"
        }
      ],
      "name": "getTokensByOwner",
      "outputs": [
        {
          "internalType": "uint256[]",
          "name": "",
          "type": "uint256[]"
        }
      ],
      "stateMutability": "view",
      "type": "function"
    },
    {
      "inputs": [
        {
          "internalType": "address",
          "name": "owner",
          "type": "address"
        },
        {
          "internalType": "address",
          "name": "operator",
          "type": "address"
        }
      ],
      "name": "isApprovedForAll",
      "outputs": [
        {
          "internalType": "bool",
          "name": "",
          "type": "bool"
        }
      ],
      "stateMutability": "view",
      "type": "function"
    },
    {
      "inputs": [
        {
          "internalType": "string",
          "name": "tokenURI",
          "type": "string"
        },
        {
          "internalType": "uint256",
          "name": "royaltyFee",
          "type": "uint256"
        }
      ],
      "name": "mint",
      "outputs": [
        {
          "internalType": "uint256",
          "name": "",
          "type": "uint256"
        }
      ],
      "stateMutability": "nonpayable",
      "type": "function"
    },
    {
      "inputs": [],
      "name": "name",
      "outputs": [
        {
          "internalType": "string",
          "name": "",
          "type": "string"
        }
      ],
      "stateMutability": "view",
      "type": "function"
    },
    {
      "inputs": [],
      "name": "owner",
      "outputs": [
        {
          "internalType": "address",
          "name": "",
          "type": "address"
        }
      ],
      "stateMutability": "view",
      "type": "function"
    },
    {
      "inputs": [
        {
          "internalType": "uint256",
          "name": "tokenId",
          "type": "uint256"
        }
      ],
      "name": "ownerOf",
      "outputs": [
        {
          "internalType": "address",
          "name": "",
          "type": "address"
        }
      ],
      "stateMutability": "view",
      "type": "function"
    },
    {
      "inputs": [],
      "name": "renounceOwnership",
      "outputs": [],
      "stateMutability": "nonpayable",
      "type": "function"
    },
    {
      "inputs": [
        {
          "internalType": "address",
          "name": "from",
          "type": "address"
        },
        {
          "internalType": "address",
          "name": "to",
          "type": "address"
        },
        {
          "internalType": "uint256",
          "name": "tokenId",
          "type": "uint256"
        }
      ],
      "name": "safeTransferFrom",
      "outputs": [],
      "stateMutability": "nonpayable",
      "type": "function"
    },
    {
      "inputs": [
        {
          "internalType": "address",
          "name": "from",
          "type": "address"
        },
        {
          "internalType": "address",
          "name": "to",
          "type": "address"
        },
        {
          "internalType": "uint256",
          "name": "tokenId",
          "type": "uint256"
        },
        {
          "internalType": "bytes",
          "name": "data",
          "type": "bytes"
        }
      ],
      "name": "safeTransferFrom",
      "outputs": [],
      "stateMutability": "nonpayable",
      "type": "function"
    },
    {
      "inputs": [
        {
          "internalType": "address",
          "name": "operator",
          "type": "address"
        },
        {
          "internalType": "bool",
          "name": "approved",
          "type": "bool"
        }
      ],
      "name": "setApprovalForAll",
      "outputs": [],
      "stateMutability": "nonpayable",
      "type": "function"
    },
    {
      "inputs": [
        {
          "internalType": "bytes4",
          "name": "interfaceId",
          "type": "bytes4"
        }
      ],
      "name": "supportsInterface",
      "outputs": [
        {
          "internalType": "bool",
          "name": "",
          "type": "bool"
        }
      ],
      "stateMutability": "view",
      "type": "function"
    },
    {
      "inputs": [],
      "name": "symbol",
      "outputs": [
        {
          "internalType": "string",
          "name": "",
          "type": "string"
        }
      ],
      "stateMutability": "view",
      "type": "function"
    },
    {
      "inputs": [
        {
          "internalType": "uint256",
          "name": "tokenId",
          "type": "uint256"
        }
      ],
      "name": "tokenURI",
      "outputs": [
        {
          "internalType": "string",
          "name": "",
          "type": "string"
        }
      ],
      "stateMutability": "view",
      "type": "function"
    },
    {
      "inputs": [
        {
          "internalType": "address",
          "name": "from",
          "type": "address"
        },
        {
          "internalType": "address",
          "name": "to",
          "type": "address"
        },
        {
          "internalType": "uint256",
          "name": "tokenId",
          "type": "uint256"
        }
      ],
      "name": "transferFrom",
      "outputs": [],
      "stateMutability": "nonpayable",
      "type": "function"
    },
    {
      "inputs": [
        {
          "internalType": "address",
          "name": "newOwner",
          "type": "address"
        }
      ],
      "name": "transferOwnership",
      "outputs": [],
      "stateMutability": "nonpayable",
      "type": "function"
    },
    {
      "inputs": [
        {
          "internalType": "uint256",
          "name": "tokenId",
          "type": "uint256"
        },
        {
          "internalType": "uint256",
          "name": "newRoyalty",
          "type": "uint256"
        }
      ],
      "name": "updateRoyalty",
      "outputs": [],
      "stateMutability": "nonpayable",
      "type": "function"
    }
  ],
  "bytecode": "0x608060405234801561001057600080fd5b506040516149cc3803806149cc83398181016040528101906100329190610322565b336040518060400160405280600781526020017f544844204e4654000000000000000000000000000000000000000000000000008152506040518060400160405280600381526020017f544844000000000000000000000000000000000000000000000000000000000081525081600090816100ae919061059f565b5080600190816100be919061059f565b505050600073ffffffffffffffffffffffffffffffffffffffff168173ffffffffffffffffffffffffffffffffffffffff16036101335760006040517f1e4fbdf700000000000000000000000000000000000000000000000000000000815260040161012a9190610680565b60405180910390fd5b610142816101f960201b60201c565b50600073ffffffffffffffffffffffffffffffffffffffff168173ffffffffffffffffffffffffffffffffffffffff16036101b2576040517f08c379a00000000000000000000000000000000000000000000000000000000081526004016101a99061071e565b60405180910390fd5b80600960006101000a81548173ffffffffffffffffffffffffffffffffffffffff021916908373ffffffffffffffffffffffffffffffffffffffff1602179055505061073e565b6000600760009054906101000a900473ffffffffffffffffffffffffffffffffffffffff16905081600760006101000a81548173ffffffffffffffffffffffffffffffffffffffff021916908373ffffffffffffffffffffffffffffffffffffffff1602179055508173ffffffffffffffffffffffffffffffffffffffff168173ffffffffffffffffffffffffffffffffffffffff167f8be0079c531659141344cd1fd0a4f28419497f9722a3daafe3b4186f6b6457e060405160405180910390a35050565b600080fd5b600073ffffffffffffffffffffffffffffffffffffffff82169050919050565b60006102ef826102c4565b9050919050565b6102ff816102e4565b811461030a57600080fd5b50565b60008151905061031c816102f6565b92915050565b600060208284031215610338576103376102bf565b5b60006103468482850161030d565b91505092915050565b600081519050919050565b7f4e487b7100000000000000000000000000000000000000000000000000000000600052604160045260246000fd5b7f4e487b7100000000000000000000000000000000000000000000000000000000600052602260045260246000fd5b600060028204905060018216806103d057607f821691505b6020821081036103e3576103e2610389565b5b50919050565b60008190508160005260206000209050919050565b60006020601f8301049050919050565b600082821b905092915050565b60006008830261044b7fffffffffffffffffffffffffffffffffffffffffffffffffffffffffffffffff8261040e565b610455868361040e565b95508019841693508086168417925050509392505050565b6000819050919050565b6000819050919050565b600061049c6104976104928461046d565b610477565b61046d565b9050919050565b6000819050919050565b6104b683610481565b6104ca6104c2826104a3565b84845461041b565b825550505050565b600090565b6104df6104d2565b6104ea8184846104ad565b505050565b5b8181101561050e576105036000826104d7565b6001810190506104f0565b5050565b601f82111561055357610524816103e9565b61052d846103fe565b8101602085101561053c578190505b610550610548856103fe565b8301826104ef565b50505b505050565b600082821c905092915050565b600061057660001984600802610558565b1980831691505092915050565b600061058f8383610565565b9150826002028217905092915050565b6105a88261034f565b67ffffffffffffffff8111156105c1576105c061035a565b5b6105cb82546103b8565b6105d6828285610512565b600060209050601f83116001811461060957600084156105f7578287015190505b6106018582610583565b865550610669565b601f198416610617866103e9565b60005b8281101561063f5784890151825560018201915060208501945060208101905061061a565b8683101561065c5784890151610658601f891682610565565b8355505b6001600288020188555050505b505050505050565b61067a816102e4565b82525050565b60006020820190506106956000830184610671565b92915050565b600082825260208201905092915050565b7f4d61726b6574706c61636520616464726573732063616e6e6f74206265207a6560008201527f726f000000000000000000000000000000000000000000000000000000000000602082015250565b600061070860228361069b565b9150610713826106ac565b604082019050919050565b60006020820190508181036000830152610737816106fb565b9050919050565b61427f8061074d6000396000f3fe608060405234801561001057600080fd5b506004361061018e5760003560e01c8063715018a6116100de578063b391259711610097578063c87b56dd11610071578063c87b56dd146104cd578063d5c71275146104fd578063e985e9c51461052d578063f2fde38b1461055d5761018e565b8063b391259714610463578063b88d4fde14610493578063bb8fe785146104af5761018e565b8063715018a6146103b55780637539fc5c146103bf578063809e0641146103ef5780638da5cb5b1461040b57806395d89b4114610429578063a22cb465146104475761018e565b806323b872dd1161014b57806342842e0e1161012557806342842e0e146103095780634ee9c4a5146103255780636352211e1461035557806370a08231146103855761018e565b806323b872dd1461028d57806332570d7d146102a957806340398d67146102d95761018e565b806301ffc9a714610193578063056b01ce146101c357806306fdde03146101f3578063081812fc14610211578063095ea7b3146102415780631f35e3471461025d575b600080fd5b6101ad60048036038101906101a89190613006565b610579565b6040516101ba919061304e565b60405180910390f35b6101dd60048036038101906101d891906131e5565b6105da565b6040516101ea9190613250565b60405180910390f35b6101fb610874565b60405161020891906132ea565b60405180910390f35b61022b6004803603810190610226919061330c565b610906565b604051610238919061337a565b60405180910390f35b61025b600480360381019061025691906133c1565b610922565b005b61027760048036038101906102729190613401565b610938565b60405161028491906135f4565b60405180910390f35b6102a760048036038101906102a29190613616565b610cb7565b005b6102c360048036038101906102be919061330c565b610db9565b6040516102d09190613705565b60405180910390f35b6102f360048036038101906102ee9190613401565b611020565b60405161030091906137d6565b60405180910390f35b610323600480360381019061031e9190613616565b611181565b005b61033f600480360381019061033a9190613401565b6111a1565b60405161034c91906135f4565b60405180910390f35b61036f600480360381019061036a919061330c565b611585565b60405161037c919061337a565b60405180910390f35b61039f600480360381019061039a9190613401565b611597565b6040516103ac9190613250565b60405180910390f35b6103bd611651565b005b6103d960048036038101906103d4919061330c565b611665565b6040516103e6919061337a565b60405180910390f35b610409600480360381019061040491906137f8565b6116ed565b005b6104136118e8565b604051610420919061337a565b60405180910390f35b610431611912565b60405161043e91906132ea565b60405180910390f35b610461600480360381019061045c9190613864565b6119a4565b005b61047d6004803603810190610478919061330c565b6119ba565b60405161048a9190613250565b60405180910390f35b6104ad60048036038101906104a89190613945565b611a22565b005b6104b7611a47565b6040516104c4919061337a565b60405180910390f35b6104e760048036038101906104e2919061330c565b611a71565b6040516104f491906132ea565b60405180910390f35b61051760048036038101906105129190613401565b611b84565b60405161052491906137d6565b60405180910390f35b610547600480360381019061054291906139c8565b611d4a565b604051610554919061304e565b60405180910390f35b61057760048036038101906105729190613401565b611dde565b005b6000634906490660e01b7bffffffffffffffffffffffffffffffffffffffffffffffffffffffff1916827bffffffffffffffffffffffffffffffffffffffffffffffffffffffff191614806105d357506105d282611e64565b5b9050919050565b60008082101561061f576040517f08c379a000000000000000000000000000000000000000000000000000000000815260040161061690613a54565b60405180910390fd5b6064821115610663576040517f08c379a000000000000000000000000000000000000000000000000000000000815260040161065a90613ac0565b60405180910390fd5b6008600081548092919061067690613b0f565b91905055506000600854905061068c3382611f46565b6106968185611f64565b6001600a60003373ffffffffffffffffffffffffffffffffffffffff1673ffffffffffffffffffffffffffffffffffffffff16815260200190815260200160002060008282546106e69190613b57565b925050819055506040518060a001604052808281526020018581526020013373ffffffffffffffffffffffffffffffffffffffff16815260200184815260200142815250600b600083815260200190815260200160002060008201518160000155602082015181600101908161075c9190613d97565b5060408201518160020160006101000a81548173ffffffffffffffffffffffffffffffffffffffff021916908373ffffffffffffffffffffffffffffffffffffffff16021790555060608201518160030155608082015181600401559050506107e733600960009054906101000a900473ffffffffffffffffffffffffffffffffffffffff16611d4a565b61081957610818600960009054906101000a900473ffffffffffffffffffffffffffffffffffffffff1660016119a4565b5b803373ffffffffffffffffffffffffffffffffffffffff167f7f9dd5d8fa69e733db2277a568b65a9651a3042da18fb2b5ea1966d3891cbfda8642604051610862929190613e69565b60405180910390a38091505092915050565b60606000805461088390613bba565b80601f01602080910402602001604051908101604052809291908181526020018280546108af90613bba565b80156108fc5780601f106108d1576101008083540402835291602001916108fc565b820191906000526020600020905b8154815290600101906020018083116108df57829003601f168201915b5050505050905090565b600061091182611fc0565b5061091b82612048565b9050919050565b610934828261092f612085565b61208d565b5050565b6060600061094583611597565b9050600081036109ac57600067ffffffffffffffff81111561096a57610969613084565b5b6040519080825280602002602001820160405280156109a357816020015b610990612f31565b8152602001906001900390816109885790505b50915050610cb2565b60008167ffffffffffffffff8111156109c8576109c7613084565b5b604051908082528060200260200182016040528015610a0157816020015b6109ee612f31565b8152602001906001900390816109e65790505b5090506000805b600854811015610caa576000600182610a219190613b57565b90508673ffffffffffffffffffffffffffffffffffffffff16610a4382611585565b73ffffffffffffffffffffffffffffffffffffffff1614610a645750610c9d565b6000600960009054906101000a900473ffffffffffffffffffffffffffffffffffffffff1673ffffffffffffffffffffffffffffffffffffffff1663255f317930846040518363ffffffff1660e01b8152600401610ac3929190613e99565b602060405180830381865afa158015610ae0573d6000803e3d6000fd5b505050506040513d601f19601f82011682018060405250810190610b049190613ed7565b90506040518060e00160405280838152602001600b60008581526020019081526020016000206001018054610b3890613bba565b80601f0160208091040260200160405190810160405280929190818152602001828054610b6490613bba565b8015610bb15780601f10610b8657610100808354040283529160200191610bb1565b820191906000526020600020905b815481529060010190602001808311610b9457829003601f168201915b50505050508152602001600b600085815260200190815260200160002060020160009054906101000a900473ffffffffffffffffffffffffffffffffffffffff1673ffffffffffffffffffffffffffffffffffffffff168152602001610c1684611585565b73ffffffffffffffffffffffffffffffffffffffff168152602001600b6000858152602001908152602001600020600301548152602001600b600085815260200190815260200160002060040154815260200182815250858581518110610c8057610c7f613f04565b5b6020026020010181905250600184610c989190613b57565b935050505b8080600101915050610a08565b508193505050505b919050565b600073ffffffffffffffffffffffffffffffffffffffff168273ffffffffffffffffffffffffffffffffffffffff1603610d295760006040517f64a0ae92000000000000000000000000000000000000000000000000000000008152600401610d20919061337a565b60405180910390fd5b6000610d3d8383610d38612085565b61209f565b90508373ffffffffffffffffffffffffffffffffffffffff168173ffffffffffffffffffffffffffffffffffffffff1614610db3578382826040517f64283d7b000000000000000000000000000000000000000000000000000000008152600401610daa93929190613f33565b60405180910390fd5b50505050565b610dc1612f31565b610dca826122b9565b610e09576040517f08c379a0000000000000000000000000000000000000000000000000000000008152600401610e0090613fb6565b60405180910390fd5b6000600960009054906101000a900473ffffffffffffffffffffffffffffffffffffffff1673ffffffffffffffffffffffffffffffffffffffff1663255f317930856040518363ffffffff1660e01b8152600401610e68929190613e99565b602060405180830381865afa158015610e85573d6000803e3d6000fd5b505050506040513d601f19601f82011682018060405250810190610ea99190613ed7565b905060006040518060e00160405280858152602001600b60008781526020019081526020016000206001018054610edf90613bba565b80601f0160208091040260200160405190810160405280929190818152602001828054610f0b90613bba565b8015610f585780601f10610f2d57610100808354040283529160200191610f58565b820191906000526020600020905b815481529060010190602001808311610f3b57829003601f168201915b50505050508152602001600b600087815260200190815260200160002060020160009054906101000a900473ffffffffffffffffffffffffffffffffffffffff1673ffffffffffffffffffffffffffffffffffffffff168152602001610fbd86611585565b73ffffffffffffffffffffffffffffffffffffffff168152602001600b6000878152602001908152602001600020600301548152602001600b60008781526020019081526020016000206004015481526020018381525090508092505050919050565b6060600061102d83611597565b90506000810361108957600067ffffffffffffffff81111561105257611051613084565b5b6040519080825280602002602001820160405280156110805781602001602082028036833780820191505090505b5091505061117c565b60008167ffffffffffffffff8111156110a5576110a4613084565b5b6040519080825280602002602001820160405280156110d35781602001602082028036833780820191505090505b5090506000805b6008548110156111745760006001826110f39190613b57565b90508673ffffffffffffffffffffffffffffffffffffffff1661111582611585565b73ffffffffffffffffffffffffffffffffffffffff16146111365750611167565b8084848151811061114a57611149613f04565b5b6020026020010181815250506001836111639190613b57565b9250505b80806001019150506110da565b508193505050505b919050565b61119c83838360405180602001604052806000815250611a22565b505050565b60606000600a60008473ffffffffffffffffffffffffffffffffffffffff1673ffffffffffffffffffffffffffffffffffffffff1681526020019081526020016000205490506000810361124c57600067ffffffffffffffff81111561120a57611209613084565b5b60405190808252806020026020018201604052801561124357816020015b611230612f31565b8152602001906001900390816112285790505b50915050611580565b60008167ffffffffffffffff81111561126857611267613084565b5b6040519080825280602002602001820160405280156112a157816020015b61128e612f31565b8152602001906001900390816112865790505b5090506000805b6008548110156115785760006001826112c19190613b57565b90508673ffffffffffffffffffffffffffffffffffffffff16600b600083815260200190815260200160002060020160009054906101000a900473ffffffffffffffffffffffffffffffffffffffff1673ffffffffffffffffffffffffffffffffffffffff1614611332575061156b565b6000600960009054906101000a900473ffffffffffffffffffffffffffffffffffffffff1673ffffffffffffffffffffffffffffffffffffffff1663255f317930846040518363ffffffff1660e01b8152600401611391929190613e99565b602060405180830381865afa1580156113ae573d6000803e3d6000fd5b505050506040513d601f19601f820116820180604052508101906113d29190613ed7565b90506040518060e00160405280838152602001600b6000858152602001908152602001600020600101805461140690613bba565b80601f016020809104026020016040519081016040528092919081815260200182805461143290613bba565b801561147f5780601f106114545761010080835404028352916020019161147f565b820191906000526020600020905b81548152906001019060200180831161146257829003601f168201915b50505050508152602001600b600085815260200190815260200160002060020160009054906101000a900473ffffffffffffffffffffffffffffffffffffffff1673ffffffffffffffffffffffffffffffffffffffff1681526020016114e484611585565b73ffffffffffffffffffffffffffffffffffffffff168152602001600b6000858152602001908152602001600020600301548152602001600b60008581526020019081526020016000206004015481526020018281525085858151811061154e5761154d613f04565b5b60200260200101819052506001846115669190613b57565b935050505b80806001019150506112a8565b508193505050505b919050565b600061159082611fc0565b9050919050565b60008073ffffffffffffffffffffffffffffffffffffffff168273ffffffffffffffffffffffffffffffffffffffff160361160a5760006040517f89c62b64000000000000000000000000000000000000000000000000000000008152600401611601919061337a565b60405180910390fd5b600360008373ffffffffffffffffffffffffffffffffffffffff1673ffffffffffffffffffffffffffffffffffffffff168152602001908152602001600020549050919050565b611659612315565b611663600061239c565b565b6000611670826122b9565b6116af576040517f08c379a00000000000000000000000000000000000000000000000000000000081526004016116a690613fb6565b60405180910390fd5b600b600083815260200190815260200160002060020160009054906101000a900473ffffffffffffffffffffffffffffffffffffffff169050919050565b3373ffffffffffffffffffffffffffffffffffffffff1661170d83611585565b73ffffffffffffffffffffffffffffffffffffffff1614611763576040517f08c379a000000000000000000000000000000000000000000000000000000000815260040161175a90614022565b60405180910390fd5b3373ffffffffffffffffffffffffffffffffffffffff16600b600084815260200190815260200160002060020160009054906101000a900473ffffffffffffffffffffffffffffffffffffffff1673ffffffffffffffffffffffffffffffffffffffff1614611807576040517f08c379a00000000000000000000000000000000000000000000000000000000081526004016117fe9061408e565b60405180910390fd5b600081101561184b576040517f08c379a000000000000000000000000000000000000000000000000000000000815260040161184290613a54565b60405180910390fd5b606481111561188f576040517f08c379a000000000000000000000000000000000000000000000000000000000815260040161188690613ac0565b60405180910390fd5b80600b600084815260200190815260200160002060030181905550817f6063f4a05c03aa7c4dae47c9b14a3f4f156d08951bacb3a7e1e825116c0b8ae782426040516118dc9291906140ae565b60405180910390a25050565b6000600760009054906101000a900473ffffffffffffffffffffffffffffffffffffffff16905090565b60606001805461192190613bba565b80601f016020809104026020016040519081016040528092919081815260200182805461194d90613bba565b801561199a5780601f1061196f5761010080835404028352916020019161199a565b820191906000526020600020905b81548152906001019060200180831161197d57829003601f168201915b5050505050905090565b6119b66119af612085565b8383612462565b5050565b60006119c5826122b9565b611a04576040517f08c379a00000000000000000000000000000000000000000000000000000000081526004016119fb90613fb6565b60405180910390fd5b600b6000838152602001908152602001600020600301549050919050565b611a2d848484610cb7565b611a41611a38612085565b858585856125d1565b50505050565b6000600960009054906101000a900473ffffffffffffffffffffffffffffffffffffffff16905090565b6060611a7c82611fc0565b506000600660008481526020019081526020016000208054611a9d90613bba565b80601f0160208091040260200160405190810160405280929190818152602001828054611ac990613bba565b8015611b165780601f10611aeb57610100808354040283529160200191611b16565b820191906000526020600020905b815481529060010190602001808311611af957829003601f168201915b505050505090506000611b27612782565b90506000815103611b3c578192505050611b7f565b600082511115611b71578082604051602001611b59929190614113565b60405160208183030381529060405292505050611b7f565b611b7a84612799565b925050505b919050565b60606000600a60008473ffffffffffffffffffffffffffffffffffffffff1673ffffffffffffffffffffffffffffffffffffffff16815260200190815260200160002054905060008103611c2457600067ffffffffffffffff811115611bed57611bec613084565b5b604051908082528060200260200182016040528015611c1b5781602001602082028036833780820191505090505b50915050611d45565b60008167ffffffffffffffff811115611c4057611c3f613084565b5b604051908082528060200260200182016040528015611c6e5781602001602082028036833780820191505090505b5090506000805b600854811015611d3d576000600182611c8e9190613b57565b90508673ffffffffffffffffffffffffffffffffffffffff16600b600083815260200190815260200160002060020160009054906101000a900473ffffffffffffffffffffffffffffffffffffffff1673ffffffffffffffffffffffffffffffffffffffff1614611cff5750611d30565b80848481518110611d1357611d12613f04565b5b602002602001018181525050600183611d2c9190613b57565b9250505b8080600101915050611c75565b508193505050505b919050565b6000600560008473ffffffffffffffffffffffffffffffffffffffff1673ffffffffffffffffffffffffffffffffffffffff16815260200190815260200160002060008373ffffffffffffffffffffffffffffffffffffffff1673ffffffffffffffffffffffffffffffffffffffff16815260200190815260200160002060009054906101000a900460ff16905092915050565b611de6612315565b600073ffffffffffffffffffffffffffffffffffffffff168173ffffffffffffffffffffffffffffffffffffffff1603611e585760006040517f1e4fbdf7000000000000000000000000000000000000000000000000000000008152600401611e4f919061337a565b60405180910390fd5b611e618161239c565b50565b60007f80ac58cd000000000000000000000000000000000000000000000000000000007bffffffffffffffffffffffffffffffffffffffffffffffffffffffff1916827bffffffffffffffffffffffffffffffffffffffffffffffffffffffff19161480611f2f57507f5b5e139f000000000000000000000000000000000000000000000000000000007bffffffffffffffffffffffffffffffffffffffffffffffffffffffff1916827bffffffffffffffffffffffffffffffffffffffffffffffffffffffff1916145b80611f3f5750611f3e82612802565b5b9050919050565b611f6082826040518060200160405280600081525061286c565b5050565b80600660008481526020019081526020016000209081611f849190613d97565b507ff8e1a15aba9398e019f0b49df1a4fde98ee17ae345cb5f6b5e2c27f5033e8ce782604051611fb49190613250565b60405180910390a15050565b600080611fcc83612890565b9050600073ffffffffffffffffffffffffffffffffffffffff168173ffffffffffffffffffffffffffffffffffffffff160361203f57826040517f7e2732890000000000000000000000000000000000000000000000000000000081526004016120369190613250565b60405180910390fd5b80915050919050565b60006004600083815260200190815260200160002060009054906101000a900473ffffffffffffffffffffffffffffffffffffffff169050919050565b600033905090565b61209a83838360016128cd565b505050565b6000806120ab84612890565b9050600073ffffffffffffffffffffffffffffffffffffffff168373ffffffffffffffffffffffffffffffffffffffff16146120ed576120ec818486612a92565b5b600073ffffffffffffffffffffffffffffffffffffffff168173ffffffffffffffffffffffffffffffffffffffff161461217e5761212f6000856000806128cd565b6001600360008373ffffffffffffffffffffffffffffffffffffffff1673ffffffffffffffffffffffffffffffffffffffff168152602001908152602001600020600082825403925050819055505b600073ffffffffffffffffffffffffffffffffffffffff168573ffffffffffffffffffffffffffffffffffffffff1614612201576001600360008773ffffffffffffffffffffffffffffffffffffffff1673ffffffffffffffffffffffffffffffffffffffff168152602001908152602001600020600082825401925050819055505b846002600086815260200190815260200160002060006101000a81548173ffffffffffffffffffffffffffffffffffffffff021916908373ffffffffffffffffffffffffffffffffffffffff160217905550838573ffffffffffffffffffffffffffffffffffffffff168273ffffffffffffffffffffffffffffffffffffffff167fddf252ad1be2c89b69c2b068fc378daa952ba7f163c4a11628f55a4df523b3ef60405160405180910390a4809150509392505050565b600081600854101580156122cd5750600082115b801561230e5750600073ffffffffffffffffffffffffffffffffffffffff166122f583611585565b73ffffffffffffffffffffffffffffffffffffffff1614155b9050919050565b61231d612085565b73ffffffffffffffffffffffffffffffffffffffff1661233b6118e8565b73ffffffffffffffffffffffffffffffffffffffff161461239a5761235e612085565b6040517f118cdaa7000000000000000000000000000000000000000000000000000000008152600401612391919061337a565b60405180910390fd5b565b6000600760009054906101000a900473ffffffffffffffffffffffffffffffffffffffff16905081600760006101000a81548173ffffffffffffffffffffffffffffffffffffffff021916908373ffffffffffffffffffffffffffffffffffffffff1602179055508173ffffffffffffffffffffffffffffffffffffffff168173ffffffffffffffffffffffffffffffffffffffff167f8be0079c531659141344cd1fd0a4f28419497f9722a3daafe3b4186f6b6457e060405160405180910390a35050565b600073ffffffffffffffffffffffffffffffffffffffff168273ffffffffffffffffffffffffffffffffffffffff16036124d357816040517f5b08ba180000000000000000000000000000000000000000000000000000000081526004016124ca919061337a565b60405180910390fd5b80600560008573ffffffffffffffffffffffffffffffffffffffff1673ffffffffffffffffffffffffffffffffffffffff16815260200190815260200160002060008473ffffffffffffffffffffffffffffffffffffffff1673ffffffffffffffffffffffffffffffffffffffff16815260200190815260200160002060006101000a81548160ff0219169083151502179055508173ffffffffffffffffffffffffffffffffffffffff168373ffffffffffffffffffffffffffffffffffffffff167f17307eab39ab6107e8899845ad3d59bd9653f200f220920489ca2b5937696c31836040516125c4919061304e565b60405180910390a3505050565b60008373ffffffffffffffffffffffffffffffffffffffff163b111561277b578273ffffffffffffffffffffffffffffffffffffffff1663150b7a02868685856040518563ffffffff1660e01b8152600401612630949392919061418c565b6020604051808303816000875af192505050801561266c57506040513d601f19601f8201168201806040525081019061266991906141ed565b60015b6126f0573d806000811461269c576040519150601f19603f3d011682016040523d82523d6000602084013e6126a1565b606091505b5060008151036126e857836040517f64a0ae920000000000000000000000000000000000000000000000000000000081526004016126df919061337a565b60405180910390fd5b805181602001fd5b63150b7a0260e01b7bffffffffffffffffffffffffffffffffffffffffffffffffffffffff1916817bffffffffffffffffffffffffffffffffffffffffffffffffffffffff19161461277957836040517f64a0ae92000000000000000000000000000000000000000000000000000000008152600401612770919061337a565b60405180910390fd5b505b5050505050565b606060405180602001604052806000815250905090565b60606127a482611fc0565b5060006127af612782565b905060008151116127cf57604051806020016040528060008152506127fa565b806127d984612b56565b6040516020016127ea929190614113565b6040516020818303038152906040525b915050919050565b60007f01ffc9a7000000000000000000000000000000000000000000000000000000007bffffffffffffffffffffffffffffffffffffffffffffffffffffffff1916827bffffffffffffffffffffffffffffffffffffffffffffffffffffffff1916149050919050565b6128768383612c24565b61288b612881612085565b60008585856125d1565b505050565b60006002600083815260200190815260200160002060009054906101000a900473ffffffffffffffffffffffffffffffffffffffff169050919050565b80806129065750600073ffffffffffffffffffffffffffffffffffffffff168273ffffffffffffffffffffffffffffffffffffffff1614155b15612a3a57600061291684611fc0565b9050600073ffffffffffffffffffffffffffffffffffffffff168373ffffffffffffffffffffffffffffffffffffffff161415801561298157508273ffffffffffffffffffffffffffffffffffffffff168173ffffffffffffffffffffffffffffffffffffffff1614155b801561299457506129928184611d4a565b155b156129d657826040517fa9fbf51f0000000000000000000000000000000000000000000000000000000081526004016129cd919061337a565b60405180910390fd5b8115612a3857838573ffffffffffffffffffffffffffffffffffffffff168273ffffffffffffffffffffffffffffffffffffffff167f8c5be1e5ebec7d5bd14f71427d1e84f3dd0314c0f7b2291e5b200ac8c7c3b92560405160405180910390a45b505b836004600085815260200190815260200160002060006101000a81548173ffffffffffffffffffffffffffffffffffffffff021916908373ffffffffffffffffffffffffffffffffffffffff16021790555050505050565b612a9d838383612d1d565b612b5157600073ffffffffffffffffffffffffffffffffffffffff168373ffffffffffffffffffffffffffffffffffffffff1603612b1257806040517f7e273289000000000000000000000000000000000000000000000000000000008152600401612b099190613250565b60405180910390fd5b81816040517f177e802f000000000000000000000000000000000000000000000000000000008152600401612b48929190613e99565b60405180910390fd5b505050565b606060006001612b6584612dde565b01905060008167ffffffffffffffff811115612b8457612b83613084565b5b6040519080825280601f01601f191660200182016040528015612bb65781602001600182028036833780820191505090505b509050600082602001820190505b600115612c19578080600190039150507f3031323334353637383961626364656600000000000000000000000000000000600a86061a8153600a8581612c0d57612c0c61421a565b5b04945060008503612bc4575b819350505050919050565b600073ffffffffffffffffffffffffffffffffffffffff168273ffffffffffffffffffffffffffffffffffffffff1603612c965760006040517f64a0ae92000000000000000000000000000000000000000000000000000000008152600401612c8d919061337a565b60405180910390fd5b6000612ca48383600061209f565b9050600073ffffffffffffffffffffffffffffffffffffffff168173ffffffffffffffffffffffffffffffffffffffff1614612d185760006040517f73c6ac6e000000000000000000000000000000000000000000000000000000008152600401612d0f919061337a565b60405180910390fd5b505050565b60008073ffffffffffffffffffffffffffffffffffffffff168373ffffffffffffffffffffffffffffffffffffffff1614158015612dd557508273ffffffffffffffffffffffffffffffffffffffff168473ffffffffffffffffffffffffffffffffffffffff161480612d965750612d958484611d4a565b5b80612dd457508273ffffffffffffffffffffffffffffffffffffffff16612dbc83612048565b73ffffffffffffffffffffffffffffffffffffffff16145b5b90509392505050565b600080600090507a184f03e93ff9f4daa797ed6e38ed64bf6a1f0100000000000000008310612e3c577a184f03e93ff9f4daa797ed6e38ed64bf6a1f0100000000000000008381612e3257612e3161421a565b5b0492506040810190505b6d04ee2d6d415b85acef81000000008310612e79576d04ee2d6d415b85acef81000000008381612e6f57612e6e61421a565b5b0492506020810190505b662386f26fc100008310612ea857662386f26fc100008381612e9e57612e9d61421a565b5b0492506010810190505b6305f5e1008310612ed1576305f5e1008381612ec757612ec661421a565b5b0492506008810190505b6127108310612ef6576127108381612eec57612eeb61421a565b5b0492506004810190505b60648310612f195760648381612f0f57612f0e61421a565b5b0492506002810190505b600a8310612f28576001810190505b80915050919050565b6040518060e001604052806000815260200160608152602001600073ffffffffffffffffffffffffffffffffffffffff168152602001600073ffffffffffffffffffffffffffffffffffffffff1681526020016000815260200160008152602001600081525090565b6000604051905090565b600080fd5b600080fd5b60007fffffffff0000000000000000000000000000000000000000000000000000000082169050919050565b612fe381612fae565b8114612fee57600080fd5b50565b60008135905061300081612fda565b92915050565b60006020828403121561301c5761301b612fa4565b5b600061302a84828501612ff1565b91505092915050565b60008115159050919050565b61304881613033565b82525050565b6000602082019050613063600083018461303f565b92915050565b600080fd5b600080fd5b6000601f19601f8301169050919050565b7f4e487b7100000000000000000000000000000000000000000000000000000000600052604160045260246000fd5b6130bc82613073565b810181811067ffffffffffffffff821117156130db576130da613084565b5b80604052505050565b60006130ee612f9a565b90506130fa82826130b3565b919050565b600067ffffffffffffffff82111561311a57613119613084565b5b61312382613073565b9050602081019050919050565b82818337600083830152505050565b600061315261314d846130ff565b6130e4565b90508281526020810184848401111561316e5761316d61306e565b5b613179848285613130565b509392505050565b600082601f83011261319657613195613069565b5b81356131a684826020860161313f565b91505092915050565b6000819050919050565b6131c2816131af565b81146131cd57600080fd5b50565b6000813590506131df816131b9565b92915050565b600080604083850312156131fc576131fb612fa4565b5b600083013567ffffffffffffffff81111561321a57613219612fa9565b5b61322685828601613181565b9250506020613237858286016131d0565b9150509250929050565b61324a816131af565b82525050565b60006020820190506132656000830184613241565b92915050565b600081519050919050565b600082825260208201905092915050565b60005b838110156132a557808201518184015260208101905061328a565b60008484015250505050565b60006132bc8261326b565b6132c68185613276565b93506132d6818560208601613287565b6132df81613073565b840191505092915050565b6000602082019050818103600083015261330481846132b1565b905092915050565b60006020828403121561332257613321612fa4565b5b6000613330848285016131d0565b91505092915050565b600073ffffffffffffffffffffffffffffffffffffffff82169050919050565b600061336482613339565b9050919050565b61337481613359565b82525050565b600060208201905061338f600083018461336b565b92915050565b61339e81613359565b81146133a957600080fd5b50565b6000813590506133bb81613395565b92915050565b600080604083850312156133d8576133d7612fa4565b5b60006133e6858286016133ac565b92505060206133f7858286016131d0565b9150509250929050565b60006020828403121561341757613416612fa4565b5b6000613425848285016133ac565b91505092915050565b600081519050919050565b600082825260208201905092915050565b6000819050602082019050919050565b613463816131af565b82525050565b600082825260208201905092915050565b60006134858261326b565b61348f8185613469565b935061349f818560208601613287565b6134a881613073565b840191505092915050565b6134bc81613359565b82525050565b600060e0830160008301516134da600086018261345a565b50602083015184820360208601526134f2828261347a565b915050604083015161350760408601826134b3565b50606083015161351a60608601826134b3565b50608083015161352d608086018261345a565b5060a083015161354060a086018261345a565b5060c083015161355360c086018261345a565b508091505092915050565b600061356a83836134c2565b905092915050565b6000602082019050919050565b600061358a8261342e565b6135948185613439565b9350836020820285016135a68561344a565b8060005b858110156135e257848403895281516135c3858261355e565b94506135ce83613572565b925060208a019950506001810190506135aa565b50829750879550505050505092915050565b6000602082019050818103600083015261360e818461357f565b905092915050565b60008060006060848603121561362f5761362e612fa4565b5b600061363d868287016133ac565b935050602061364e868287016133ac565b925050604061365f868287016131d0565b9150509250925092565b600060e083016000830151613681600086018261345a565b5060208301518482036020860152613699828261347a565b91505060408301516136ae60408601826134b3565b5060608301516136c160608601826134b3565b5060808301516136d4608086018261345a565b5060a08301516136e760a086018261345a565b5060c08301516136fa60c086018261345a565b508091505092915050565b6000602082019050818103600083015261371f8184613669565b905092915050565b600081519050919050565b600082825260208201905092915050565b6000819050602082019050919050565b600061375f838361345a565b60208301905092915050565b6000602082019050919050565b600061378382613727565b61378d8185613732565b935061379883613743565b8060005b838110156137c95781516137b08882613753565b97506137bb8361376b565b92505060018101905061379c565b5085935050505092915050565b600060208201905081810360008301526137f08184613778565b905092915050565b6000806040838503121561380f5761380e612fa4565b5b600061381d858286016131d0565b925050602061382e858286016131d0565b9150509250929050565b61384181613033565b811461384c57600080fd5b50565b60008135905061385e81613838565b92915050565b6000806040838503121561387b5761387a612fa4565b5b6000613889858286016133ac565b925050602061389a8582860161384f565b9150509250929050565b600067ffffffffffffffff8211156138bf576138be613084565b5b6138c882613073565b9050602081019050919050565b60006138e86138e3846138a4565b6130e4565b9050828152602081018484840111156139045761390361306e565b5b61390f848285613130565b509392505050565b600082601f83011261392c5761392b613069565b5b813561393c8482602086016138d5565b91505092915050565b6000806000806080858703121561395f5761395e612fa4565b5b600061396d878288016133ac565b945050602061397e878288016133ac565b935050604061398f878288016131d0565b925050606085013567ffffffffffffffff8111156139b0576139af612fa9565b5b6139bc87828801613917565b91505092959194509250565b600080604083850312156139df576139de612fa4565b5b60006139ed858286016133ac565b92505060206139fe858286016133ac565b9150509250929050565b7f526f79616c7479206d757374206265206e6f6e2d6e6567617469766500000000600082015250565b6000613a3e601c83613276565b9150613a4982613a08565b602082019050919050565b60006020820190508181036000830152613a6d81613a31565b9050919050565b7f526f79616c7479206665652063616e6e6f742065786365656420313030250000600082015250565b6000613aaa601e83613276565b9150613ab582613a74565b602082019050919050565b60006020820190508181036000830152613ad981613a9d565b9050919050565b7f4e487b7100000000000000000000000000000000000000000000000000000000600052601160045260246000fd5b6000613b1a826131af565b91507fffffffffffffffffffffffffffffffffffffffffffffffffffffffffffffffff8203613b4c57613b4b613ae0565b5b600182019050919050565b6000613b62826131af565b9150613b6d836131af565b9250828201905080821115613b8557613b84613ae0565b5b92915050565b7f4e487b7100000000000000000000000000000000000000000000000000000000600052602260045260246000fd5b60006002820490506001821680613bd257607f821691505b602082108103613be557613be4613b8b565b5b50919050565b60008190508160005260206000209050919050565b60006020601f8301049050919050565b600082821b905092915050565b600060088302613c4d7fffffffffffffffffffffffffffffffffffffffffffffffffffffffffffffffff82613c10565b613c578683613c10565b95508019841693508086168417925050509392505050565b6000819050919050565b6000613c94613c8f613c8a846131af565b613c6f565b6131af565b9050919050565b6000819050919050565b613cae83613c79565b613cc2613cba82613c9b565b848454613c1d565b825550505050565b600090565b613cd7613cca565b613ce2818484613ca5565b505050565b5b81811015613d0657613cfb600082613ccf565b600181019050613ce8565b5050565b601f821115613d4b57613d1c81613beb565b613d2584613c00565b81016020851015613d34578190505b613d48613d4085613c00565b830182613ce7565b50505b505050565b600082821c905092915050565b6000613d6e60001984600802613d50565b1980831691505092915050565b6000613d878383613d5d565b9150826002028217905092915050565b613da08261326b565b67ffffffffffffffff811115613db957613db8613084565b5b613dc38254613bba565b613dce828285613d0a565b600060209050601f831160018114613e015760008415613def578287015190505b613df98582613d7b565b865550613e61565b601f198416613e0f86613beb565b60005b82811015613e3757848901518255600182019150602085019450602081019050613e12565b86831015613e545784890151613e50601f891682613d5d565b8355505b6001600288020188555050505b505050505050565b60006040820190508181036000830152613e8381856132b1565b9050613e926020830184613241565b9392505050565b6000604082019050613eae600083018561336b565b613ebb6020830184613241565b9392505050565b600081519050613ed1816131b9565b92915050565b600060208284031215613eed57613eec612fa4565b5b6000613efb84828501613ec2565b91505092915050565b7f4e487b7100000000000000000000000000000000000000000000000000000000600052603260045260246000fd5b6000606082019050613f48600083018661336b565b613f556020830185613241565b613f62604083018461336b565b949350505050565b7f546f6b656e20646f6573206e6f74206578697374000000000000000000000000600082015250565b6000613fa0601483613276565b9150613fab82613f6a565b602082019050919050565b60006020820190508181036000830152613fcf81613f93565b9050919050565b7f4e6f7420746f6b656e206f776e65720000000000000000000000000000000000600082015250565b600061400c600f83613276565b915061401782613fd6565b602082019050919050565b6000602082019050818103600083015261403b81613fff565b9050919050565b7f4e6f742063726561746f72000000000000000000000000000000000000000000600082015250565b6000614078600b83613276565b915061408382614042565b602082019050919050565b600060208201905081810360008301526140a78161406b565b9050919050565b60006040820190506140c36000830185613241565b6140d06020830184613241565b9392505050565b600081905092915050565b60006140ed8261326b565b6140f781856140d7565b9350614107818560208601613287565b80840191505092915050565b600061411f82856140e2565b915061412b82846140e2565b91508190509392505050565b600081519050919050565b600082825260208201905092915050565b600061415e82614137565b6141688185614142565b9350614178818560208601613287565b61418181613073565b840191505092915050565b60006080820190506141a1600083018761336b565b6141ae602083018661336b565b6141bb6040830185613241565b81810360608301526141cd8184614153565b905095945050505050565b6000815190506141e781612fda565b92915050565b60006020828403121561420357614202612fa4565b5b6000614211848285016141d8565b91505092915050565b7f4e487b7100000000000000000000000000000000000000000000000000000000600052601260045260246000fdfea26469706673582212206fc3b87a1a47e551197077374184c020eefb9350a317c1dc1756bae7d262563e64736f6c634300081c0033",
  "linkReferences": {},
  "deployedLinkReferences": {}
}